:100000000000042079030000610300006303000086
:1000100065030000670300006903000000000000A2
:100020000000000000000000000000006B03000062
:100030006D030000000000006F030000710300006A
:100040008554000041580400FD3D0400596C000037
:10005000716C000073030000D95E000073030000A0
:10006000196900003169000049690000730300004C
:1000700073030000B538040073030000730300002D
:10008000730300003D2C00007303000073030000A5
:100090007D2C000073030000730300007303000055
:1000A0007303000073030000730300007303000078
:1000B00081DD00007303000000000000000000006C
:1000C0007303000099DD0000B1DD0000BD74000085
:1000D0003909040073030000730300007303000078
:1000E000730300007303000071B0040000000000FF
:1000F00000000000C9DD0000000000005172000097
:1001000000000000000000000000000000000000EF
:1001100000000000000000000000000000000000DF
:1001200000000000000000000000000000000000CF
:1001300000000000000000000000000000000000BF
:1001400000000000000000000000000000000000AF
:10015000000000000000000000000000000000009F
:10016000000000000000000000000000000000008F
:10017000000000000000000000000000000000007F
:10018000000000000000000000000000000000006F
:10019000000000000000000000000000000000005F
:1001A000000000000000000000000000000000004F
:1001B000000000000000000000000000000000003F
:1001C000000000000000000000000000000000002F
:1001D000000000000000000000000000000000001F
:1001E000000000000000000000000000000000000F
:1001F00000000000000000000000000000000000FF
:10020000364937480A1A02D0072291438D463549AC
:1002100035480A1A06D00722914381F30988022241
:1002200082F3148831483249324A00F045F83248A6
:100230003249334A00F040F832483349334A00F03B
:100240003BF833483349344A00F036F833483449F0
:10025000344A00F031F834483449354A00F02CF87B
:1002600034483549354A00F027F8354835490022E9
:1002700000F02DF834483549002200F028F83448C1
:100280003449091A082903DB0022026004300160A6
:10029000314A90471F482049884205D002680430FF
:1002A00003B4904703BCF7E700208646EC460020E5
:1002B00000212A4A9047FEE7884207D0521A05D00B
:1002C000037801300B700131013AF9D1704788424F
:1002D00002D002700130FAE77047000000000420ED
:1002E00000E0032000000420000004201477050033
:1002F0000000002014010020D8030000D8030000F3
:1003000014C0040014770500000000200000002045
:10031000C0C00400C0C00400C0C00400C0C00400CD
:10032000C0C00400C0C00400C0C00400C0C00400BD
:100330001177050028780500140100201401002021
:1003400014010020542401205424012058240120A9
:100350005824012058240120A1030000971900000F
:10036000FEE7FEE7FEE7FEE7FEE7FEE7FEE7FEE765
:10037000FEE7FEE7704700BF1048804710484FF087
:100380000701884385460F4880470F48016841F4BC
:1003900070010160BFF34F8FBFF36F8FFFF730BF66
:1003A0000A480B490B4A884207D0521A05D00378F5
:1003B00001300B700131013AF9D17047750300002B
:1003C000000004206993000088ED00E0C0C0040034
:0803D0000000002000000020E5
:1003D800004870474C24012000B585B00190019B6E
:1003E800002B0AD0074B43F001030393019B9B01A9
:1003F8000293039B0298984700E000BF05B05DF8A0
:1004080004FB00BFD0C0040000B583B00190019B7D
:10041800002B0AD04FF47A70FFF7DEFF019B013BF7
:100428000193019B002BF5D100E000BF03B05DF8FC
:1004380004FB08B508F072FF00BF08BD00B589B01D
:10044800039002910192019B002B33D00023079364
:1004580003230693029A079B1344019A1946002026
:1004680008F0A8FE0590079A059B13440793019A84
:10047800059BD31A0193059B002B13D10F4B1B78B7
:1004880083F00103DBB2002B13D10120FFF7BCFF7F
:10049800069B013B0693069B002B03D1074B0022CA
:1004A8001A7007E0054B01221A70019B002BD1D16D
:1004B80000E000BF00BF09B05DF804FB1401002094
:1004C80000B585B003900291054B00934023054A7F
:1004D8000299039800F012F800BF05B05DF804FB1C
:1004E800450400001801002082B0019000BF02B04E
:1004F800704782B0019000BF02B0704700B5A1B04C
:100508000590049103920293049803F0CEFC039B98
:100518001593029B16930023179300238DF86030E0
:1005280000231993229B1A9300231F930FA91F9B43
:100538000822049803F092FD08231F93119B12933D
:10054800BDF84030ADF84C30BDF84230ADF84E3013
:1005580000238DF851309DF83C3003F00303DBB2E3
:10056800012B26D10F9BC3F395231C939DF83C3098
:10057800C3F3C203DBB28DF85030BDF83C30C3F38F
:100588008313DBB21B931B9B9A0009A91F9B04983A
:1005980003F064FD1B9B9B001F9A13441F9312AA30
:1005A80009A915AB009313461B9A1C9800F0C4FECA
:1005B8002FE09DF83C3003F00303DBB2022B28D177
:1005C800BDF83E30C3F389139BB21E939DF83C30AF
:1005D800C3F3C203DBB28DF850301E9B082B28BF33
:1005E80008231D9307A91F9B1D9A049803F036FD45
:1005F8001F9A1D9B13441F931E9A1D9BD31A1E936B
:1006080015AB12AA07A81D9900F038FF1E9B002BF6
:10061800E3D1049803F058FC00BF21B05DF804FB57
:1006280082B00190019BDB6801225A7100BF02B0C1
:100638007047000000B583B04FF0FF330193FFF718
:10064800F8FE0421084800F093FD0190019B002B5F
:1006580003DA0649412002F0BFFD0348FFF7E0FF37
:1006680000BF03B05DF804FB88C00400E8C00400C4
:1006780000B583B001900091019B1B681B6800992D
:100688000198984700BF03B05DF804FB00B583B03C
:100698000190019B1B685B680198984700BF03B0F5
:1006A8005DF804FB00B583B00190019B1B689B6853
:1006B8000198984700BF03B05DF804FB82B0019031
:1006C8000B468DF80330019BDB689DF803201A71F7
:1006D80000BF02B0704782B00190019BDB681B79B4
:1006E800184602B0704782B00190019BDB68012276
:1006F8005A7100BF02B0704782B00190019BDB685D
:100708005B79184602B0704700B585B0019000913A
:10071800154BFF229A60144B00221A60124B0022DC
:100728005A60114B0022C3F818240F4B0022C3F85B
:1007380014240D4B002283F820240C4803F01AFBE4
:100748000390039B002B01D0039B08E0084803F0AB
:10075800A5FC084A084BD31ADB0802930023184665
:1007680005B05DF804FB00BFC002002098C004007B
:1007780034C1040088C0040028C00400024A034BA6
:10078800D31ADB081846704788C0040028C0040044
:1007980000B587B001900B468DF803309DF8033003
:1007A800002B1FD0FFF7EAFF04900023059313E006
:1007B800059B9B000E4A13440393039B1B881A4610
:1007C800019B1B689A4204D1019B059A1A60002379
:1007D80009E0059B01330593059A049B9A42E7D3E8
:1007E800052300E00023184607B05DF804FB00BFAE
:1007F8000000002000B585B001900B468DF803304D
:100808009DF8032001AB11461846FFF7C1FF0346C8
:10081800002B07D1019BDB00054A13440393039B7C
:100828001B6800E00023184605B05DF804FB00BF14
:1008380028C0040084B001900B468DF80330019B5A
:10084800DB00174A134402939DF80330013B032B46
:100858001CD801A252F823F07108000079080000A2
:10086800810800008B08000002238DF80F3011E08A
:1008780004238DF80F300DE0029B1B798DF80F30A3
:1008880008E0029B5B798DF80F3003E000238DF8B8
:100898000F3000BF9DF80F30184604B0704700BFF6
:1008A80028C0040084B00190009100238DF80F3017
:1008B800019B1B7803F00403DBB2002B24D0019BBF
:1008C8001B78C3F30103DBB2012B02D0022B0CD03F
:1008D80017E0009B1B68019A1288C2F38312D2B2F8
:1008E80013449A1C009B1A600BE0009B1B68019A3A
:1008F8005288C2F3891292B213449A1C009B1A6060
:1009080000BF01238DF80F309DF80F30184604B052
:100918007047000000B58BB00023ADF826303E4884
:1009280002F0E8FC3D4802F0E5FC3D4B5B680493AF
:100938003B4B9B680693049A069B134002339B002B
:10094800374A13440433089304AB19460898FFF751
:10095800A9FF0346002B09D0049A069B13400233D3
:100968009B002F4A134404330893EDE700BF00238C
:10097800079311E0049B5A1C0492069A1340079AA5
:10098800920001A90A44264902339B000B445B6884
:100998001360079B01330793079B012BEAD99DF846
:1009A8000430C3F30103DBB2012B10D0022B1CD19E
:1009B800BDF80A30ADF82630BDF80630C3F3891308
:1009C8009BB203339A08049B1344049313E0BDF8C5
:1009D8000A30ADF82630BDF80430C3F38313DBB218
:1009E8001A46049B1344049305E00E494FF4BF7064
:1009F80002F0F2FB00BF094802F088FC0590059B55
:100A0800002B02D0049B064A5360BDF826301846D6
:100A18000BB05DF804FB00BFD8060020D406002008
:100A2800C002002044C1040000B585B00021074879
:100A380002F0E9FB0390039B0293029B83F31003EC
:100A48000193019B184605B05DF804FBDC06002005
:100A580000B589B00390029101920093039B1B0C8F
:100A68000793FFF7E1FF0690FFF788FE0246079B12
:100A7800934204D3214940F2A31002F0ADFB069B38
:100A88001904009B5A1C0A9B1340079A0A431C49E5
:100A980002339B000B445A60009A0A9B13400233AE
:100AA8009B00174A134404330593039B03F0070381
:100AB800D9B2059A137861F3C5031370019B03F04B
:100AC8000F03D9B2059A138861F389131380029B27
:100AD800C3F31501059A136861F39F231360059A00
:100AE8001378012161F301031370059A13786FF3EA
:100AF8008203137000BF09B05DF804FB44C1040011
:100B0800C002002000B58BB00390029113468DF807
:100B18000730039B0233089301238DF81F30002010
:100B280002F07EF93E4B1A68029B1A603C4B9A68A9
:100B38003B4B59683A4B1B68CB1A13440133099352
:100B480014E00121374802F0A5FBFFF7E3FE05900A
:100B58000599344802F09EFB314B9A68304B59682E
:100B68002F4B1B68CB1A134401330993089A099B2E
:100B78009A42E6D89DF81F30002B48D000230493F2
:100B88009DF80730002B17D09DF81030012262F332
:100B980001038DF810309DF8103043F004038DF8F0
:100BA8001030039B03F00F03DAB2BDF8103062F384
:100BB8008913ADF8103016E09DF81030022262F368
:100BC80001038DF810309DF8103043F004038DF8C0
:100BD8001030039BC3F309039AB2BDF8123062F3D5
:100BE8008F13ADF812300E4B1A680D4B9B681340EB
:100BF80002339B000A4A134404330693049A069B63
:100C08001A60074B1A68089B1344054A13600020B2
:100C180002F01AF99DF81F3018460BB05DF804FB76
:100C2800C0020020DC06002000B58BB005900491BE
:100C3800039202931F4B9B68079306AB0122194648
:100C48000298FFF75FFF0346002B24D0069B023370
:100C580009930023089311E0089B9B00039A1A4408
:100C6800099B591C099107990B40126811490233D5
:100C78009B000B445A60089B01330893089A029B17
:100C88009A42E9D3069A079B00931346029A04995D
:100C98000598FFF7DDFE074B93F82034002B05D0AD
:100CA80000BF00F065F80346002BFAD100BF0BB077
:100CB8005DF804FBC002002000B583B001900091EC
:100CC8000023002200990198FFF7AEFF00BF03B090
:100CD8005DF804FB00B587B0039002910192019B77
:100CE800059305AA012302990398FFF79DFF00BF0A
:100CF80007B05DF804FB00B587B00390029101923C
:100D08000093019B0493009B059304AA0223029974
:100D18000398FFF789FF00BF07B05DF804FB00B533
:100D28008BB00390029101920093019B0593009B65
:100D380006930C9B07930D9B08930E9B099305AA9A
:100D4800052302990398FFF76FFF00BF0BB05DF80A
:100D580004FB0000054B5A68044B1B689A420CBF01
:100D680001230023DBB21846704700BFC0020020F1
:100D780000B599B0FFF7EEFF0346002B01D0002322
:100D8800B5E19A4B0022C3F81824BFF34F8F974B55
:100D98005B680493954B9B681093049A109B1340CF
:100DA80002339B00914A1344043311930023179391
:100DB8000023169300230F9304AB19461198FFF7ED
:100DC80071FD0346002B19D0884BD3F81834002B3B
:100DD80014D1864B1A68049B9A4205D8834B1B682A
:100DE800824A5360002382E1049A109B1340023325
:100DF8009B007E4A134404331193DDE700231593C7
:100E080011E0049B5A1C0492109A1340159A920000
:100E180001A90A44754902339B000B445B681360BF
:100E2800159B01331593159B012BEAD99DF80430C6
:100E380003F00303DBB2022B40F09C80BDF80630C0
:100E4800C3F389139BB20D93BDF80630C3F389131E
:100E58009BB2502B28BF50239BB20C930C9BC3F31F
:100E680009039AB2BDF8063062F38F13ADF8063065
:100E78000C9B08330B939DF80430C3F3C203DBB219
:100E88000F930B995A4802F080FF1790179B002B7D
:100E980000F0D080179803F008F801A9169B0822E3
:100EA800179803F0BDF8169B08331693049BDA4392
:100EB800109B134001339B000A930C9A0A9B9A4299
:100EC80042D90A9B002B08D0049A109B1340023386
:100ED8009B00464A1344043300E0464B08930A9BA0
:100EE800002B02D00A9BDBB201E00C9BDBB28DF831
:100EF8001F300A9B002B01D03E4B00E000230693D5
:100F08000A9B002B06D00C9BDAB20A9BDBB2D31AE1
:100F1800DBB200E000238DF817309DF81F20169BE8
:100F28000899179803F07CF89DF81F30169A134417
:100F38001693069B002B16D09DF81720169B069932
:100F4800179803F06DF80EE0049A109B13400233D3
:100F58009B00264A134404330993169B0C9A09995B
:100F6800179803F05DF80D9B03339A08049B13440C
:100F780004935FE09DF8043003F00303DBB2012B18
:100F880058D1BDF80430C3F38313DBB2062B28BF56
:100F98000623DAB2BDF8043062F38913ADF80430E1
:100FA800BDF80430C3F38313DBB202330E939DF80C
:100FB8000430C3F3C203DBB20F930E9B9B001946A8
:100FC8000B4802F0E2FE1790179B002B32D01798BF
:100FD80002F06BFF01A9169B0822179803F020F86E
:100FE800169B08331693002315931AE0C0020020BD
:100FF80098C00400CC020020049B5A1C0492109A4A
:10100800134002339B003C4A1344191D169B0422CB
:10101800179803F005F8169B04331693159B0133B4
:101028001593BDF80430C3F38313DBB21A46159B3E
:101038009342E1D3179B002B39D02F4BD3F81034B0
:1010480014932D4BD3F81834002B1BD0179802F0AB
:101058003BFF46E000238DF84F301498FFF74CFB18
:101068000346002B02D001238DF84F309DF84F30F6
:10107800002B03D017991498FFF7FAFA149BDB6832
:101088001B681493149B002BE4D1179802F01CFFE3
:10109800002001F0C5FE184BD3F81834002B02D1FC
:1010A800049B154A5360002001F0CEFE19E0124B54
:1010B800D3F81034129306E01298FFF7F3FA129B54
:1010C800DB681B681293129B002BF5D10B4A0C4B63
:1010D800D31ADB081B0443F002030A491846FFF73A
:1010E800EBFDFFF737FE034683F00103DBB218463A
:1010F80019B05DF804FB00BFC002002060C0040006
:1011080028C0040088C1040000B585B000230393FB
:1011180023E0164BD3F81034029301238DF80730DF
:101128000FE00298FFF7D7FA03461A46039B93424B
:1011380003D100238DF8073006E0029BDB681B68AB
:101148000293029B002BECD19DF80730002B01D0B5
:10115800039B07E0039B01330393039B092BD8DD13
:101168004FF0FF33184605B05DF804FBC0020020BD
:1011780000B585B001900B468DF80330FFF7C4FF2A
:101188000390039BB3F1FF3F01D1039B22E0039B34
:10119800DBB219460198FFF791FA104BD3F81034D7
:1011A800002B08D10D4A019BC2F81034019BDB6863
:1011B80000221A600DE0094BD3F81034DA68019B5D
:1011C800DB6812681A60054BD3F81034DB68019AA3
:1011D8001A60039B184605B05DF804FBC0020020A6
:1011E80000B583B00C4BD3F8103401930A4B01229D
:1011F80083F8202409E00198FFF775FA0198FFF7B2
:1012080045FA019BDB681B680193019B002BF2D117
:1012180000BF03B05DF804FBC002002082B001905B
:10122800009100BF02B0704710B584B003900291DE
:10123800039BDB88002B0AD0039BDB881A461F4BD5
:10124800009313461E4A1F49029802F08DF9039B2A
:101258001B7A052B2ED0039B5B7A002B12D0039BA5
:101268009B881A46039B1B7A19461046FFF7E2FA39
:1012780003461A46144B53F822301A46134902986B
:1012880002F072F9039B1B6819460298FFF7C6FF24
:10129800039B1B7A1A460E4B53F82240039B9B88EC
:1012A80000211846FFF7A6FA034622460949029884
:1012B80002F05AF900BF04B010BD00BFBCC1040061
:1012C800CCC1040004C204001C0000201CC204009D
:1012D8000800002020C2040000B585B003900291E8
:1012E80013468DF80730039B1B7A052B0FD0039B01
:1012F8005B7A002B06D00D4B1B681A460C490298E6
:1013080002F032F90B49029802F02EF907E09DF835
:101318000730002B03D00749029802F025F90298FC
:1013280002F000F900BF05B05DF804FB1C000020C6
:101338001CC204002CC2040030B58BB00790069183
:10134800059204930E9B1B7B8DF827300E9B002281
:101358001A730E990498FFF767FF059B062B7FD831
:1013680001A252F823F000BF8D130000971300006C
:10137800A7130000BB130000D913000001140000DC
:101388003114000007990E9802F0EEF869E0069B08
:101398001B681A4607990E9802F0E6F861E0069B6A
:1013A8001A68069B04331B6807990E9802F0DCF84C
:1013B80057E0069B1A68069B04331968069B083396
:1013C8001B6800930B4607990E9802F0CDF848E089
:1013D800069B1968069B04331868069B08331B682C
:1013E800069A0C3212680192009303460A4607993E
:1013F8000E9802F0B9F834E0069B1868069B04338F
:101408001C68069B08331B68069A0C3212680699FA
:101418001031096802910192009323460246079908
:101428000E9802F0A1F81CE0069B1C68069B04338A
:101438001D68069B08331B68069A0C3212680699C9
:1014480010310968069814300068039002910192DF
:1014580000932B46224607990E9802F085F800E083
:1014680000BF00220E990498FFF736FF0E9B9DF8E7
:1014780027201A7300BF0BB030BD00BF00B587B07E
:101488000390029101920093029B082B60D8009B65
:101498001B7B8DF81330009B00221A73009901986A
:1014A800FFF7C2FE0023059314E0059A029B9A42B7
:1014B80009D2039A059B13441B781A4626490098BB
:1014C80002F052F803E02549009802F04DF8059B18
:1014D80001330593059B072BE7D92149009802F0B2
:1014E80043F80023059326E0059A029B9A421BD2F3
:1014F800039A059B13441B788DF812309DF812301F
:101508007E2B0AD89DF8123018460CF08DFD034644
:10151800002B02D09DF8123000E02E231A46114904
:10152800009802F021F803E00F49009802F01CF837
:10153800059B01330593059B072BD5D901220099FB
:101548000198FFF7C9FE009B9DF813201A7300E06D
:1015580000BF07B05DF804FB30C2040038C20400C5
:101568003CC2040040C2040044C2040000B583B079
:101578000190019B1B682F2B04D90B494FF4F37082
:1015880001F02AFE019B1B681F2B02D84FF0A043D5
:1015980006E0019B1B6803F01F02019B1A60034BC6
:1015A800184603B05DF804FB48C20400000300506D
:1015B80000B585B00190084611461A4603468DF8D5
:1015C80003300B468DF8023013468DF8013001AB1D
:1015D8001846FFF7CBFF03909DF803209DF80230D3
:1015E8005B001A439DF801309B001A439DF81830A0
:1015F8001B0242EA03019DF81C301B04019A19439F
:10160800039B02F5E07243F8221000BF05B05DF8B5
:1016180004FB00B585B003900023019300230093D9
:101628000023012201210398FFF7C2FF00BF05B084
:101638005DF804FB00B585B003900B468DF80B30C0
:101648009DF80B20002301930023009313460022EA
:1016580000210398FFF7ACFF00BF05B05DF804FB5D
:1016680000B585B0019001AB1846FFF77FFF0390E6
:10167800019B012202FA03F31946039800F069F866
:1016880000BF05B05DF804FB00B585B0019001AB63
:101698001846FFF76BFF0390019B012202FA03F340
:1016A8001946039800F05FF800BF05B05DF804FB29
:1016B80000B585B0019001AB1846FFF757FF0390BE
:1016C800039BD3F804350293029BDA43019B012163
:1016D80001FA03F31A40039BC3F80825019B012272
:1016E8009A40029B1A40039BC3F80C2500BF05B023
:1016F8005DF804FB00B583B001900091009B002BBE
:1017080003D10198FFF7C0FF02E00198FFF7A8FF97
:1017180000BF03B05DF804FB00B585B0019001ABD4
:101728001846FFF723FF0390039800F00AF80246D3
:10173800019B22FA03F303F00103184605B05DF894
:1017480004FB82B00190019BD3F80435184602B01F
:10175800704782B001900091019B009AC3F8082558
:1017680000BF02B0704782B001900091019B009ABF
:10177800C3F80C2500BF02B07047000000B585B063
:101788000190019B032B03D911493A2001F024FD54
:10179800104A019B13441B781846FFF7BDFF034608
:1017A800002B14BF012300238DF80F309DF80F3054
:1017B800002B14BF01230023DBB283F00103DBB24B
:1017C80003F00103DBB2184605B05DF804FB00BF67
:1017D80078C20400A4C2040000B583B00190019B44
:1017E800032B03D90749412001F0F6FC064A019B67
:1017F80013441B7800211846FFF77CFF00BF03B095
:101808005DF804FB78C20400A4C2040000B583B0EC
:101818000190019B032B03D90749472001F0DCFC09
:10182800064A019B13441B7801211846FFF762FF03
:1018380000BF03B05DF804FB78C20400A4C2040032
:1018480000B583B00023019305E00198FFF7DEFFA0
:10185800019B01330193019B032BF6D900BF03B011
:101868005DF804FB00B583B00023019305E00198FF
:10187800FFF7B2FF019B01330193019B032BF6D9BC
:1018880000BF03B05DF804FB00B583B00190019B75
:10189800032B03D907495F2001F09EFC064A019BF0
:1018A80013441B781846FFF703FF00BF03B05DF829
:1018B80004FB00BF78C20400A4C2040000B583B0D2
:1018C8000023019309E0094A019B13441B78184639
:1018D800FFF79FFE019B01330193019B032BF2D974
:1018E800FFF7AEFF00BF03B05DF804FBA4C204001D
:1018F80000B583B0002301930AE0094A019B134411
:101908001B7803211846FFF795FE019B01330193CD
:10191800019B032BF1D900BF03B05DF804FB00BFA6
:10192800A8C2040084B001904FF0FF330293002353
:1019380003930DE00A4A039B13441B781A46019B44
:10194800934202D1039B029305E0039B0133039367
:10195800039B032BEED9029B184604B0704700BFC7
:10196800A8C2040000B583B00190019B03F00103F5
:10197800002B01D0FFF7A2FF019B03F00203002B0D
:1019880001D0FFF7B5FF00BF03B05DF804FB08B551
:101998000AF0A7FF0BF0C0F9FCE700002DE9F04FB3
:1019A8008BB0019000238DF827309DE0544B1A68C6
:1019B8009DF82730DB0013440893089B1B781946D1
:1019C8004FF001024FF00003A1F1200CC1F12000FB
:1019D80003FA01F902FA0CFC49EA0C0922FA00F0B0
:1019E80049EA000902FA01F8CDE90689454BD3E92D
:1019F8000001DDE9062302EA000A03EA010B5AEABC
:101A08000B036CD0DDE906236FEA02006FEA0301DD
:101A18003C4BD3E900AB0AEA00020BEA010339495F
:101A2800C1E90023089B1B78184604F037FA0346DF
:101A38008DF81730089B1B7819464FF001024FF0BC
:101A48000003A1F1200CC1F1200003FA01F502FA0C
:101A58000CFC45EA0C0522FA00F0054302FA01F4F1
:101A6800294BD3E9002304EA020A05EA030B9DF88F
:101A780017204FF0000308990978A1F1200CC1F153
:101A8800200003FA01F702FA0CFC47EA0C0722FAD5
:101A980000F0074302FA01F6BB4508BFB2451ED164
:101AA8009DF81730089A5278012A0CBF01220022AB
:101AB800D2B293420CBF01230023DBB2DAB24FF05B
:101AC8000003CDE90223089B5B68002B07D0089B25
:101AD8005B68089A12789DF80810104698479DF898
:101AE800273001338DF82730084B1B789DF82720C5
:101AF8009A42FFF45BAF00BF0BB0BDE8F08F00BFA8
:101B0800E40600201807002010070020E80600203F
:101B180070B586B001900A468DF803204FF0010198
:101B28004FF000020198A0F12006C0F1200502FA4A
:101B380000F401FA06F6344321FA05F52C4301FABC
:101B480000F3CDE90434304B184601F02FF9039027
:101B5800039B002B54D12D4BD3E90012DDE904344B
:101B680003EA010504EA020655EA060337D101989B
:101B780004F094F90346002B0CD0254BD3E900124E
:101B8800DDE9043443EA010544EA0206204AC2E9D1
:101B980000560FE0DDE904346FEA03016FEA04023E
:101BA8001B4BD3E9005605EA010306EA0204184A6A
:101BB800C2E90034154BD3E90012DDE9043443EAE5
:101BC800010544EA0206114AC2E900560E48114BC3
:101BD8001B680022194601F0B7F8039011E0DDE90F
:101BE80004346FEA03016FEA0402084BD3E9005694
:101BF80005EA010306EA0204044AC2E9003400E0E7
:101C080000BF06B070BD00BFF00600201807002016
:101C180010070020EC06002010B58AB003900B4690
:101C280001928DF80B30019B042B01D807235AE051
:101C380004F026F8034683F00103DBB2002B09D039
:101C480003F0CCFF0990099B0893089B002B01D057
:101C5800089B48E0254A039B1360254A9DF80B30F2
:101C68001370244A019B1360234A4FF000034FF07E
:101C78000004C2E90034214A4FF000034FF0000489
:101C8800C2E9003422E09DF80B30DB00039A1344CC
:101C9800079305AB00210A461A800A469A70032367
:101CA8008DF81430079B9B788DF81530079B1B78AF
:101CB800184605AB124A194603F0EEFF0990099B36
:101CC8000693069B002B01D0069B0CE09DF80B3079
:101CD8005A1E8DF80B20002BD5D10A4A00210A483C
:101CE80001F002F8034618460AB010BDE4060020C9
:101CF800E8060020EC060020100700201807002046
:101D0800191B0000A5190000ACC2040000B583B07F
:101D1800114B1B68002B03D11049BA2001F05CFA63
:101D2800002301930CE00C4B1A68019BDB00134461
:101D38001B780121184604F029F8019B013301930F
:101D4800074B1B781A46019B9342ECD30023184695
:101D580003B05DF804FB00BFE4060020B0C2040035
:101D6800E806002086B003900291019201238DF8C5
:101D780017309DF817301F4A039B13601D4A029BBA
:101D880053601C4A019B9360039B44F201029342F7
:101D980012D044F20202934221D1019B154AD3602A
:101DA800144BDB681B881A46124B9A61114BDB688F
:101DB8005B68104AD36112E0019B0E4A13610D4B18
:101DC8001B699B680B4A53610A4B1B691B68094ACC
:101DD8009361084B1B695B68064AD36100BF72B602
:101DE80000BF9DF81730DBB2002BFAD162B600BFF6
:101DF80006B070472007002000B583B0029000911C
:101E0800019244F2010071466A4600F003F803B0FB
:101E180000BD00BF30B58BB007900691059272B631
:101E2800FFF7DEF900BFFEF7A3FF0346002BFAD148
:101E3800079B44F20102934215D044F202029342F6
:101E48003ED1059B09932C4A2C4BD31ADB081B0463
:101E580043F00100099B5B681A46099B1B882849C7
:101E6800FEF749FF39E0059B0893234A234BD31A11
:101E7800DB081B0443F00104089B9D68089B9B68D2
:101E8800184602F029F903461846089B5B6819466C
:101E9800089B1B68069A02920193009103462A4602
:101EA80018492046FEF73BFF134A144BD31ADB08A8
:101EB8001B0443F0010314491846FEF7FDFE0CE02D
:101EC8000D4A0E4BD31ADB081B0443F00103069A94
:101ED8000E491846FEF7FEFE00BF0D4B1B6803F0C7
:101EE8000103002B00D000BE059A06990798FFF75A
:101EF80039FF00BF0BB030BD60C0040028C004002B
:101F0800ECC2040008C3040030C3040044C3040046
:101F1800F0ED00E082B00190019B03F00303002B79
:101F28000CBF01230023DBB2184602B07047000043
:101F380082B003468DF807309DF807309AB2064BF9
:101F48001B889A4204D29DF807300133DBB200E0C7
:101F58000023184602B070474C07002000B583B034
:101F68000B4B1B788DF807300A4B1B78DBB21846F1
:101F7800FFF7DEFF03461A469DF8073093420CBF71
:101F880001230023DBB2184603B05DF804FB00BF51
:101F9800480700204907002082B0084B1B788DF8BD
:101FA8000730074B1B78DBB29DF807209A420CBF1D
:101FB80001230023DBB2184602B07047480700200F
:101FC8004907002000B585B003460092ADF80630F9
:101FD8000B46ADF80430BDF8043001339BB2DB008A
:101FE800ADF80E300098FFF795FF034683F0010324
:101FF800DBB2002B01D0072317E00E4A009B1360C9
:10200800BDF80E30009A13440B4A13600B4B0022A4
:102018001A700B4B00221A700A4ABDF8063013805A
:10202800094ABDF8043013800023184605B05DF84E
:1020380004FB00BF40070020440700204907002098
:10204800480700204A0700204C07002000B587B049
:1020580003900B460192ADF80A30334B1B88BDF84C
:102068000A209A4259D84FF6FF73ADF81230002073
:1020780000F0D6FEFFF772FF0346002B0ED12B4B64
:102088001B78DBB2ADF81230284B1B78DBB2184650
:10209800FFF74EFF03461A46244B1A70002000F043
:1020A800D3FEBDF812304FF6FF72934232D0204B68
:1020B8001A68BDF81230DB001344019A1A60039BBA
:1020C800002B1CD0BDF80A30002B18D0194B1B6808
:1020D800BDF812201449098801FB02F21344BDF827
:1020E8000A20039918460CF07CFA114B1A68BDF8BF
:1020F8001230DB001344BDF80A209A8007E00C4B2D
:102108001A68BDF81230DB00134400229A800023BD
:10211800059304E00423059301E009230593059B37
:10212800184607B05DF804FB4A070020490700205D
:10213800400700204407002000231846704700008D
:1021480000B585B02FE0204B1B78DBB2ADF80E3020
:102158001E4B1B68BDF80E201D49098801FB02F2C1
:10216800134402931B4B1A68BDF80E30DB0013446E
:102178009B88ADF80630174B1A68BDF80E30DB00A7
:1021880013441B680093BDF80620009B1146029873
:1021980098470D4B1B78DBB21846FFF7C9FE03467C
:1021A8001A46094B1A70FFF7C7FF034683F001036D
:1021B800DBB2002B04D0FFF7EFFE0346002BC2D0A2
:1021C80000BF05B05DF804FB480700204407002065
:1021D8004A0700204007002082B003468DF80730E8
:1021E8009DF8073003F01F0205499DF907305B0988
:1021F800012000FA02F241F8232000BF02B0704724
:1022080000E100E082B003468DF807309DF8073002
:1022180003F01F0206499DF907305B09012000FA07
:1022280002F2203341F8232000BF02B0704700BFFC
:1022380000E100E082B003468DF807309DF80730D2
:1022480003F01F0206499DF907305B09012000FAD7
:1022580002F2403341F8232000BF02B0704700BFAC
:1022680000E100E082B003468DF807309DF80730A2
:1022780003F01F0206499DF907305B09012000FAA7
:1022880002F2603341F8232000BF02B0704700BF5C
:1022980000E100E082B0034600918DF807309DF917
:1022A8000730002B0CDA009BDAB20C499DF8073096
:1022B80003F00F03043B5201D2B20B441A7609E033
:1022C800009BDAB206499DF907305201D2B20B449D
:1022D80083F8002300BF02B0704700BF00ED00E0A4
:1022E80000E100E000B585B00190019B002B0AD009
:1022F800074B43F001030393019B9B010293039B4C
:102308000298984700E000BF05B05DF804FB00BFE5
:10231800A0C3040000B583B00190064A019BC2F82F
:10232800083506211120FFF7B5FF00BF03B05DF89F
:1023380004FB00BF0010014008B50D4B4FF480327C
:10234800C3F844230A4B4FF48032C3F80423112006
:10235800FFF788FF1120FFF73FFF054B01221A60A6
:102368002F20FFF7BFFF034B01221A7000BF08BDE3
:10237800001001406E08002008B51120FFF742FF49
:102388000E4B4FF48032C3F848230C4B4FF4803285
:10239800C3F80823094B01225A602F20FFF7A2FF38
:1023A800064B01229A60064B00221A602F20FFF785
:1023B80099FF044B00221A7000BF08BD00100140AD
:1023C800600800206E080020024BD3F80435184638
:1023D800704700BF0010014082B001900091019A3F
:1023E800009BD31A23F07F43184602B070470000C1
:1023F80082B00190034A019BC2F8403500BF02B089
:10240800704700BF0010014086B00190284B1B6840
:10241800002B03D1264A019B136045E0019B1A68F3
:10242800234B1B681B689A4210D8214B1B681968FC
:10243800019B1A681E4B1B688A1A1A601C4B1A6883
:10244800019BDA611A4A019B13602DE0019B1B680E
:102458000393174B1B680593154B1B68049309E0FE
:10246800049B1B68039AD31A0393049B0593049B4C
:10247800DB690493049B002B04D0049B1B68039A1C
:102488009A42EDD8049B002B05D0049B1A68039B45
:10249800D21A049B1A60019B039A1A60019B049A42
:1024A800DA61059B019ADA6100BF06B0704700BF88
:1024B8005C08002000B587B001902A4B1B68039385
:1024C800284B1B680593059B049308E0049A019B1D
:1024D8009A4208D0049B0593049BDB690493049BF0
:1024E800002BF3D100E000BF049B002B01D1002397
:1024F80033E0059A049B9A4214D11A4B1B68DB6996
:10250800184A1360174B1B68002B0BD1164B01227E
:102518009A60164B00221A60154B01221A702F2060
:10252800FFF7E0FE049B1B680293049BDA69059B96
:10253800DA61059BDB690493049B002B05D0049B9F
:102548001A68029B1A44049B1A60064B1B68039A7C
:102558009A4214BF01230023DBB2184607B05DF886
:1025680004FB00BF5C080020001001406008002048
:102578006F08002008B51120FFF75CFE00BF08BDFA
:1025880008B51420FFF756FE00BF08BD00B585B09A
:1025980001900B46ADF80230BDF80230082B0CBF95
:1025A80001230023DBB20393039B002B05D1094AC7
:1025B80040F273110020FFF71FFC019B0293029B5E
:1025C8001B68029A52681046984700BF05B05DF82C
:1025D80004FB00BF5CC3040000B587B00190019BF9
:1025E8005B690293019B9B69039302AB0A4A08212A
:1025F8001846FFF72BFD0590059B0493049B002BC1
:1026080005D0064A40F287110498FFF7F5FB00BF92
:1026180007B05DF804FB00BF952500005CC304000B
:1026280000B585B02B4B1B68002B4ED000230193BF
:10263800FFF7CAFE0246284B1B6819461046FFF7EB
:10264800CBFE0290234B1B6803931DE0039B1B6882
:10265800029A9A421CD3039B1B68029AD31A0293CC
:10266800039B1B68019A13440193039B0093039BEC
:10267800DB690393009B1B7C002B05D0009B002289
:102688001A740098FFF7A8FF039B002BDED100E027
:1026980000BF124B1A78124B1B789A420CD1104B80
:1026A8001B780133DAB20E4B1A700D4B1B78022BD4
:1026B80002D10B4B00221A70094B1B781946094AA4
:1026C800019B42F82130FFF75BFF00BF05B05DF8C2
:1026D80004FB00BF5C080020600800206C08002094
:1026E8006D0800206408002082B00190184B1A7809
:1026F800184B1B789A4223D0154B1B780133DAB25A
:10270800134B1A70124B1B78022B02D1104B00226C
:102718001A700F4B1B781A460F4B53F82220019B57
:102728001A60019B1A680D4B1B6813440B4A13600F
:102738000A4B1B6823F07F43084A1360012303E018
:10274800019B00221A600023184602B0704700BFA0
:102758006C0800206D080020640800206008002034
:1027680088B00390029101920023079338E0204B30
:102778001B680693069B1B68039A9A4206D2069B1F
:102788001A68039BD21A069B1A602DE0069B1B68E9
:10279800039AD31A0393069B1B68079A134407935B
:1027A800069B00221A60124B1B680593069BDB6987
:1027B8000F4A1360069BDB68002B11D0029A079B17
:1027C800134423F07F42069B5A60069BDA68069BF7
:1027D8009A60019B1A68069BDA61019B059A1A6048
:1027E800034B1B68002BC2D100BF08B0704700BF65
:1027F8005C08002000B589B0019000238DF81F30D7
:10280800664B1B680593AAE0019B002B05D0019B32
:102818000693069BDB69019361E0614B1B781A46BE
:1028280013465B001344DB005D4A134404330493EE
:102838005B4B1B780133DAB2594B1A70584B1A7834
:10284800574B9B789A4202D1554B00221A70049B31
:102858005B680693049B1B78022B04D0032B1BD0C8
:10286800012B1FD01DE0049B5B681846FFF722FE72
:102878000346002B02D001238DF81F30069B00224F
:102888001A746CE0454B1B680393039B00221A746F
:10289800039BDB69414A1360404B1B68002BF1D155
:1028A8005DE05CE000BF069B1B7C002B00D056E07F
:1028B800049B9A68069B5A60049BDA68069B9A6098
:1028C800049B1A69069BDA60049B5A69069B9A6105
:1028D800344B1B78002B02D0069B00225A60069BC3
:1028E8005A68314B1B68D31A23F07F432F4A93420F
:1028F8000ED8069B5A682C4B1B6819461046FFF7E2
:102908006BFD0246069B9B681A44069B1A6017E0FB
:10291800254B1A68069B5B6819461046FFF75CFD55
:102928000290069B9B68029A9A4206D2069B9A6876
:10293800029BD21A069B1A6002E0069B00221A60CC
:10294800069B00225A60069B00229A60069B012281
:102958001A74069B0022DA610698FFF755FD019B61
:10296800002B7FF451AF0E4B1A780D4B5B789A42CF
:102978007FF44AAF9DF81F30002B04D1074B1B682A
:10298800059A9A4201D0012300E0002303F00103D5
:10299800DBB2184609B05DF804FB00BF5C080020F4
:1029A800500700206F08002060080020FEFF7F000D
:1029B80010B588B00190274B1B68002B44D0254BDD
:1029C8001B681B680793FFF7FFFC0690224B1B68E8
:1029D800059305990698FFF7FFFC03460333049314
:1029E8001E4B1B7883F00103DBB2002B01D0FFF7ED
:1029F800A3FC049A079B934238BF1346059A1344D5
:102A08000593059B23F07F4305930598FFF7F0FC9A
:102A1800FFF7DAFC039006990398FFF7DDFC0346FD
:102A2800DC1C06990598FFF7D7FC03469C420DD994
:102A3800FFF7CAFC03461846FFF7DAFC2F20FFF71A
:102A480051FCFFF797FD01E0FFF796FC00BF08B0C7
:102A580010BD00BF5C080020600800206E08002040
:102A680000B587B00023019300238DF81730194B68
:102A78001B680493184B1B6803936B461846FFF7B3
:102A880033FE03468DF80B309DF80B30002B08D031
:102A9800009B01AA04991846FFF762FE01238DF8EE
:102AA8001730019B1846FFF7A5FE0346002B02D0FE
:102AB80001238DF817309DF81730002B02D00398AA
:102AC800FFF776FF054B00221A7000BF07B05DF8CC
:102AD80004FB00BF600800205C0800206F0800208D
:102AE80082B003468DF80730034A9DF807305370CB
:102AF80000BF02B0704700BF5007002084B00190AB
:102B0800144B5B7801338DF80F30124B9B789DF88E
:102B18000F209A4202D100238DF80F300D4B1B78FD
:102B28009DF80F209A4201D100230FE0019B9DF8E8
:102B38000F201A70074B5B781A4613465B00134444
:102B4800DB00044A134404330293029B184604B082
:102B5800704700BF5007002000B589B0039002916C
:102B68000192009300230793002000F059F90DF11A
:102B780017031846FFF7C2FF0690069B002B02D1E9
:102B88000423079318E0069B01221A70069B039AF8
:102B98005A60FFF719FC0246069B9A60069B029A48
:102BA800DA60069B019A1A61069B009A5A619DF8A1
:102BB80017301846FFF794FF002000F045F9079BEF
:102BC800002B01D1FFF7DCFC079B184609B05DF824
:102BD80004FB00B587B001900B468DF80330002345
:102BE8000593002000F01CF90DF10F031846FFF7BC
:102BF80085FF0490049B002B02D1042305930BE06E
:102C0800049B9DF803201A70049B019A5A609DF852
:102C18000F301846FFF764FF002000F015F9059BF8
:102C2800002B01D1FFF7ACFC059B184607B05DF8F7
:102C380004FB000008B50E4B0022C3F840210C4BE2
:102C48000022C3F844210A4B0022C3F84821084B4C
:102C58000022C3F84C21064B0022C3F80021044B84
:102C68000022C3F80421FFF7DBFC00BF08BD00BF4A
:102C78000010014008B5FFF7F3FE00BF08BD0000D3
:102C880008B5FFF779FB134B00221A70114B00228D
:102C98005A70104B0B229A700F4B00221A600F4B80
:102CA80000221A700E4B00221A701420FFF7DAFA6D
:102CB80006211420FFF7EEFA1420FFF78DFA002002
:102CC800FFF728FBFFF780FB0246064B1A6000233C
:102CD800184608BD500700205C0800206C0800203A
:102CE8006D0800206008002086B003900B46019212
:102CF8008DF80B30134B9B78002B01D108231EE075
:102D0800019B002B01D1072319E0039B002B01D164
:102D1800072314E0039B1B681B7C002B01D00823AE
:102D28000DE0039B1B680593059B00221A74059B05
:102D38009DF80B205A74059B019A5A610023184686
:102D480006B070475007002000B587B00390029185
:102D58000192039B0593144B9B78002B01D1082308
:102D68001EE0039B002B01D1082319E0029B042BD2
:102D780001D8072314E0059B5B69002B01D10823C8
:102D88000EE0059B5B7C012B01D1029B00E0002338
:102D98000493019B049A02990598FFF7DDFE034608
:102DA800184607B05DF804FB5007002000B585B051
:102DB8000190019B03930D4B9B78002B01D10823B5
:102DC80010E0019B002B03D0039B5B69002B01D112
:102DD800082307E0039B00221A7402210398FFF7D7
:102DE800F8FE0346184605B05DF804FB50070020BE
:102DF80072B6034B1B680133014A136000BF70476A
:102E080070080020054B1B68013B044A1360034B04
:102E18001B68002B00D162B600BF70477008002005
:102E280000B583B0019000F025F80346012B03D0CC
:102E38000449432000F0D0F9FFF7DAFF00BF03B0E0
:102E48005DF804FBA8C3040000B583B003468DF801
:102E5800073000F00FF80346012B03D00449512036
:102E680000F0BAF9FFF7CEFF00BF03B05DF804FB2E
:102E7800A8C3040084B0EFF305830193019BC3F357
:102E880008030393039B002B0DD1EFF314830093E6
:102E9800009B0293029B03F00103002B0CBF01234C
:102EA8000023DBB200E00123184604B0704700B5E8
:102EB80085B0039002910192019B9BB2029918463A
:102EC80000F08AF900BF05B05DF804FB86B00390F6
:102ED80002910192039B5B090593059B5B01039A91
:102EE800D31A0493029B059A1A60019B049A1A60EC
:102EF80000BF06B07047000000B585B0019002AA77
:102F080003AB19460198FFF7E1FF039B074A52F804
:102F18002310029B01229A40039B0A43034941F86C
:102F2800232000BF05B05DF804FB00BF741000202B
:102F380084B001900091002303931FE0019B002BB4
:102F480010D0124A039B52F82330019A9A4209D8AA
:102F58000F4A039B52F823200E49039B51F8233054
:102F68009A4206D10A4A039B52F82330009A9A42A1
:102F780001D2039B06E0039B01330393039B062BBB
:102F8800DCD90023184604B0704700BFF4C304001E
:102F98002CC4040010C4040000B585B00190019948
:102FA8000020FFF7C5FF0390034A039B52F8233024
:102FB800184605B05DF804FBF4C3040000B585B0FD
:102FC800019002AA03AB19460198FFF77FFF039B04
:102FD800084A52F82320029B22FA03F303F0010364
:102FE800002B14BF01230023DBB2184605B05DF89F
:102FF80004FB00BF7410002000B585B0019002AA40
:1030080003AB19460198FFF761FF039B084A52F882
:103018002310029B012202FA03F3DA43039B0A40BE
:10302800034941F8232000BF05B05DF804FB00BF49
:103038007410002000B583B000230193002301938E
:1030480005E00198FFF758FF019B01330193019BAD
:103058000B2BF6D9034B01221A700023184603B034
:103068005DF804FB7810002000B589B0019000914C
:103078002E4B1B7883F00103DBB2002B02D048F201
:1030880008134EE0019B002B02D148F20E1348E0D2
:10309800009B002B02D148F20E1342E0009B1B68F4
:1030A8000493049B002B03D0049BB3F5807F02D9C3
:1030B80048F2071335E00C210498FFF739FF039015
:1030C8001B4A039B52F8233006931A4A039B52F873
:1030D8002330079348F2041305931EE00698FFF780
:1030E8005BFF02900698FFF769FF0346002B0DD09F
:1030F800002305930698FFF77FFF079B0E4A1A44A3
:10310800019B1A60009B029A1A6009E0079A029BC9
:1031180013440793069B01330693069B0B2BDDD9BB
:10312800059B184609B05DF804FB00BF7810002025
:1031380010C4040048C404007408002000B587B017
:10314800019000230493019B039303AA04AB114647
:103158001846FFF789FF0590059B002B01D0002337
:103168000493049B184607B05DF804FB00B585B0CE
:103178000190174B1B7883F00103DBB2002B20D1A1
:10318800019B002B1FD0002303930023029313E01D
:10319800039B104A1344019A9A4203D10298FFF7FD
:1031A800ABFE0CE00298FFF7F7FE0246039B1344C0
:1031B8000393029B01330293029B0B2BE8D900BFB8
:1031C80002E000BF00E000BF05B05DF804FB00BFEF
:1031D800781000207408002000B585B003460091DF
:1031E800ADF80630BDF80630ADF80830009B039303
:1031F80002AB1A46002144F20200FEF70BFE00BFA4
:1032080005B05DF804FB10B487B001900091019BF4
:10321800009A53E8004F104643E8000191F0000F70
:10322800F7D1059404900391059B184607B05DF803
:10323800044B704710B487B001900091019B009A2D
:1032480053E8004F44EA020043E8000191F0000F00
:10325800F6D1059404900391049B184607B05DF8D5
:10326800044B704710B487B001900091019B009AFD
:1032780053E8004F04EA020043E8000191F0000F10
:10328800F6D1059404900391059B184607B05DF8A4
:10329800044B704710B487B001900091019B009ACD
:1032A80053E8004F04EB020043E8000191F0000FDF
:1032B800F6D1059404900391049B184607B05DF875
:1032C800044B704710B487B001900091019B009A9D
:1032D80053E8004FA4EB020043E8000191F0000F0F
:1032E800F6D1059404900391049B184607B05DF845
:1032F800044B704700B583B0019001210198FFF796
:1033080099FF0346184603B05DF804FB00B583B087
:10331800019000210198FFF7A5FF0346184603B066
:103328005DF804FB00B583B001900B468DF80330BF
:10333800019B002B03D10849E820FFF74DFF019BB3
:10334800DA689DF803300199098A01FB03F31344F5
:10335800184603B05DF804FB64C4040000B583B0EC
:1033680001900091019B002B03D10849F520FFF73C
:1033780033FF009B019AD2689B1A019A128AB3FB09
:10338800F2F3DBB2184603B05DF804FB64C4040032
:1033980000B585B00190019B002B01D10E234DE0B3
:1033A800019B1B68002B03D12649FF20FFF714FF60
:1033B800019B5B68002B04D122494FF48070FFF712
:1033C8000BFF019B9B68002B04D11E4940F20110A2
:1033D800FFF702FF019BDB68002B04D119494FF46A
:1033E8008170FFF7F9FE019B1B8A002B04D1154958
:1033F80040F20310FFF7F0FE019B9B681A46019B01
:103408005B68D31A8DF80F30019B1B68019A5268CC
:103418001A6007E0019B1A681368591C11609DF82F
:103428000F201A709DF80F305A1E8DF80F20002BB0
:10343800F0D1019B1B6800221A710023184605B0C1
:103448005DF804FB64C4040000B585B00190019BDD
:10345800002B04D11C494FF49270FFF7BDFE0023E6
:1034680003930020FFF7DCFC019B1B681A68019B93
:103478005B689A4220D9019B1B681A68013A1A6056
:103488001B681B7819460198FFF74CFF0390019BB6
:103498009B681A46019B1B681B68D31A8DF80B3072
:1034A800019B1B681B799DF80B209A4204D9019B4C
:1034B8001B689DF80B201A710020FFF7C5FC039BC1
:1034C800184605B05DF804FB64C4040010B584B068
:1034D80001900091019B002B04D1114940F2471043
:1034E800FFF77AFE009B002B04D10D494FF4A4701E
:1034F800FFF772FE009B03930020FFF791FC019BEE
:103508001B681C68621C1A6003990198FFF726FF64
:10351800034623700020FFF797FC00BF04B010BDDE
:1035280064C4040000B583B00190019B002B03D153
:103538000C493120FFF750FE019B9B68002B0CD0F3
:10354800019B5B69019A1069019A1168019A926856
:103558009847019B00229A6000E000BF03B05DF825
:1035680004FB00BFA0C404000EB400B584B00190F1
:10357800019B002B03D118494220FFF72DFE019B28
:103588005B69002B03D114494320FFF725FE019BFB
:103598001B68002B03D110494420FFF71DFE019B37
:1035A8005B68002B03D10C494520FFF715FE059BEE
:1035B800002B0AD00023039306AB039303AB1A46F0
:1035C8000599019800F0B8F900E000BF04B05DF873
:1035D80004EB03B0704700BFA0C4040000B583B07B
:1035E80001900B468DF803309DF803300A2B03D168
:1035F8000D210198FFF7F2FF019B1A68019B9B6858
:10360800581C0199886013449DF803201A70019B87
:103618009A68019B5B689A4202D30198FFF782FF80
:1036280000BF03B05DF804FB00B587B003900291BA
:103638000192009300230593009B03F00103002BE4
:1036480024D00BE0029B01330293059B01330593C1
:103658009DF8133019460398FFF7C0FF029B1B78AB
:103668008DF813309DF81330002BEBD106E0019B49
:10367800013B019320210398FFF7B0FF019A059BB6
:103688009A422ED9019B002BF1D12AE0029B002BF4
:103698000BD002980BF04AF8059006E0019B013B1D
:1036A800019320210398FFF799FF019A059B9A42FD
:1036B8000FD9019B002BF1D10BE0029B0133029340
:1036C800059B013305939DF8133019460398FFF7BE
:1036D80085FF029B1B788DF813309DF81330002B63
:1036E800EBD100BF07B05DF804FB000000B589B05E
:1036F8000390029101920093029B07930123069382
:1037080007E0079A019BB2FBF3F30793069B01338B
:103718000693079A019B9A42F3D2009A069B9A4213
:1037280001D9009B06930B9B03F00103002B22D1C8
:103738000A9B002B1FD00B9B03F00203002B06D023
:10374800009B002B03D130238DF8173002E0202393
:103758008DF8173008E00A9B013B0A939DF8173053
:1037680019460398FFF73AFF0A9B002B03D0069AE5
:103778000A9B9A42EFD301230793009B012B03D99D
:10378800009B013B009309E0029A079BB2FBF3F30D
:103798000493049A019B9A4200D205E0079B019A80
:1037A80002FB03F30793E8E7029A079BB2FBF3F3E4
:1037B8000493049B079A02FB03F3029AD31A029319
:1037C800154A049B13441B7819460398FFF706FF14
:1037D800079A019BB2FBF3F30793079B002BE3D1F6
:1037E8000B9B03F00103002B11D00A9B002B0ED07A
:1037F80006E00A9B013B0A9320210398FFF7EEFE9F
:103808000A9B002B03D0069A0A9B9A42F1D300BF69
:1038180009B05DF804FB00BF08C5040000B589B015
:103828000590049103920293049B002BB8BF5B425E
:1038380006930123079307E0039B069A92FBF3F391
:103848000693079B01330793039B069A9A42F3DA80
:10385800029A079B9A4201D9029B07930A9B002B65
:103868000AD0049B002B04DB0B9B03F00403002B02
:1038780002D00A9B013B0A930B9B03F00203002B27
:1038880002D0029B002B16D00B9B03F00103002BE8
:1038980011D10A9B002B0ED006E00A9B013B0A932C
:1038A80020210598FFF79AFE0A9B002B03D0079A60
:1038B8000A9B9A42F1D3049B002B07DA049B5B42D4
:1038C80004932D210598FFF789FE08E00B9B03F070
:1038D8000403002B03D02B210598FFF77FFE0B9BD9
:1038E80003F00203002B19D00B9B03F00103002BFC
:1038F80014D1029B002B11D10A9B002B0ED006E09D
:103908000A9B013B0A9330210598FFF767FE0A9B43
:10391800002B03D0079A0A9B9A42F1D304990B9B78
:1039280001930A9B0093029B039A0598FFF7DEFE1A
:1039380000BF09B05DF804FB00B58FB00590049195
:103948000392059B002B04D1C8494FF4A270FFF7DE
:1039580043FC059B5B69002B04D1C4494FF4A37059
:10396800FFF73AFC059B1B68002B04D1BF4940F2C6
:103978004710FFF731FC059B5B68002B04D1BB495E
:103988004FF4A470FFF728FC049B002B00F0ED8196
:10399800049B1B788DF83730049B013304939DF802
:1039A8003730002B00F0D8819DF83730252B40F0B8
:1039B800C78100230A9301230C93049B1B788DF87D
:1039C80037309DF837302D2B04D0302B0AD02B2BD5
:1039D80010D017E00A9B43F001030A93049B0133BC
:1039E800049312E00A9B43F002030A93049B0133F9
:1039F80004930AE00A9B43F004030A93049B0133EF
:103A0800049302E000230C9300BF0C9B002BD4D13D
:103A1800002309939DF837302A2B0CD1039B1B6890
:103A2800191D039A11601B68099A13440993049B92
:103A3800013304931AE0049B1B788DF837309DF806
:103A480037302F2B12D99DF83730392B0ED8049BDD
:103A580001330493099A13469B0013445B001A46EA
:103A68009DF837301344303B0993D3E700230B9379
:103A7800049B1B788DF837309DF837302E2B1DD1DD
:103A8800049B01330493049B1B788DF837309DF811
:103A980037302F2B12D99DF83730392B0ED8049B8D
:103AA800013304930B9A13469B0013445B001A4698
:103AB8009DF837301344303B0B93E4E7049B1B78A5
:103AC8008DF837309DF837306C2B03D09DF83730A0
:103AD800682B07D1049B01330493049B1B788DF852
:103AE8003730EFE79DF83730253B532B00F2238121
:103AF80001A252F823F000BF353D00003F3D000011
:103B08003F3D00003F3D00003F3D00003F3D0000BD
:103B18003F3D00003F3D00003F3D00003F3D0000AD
:103B28003F3D00003F3D00003F3D00003F3D00009D
:103B38003F3D00003F3D00003F3D00003F3D00008D
:103B48003F3D00003F3D00003F3D00003F3D00007D
:103B58003F3D00003F3D00003F3D00003F3D00006D
:103B68003F3D00003F3D00003F3D00003F3D00005D
:103B78003F3D00003F3D00003F3D00003F3D00004D
:103B88003F3D00003F3D00003F3D00003F3D00003D
:103B98003F3D00003F3D00003F3D00003F3D00002D
:103BA8003F3D00003F3D00003F3D00003F3D00001D
:103BB8003F3D00003F3D00003F3D00003F3D00000D
:103BC8003F3D0000C13C00003F3D00003F3D00007C
:103BD8003F3D00003F3D00003F3D00003F3D0000ED
:103BE8003F3D00003F3D00003F3D00003F3D0000DD
:103BF800513C0000793C00003F3D00003F3D000083
:103C08003F3D00003F3D0000793C00003F3D000083
:103C18003F3D00003F3D00003F3D00003F3D0000AC
:103C28003F3D0000013D00003F3D00003F3D0000DA
:103C3800E53C00003F3D00009D3C00003F3D00008A
:103C48003F3D0000C13C0000039B1B68191D039AFF
:103C580011601B680C930C9B8DF81F309DF81F306A
:103C680019460598FFF7BAFC66E000BFD0C4040007
:103C7800039B1B68191D039A11601B680C930A9B10
:103C88000193099B00930B9B0A220C990598FFF757
:103C9800C5FD51E0039B1B68191D039A11601B6841
:103CA8000C930C990A9B0193099B00930B9B0A2286
:103CB8000598FFF71BFD3FE0039B1B68191D039A3E
:103CC80011601B680C930C990A9B0193099B009344
:103CD8000B9B10220598FFF709FD2DE0039B1B683D
:103CE800191D039A11601B6808930A9B099A089981
:103CF8000598FFF799FC1FE0039B1B68191D039AA1
:103D080011601B680C9330210598FFF767FC782138
:103D18000598FFF763FC0C9900230193082300938F
:103D2800082310220598FFF7E1FC05E025210598F6
:103D3800FFF754FC00E000BF049B0133049305E047
:103D48009DF8373019460598FFF748FC049B1B7807
:103D5800002B7FF41DAE00E000BF059B1B7B002BF2
:103D680004D00598FFF7DEFB00E000BF0FB05DF858
:103D780004FB00BF00B583B001900198FFF708FB72
:103D88000346184603B05DF804FB00B58BB00190FC
:103D98000091019B1B8A043B0793009A079B1344DD
:103DA800DA1C079BB2FBF3F38DF81B300198FFF781
:103DB8004BFB0590059B002B01D1002338E0059BA8
:103DC80000221A71059B01225A71079B9AB2059B22
:103DD800DA80059B09939DF81B30013B0493099BEE
:103DE800019A1A60002308931DE00198FFF72CFB45
:103DF8000390039B002B0ED0059B5B790133DAB24D
:103E0800059B5A71099B039A1A60039B019A1A60D1
:103E1800039B099304E0059800F00EF8002307E0DF
:103E2800089B01330893089A049B9A42DDD3059BAB
:103E380018460BB05DF804FB00B58BB00190019BF0
:103E48000793079B5B798DF81B30019B08939DF8BE
:103E58001B30013B05930023099305E0089B1B6871
:103E68000893099B01330993099A059B9A42F5D354
:103E7800089B1B680493019B0893002309930BE09C
:103E8800089B1B68039308990498FFF71FFB039B83
:103E98000893099B013309939DF81B30099A9A42AC
:103EA800EED300BF0BB05DF804FB00B585B0019000
:103EB800019B0393039B043301211846FFF7EAF99A
:103EC80000BF05B05DF804FB00B587B00190019B09
:103ED8000593059B043301211846FFF7F3F90346C0
:103EE800039303AB0493049B1B78002B02D1019826
:103EF800FFF7A2FF00BF07B05DF804FB00B591B063
:103F08000390029101920093039B002B03D1434934
:103F1800B620FFF761F9039B0993039B0F93099B55
:103F2800DB881A46099B5B7903FB02F3043B089381
:103F3800009A089B9A4203D33849C420FFF74CF9EA
:103F4800099BDB880793009B1A1D079BB2FBF3F3C1
:103F58000E93009B0433079AB3FBF2F2079901FB17
:103F680002F29B1A0D93019B1A68009B1344089A4E
:103F78009A4203D2089A009BD31A01E0019B1B685E
:103F88000C93019B0C9A1A6005E00F9B1B680F931A
:103F98000E9B013B0E930E9B002BF6D100230B9337
:103FA800079A0D9BD31A0A930A9A0C9B934228BF2F
:103FB80013460A932AE0029A0B9B134406930F9A1E
:103FC8000D9B1344043305939DF84830002B05D00E
:103FD8000A9A059906980AF004FB04E00A9A0699D9
:103FE80005980AF0FEFA00230D930F9B1B680F93A8
:103FF8000C9A0A9BD31A0C930B9A0A9B13440B93A3
:10400800079A0C9B934228BF13460A930C9B002BDC
:10401800D1D100BF11B05DF804FB00BF18C5040082
:1040280000B589B00590049103920293039B07930E
:1040380007AA00230093029B04990598FFF75EFFE7
:10404800079B039A9A4203D00349F620FFF7C4F866
:1040580000BF09B05DF804FB18C5040000B589B0BD
:104068000590049103920293039B079307AA0123E7
:104078000093029B04990598FFF740FF079B039A5A
:104088009A4204D004494FF48070FFF7A5F800BFA6
:1040980009B05DF804FB00BF18C5040082B00190A8
:1040A800019B9B6800229A60019B9B6800221A6111
:1040B800019B9B6800225A61019B9B680022DA6081
:1040C800019B9B6800225A60019B9B6800221A6032
:1040D80000BF02B07047000000B585B0019001989C
:1040E80000F00EF80390039B002B01D0039B00E027
:1040F800024B184605B05DF804FB00BF2CC604004F
:1041080086B00190164B0593164B04931FE0049A52
:10411800059BD31ADB10DA0F13445B10DB00059AFA
:1041280013440393039B1B680293029A019B9A42D0
:1041380002D9039B04930AE0029A019B9A4203D294
:10414800039B0833059302E0039B5B6804E0059A30
:10415800049B9A42DBD30023184606B0704700BF81
:1041680000CA040018CB040000B583B0084B1B68D4
:10417800282098470190019B002B04D02822002179
:1041880001980AF057FA019B184603B05DF804FB42
:104198004000002000B585B0019037E0019B1B6806
:1041A8000393019BDB6803F48073002B08D1019B08
:1041B8009B68002B04D0019B9B681846FFF7EAFF19
:1041C800019BDB6803F48073002B09D1019B1B69F9
:1041D800002B05D0114B1B68019A126910469847AD
:1041E800019BDB6803F40073002B09D1019B1B6A58
:1041F800002B05D0094B1B68019A126A1046984794
:10420800064B1B6801989847039B0193019B002B61
:10421800C4D100BF05B05DF804FB00BF4400002016
:1042280084B0019000910023039301230293009B23
:104238001B782D2B05D14FF0FF330293009B0133E0
:104248000093009B1B78302B02D1009B0133009315
:10425800009B1B78302B18D9009B1B78392B14D85E
:10426800039A13469B0013445B001946009B5A1C93
:1042780000921B78303B0B440393009B1B782F2B39
:1042880003D9009B1B78392BEAD9039B029A02FBBE
:1042980003F30393019B039A5A61019B0322DA609B
:1042A800009B184604B0704784B001900023039324
:1042B800019B1B782F2B0BD9019B1B78392B07D817
:1042C800019B1B781A46039B1344303B039321E060
:1042D800019B1B78402B0BD9019B1B78462B07D8D9
:1042E800019B1B781A46039B1344373B039311E049
:1042F800019B1B78602B0BD9019B1B78662B07D879
:10430800019B1B781A46039B1344573B039301E018
:104318000023A8E0039B1B010393019B0133019336
:10432800019B1B782F2B0BD9019B1B78392B07D8A6
:10433800019B1B781A46039B1344303B039321E0EF
:10434800019B1B78402B0BD9019B1B78462B07D868
:10435800019B1B781A46039B1344373B039311E0D8
:10436800019B1B78602B0BD9019B1B78662B07D808
:10437800019B1B781A46039B1344573B039301E0A8
:10438800002370E0039B1B010393019B01330193FE
:10439800019B1B782F2B0BD9019B1B78392B07D836
:1043A800019B1B781A46039B1344303B039321E07F
:1043B800019B1B78402B0BD9019B1B78462B07D8F8
:1043C800019B1B781A46039B1344373B039311E068
:1043D800019B1B78602B0BD9019B1B78662B07D898
:1043E800019B1B781A46039B1344573B039301E038
:1043F800002338E0039B1B010393019B01330193C6
:10440800019B1B782F2B0BD9019B1B78392B07D8C5
:10441800019B1B781A46039B1344303B039321E00E
:10442800019B1B78402B0BD9019B1B78462B07D887
:10443800019B1B781A46039B1344373B039311E0F7
:10444800019B1B78602B0BD9019B1B78662B07D827
:10445800019B1B781A46039B1344573B039301E0C7
:10446800002300E0039B184604B0704700B589B0EC
:1044780001900091009B0133079300230593009B53
:104488001B78222B0DD0A34A009B1360002367E101
:10449800079B5A1C07921B785C2B02D1079B0133A0
:1044A8000793079B1B78222B09D0079B1B78002BAF
:1044B80005D0059B01330593059B002BE8D1964B4E
:1044C8001B68059A0132104698470390039B002BFE
:1044D80001D1002344E1009B01330793039B06931A
:1044E80024E1079B1B785C2B08D0079A531C079381
:1044F800069B591C069112781A7017E1079B013325
:104508000793079B1B78623B132B00F2FB8001A2E9
:1045180052F823F06D4500000D4700000D470000DC
:104528000D470000794500000D4700000D470000C9
:104538000D4700000D4700000D4700000D47000023
:104548000D470000854500000D4700000D4700009D
:104558000D470000914500000D4700009D450000F3
:10456800A9450000069B5A1C069208221A70DAE038
:10457800069B5A1C06920C221A70D4E0069B5A1C01
:1045880006920A221A70CEE0069B5A1C06920D2249
:104598001A70C8E0069B5A1C069209221A70C2E0DB
:1045A800079B01331846FFF77FFE0490079B0433EF
:1045B8000793049BB3F55C4F04D3049BB3F5604F9A
:1045C800C0F0B080049B002B00F0AC80049BB3F5D6
:1045D800584F2DD3049BB3F55C4F29D2079B013369
:1045E8001B785C2B40F09E80079B02331B78752B51
:1045F80040F09880079B03331846FFF755FE02905A
:10460800079B06330793029BB3F55C4FC0F08A8083
:10461800029BB3F5604F80F08580049B9A023F4B64
:104628001340029AC2F30902134303F5803304933B
:1046380004230593049B7F2B02D8012305930CE0E8
:10464800049BB3F5006F02D20223059305E0049B97
:10465800B3F5803F01D203230593059B069A1344C3
:104668000693059B013B032B47D801A252F823F080
:10467800E9460000C9460000A94600008946000036
:10468800049BDBB203F03F03DBB2069A013A0692C1
:1046980063F07F03DAB2069B1A70049B9B090493AC
:1046A800049BDBB203F03F03DBB2069A013A0692A1
:1046B80063F07F03DAB2069B1A70049B9B0904938C
:1046C800049BDBB203F03F03DBB2069A013A069281
:1046D80063F07F03DAB2069B1A70049B9B0904936C
:1046E8000F4A059B13441A78049BDBB206990139DB
:1046F80006911343DAB2069B1A70059B069A134477
:10470800069310E0069B5A1C0692079A12781A70B4
:1047180009E000BF7C1000204000002000FC0F00D2
:10472800B0CB040000BF079B01330793079B1B789E
:10473800222B04D0079B1B78002B7FF4D2AE069B5C
:1047480000221A70079B1B78222B02D1079B01338A
:104758000793019B039A1A61019B0422DA60079B65
:10476800184609B05DF804FB82B0019002E0019B95
:1047780001330193019B002B07D0019B1B78002B71
:1047880003D0019B1B78202BF1D9019B184602B05E
:104798007047000000B587B0039002910192002392
:1047A8000593FFF7E1FC04901B4B00221A60049B61
:1047B800002B01D100232AE00398FFF7D5FF034619
:1047C8001946049800F038F80590059B002B04D191
:1047D8000498FFF7DFFC002319E0019B002B0FD0A2
:1047E8000598FFF7C1FF0590059B1B78002B07D0A4
:1047F8000498FFF7CFFC084A059B1360002306E0E6
:10480800029B002B02D0029B059A1A60049B184653
:1048180007B05DF804FB00BF7C10002000B583B032
:104828000190002200210198FFF7B4FF03461846C3
:1048380003B05DF804FB000000B583B0019000915F
:10484800009B002B01D1002360E00422314900982D
:1048580009F0A6FD0346002B05D1019B0222DA6070
:10486800009B043352E005222B49009809F098FD7B
:104878000346002B05D1019B0022DA60009B05331B
:1048880044E004222549009809F08AFD0346002BDC
:1048980008D1019B0122DA60019B01225A61009B29
:1048A800043333E0009B1B78222B05D10099019833
:1048B800FFF7DCFD034629E0009B1B782D2B07D072
:1048C800009B1B782F2B09D9009B1B78392B05D807
:1048D80000990198FFF7A4FC034617E0009B1B789A
:1048E8005B2B05D10099019800F01CF803460DE0F8
:1048F800009B1B787B2B05D10099019800F086F866
:10490800034603E0064A009B13600023184603B0E1
:104918005DF804FB94CB04009CCB0400A4CB0400FA
:104928007C10002000B585B001900091009B1B7899
:104938005B2B04D0344A009B1360002360E0019B8A
:104948000522DA60009B01331846FFF70DFF00903F
:10495800009B1B785D2B02D1009B013350E0FFF7D1
:1049680003FC0390019B039A9A60019B9B68002BB0
:1049780001D1002344E00098FFF7F6FE03461946EC
:104988000398FFF759FF03461846FFF7EDFE00901E
:10499800009B002B25D1002332E0FFF7E5FB0290B6
:1049A800029B002B01D100232AE0039B029A1A6084
:1049B800029B039A5A60029B0393009B013318469B
:1049C800FFF7D2FE034619460398FFF735FF034663
:1049D8001846FFF7C9FE0090009B002B01D1002369
:1049E8000EE0009B1B782C2BD7D0009B1B785D2BEF
:1049F80002D1009B013303E0034A009B13600023AC
:104A0800184605B05DF804FB7C10002000B585B0A1
:104A180001900091009B1B787B2B04D0584A009B87
:104A280013600023A8E0019B0622DA60009B013393
:104A38001846FFF799FE0090009B1B787D2B02D14A
:104A4800009B013398E0FFF78FFB0390019B039ACB
:104A58009A60019B9B68002B01D100238CE0009891
:104A6800FFF782FE034619460398FFF7FFFC03464B
:104A78001846FFF779FE0090009B002B01D1002318
:104A88007AE0039B1A69039B1A62039B00221A614E
:104A9800009B1B783A2B04D0394A009B13600023F3
:104AA8006AE0009B01331846FFF75EFE034619468D
:104AB8000398FFF7C1FE03461846FFF755FE00901E
:104AC800009B002B49D1002356E0FFF74DFB0290D5
:104AD800029B002B01D100234EE0039B029A1A602F
:104AE800029B039A5A60029B0393009B013318466A
:104AF800FFF73AFE034619460398FFF7B7FC03464B
:104B08001846FFF731FE0090009B002B01D10023CF
:104B180032E0039B1A69039B1A62039B00221A6105
:104B2800009B1B783A2B04D0154A009B1360002386
:104B380022E0009B01331846FFF716FE034619468C
:104B48000398FFF779FE03461846FFF70DFE00901D
:104B5800009B002B01D100230EE0009B1B782C2B1F
:104B6800B3D0009B1B787D2B02D1009B013303E05F
:104B7800034A009B13600023184605B05DF804FB48
:104B88007C10002084B001900091019B9B680393E6
:104B980005E0009B013B0093039B1B680393039B69
:104BA800002B02D0009B002BF3DC039B184604B0BB
:104BB80070474FF08043D3F818341B0C03F00103FF
:104BC800002B14BF01230023DBB21846704782B0C4
:104BD80003468DF807304FF08043D3F80C3403F0C8
:104BE80001129DF8073043F480339A420CBF012329
:104BF8000023DBB2184602B0704708B50120FFF762
:104C0800E6FF0346184608BD08B5FFF7D2FF03467E
:104C1800184608BD08B500F0E1FB024B00229A7067
:104C280000BF08BD8010002008B500F0EFFB00BFF2
:104C380008BD000008B500F003FC024B00225A70C2
:104C480000BF08BD8010002000B583B00023019389
:104C5800104B1B78002B02D08523019314E00D4BD9
:104C680000229A600B4B00225A600A4B00221A61FC
:104C7800084B0022DA60084800F05CFB019000F065
:104C88007FFB044B01221A70019B184603B05DF8A4
:104C980004FB00BF801000207D4F000084B001900D
:104CA8000091019B1B68039306E0039A009B9A42BC
:104CB8000DD0039B1B680393039B002BF5D1019B2D
:104CC8001A68009B1A60019B009A1A6000E000BFF6
:104CD80004B0704784B00190019B1B680393039B49
:104CE800002B03D0039B1A68019B1A60039B18468C
:104CF80004B0704700B583B00190224B1B78002B9D
:104D080003D12149E920FEF767FA1E4B9B78DBB2F5
:104D1800002B12D0019B002B03D0019B5B68012064
:104D280098470020FEF77CF8164BDB680133154ADC
:104D3800D3600020FEF788F817E00020FEF770F82F
:104D4800019B002B03D001991048FFF7A7FF0D4BDB
:104D5800DB68002B01D100F027FB0A4BDB6801332D
:104D6800084AD3600020FEF76FF8064BDB68002B7B
:104D780004D1054940F20510FEF72EFA00BF03B032
:104D88005DF804FB80100020C0CB040090100020C8
:104D980008B5124B1B78002B04D111494FF48570CC
:104DA800FEF71AFA0D4BDB68002B04D10C4940F2D0
:104DB8000B10FEF711FA0020FEF732F8074BDB68FC
:104DC800013B064AD360054BDB68002B01D1FFF796
:104DD80021FF0020FEF738F800BF08BD8010002032
:104DE800C0CB040008B5074B1B78002B04D106493B
:104DF8004FF48C70FEF7F0F9FFF706FF03461846EC
:104E080008BD00BF80100020C0CB040000B583B0EF
:104E18000190234B1B78002B04D122494FF4937047
:104E2800FEF7DAF91E4B5B78DBB2002B12D0019B40
:104E3800002B03D0019B5B68002098470020FDF7FA
:104E4800EFFF174B5B680133154A53600020FDF7ED
:104E5800FBFF17E00020FDF7E3FF019B002B03D0C9
:104E680001991148FFF71AFF0D4B5B68002B01D120
:104E7800FFF7DAFE0A4B5B680133094A53600020EA
:104E8800FDF7E2FF064B5B68002B04D105494FF4A0
:104E9800A170FEF7A1F900BF03B05DF804FB00BFE5
:104EA80080100020C0CB04008810002008B5124BE9
:104EB8001B78002B04D1114940F24710FEF78CF9FA
:104EC8000D4B5B68002B04D10C494FF4A470FEF71E
:104ED80083F90020FDF7A4FF074B5B68013B064AF6
:104EE8005360054B5B68002B01D1FFF7A3FE002040
:104EF800FDF7AAFF00BF08BD80100020C0CB04004A
:104F080008B5074B1B78002B04D1064940F2551011
:104F1800FEF762F9FFF771FE0346184608BD00BFA9
:104F280080100020C0CB040000B585B003468DF882
:104F380007309DF80730002B02D10C4B039301E09A
:104F48000B4B03930398FFF7C5FE0290029B002BBF
:104F580006D0029B5B689DF8072010469847F1E74A
:104F680000BF00BF05B05DF804FB00BF881000203B
:104F78009010002000B583B003468DF807309DF8E7
:104F88000730002B05D10A4B01225A700020FFF789
:104F9800CBFF9DF80730012B05D1054B01229A70F4
:104FA8000120FFF7C1FF00BF03B05DF804FB00BF9D
:104FB8008010002000BF034BD3F80034002BFAD038
:104FC80000BF704700E0014000B583B001900D4B71
:104FD8000222C3F80425BFF36F8FBFF34F8F094A2E
:104FE800019BC2F80835FFF7E5FF064B0022C3F81E
:104FF8000425BFF36F8FBFF34F8F00BF03B05DF879
:1050080004FB00BF00E0014000B587B001900B46EB
:105018008DF80330019B03F003030593059BDB43E5
:10502800019A13400493049B1A68059BDB00FF2137
:1050380001FA03F3DB43134003939DF80320059B18
:10504800DB0002FA03F3039A134403930C4B012287
:10505800C3F80425BFF36F8FBFF34F8F049B039AE8
:105068001A60FFF7A7FF064B0022C3F80425BFF319
:105078006F8FBFF34F8F00BF07B05DF804FB00BF11
:1050880000E0014000B587B003900291019200232F
:1050980005930CE0039A059BD018029A059B1344CC
:1050A8001B781946FFF7B0FF059B01330593059A56
:1050B800019B9A42EED300BF07B05DF804FB0000E5
:1050C80082B003468DF807309DF8073003F01F02C1
:1050D80005499DF907305B09012000FA02F241F801
:1050E800232000BF02B0704700E100E082B0034611
:1050F80000918DF807309DF90730002B0CDA009BE2
:10510800DAB20C499DF8073003F00F03043B520153
:10511800D2B20B441A7609E0009BDAB206499DF92F
:1051280007305201D2B20B4483F8002300BF02B00B
:10513800704700BF00ED00E000E100E082B00190A0
:10514800019B1B0B5BB2184602B0704700B583B0D9
:1051580003460A468DF8073013468DF806309DF849
:105168000630072B03D908496B20FEF735F89DF860
:1051780006209DF9073011461846FFF7B7FF00BF14
:1051880003B05DF804FB00BFFCCB040000B583B09E
:1051980003468DF807309DF907301846FFF790FF52
:1051A80000BF03B05DF804FB82B003468DF80730FA
:1051B8000F4A9DF90730002B00DA1F335B115BB2F1
:1051C80052F823209DF90730594203F01F0301F0DC
:1051D8001F0158BF4B425BB222FA03F303F00103ED
:1051E800002B14BF01230023DBB2184602B070471E
:1051F80000E100E082B001904FF08042019BC2F8CC
:10520800043300BF02B0704782B001904FF0804273
:10521800019BC2F8083300BF02B0704782B0034652
:105228008DF807309DF8073003F1804301221A609A
:1052380000BF02B0704784B00346ADF80630BDF831
:10524800063003F1804300221A60BDF8063003F1EE
:1052580080431B680393039B00BF04B0704782B070
:105268000346ADF80630BDF8063003F180431B68ED
:10527800002B14BF01230023DBB2184602B070478D
:1052880082B001904FF08042019BC2F8183500BFF0
:1052980002B070474FF08043D3F818341B0C03F06A
:1052A8000103002B14BF01230023DBB2184670470B
:1052B80082B003468DF807304FF08043D3F80C34A2
:1052C80003F001129DF8073043F480339A420CBF73
:1052D80001230023DBB2184602B0704700B583B043
:1052E80006238DF807304FF08040FFF727FF03466D
:1052F8001846FFF759FF034683F00103DBB2002B82
:1053080013D04FF08040FFF719FF03461A469DF867
:10531800073019461046FFF719FF4FF08040FFF796
:105328000DFF03461846FFF731FF00BF03B05DF8D5
:1053380004FB000000B585B00190019B002B03D150
:105348000D49A020FDF748FF002303930B4B1B7961
:10535800002B02D08523039308E0084A019B1360C1
:10536800064B01221A71054B00225A71039B1846FD
:1053780005B05DF804FB00BF34CC04009410002095
:1053880008B5074B1B79002B03D10649B920FDF757
:1053980023FFFFF7A3FF0120FFF772FF00BF08BD3F
:1053A8009410002034CC040008B50A4B1B79002B5C
:1053B80003D10949E620FDF70FFF4FF48270FFF78C
:1053C8003AFF0220FFF716FF0820FFF727FF00BF6C
:1053D80008BD00BF9410002034CC040008B5094B68
:1053E8001B79002B03D10849F320FDF7F5FE0C20AB
:1053F800FFF714FF00BFFFF74DFF0346002BFAD15C
:1054080000BF08BD9410002034CC040008B50A4B36
:105418001B79002B03D10949FB20FDF7DDFE4FF472
:105428008070FFF708FF0120FFF7E4FE0020FFF778
:10543800F5FE00BF08BD00BF9410002034CC040066
:1054480008B50C4B1B79002B04D10B4940F2031013
:10545800FDF7C2FE0420FFF7E1FE00BF0120FFF7C1
:1054680027FF0346002BF9D1024B00225A7100BFD7
:1054780008BD00BF9410002034CC040008B54FF4D8
:105488008070FFF7ECFE0346002B14D04FF48070B9
:10549800FFF7D1FE0120FFF7B7FE114B5B7983F0D0
:1054A8000103DBB2002B06D00D4B01225A710C4BC5
:1054B8001B68002098474FF48270FFF7D0FE034620
:1054C800002B0AD04FF48270FFF7B5FE0220FFF7D9
:1054D8009BFE034B1B680120984700BF08BD00BF17
:1054E8009410002082B003468DF807309DF80730ED
:1054F80003F01F0205499DF907305B09012000FAF6
:1055080002F241F8232000BF02B0704700E100E03A
:1055180082B0034600918DF807309DF90730002BC3
:105528000CDA009BDAB20C499DF8073003F00F0340
:10553800043B5201D2B20B441A7609E0009BDAB25E
:1055480006499DF907305201D2B20B4483F8002373
:1055580000BF02B0704700BF00ED00E000E100E0CE
:1055680000B583B003460A468DF8073013468DF818
:1055780006309DF80630072B03D908496B20FDF744
:105588002BFE9DF806209DF9073011461846FFF7B7
:10559800BFFF00BF03B05DF804FB00BF6CCC040084
:1055A80000B583B003468DF807309DF907301846DB
:1055B800FFF798FF00BF03B05DF804FB00B583B0A8
:1055C8000346ADF80630BDF80630184600F026F858
:1055D80003461B68012B0CBF01230023DBB21846CE
:1055E80003B05DF804FB00B585B00346ADF806309E
:1055F800BDF80630184600F011F803461A46002395
:105608001360BDF80630184600F008F803461B681A
:105618000393039B00BF05B05DF804FB82B003460B
:10562800ADF80630BDF8063003F1804303F5C043FA
:10563800184602B07047000082B00190034A019BEF
:10564800C2F8043300BF02B0704700BF00600040DA
:1056580082B00190034BD3F80423019B13401846F2
:1056680002B070470060004082B00190084A019B78
:1056780003F5A27352F82330054943F00102019B58
:1056880003F5A27341F8232000BF02B0704700BFA2
:105698000060004084B00390029113468DF80730F3
:1056A800144A039B03F5A27352F82330114923F4DB
:1056B8004F3323F44073039A02F5A27241F8223063
:1056C8000C4A039B03F5A27352F82320029B1B028A
:1056D80003F47C519DF807301B0403F440330B435B
:1056E80004491A43039B03F5A27341F8232000BF22
:1056F80004B070470060004082B00190054A019BE9
:1057080003F5A27352F823301B0A03F03F0318462F
:1057180002B070470060004082B00190064A019BC9
:1057280003F5A27352F823301B0C03F00303DBB21A
:10573800184602B0704700BF0060004000B583B053
:105748000190019B1B682F2B04D90B494FF4F37070
:10575800FDF742FD019B1B681F2B02D84FF0A043A9
:1057680006E0019B1B6803F01F02019B1A60034BB4
:10577800184603B05DF804FB9CCC040000030050FD
:1057880000B585B00190084611461A4603468DF8C3
:1057980003300B468DF8023013468DF8013001AB0B
:1057A8001846FFF7CBFF03909DF803209DF80230C1
:1057B8005B001A439DF801309B001A439DF818308E
:1057C8001B0242EA03019DF81C301B04019A19438D
:1057D800039B02F5E07243F8221000BF05B05DF8A4
:1057E80004FB00B585B003900B468DF80B309DF88F
:1057F8000B2000230193002300931346002200216D
:105808000398FFF7BDFF00BF05B05DF804FB00B5C6
:1058180085B0019001AB1846FFF790FF0390019AFD
:10582800039B02F5E07253F8223023F0020302933F
:10583800019A039B02F5E072029943F8221000BF17
:1058480005B05DF804FB00B585B001900B468DF8F6
:10585800033001AB1846FFF771FF0390019A039BD1
:1058680002F5E07253F82230019A23F44031039B89
:1058780002F5E07243F82210019A039B02F5E072E8
:1058880053F822309DF8032012041146019A194357
:10589800039B02F5E07243F8221000BF05B05DF8E3
:1058A80004FB00B585B0019001AB1846FFF746FF31
:1058B8000390039800F020F80246019B22FA03F3B4
:1058C80003F00103184605B05DF804FB00B585B088
:1058D800019001AB1846FFF731FF0390019A039B33
:1058E80002F5E07253F822301B0C03F00303DBB21D
:1058F800184605B05DF804FB82B00190019BD3F80F
:105908001035184602B0704700B589B0039002916F
:105918000192174A05AB92E8030083E80300039A53
:10592800029B1344022B04D9124940F21630FDF7AA
:1059380053FC039B079311E0079B9B0008AA1344A1
:1059480053F80C3C1846FFF7D7FF0246019B1A6034
:10595800019B04330193079B01330793039A029B2E
:105968001344079A9A42E7D300BF09B05DF804FBD5
:10597800CCCC04009CCC040084B001900091009B26
:105988000393019BDB080293019B03F00703019338
:105998000122019B02FA03F30399029A0A4412783E
:1059A8001340184604B0704784B001900091009BE2
:1059B8000393019BDB080293019B03F00703019308
:1059C800039A029B13441B785AB20121019B01FAE6
:1059D80003F35BB2134359B2039A029B1344CAB24E
:1059E8001A7000BF04B0704782B001900C4A019B46
:1059F8001344303393F90030002B09DB084A019B2C
:105A08001344303393F90030072B01DC012300E005
:105A1800002303F00103DBB2184602B0704700BF51
:105A28009C10002082B00190064A019B1344303339
:105A380093F90030072BCCBF01230023DBB21846B3
:105A480002B070479C10002082B00190064A019B6A
:105A58001344303393F90030DB43DBB2DB09DBB2AC
:105A6800184602B0704700BF9C10002084B0039015
:105A7800029101928DF80330029B59B20E4A039BA2
:105A8800134430330A461A700B49029B019A41F8B5
:105A980023209DF8033083F00103DBB2002B08D0EC
:105AA800029B083B039A51B2034A13440A4683F8FF
:105AB800602000BF04B070479C10002082B00190A5
:105AC800044A019B13443033FF221A7000BF02B00E
