:100000000000042079030000610300006303000086
:1000100065030000670300006903000000000000A2
:100020000000000000000000000000006B03000062
:100030006D030000000000006F030000710300006A
:100040008D410000B1850000497100004D5600004F
:100050006556000073030000BD44000073030000F8
:10006000C9480000E1480000F9480000730300009F
:1000700073030000C97000007303000073030000E5
:1000800073030000BD210000730300007303000030
:10009000FD210000730300007303000073030000E0
:1000A0007303000073030000730300007303000078
:1000B000A9650000730300000000000000000000BC
:1000C00073030000C1650000D9650000655D000094
:1000D000AD6E0000730300007303000073030000A3
:1000E000730300007303000011A50000000000006E
:1000F00000000000F165000000000000F95A000057
:1001000000000000000000000000000000000000EF
:1001100000000000000000000000000000000000DF
:1001200000000000000000000000000000000000CF
:1001300000000000000000000000000000000000BF
:1001400000000000000000000000000000000000AF
:10015000000000000000000000000000000000009F
:10016000000000000000000000000000000000008F
:10017000000000000000000000000000000000007F
:10018000000000000000000000000000000000006F
:10019000000000000000000000000000000000005F
:1001A000000000000000000000000000000000004F
:1001B000000000000000000000000000000000003F
:1001C000000000000000000000000000000000002F
:1001D000000000000000000000000000000000001F
:1001E000000000000000000000000000000000000F
:1001F00000000000000000000000000000000000FF
:10020000364937480A1A02D0072291438D463549AC
:1002100035480A1A06D00722914381F30988022241
:1002200082F3148831483249324A00F045F83248A6
:100230003249334A00F040F832483349334A00F03B
:100240003BF833483349344A00F036F833483449F0
:10025000344A00F031F834483449354A00F02CF87B
:1002600034483549354A00F027F8354835490022E9
:1002700000F02DF834483549002200F028F83448C1
:100280003449091A082903DB0022026004300160A6
:10029000314A90471F482049884205D002680430FF
:1002A00003B4904703BCF7E700208646EC460020E5
:1002B00000212A4A9047FEE7884207D0521A05D00B
:1002C000037801300B700131013AF9D1704788424F
:1002D00002D002700130FAE77047000000000420ED
:1002E00000E00320000004200000042074C7000088
:1002F000000000207C000020D8030000D80300008C
:1003000050A5000074C7000000000020000000207D
:10031000FCA50000FCA50000FCA50000FCA5000059
:10032000FCA50000FCA50000FCA50000FCA5000049
:1003300073C70000F0C700007C0000207C00002094
:100340007C000020DC1F0020DC1F0020DC1F0020C0
:10035000DC1F0020DC1F0020A1030000C9150000E5
:10036000FEE7FEE7FEE7FEE7FEE7FEE7FEE7FEE765
:10037000FEE7FEE7704700BF1048804710484FF087
:100380000701884385460F4880470F48016841F4BC
:1003900070010160BFF34F8FBFF36F8FFFF730BF66
:1003A0000A480B490B4A884207D0521A05D00378F5
:1003B00001300B700131013AF9D17047750300002B
:1003C000000004206560000088ED00E0FCA500004E
:0803D0000000002000000020E5
:1003D80000B585B00190019B002B0AD0074B43F074
:1003E80001030393019B9B010293039B0298984787
:1003F80000E000BF05B05DF804FB00BF10A60000D8
:1004080000B583B00190019B002B0AD04FF47A709D
:10041800FFF7DEFF019B013B0193019B002BF5D108
:1004280000E000BF03B05DF804FB08B505F0F4FD7B
:1004380000BF08BD00B589B0039002910192019BED
:10044800002B33D00023079303230693029A079BBC
:100458001344019A1946002005F090FD0590079A6B
:10046800059B13440793019A059BD31A0193059B97
:10047800002B13D10F4B1B7883F00103DBB2002B49
:1004880013D10120FFF7BCFF069B013B0693069B97
:10049800002B03D1074B00221A7007E0054B0122FD
:1004A8001A70019B002BD1D100E000BF00BF09B03A
:1004B8005DF804FB7C00002000B585B00390029134
:1004C800054B00934023054A0299039800F012F85F
:1004D80000BF05B05DF804FB3D040000800000206B
:1004E80082B0019000BF02B0704782B0019000BF97
:1004F80002B0704700B5A1B0059004910392029331
:10050800049802F054FD039B1593029B1693002355
:10051800179300238DF8603000231993229B1A93B8
:1005280000231F930FA91F9B0822049802F018FEAE
:1005380008231F93119B1293BDF84030ADF84C303F
:10054800BDF84230ADF84E3000238DF851309DF89B
:100558003C3003F00303DBB2012B26D10F9BC3F31E
:1005680095231C939DF83C30C3F3C203DBB28DF88E
:100578005030BDF83C30C3F38313DBB21B931B9B95
:100588009A0009A91F9B049802F0EAFD1B9B9B0097
:100598001F9A13441F9312AA09A915AB0093134677
:1005A8001B9A1C9800F0C4FE2FE09DF83C3003F025
:1005B8000303DBB2022B28D1BDF83E30C3F3891305
:1005C8009BB21E939DF83C30C3F3C203DBB28DF897
:1005D80050301E9B082B28BF08231D9307A91F9B7B
:1005E8001D9A049802F0BCFD1F9A1D9B13441F938B
:1005F8001E9A1D9BD31A1E9315AB12AA07A81D9904
:1006080000F038FF1E9B002BE3D1049802F0DEFCBB
:1006180000BF21B05DF804FB82B00190019BDB684C
:1006280001225A7100BF02B07047000000B583B0C4
:100638004FF0FF330193FFF7F8FE0421084800F05C
:1006480093FD0190019B002B03DA0649412001F03C
:1006580045FE0348FFF7E0FF00BF03B05DF804FB69
:10066800C4A5000028A6000000B583B00190009141
:10067800019B1B681B6800990198984700BF03B04D
:100688005DF804FB00B583B00190019B1B685B68B3
:100698000198984700BF03B05DF804FB00B583B02C
:1006A8000190019B1B689B680198984700BF03B0A5
:1006B8005DF804FB82B001900B468DF80330019B76
:1006C800DB689DF803201A7100BF02B0704782B042
:1006D8000190019BDB681B79184602B0704782B015
:1006E8000190019BDB6801225A7100BF02B070477C
:1006F80082B00190019BDB685B79184602B07047B5
:1007080000B585B001900091154BFF229A60144BFB
:1007180000221A60124B00225A60114B0022C3F8C3
:1007280018240F4B0022C3F814240D4B002283F821
:1007380020240C4802F0A0FB0390039B002B01D05F
:10074800039B08E0084802F02BFD084A084BD31A1F
:10075800DB0802930023184605B05DF804FB00BFD0
:1007680028020020D4A5000074A60000C4A500003B
:1007780064A50000024A034BD31ADB0818467047E9
:10078800C4A5000064A5000000B587B001900B4621
:100798008DF803309DF80330002B1FD0FFF7EAFFD8
:1007A80004900023059313E0059B9B000E4A134415
:1007B8000393039B1B881A46019B1B689A4204D12A
:1007C800019B059A1A60002309E0059B01330593F4
:1007D800059A049B9A42E7D3052300E000231846B4
:1007E80007B05DF804FB00BF0000002000B585B02D
:1007F80001900B468DF803309DF8032001AB11469C
:100808001846FFF7C1FF0346002B07D1019BDB0009
:10081800054A13440393039B1B6800E00023184612
:1008280005B05DF804FB00BF64A5000084B001902A
:100838000B468DF80330019BDB00174A13440293E3
:100848009DF80330013B032B1CD801A252F823F07A
:10085800690800007108000079080000830800009A
:1008680002238DF80F3011E004238DF80F300DE0CE
:10087800029B1B798DF80F3008E0029B5B798DF89D
:100888000F3003E000238DF80F3000BF9DF80F30C4
:10089800184604B0704700BF64A5000084B00190FA
:1008A800009100238DF80F30019B1B7803F004039F
:1008B800DBB2002B24D0019B1B78C3F30103DBB20E
:1008C800012B02D0022B0CD017E0009B1B68019A69
:1008D8001288C2F38312D2B213449A1C009B1A6086
:1008E8000BE0009B1B68019A5288C2F3891292B2EE
:1008F80013449A1C009B1A6000BF01238DF80F3027
:100908009DF80F30184604B07047000000B58BB052
:100918000023ADF826303E4801F06EFD3D4801F059
:100928006BFD3D4B5B6804933B4B9B680693049AB5
:10093800069B134002339B00374A13440433089341
:1009480004AB19460898FFF7A9FF0346002B09D006
:10095800049A069B134002339B002F4A1344043326
:100968000893EDE700BF0023079311E0049B5A1C8E
:100978000492069A1340079A920001A90A4426494C
:1009880002339B000B445B681360079B013307939A
:10099800079B012BEAD99DF80430C3F30103DBB2AE
:1009A800012B10D0022B1CD1BDF80A30ADF826302F
:1009B800BDF80630C3F389139BB203339A08049B2E
:1009C8001344049313E0BDF80A30ADF82630BDF89F
:1009D8000430C3F38313DBB21A46049B1344049315
:1009E80005E00E494FF4BF7001F078FC00BF0948DC
:1009F80001F00EFD0590059B002B02D0049B064AD2
:100A08005360BDF8263018460BB05DF804FB00BFF4
:100A1800400600203C0600202802002084A6000092
:100A280000B585B00021074801F06FFC0390039BD7
:100A38000293029B83F310030193019B184605B0B0
:100A48005DF804FB4406002000B589B003900291CC
:100A580001920093039B1B0C0793FFF7E1FF06909D
:100A6800FFF788FE0246079B934204D3214940F2D0
:100A7800A31001F033FC069B1904009B5A1C0A9B27
:100A88001340079A0A431C4902339B000B445A60DF
:100A9800009A0A9B134002339B00174A13440433FD
:100AA8000593039B03F00703D9B2059A137861F302
:100AB800C5031370019B03F00F03D9B2059A13887D
:100AC80061F389131380029BC3F31501059A136818
:100AD80061F39F231360059A1378012161F30103E1
:100AE8001370059A13786FF38203137000BF09B06F
:100AF8005DF804FB84A600002802002000B58BB036
:100B08000390029113468DF80730039B0233089334
:100B180001238DF81F30002001F08AFB3E4B1A6834
:100B2800029B1A603C4B9A683B4B59683A4B1B68CE
:100B3800CB1A13440133099314E00121374801F01B
:100B48002BFCFFF7E3FE05900599344801F024FCDF
:100B5800314B9A68304B59682F4B1B68CB1A13449A
:100B680001330993089A099B9A42E6D89DF81F30E9
:100B7800002B48D0002304939DF80730002B17D092
:100B88009DF81030012262F301038DF810309DF8B2
:100B9800103043F004038DF81030039B03F00F036B
:100BA800DAB2BDF8103062F38913ADF8103016E0F0
:100BB8009DF81030022262F301038DF810309DF881
:100BC800103043F004038DF81030039BC3F309037E
:100BD8009AB2BDF8123062F38F13ADF812300E4B93
:100BE8001A680D4B9B68134002339B000A4A134452
:100BF80004330693049A069B1A60074B1A68089BED
:100C08001344054A1360002001F026FB9DF81F30AD
:100C180018460BB05DF804FB2802002044060020AB
:100C280000B58BB005900491039202931F4B9B680B
:100C3800079306AB012219460298FFF75FFF0346A8
:100C4800002B24D0069B023309930023089311E05C
:100C5800089B9B00039A1A44099B591C0991079900
:100C68000B401268114902339B000B445A60089BE1
:100C780001330893089A029B9A42E9D3069A079B84
:100C880000931346029A04990598FFF7DDFE074B77
:100C980093F82034002B05D000BF00F065F8034618
:100CA800002BFAD100BF0BB05DF804FB280200202E
:100CB80000B583B0019000910023002200990198AB
:100CC800FFF7AEFF00BF03B05DF804FB00B587B0C7
:100CD800039002910192019B059305AA01230299B1
:100CE8000398FFF79DFF00BF07B05DF804FB00B550
:100CF80087B00390029101920093019B0493009B9B
:100D0800059304AA022302990398FFF789FF00BFFD
:100D180007B05DF804FB00B58BB003900291019217
:100D28000093019B0593009B06930C9B07930D9BD7
:100D380008930E9B099305AA052302990398FFF7C8
:100D48006FFF00BF0BB05DF804FB0000054B5A684D
:100D5800044B1B689A420CBF01230023DBB21846E0
:100D6800704700BF2802002000B599B0FFF7EEFFDA
:100D78000346002B01D00023B5E19A4B0022C3F8AB
:100D88001824BFF34F8F974B5B680493954B9B6870
:100D98001093049A109B134002339B00914A13440A
:100DA80004331193002317930023169300230F9302
:100DB80004AB19461198FFF771FD0346002B19D0B3
:100DC800884BD3F81834002B14D1864B1A68049B2F
:100DD8009A4205D8834B1B68824A5360002382E1FC
:100DE800049A109B134002339B007E4A1344043339
:100DF8001193DDE70023159311E0049B5A1C04921C
:100E0800109A1340159A920001A90A4475490233B1
:100E18009B000B445B681360159B01331593159B6E
:100E2800012BEAD99DF8043003F00303DBB2022B4F
:100E380040F09C80BDF80630C3F389139BB20D9334
:100E4800BDF80630C3F389139BB2502B28BF50233B
:100E58009BB20C930C9BC3F309039AB2BDF80630FE
:100E680062F38F13ADF806300C9B08330B939DF893
:100E78000430C3F3C203DBB20F930B995A4802F054
:100E880006F81790179B002B00F0D080179802F0F7
:100E98008EF801A9169B0822179802F043F9169BB1
:100EA80008331693049BDA43109B134001339B00CD
:100EB8000A930C9A0A9B9A4242D90A9B002B08D0A3
:100EC800049A109B134002339B00464A1344043390
:100ED80000E0464B08930A9B002B02D00A9BDBB22A
:100EE80001E00C9BDBB28DF81F300A9B002B01D070
:100EF8003E4B00E0002306930A9B002B06D00C9B78
:100F0800DAB20A9BDBB2D31ADBB200E000238DF819
:100F180017309DF81F20169B0899179802F002F9C0
:100F28009DF81F30169A13441693069B002B16D073
:100F38009DF81720169B0699179802F0F3F80EE013
:100F4800049A109B134002339B00264A134404332F
:100F58000993169B0C9A0999179802F0E3F80D9BD0
:100F680003339A08049B134404935FE09DF804300C
:100F780003F00303DBB2012B58D1BDF80430C3F3EF
:100F88008313DBB2062B28BF0623DAB2BDF8043080
:100F980062F38913ADF80430BDF80430C3F383134A
:100FA800DBB202330E939DF80430C3F3C203DBB205
:100FB8000F930E9B9B0019460B4801F068FF179092
:100FC800179B002B32D0179801F0F1FF01A9169B4F
:100FD8000822179802F0A6F8169B083316930023E8
:100FE80015931AE028020020D4A50000340200203E
:100FF800049B5A1C0492109A134002339B003C4AEB
:101008001344191D169B0422179802F08BF8169B9F
:1010180004331693159B01331593BDF80430C3F3BD
:101028008313DBB21A46159B9342E1D3179B002B1F
:1010380039D02F4BD3F8103414932D4BD3F81834E0
:10104800002B1BD0179801F0C1FF46E000238DF854
:101058004F301498FFF74CFB0346002B02D00123B6
:101068008DF84F309DF84F30002B03D01799149806
:10107800FFF7FAFA149BDB681B681493149B002B88
:10108800E4D1179801F0A2FF002001F0D1F8184B25
:10109800D3F81834002B02D1049B154A5360002062
:1010A80001F0DAF819E0124BD3F81034129306E085
:1010B8001298FFF7F3FA129BDB681B681293129BD6
:1010C800002BF5D10B4A0C4BD31ADB081B0443F059
:1010D80002030A491846FFF7EBFDFFF737FE034600
:1010E80083F00103DBB2184619B05DF804FB00BFBA
:1010F800280200209CA5000064A50000C8A60000E6
:1011080000B585B00023039323E0164BD3F81034C1
:10111800029301238DF807300FE00298FFF7D7FA02
:1011280003461A46039B934203D100238DF80730E8
:1011380006E0029BDB681B680293029B002BECD144
:101148009DF80730002B01D0039B07E0039B013378
:101158000393039B092BD8DD4FF0FF33184605B0E6
:101168005DF804FB2802002000B585B001900B460D
:101178008DF80330FFF7C4FF0390039BB3F1FF3FE3
:1011880001D1039B22E0039BDBB219460198FFF7CC
:1011980091FA104BD3F81034002B08D10D4A019B5B
:1011A800C2F81034019BDB6800221A600DE0094B7D
:1011B800D3F81034DA68019BDB6812681A60054BB3
:1011C800D3F81034DB68019A1A60039B184605B0FF
:1011D8005DF804FB2802002000B583B00C4BD3F85F
:1011E800103401930A4B012283F8202409E0019866
:1011F800FFF775FA0198FFF745FA019BDB681B6852
:101208000193019B002BF2D100BF03B05DF804FBF2
:101218002802002082B00190009100BF02B0704700
:1012280010B584B003900291039BDB88002B0AD091
:10123800039BDB881A461F4B009313461E4A1F491F
:10124800029801F013FA039B1B7A052B2ED0039BFF
:101258005B7A002B12D0039B9B881A46039B1B7A50
:1012680019461046FFF7E2FA03461A46144B53F89C
:1012780022301A461349029801F0F8F9039B1B68BB
:1012880019460298FFF7C6FF039B1B7A1A460E4BB6
:1012980053F82240039B9B8800211846FFF7A6FAC3
:1012A800034622460949029801F0E0F900BF04B05C
:1012B80010BD00BFFCA600000CA7000044A700005A
:1012C8001C0000205CA700000800002060A70000A8
:1012D80000B585B00390029113468DF80730039B43
:1012E8001B7A052B0FD0039B5B7A002B06D00D4B86
:1012F8001B681A460C49029801F0B8F90B49029884
:1013080001F0B4F907E09DF80730002B03D0074936
:10131800029801F0ABF9029801F086F900BF05B018
:101328005DF804FB1C0000205CA700006CA700000F
:1013380030B58BB007900691059204930E9B1B7BEA
:101348008DF827300E9B00221A730E990498FFF728
:1013580067FF059B062B7FD801A252F823F000BF38
:10136800851300008F1300009F130000B3130000C3
:10137800D1130000F91300002914000007990E98F2
:1013880001F074F969E0069B1B681A4607990E98E4
:1013980001F06CF961E0069B1A68069B04331B6830
:1013A80007990E9801F062F957E0069B1A68069BA8
:1013B80004331968069B08331B6800930B4607998A
:1013C8000E9801F053F948E0069B1968069B043310
:1013D8001868069B08331B68069A0C32126801923B
:1013E800009303460A4607990E9801F03FF934E046
:1013F800069B1868069B04331C68069B08331B6809
:10140800069A0C3212680699103109680291019205
:1014180000932346024607990E9801F027F91CE02D
:10142800069B1C68069B04331D68069B08331B68D3
:10143800069A0C3212680699103109680698143019
:10144800006803900291019200932B462246079967
:101458000E9801F00BF900E000BF00220E990498E5
:10146800FFF736FF0E9B9DF827201A7300BF0BB0BD
:1014780030BD00BF00B587B0039002910192009380
:10148800029B082B60D8009B1B7B8DF81330009BB8
:1014980000221A7300990198FFF7C2FE00230593F2
:1014A80014E0059A029B9A4209D2039A059B1344B9
:1014B8001B781A462649009801F0D8F803E0254918
:1014C800009801F0D3F8059B01330593059B072B82
:1014D800E7D92149009801F0C9F80023059326E0CF
:1014E800059A029B9A421BD2039A059B13441B78C8
:1014F8008DF812309DF812307E2B0AD89DF81230E4
:10150800184605F03DF90346002B02D09DF812302D
:1015180000E02E231A461149009801F0A7F803E0CD
:101528000F49009801F0A2F8059B01330593059B2C
:10153800072BD5D9012200990198FFF7C9FE009B16
:101548009DF813201A7300E000BF07B05DF804FB94
:1015580070A7000078A700007CA7000080A7000003
:1015680084A7000000B585B00190019B002B0AD02C
:10157800074B43F001030393019B9B010293039BD9
:101588000298984700E000BF05B05DF804FB00BF73
:10159800C0A7000000B583B00190019B002B0AD0C2
:1015A8004FF47A70FFF7DEFF019B013B0193019B2B
:1015B800002BF5D100E000BF03B05DF804FB00008C
:1015C80000B583B04FF400410020FFF799F801906F
:1015D800019B0093009B002B04D00F4A4B210098DD
:1015E80000F066F8FFF722F804F014FF04F02AFF71
:1015F80000BFFFF7B9FB0346002BFAD14FF47A700E
:10160800FFF7C8FF04F026FF00BFFFF7ADFB034656
:10161800002BFAD1ECE700BF88A7000086B0039042
:101628000291019201238DF817309DF817301F4A57
:10163800039B13601D4A029B53601C4A019B9360E5
:10164800039B44F20102934212D044F202029342F5
:1016580021D1019B154AD360144BDB681B881A46BD
:10166800124B9A61114BDB685B68104AD36112E038
:10167800019B0E4A13610D4B1B699B680B4A536112
:101688000A4B1B691B68094A9361084B1B695B6815
:10169800064AD36100BF72B600BF9DF81730DBB2AF
:1016A800002BFAD162B600BF06B070474C06002086
:1016B80000B583B002900091019244F20100714696
:1016C8006A4600F003F803B000BD00BF30B58BB028
:1016D80007900691059272B6FFF77EFD00BFFFF7EF
:1016E80043FB0346002BFAD1079B44F201029342C5
:1016F80015D044F2020293423ED1059B09932C4A2D
:101708002C4BD31ADB081B0443F00100099B5B68D0
:101718001A46099B1B882849FFF7E9FA39E0059B17
:101728000893234A234BD31ADB081B0443F0010414
:10173800089B9D68089B9B68184601F04FFD03466F
:101748001846089B5B681946089B1B68069A029214
:101758000193009103462A4618492046FFF7DBFA11
:10176800134A144BD31ADB081B0443F00103144932
:101778001846FFF79DFA0CE00D4A0E4BD31ADB080A
:101788001B0443F00103069A0E491846FFF79EFA18
:1017980000BF0D4B1B6803F00103002B00D000BEF7
:1017A800059A06990798FFF739FF00BF0BB030BDBF
:1017B8009CA5000064A50000C8A70000E4A70000DD
:1017C8000CA8000020A80000F0ED00E082B003465D
:1017D8008DF807309DF807309AB2064B1B889A425D
:1017E80004D29DF807300133DBB200E0002318462D
:1017F80002B070477806002000B583B00B4B1B7809
:101808008DF807300A4B1B78DBB21846FFF7DEFF6E
:1018180003461A469DF8073093420CBF0123002364
:10182800DBB2184603B05DF804FB00BF7406002065
:101838007506002000B587B003900B460192ADF8FD
:101848000A30334B1B88BDF80A209A4259D84FF604
:10185800FF73ADF81230002000F0EAFCFFF7CCFF70
:101868000346002B0ED12B4B1B78DBB2ADF81230A0
:10187800284B1B78DBB21846FFF7A8FF03461A4629
:10188800244B1A70002000F0E7FCBDF812304FF628
:10189800FF72934232D0204B1A68BDF81230DB0039
:1018A8001344019A1A60039B002B1CD0BDF80A3020
:1018B800002B18D0194B1B68BDF812201449098851
:1018C80001FB02F21344BDF80A200399184604F0FC
:1018D800A3FF114B1A68BDF81230DB001344BDF8A2
:1018E8000A209A8007E00C4B1A68BDF81230DB001A
:1018F800134400229A800023059304E004230593EF
:1019080001E009230593059B184607B05DF804FB21
:1019180076060020750600206C0600207006002060
:1019280082B003468DF807309DF8073003F01F0298
:1019380005499DF907305B09012000FA02F241F8D8
:10194800232000BF02B0704700E100E082B00346E8
:101958008DF807309DF8073003F01F0206499DF9FE
:1019680007305B09012000FA02F2203341F82320F6
:1019780000BF02B0704700BF00E100E082B003463C
:101988008DF807309DF8073003F01F0206499DF9CE
:1019980007305B09012000FA02F2403341F82320A6
:1019A80000BF02B0704700BF00E100E082B003460C
:1019B8008DF807309DF8073003F01F0206499DF99E
:1019C80007305B09012000FA02F2603341F8232056
:1019D80000BF02B0704700BF00E100E000B585B06D
:1019E8000190019B002B0AD0074B43F0010303939E
:1019F800019B9B010293039B0298984700E000BF5C
:101A080005B05DF804FB00BF70A8000008B50D4BD9
:101A18004FF48032C3F844230A4B4FF48032C3F8A2
:101A280004231120FFF7C2FF1120FFF779FF054BB0
:101A380001221A602F20FFF7D1FF034B01221A70F1
:101A480000BF08BD001001409A07002008B511200A
:101A5800FFF77CFF0E4B4FF48032C3F848230C4B42
:101A68004FF48032C3F80823094B01225A602F2013
:101A7800FFF7B4FF064B01229A60064B00221A605A
:101A88002F20FFF7ABFF044B00221A7000BF08BDE0
:101A9800001001408C0700209A070020024BD3F861
:101AA80004351846704700BF0010014082B001900D
:101AB8000091019A009BD31A23F07F43184602B085
:101AC8007047000082B00190034A019BC2F840357C
:101AD80000BF02B0704700BF0010014086B00190FF
:101AE800284B1B68002B03D1264A019B136045E055
:101AF800019B1A68234B1B681B689A4210D8214B1C
:101B08001B681968019B1A681E4B1B688A1A1A60A1
:101B18001C4B1A68019BDA611A4A019B13602DE07D
:101B2800019B1B680393174B1B680593154B1B6898
:101B3800049309E0049B1B68039AD31A0393049B3C
:101B48000593049BDB690493049B002B04D0049B3E
:101B58001B68039A9A42EDD8049B002B05D0049B7E
:101B68001A68039BD21A049B1A60019B039A1A6095
:101B7800019B049ADA61059B019ADA6100BF06B0FD
:101B8800704700BF8807002000B587B001902A4B36
:101B98001B680393284B1B680593059B049308E077
:101BA800049A019B9A4208D0049B0593049BDB6925
:101BB8000493049B002BF3D100E000BF049B002B8F
:101BC80001D1002333E0059A049B9A4214D11A4BA1
:101BD8001B68DB69184A1360174B1B68002B0BD175
:101BE800164B01229A60164B00221A60154B0122EF
:101BF8001A702F20FFF7F2FE049B1B680293049BC8
:101C0800DA69059BDA61059BDB690493049B002B69
:101C180005D0049B1A68029B1A44049B1A60064B61
:101C28001B68039A9A4214BF01230023DBB21846AB
:101C380007B05DF804FB00BF8807002000100140D2
:101C48008C0700209B07002008B51120FFF796FE9F
:101C580000BF08BD08B51420FFF790FE00BF08BDFF
:101C680000B585B001900B46ADF80230BDF80230E2
:101C7800082B0CBF01230023DBB20393039B002B2B
:101C880005D1094A40F273110020FFF711FD019BAD
:101C98000293029B1B68029A52681046984700BF3D
:101CA80005B05DF804FB00BF38A8000000B587B098
:101CB8000190019B5B690293019B9B69039302ABB3
:101CC8000A4A08211846FFF7B5FD0590059B0493BD
:101CD800049B002B05D0064A40F287110498FFF7B1
:101CE800E7FC00BF07B05DF804FB00BF691C0000FB
:101CF80038A8000000B585B02B4B1B68002B4ED0D0
:101D080000230193FFF7CAFE0246284B1B681946B9
:101D18001046FFF7CBFE0290234B1B6803931DE090
:101D2800039B1B68029A9A421CD3039B1B68029A66
:101D3800D31A0293039B1B68019A13440193039BD4
:101D48000093039BDB690393009B1B7C002B05D04E
:101D5800009B00221A740098FFF7A8FF039B002B32
:101D6800DED100E000BF124B1A78124B1B789A4262
:101D78000CD1104B1B780133DAB20E4B1A700D4B95
:101D88001B78022B02D10B4B00221A70094B1B78CF
:101D98001946094A019B42F82130FFF75BFF00BF53
:101DA80005B05DF804FB00BF880700208C07002001
:101DB80098070020990700209007002082B0019022
:101DC800184B1A78184B1B789A4223D0154B1B785E
:101DD8000133DAB2134B1A70124B1B78022B02D163
:101DE800104B00221A700F4B1B781A460F4B53F8F2
:101DF8002220019B1A60019B1A680D4B1B68134433
:101E08000B4A13600A4B1B6823F07F43084A136090
:101E1800012303E0019B00221A600023184602B048
:101E2800704700BF980700209907002090070020FE
:101E38008C07002088B00390029101920023079339
:101E480038E0204B1B680693069B1B68039A9A424E
:101E580006D2069B1A68039BD21A069B1A602DE0CD
:101E6800069B1B68039AD31A0393069B1B68079A61
:101E780013440793069B00221A60124B1B680593B4
:101E8800069BDB690F4A1360069BDB68002B11D0A9
:101E9800029A079B134423F07F42069B5A60069BD5
:101EA800DA68069B9A60019B1A68069BDA61019BB7
:101EB800059A1A60034B1B68002BC2D100BF08B0FB
:101EC800704700BF8807002000B589B00190002343
:101ED8008DF81F30664B1B680593AAE0019B002B09
:101EE80005D0019B0693069BDB69019361E0614B7A
:101EF8001B781A4613465B001344DB005D4A134403
:101F0800043304935B4B1B780133DAB2594B1A70D4
:101F1800584B1A78574B9B789A4202D1554B00225E
:101F28001A70049B5B680693049B1B78022B04D0F1
:101F3800032B1BD0012B1FD01DE0049B5B681846A8
:101F4800FFF722FE0346002B02D001238DF81F3035
:101F5800069B00221A746CE0454B1B680393039B95
:101F680000221A74039BDB69414A1360404B1B68CB
:101F7800002BF1D15DE05CE000BF069B1B7C002BD1
:101F880000D056E0049B9A68069B5A60049BDA6866
:101F9800069B9A60049B1A69069BDA60049B5A693F
:101FA800069B9A61344B1B78002B02D0069B0022BB
:101FB8005A60069B5A68314B1B68D31A23F07F433B
:101FC8002F4A93420ED8069B5A682C4B1B68194619
:101FD8001046FFF76BFD0246069B9B681A44069B5A
:101FE8001A6017E0254B1A68069B5B68194610466D
:101FF800FFF75CFD0290069B9B68029A9A4206D204
:10200800069B9A68029BD21A069B1A6002E0069BFE
:1020180000221A60069B00225A60069B00229A60E2
:10202800069B01221A74069B0022DA610698FFF7C4
:1020380055FD019B002B7FF451AF0E4B1A780D4BC9
:102048005B789A427FF44AAF9DF81F30002B04D189
:10205800074B1B68059A9A4201D0012300E0002330
:1020680003F00103DBB2184609B05DF804FB00BFBA
:10207800880700207C0600209B0700208C07002092
:10208800FEFF7F0010B588B00190274B1B68002B1E
:1020980044D0254B1B681B680793FFF7FFFC06908D
:1020A800224B1B68059305990698FFF7FFFC03462A
:1020B800033304931E4B1B7883F00103DBB2002B20
:1020C80001D0FFF7A3FC049A079B934238BF13463D
:1020D800059A13440593059B23F07F4305930598C0
:1020E800FFF7F0FCFFF7DAFC039006990398FFF777
:1020F800DDFC0346DC1C06990598FFF7D7FC034670
:102108009C420DD9FFF7CAFC03461846FFF7DAFCD4
:102118002F20FFF763FCFFF797FD01E0FFF796FC20
:1021280000BF08B010BD00BF880700208C07002042
:102138009A07002000B587B00023019300238DF88B
:102148001730194B1B680493184B1B6803936B4695
:102158001846FFF733FE03468DF80B309DF80B3019
:10216800002B08D0009B01AA04991846FFF762FECD
:1021780001238DF81730019B1846FFF7A5FE03468B
:10218800002B02D001238DF817309DF81730002B53
:1021980002D00398FFF776FF054B00221A7000BFA4
:1021A80007B05DF804FB00BF8C07002088070020FB
:1021B8009B07002008B50E4B0022C3F840210C4BAA
:1021C8000022C3F844210A4B0022C3F84821084BD7
:1021D8000022C3F84C21064B0022C3F80021044B0F
:1021E8000022C3F80421FFF785FD00BF08BD00BF2A
:1021F8000010014008B5FFF79DFF00BF08BD0000B3
:1022080072B6034B1B680133014A136000BF704765
:102218009C070020054B1B68013B044A1360034BD5
:102228001B68002B00D162B600BF70479C070020D6
:1022380000B583B0019000F025F80346012B03D0C8
:102248000449432000F04AF8FFF7DAFF00BF03B063
:102258005DF804FB78A8000000B583B003468DF84C
:10226800073000F00FF80346012B03D00449512032
:1022780000F034F8FFF7CEFF00BF03B05DF804FBB1
:1022880078A8000084B0EFF305830193019BC3F3A2
:1022980008030393039B002B0DD1EFF314830093E2
:1022A800009B0293029B03F00103002B0CBF012348
:1022B8000023DBB200E00123184604B0704700B5E4
:1022C80085B0039002910192019B9BB20299184636
:1022D80000F004F800BF05B05DF804FB00B585B058
:1022E80003460091ADF80630BDF80630ADF8083069
:1022F800009B039302AB1A46002144F20200FFF749
:10230800E5F900BF05B05DF804FB10B487B0019093
:102318000091019B009A53E8004F104643E80001E2
:1023280091F0000FF7D1059404900391059B18468E
:1023380007B05DF8044B704710B487B00190009166
:10234800019B009A53E8004F44EA020043E8000169
:1023580091F0000FF6D1059404900391049B184660
:1023680007B05DF8044B704710B487B00190009136
:10237800019B009A53E8004F04EA020043E8000179
:1023880091F0000FF6D1059404900391059B18462F
:1023980007B05DF8044B704710B487B00190009106
:1023A800019B009A53E8004F04EB020043E8000148
:1023B80091F0000FF6D1059404900391049B184600
:1023C80007B05DF8044B704710B487B001900091D6
:1023D800019B009A53E8004FA4EB020043E8000178
:1023E80091F0000FF6D1059404900391049B1846D0
:1023F80007B05DF8044B704700B583B00190012128
:102408000198FFF799FF0346184603B05DF804FBEF
:1024180000B583B0019000210198FFF7A5FF03469E
:10242800184603B05DF804FB00B583B001900B4675
:102438008DF80330019B002B03D10849E820FFF7F2
:102448004DFF019BDA689DF803300199098A01FB69
:1024580003F31344184603B05DF804FBC4A8000056
:1024680000B583B001900091019B002B03D108496E
:10247800F520FFF733FF009B019AD2689B1A019A57
:10248800128AB3FBF2F3DBB2184603B05DF804FB23
:10249800C4A8000000B585B00190019B002B01D1B4
:1024A8000E234DE0019B1B68002B03D12649FF201A
:1024B800FFF714FF019B5B68002B04D122494FF4FE
:1024C8008070FFF70BFF019B9B68002B04D11E490E
:1024D80040F20110FFF702FF019BDB68002B04D1DB
:1024E80019494FF48170FFF7F9FE019B1B8A002BF5
:1024F80004D1154940F20310FFF7F0FE019B9B68D9
:102508001A46019B5B68D31A8DF80F30019B1B6834
:10251800019A52681A6007E0019B1A681368591CEF
:1025280011609DF80F201A709DF80F305A1E8DF813
:102538000F20002BF0D1019B1B6800221A71002389
:10254800184605B05DF804FBC4A8000000B585B0C6
:102558000190019B002B04D11C494FF49270FFF7A6
:10256800BDFE002303930020FFF762FE019B1B685A
:102578001A68019B5B689A4220D9019B1B681A68FC
:10258800013A1A601B681B7819460198FFF74CFF3F
:102598000390019B9B681A46019B1B681B68D31A12
:1025A8008DF80B30019B1B681B799DF80B209A4214
:1025B80004D9019B1B689DF80B201A710020FFF7B6
:1025C8004BFE039B184605B05DF804FBC4A8000049
:1025D80010B584B001900091019B002B04D11149E2
:1025E80040F24710FFF77AFE009B002B04D10D49FB
:1025F8004FF4A470FFF772FE009B03930020FFF7CF
:1026080017FE019B1B681C68621C1A6003990198DD
:10261800FFF726FF034623700020FFF71DFE00BFCB
:1026280004B010BDC4A8000000B583B00190019BA0
:10263800002B03D10C493120FFF750FE019B9B680A
:10264800002B0CD0019B5B69019A1069019A1168F3
:10265800019A92689847019B00229A6000E000BFA7
:1026680003B05DF804FB00BF00A900000EB400B57C
:1026780084B00190019B002B03D118494220FFF739
:102688002DFE019B5B69002B03D114494320FFF702
:1026980025FE019B1B68002B03D110494420FFF73E
:1026A8001DFE019B5B68002B03D10C494520FFF7F9
:1026B80015FE059B002B0AD00023039306AB03935A
:1026C80003AB1A460599019800F0B8F900E000BF7D
:1026D80004B05DF804EB03B0704700BF00A9000028
:1026E80000B583B001900B468DF803309DF8033098
:1026F8000A2B03D10D210198FFF7F2FF019B1A68FD
:10270800019B9B68581C0199886013449DF803201D
:102718001A70019B9A68019B5B689A4202D30198E0
:10272800FFF782FF00BF03B05DF804FB00B587B078
:10273800039002910192009300230593009B03F0FC
:102748000103002B24D00BE0029B01330293059B6D
:10275800013305939DF8133019460398FFF7C0FF1E
:10276800029B1B788DF813309DF81330002BEBD1AA
:1027780006E0019B013B019320210398FFF7B0FF7E
:10278800019A059B9A422ED9019B002BF1D12AE090
:10279800029B002B0BD0029804F0BCF8059006E0D1
:1027A800019B013B019320210398FFF799FF019AB0
:1027B800059B9A420FD9019B002BF1D10BE0029B9C
:1027C80001330293059B013305939DF81330194695
:1027D8000398FFF785FF029B1B788DF813309DF84F
:1027E8001330002BEBD100BF07B05DF804FB0000ED
:1027F80000B589B00390029101920093029B079360
:102808000123069307E0079A019BB2FBF3F30793B2
:10281800069B01330693079A019B9A42F3D2009ACA
:10282800069B9A4201D9009B06930B9B03F0010378
:10283800002B22D10A9B002B1FD00B9B03F0020315
:10284800002B06D0009B002B03D130238DF81730C6
:1028580002E020238DF8173008E00A9B013B0A9319
:102868009DF8173019460398FFF73AFF0A9B002B8B
:1028780003D0069A0A9B9A42EFD301230793009B41
:10288800012B03D9009B013B009309E0029A079BA7
:10289800B2FBF3F30493049A019B9A4200D205E039
:1028A800079B019A02FB03F30793E8E7029A079B49
:1028B800B2FBF3F30493049B079A02FB03F3029A17
:1028C800D31A0293154A049B13441B78194603989C
:1028D800FFF706FF079A019BB2FBF3F30793079BE9
:1028E800002BE3D10B9B03F00103002B11D00A9BB3
:1028F800002B0ED006E00A9B013B0A932021039887
:10290800FFF7EEFE0A9B002B03D0069A0A9B9A4219
:10291800F1D300BF09B05DF804FB00BF68A900004F
:1029280000B589B00590049103920293049B002B93
:10293800B8BF5B4206930123079307E0039B069AFF
:1029480092FBF3F30693079B01330793039B069AC5
:102958009A42F3DA029A079B9A4201D9029B07939B
:102968000A9B002B0AD0049B002B04DB0B9B03F073
:102978000403002B02D00A9B013B0A930B9B03F034
:102988000203002B02D0029B002B16D00B9B03F0F6
:102998000103002B11D10A9B002B0ED006E00A9BE5
:1029A800013B0A9320210598FFF79AFE0A9B002B0A
:1029B80003D0079A0A9B9A42F1D3049B002B07DAAB
:1029C800049B5B4204932D210598FFF789FE08E0DC
:1029D8000B9B03F00403002B03D02B210598FFF772
:1029E8007FFE0B9B03F00203002B19D00B9B03F017
:1029F8000103002B14D1029B002B11D10A9B002B41
:102A08000ED006E00A9B013B0A9330210598FFF798
:102A180067FE0A9B002B03D0079A0A9B9A42F1D3C0
:102A280004990B9B01930A9B0093029B039A0598B8
:102A3800FFF7DEFE00BF09B05DF804FB00B58FB0FC
:102A4800059004910392059B002B04D1C8494FF4CB
:102A5800A270FFF743FC059B5B69002B04D1C449B6
:102A68004FF4A370FFF73AFC059B1B68002B04D1B9
:102A7800BF4940F24710FFF731FC059B5B68002B0C
:102A880004D1BB494FF4A470FFF728FC049B002B2A
:102A980000F0ED81049B1B788DF83730049B0133DF
:102AA80004939DF83730002B00F0D8819DF837301B
:102AB800252B40F0C78100230A9301230C93049B24
:102AC8001B788DF837309DF837302D2B04D0302BFC
:102AD8000AD02B2B10D017E00A9B43F001030A936E
:102AE800049B0133049312E00A9B43F002030A9308
:102AF800049B013304930AE00A9B43F004030A93FE
:102B0800049B0133049302E000230C9300BF0C9B49
:102B1800002BD4D1002309939DF837302A2B0CD1F0
:102B2800039B1B68191D039A11601B68099A1344BB
:102B38000993049B013304931AE0049B1B788DF8D6
:102B480037309DF837302F2B12D99DF83730392B75
:102B58000ED8049B01330493099A13469B0013442F
:102B68005B001A469DF837301344303B0993D3E78E
:102B780000230B93049B1B788DF837309DF8373072
:102B88002E2B1DD1049B01330493049B1B788DF8D5
:102B980037309DF837302F2B12D99DF83730392B25
:102BA8000ED8049B013304930B9A13469B001344DD
:102BB8005B001A469DF837301344303B0B93E4E72B
:102BC800049B1B788DF837309DF837306C2B03D079
:102BD8009DF83730682B07D1049B01330493049B7D
:102BE8001B788DF83730EFE79DF83730253B532BAE
:102BF80000F2238101A252F823F000BF392E000011
:102C0800432E0000432E0000432E0000432E0000F8
:102C1800432E0000432E0000432E0000432E0000E8
:102C2800432E0000432E0000432E0000432E0000D8
:102C3800432E0000432E0000432E0000432E0000C8
:102C4800432E0000432E0000432E0000432E0000B8
:102C5800432E0000432E0000432E0000432E0000A8
:102C6800432E0000432E0000432E0000432E000098
:102C7800432E0000432E0000432E0000432E000088
:102C8800432E0000432E0000432E0000432E000078
:102C9800432E0000432E0000432E0000432E000068
:102CA800432E0000432E0000432E0000432E000058
:102CB800432E0000432E0000432E0000432E000048
:102CC800432E0000432E0000C52D0000432E0000B7
:102CD800432E0000432E0000432E0000432E000028
:102CE800432E0000432E0000432E0000432E000018
:102CF800432E0000552D00007D2D0000432E0000BE
:102D0800432E0000432E0000432E00007D2D0000BE
:102D1800432E0000432E0000432E0000432E0000E7
:102D2800432E0000432E0000052E0000432E000015
:102D3800432E0000E92D0000432E0000A12D0000C5
:102D4800432E0000432E0000C52D0000039B1B6886
:102D5800191D039A11601B680C930C9B8DF81F308A
:102D68009DF81F3019460598FFF7BAFC66E000BFCA
:102D780030A90000039B1B68191D039A11601B688A
:102D88000C930A9B0193099B00930B9B0A220C99B5
:102D98000598FFF7C5FD51E0039B1B68191D039AB1
:102DA80011601B680C930C990A9B0193099B009373
:102DB8000B9B0A220598FFF71BFD3FE0039B1B684E
:102DC800191D039A11601B680C930C990A9B0193B7
:102DD800099B00930B9B10220598FFF709FD2DE036
:102DE800039B1B68191D039A11601B6808930A9BB3
:102DF800099A08990598FFF799FC1FE0039B1B683F
:102E0800191D039A11601B680C9330210598FFF770
:102E180067FC78210598FFF763FC0C990023019360
:102E280008230093082310220598FFF7E1FC05E02A
:102E380025210598FFF754FC00E000BF049B0133EF
:102E4800049305E09DF8373019460598FFF748FCCC
:102E5800049B1B78002B7FF41DAE00E000BF059B90
:102E68001B7B002B04D00598FFF7DEFB00E000BFBA
:102E78000FB05DF804FB00BF00B583B00190019866
:102E8800FFF708FB0346184603B05DF804FB00B5DE
:102E98008BB001900091019B1B8A043B0793009A19
:102EA800079B1344DA1C079BB2FBF3F38DF81B3026
:102EB8000198FFF74BFB0590059B002B01D10023E0
:102EC80038E0059B00221A71059B01225A71079B65
:102ED8009AB2059BDA80059B09939DF81B30013B4C
:102EE8000493099B019A1A60002308931DE0019836
:102EF800FFF72CFB0390039B002B0ED0059B5B79FF
:102F08000133DAB2059B5A71099B039A1A60039B35
:102F1800019A1A60039B099304E0059800F00EF8E3
:102F2800002307E0089B01330893089A049B9A4200
:102F3800DDD3059B18460BB05DF804FB00B58BB0DC
:102F48000190019B0793079B5B798DF81B30019BD0
:102F580008939DF81B30013B05930023099305E076
:102F6800089B1B680893099B01330993099A059BE1
:102F78009A42F5D3089B1B680493019B089300238E
:102F880009930BE0089B1B68039308990498FFF7C3
:102F98001FFB039B0893099B013309939DF81B3082
:102FA800099A9A42EED300BF0BB05DF804FB00B556
:102FB80085B00190019B0393039B043301211846BC
:102FC800FFF7EAF900BF05B05DF804FB00B587B06C
:102FD8000190019B0593059B043301211846FFF7D7
:102FE800F3F90346039303AB0493049B1B78002B6C
:102FF80002D10198FFF7A2FF00BF07B05DF804FBFC
:1030080000B591B00390029101920093039B002BAD
:1030180003D14349B620FFF761F9039B0993039B4A
:103028000F93099BDB881A46099B5B7903FB02F324
:10303800043B0893009A089B9A4203D33849C4205A
:10304800FFF74CF9099BDB880793009B1A1D079B28
:10305800B2FBF3F30E93009B0433079AB3FBF2F22F
:10306800079901FB02F29B1A0D93019B1A68009BBA
:103078001344089A9A4203D2089A009BD31A01E093
:10308800019B1B680C93019B0C9A1A6005E00F9B2F
:103098001B680F930E9B013B0E930E9B002BF6D1E2
:1030A80000230B93079A0D9BD31A0A930A9A0C9B39
:1030B800934228BF13460A932AE0029A0B9B1344B3
:1030C80006930F9A0D9B1344043305939DF84830DB
:1030D800002B05D00A9A0599069803F09DFB04E099
:1030E8000A9A0699059803F097FB00230D930F9B06
:1030F8001B680F930C9A0A9BD31A0C930B9A0A9B82
:1031080013440B93079A0C9B934228BF13460A93C8
:103118000C9B002BD1D100BF11B05DF804FB00BFA0
:1031280078A9000000B589B0059004910392029334
:10313800039B079307AA00230093029B0499059811
:10314800FFF75EFF079B039A9A4203D00349F620D4
:10315800FFF7C4F800BF09B05DF804FB78A90000C8
:1031680000B589B00590049103920293039B0793DD
:1031780007AA01230093029B04990598FFF740FFD3
:10318800079B039A9A4204D004494FF48070FFF7D2
:10319800A5F800BF09B05DF804FB00BF78A90000DE
:1031A80082B00190019B9B6800229A60019B9B68FA
:1031B80000221A61019B9B6800225A61019B9B684F
:1031C8000022DA60019B9B6800225A60019B9B6881
:1031D80000221A6000BF02B07047000000B585B039
:1031E8000190019800F00EF80390039B002B01D08A
:1031F800039B00E0024B184605B05DF804FB00BFD6
:103208008CAA000086B00190164B0593164B0493C8
:103218001FE0049A059BD31ADB10DA0F13445B10E6
:10322800DB00059A13440393039B1B680293029ADD
:10323800019B9A4202D9039B04930AE0029A019BDC
:103248009A4203D2039B0833059302E0039B5B6811
:1032580004E0059A049B9A42DBD30023184606B083
:10326800704700BF60AE000078AF000000B585B0C1
:103278000190019B002B03D112492D20FFF72EF856
:10328800019B00225A71019B00229A71019B102216
:10329800DA71019B00221A72019B00225A72019B6B
:1032A8001B681B685B689B68032B01D8092304E033
:1032B800019800F031F80390039B184605B05DF8BB
:1032C80004FB00BF78AF000000B589B005900491F9
:1032D80003928DF80B30059B002B03D10D49772005
:1032E800FEF7FCFF059B1868059B19799DF80B30C4
:1032F8001A4692001344DBB20193039B0093049B8C
:10330800282200F0EFFA0790079B184609B05DF8ED
:1033180004FB00BF78AF000000B587B00390039BA3
:10332800002B03D12749D520FEF7D8FF039BDB7973
:1033380043F01003DAB2039BDA71039B9B7903F025
:103348007F03DAB2039B9A71039BDB7923F00203B4
:10335800DAB2039BDA71039B1868039B1979039B04
:103368005A1D0123009313460B2200F0D5FB05904C
:10337800059B002B01D0059B20E0039B1868039B4D
:103388001979039B9A1D032300931346102200F01A
:10339800C3FB0590059B002B01D0059B0EE0039B0A
:1033A8001868039B1979039B03F109020123009311
:1033B8001346142200F0B0FB0590059B184607B091
:1033C8005DF804FB78AF000000B583B00190019B65
:1033D8000433184601F046FD00BF03B05DF804FB56
:1033E80000B583B00190019B0433184601F082FDBB
:1033F80000BF03B05DF804FB00B591B003900291E3
:10340800019200230F93029B1B788DF82830029BB2
:103418005B788DF82930029B9B780B93029BDB78B5
:103428000C93029B5B680D93029B9B680E93039B16
:1034380004330AA9019A184601F09EFF0F900F9BCA
:10344800184611B05DF804FB82B00190019B1B681F
:103458001B68002B0CBF01230023DBB2184602B007
:103468007047000000B58DB00190019B002B03D17F
:1034780047493720FEF732FF019B1B680A930A9BD6
:103488001B7E8DF827300A9B1B689A689DF82730A9
:10349800DB0013440893089B5B795B088DF81F30A9
:1034A8009DF81F308DF80D30089B1B680493089B0E
:1034B8001B798DF80E30089B9B7903F00103002BD4
:1034C80047D0089B5B7903F00103002B41D19DF89D
:1034D800273001330A9A1268127B934239DA089B23
:1034E8005B795B08DAB20A9B1B6899689DF82730FC
:1034F8000133DB000B445B795B08DBB29A4228D1CD
:103508000A9B1B689A689DF827300133DB00134437
:103518000693069B1B680593069B1B798DF80F3055
:10352800069B5B7903F00103002B01D0022300E026
:1035380003238DF80C30069B9B795B0103F0200375
:103548000B930A9B1B7EDBB20133DAB20A9B1A7615
:1035580011E0089B5B7903F00103DBB28DF80C30B6
:103568000023059300238DF80F30089B9B795B019E
:1035780003F020030B93019B083303A90B9A184609
:10358800FFF73AFF034618460DB05DF804FB00BF8D
:10359800B4AF000000B585B001900091019B002BED
:1035A80003D10D497120FEF799FE019B1B681B682A
:1035B8001B68002B0BD0019B1B681B685B6803937F
:1035C800019B1B681B681B6803990098984700BFFC
:1035D80005B05DF804FB00BFB4AF000000B589B0CA
:1035E80001900B468DF80330019B002B03D13E4917
:1035F8008720FEF773FE019B1B68069300238DF856
:103608001F300020FEF714FE9DF80330002B05D173
:103618000198FFF719FF0346002B10D0019B5B6848
:1036280006990022184600F0BFFB0346002B03D181
:1036380001238DF81F3002E0069B00221A6000204B
:10364800FEF70AFE9DF81F3083F00103DBB2002B62
:1036580044D1069B1B681B69002B02D1069B0433CF
:1036680002E0069B1B681B690593069B5B69102299
:103678000599184603F089F80346002B1CD0019BD6
:1036880008331846FFF7A0FE019B03F10800019BD1
:10369800164A059902F024F90490049B002B03D0E4
:1036A8001149B420FEF71AFE019B08331846FFF7AC
:1036B80097FE069B059A5A61069B00221A76019886
:1036C800FFF7D0FE0390039B002B09D003990198C4
:1036D800FFF760FF01238DF803308FE700BF00E09C
:1036E80000BF09B05DF804FBB4AF0000F936000074
:1036F80000B587B001900091019B002B03D12049B0
:10370800D220FEF7EBFD009B0493049B1B681B680B
:10371800002B03D11A49D820FEF7E0FD019B1B7846
:10372800002B20D100230593049B1B681B7E8DF87A
:103738000F309DF80F3001338DF80F30049B1B6854
:103748001B681B7B9DF80F209A420ED2049B1B68B6
:103758009DF80F201A760498FFF784FE0590059BC4
:10376800002B02D109E00323059305990498FFF77C
:1037780011FF01210498FFF731FF07B05DF804FB42
:10378800B4AF000010B584B001900091019B002BEC
:1037980004D125494FF48470FEF7A0FD019B5B68B6
:1037A800002B04D1204940F20910FEF797FD019B38
:1037B8005B689B68002B04D11B494FF48570FEF7AA
:1037C8008DFD009B002B04D1174940F20B10FEF72A
:1037D80085FD019B03F10800019B144A009902F042
:1037E8007FF80390039B0293029B002B01D0029B5E
:1037F80017E0019B08331846FFF7F2FD019B1B6891
:1038080000221A60019B1B68009A1C1D13460FCBEF
:1038180084E80F00019B1A68019B1B6804325A61F7
:103828000023184604B010BDB4AF0000F9360000FC
:1038380000B585B001900091019B002B04D11A4975
:1038480040F22D10FEF74AFD009B002B04D11649CB
:103858004FF49770FEF742FD009B9B68002B04D144
:10386800114940F22F10FEF739FD009B1B7B002BFE
:1038780004D10D494FF49870FEF730FD00230393EF
:10388800019B5B686A461146184600F0DDF9039013
:10389800039B002B03D100210198FFF79FFE039B98
:1038A800184605B05DF804FBB4AF000000B585B05C
:1038B80001900091009B0393039B9B6A002B06D009
:1038C800039B9B6A039AD268114601989847039B09
:1038D800DB6A5B6800991846FEF77AFE00BF05B000
:1038E8005DF804FB00B587B0039001930B468DF893
:1038F8000B3013468DF80A30039B002B03D139494E
:103908005120FEF7EBFC089B002B03D135495220D0
:10391800FEF7E4FC039B5B681846FEF717FE05906C
:10392800059B002B01D1042357E0059B039ADA621B
:10393800059B019A9A62059B9DF80A201A70059AC0
:103948009DF80B305B00D9B2059B5A60059B01229C
:103958001A72059B0A465A72059B01229A729DF8B3
:103968000B305B005BB243F001035BB2D9B2059B3D
:10397800089ADA60059B9DF824201A74059B0A466C
:103988005A74059B01229A74059B191D059B1433D3
:1039980000221A605A609A60DA601A61059B124A1E
:1039A8005A61059B059A9A61059BD961059B02227C
:1039B80083F82020039B1A68059B14331946104688
:1039C800FFF736FF0490049B002B05D0039B5B6830
:1039D80005991846FEF7FCFD049B184607B05DF8EC
:1039E80004FB00BF00B00000B538000000B585B08A
:1039F80001900091009B0393039BDB6A5B6800992D
:103A08001846FEF7E5FD00BF05B05DF804FB0000B1
:103A180000B587B0039001921A460B468DF80B301B
:103A280013468DF80A30039B002B03D138498E20AA
:103A3800FEF754FC019B002B03D135498F20FEF77C
:103A48004DFC039B5B681846FEF780FD0490049BC1
:103A5800002B01D1042357E0049B039ADA629DF8F6
:103A68000B305B00D9B2049B019A1A61049B9DF844
:103A78000A201A75049B0A465A75049B00229A75F7
:103A88009DF82030002B15D09DF80A30102B07D94F
:103A9800039B5B6804991846FEF79AFD092333E0F7
:103AA800049B9DF80A200199184602F0B5FE049A75
:103AB800049B1A61049B03F11001049B1833002234
:103AC8001A605A609A60DA601A61049B114A9A6116
:103AD800049B049ADA61049B1962049B012283F80F
:103AE8002420039B1A68049B183319461046FFF7D5
:103AF8009FFE0590059B002B05D0039B5B680499EE
:103B08001846FEF765FD059B184607B05DF804FBEF
:103B180000B00000F539000000B58BB005900393A4
:103B28000B468DF8133013468DF81230059B002B89
:103B380003D11749CB20FEF7D1FB039B002B03D100
:103B48001349CC20FEF7CAFB9DF830300F2B01D962
:103B5800092319E09DF812308DF818309DF83020AF
:103B680006AB01330399184602F056FE9DF8303033
:103B78000133D8B206AA9DF8131001230093034617
:103B88000598FFF745FF034618460BB05DF804FBA0
:103B980000B0000000B583B001900091019B002B9C
:103BA80003D108497720FEF799FB019B9B68009A8F
:103BB8009A4202D2009B013300E00023184603B06A
:103BC8005DF804FB44B0000084B00190019B1B68C1
:103BD8001B680393019B1B685B680293029A039B13
:103BE8009A4203D3029A039BD31A06E0019B9A6870
:103BF800039BD21A029B13440133184604B0704742
:103C080000B585B00190019B002B03D10D498A2096
:103C1800FEF764FB019B1B681B680393019B1B68F1
:103C28005B68029302990198FFF7B4FF0246039B71
:103C380093420CBF01230023DBB2184605B05DF8A0
:103C480004FB00BF44B0000010B586B0019000919D
:103C580000230593019B002B03D152499520FEF7C1
:103C68003DFB009B002B03D14E499620FEF736FB07
:103C78000020FEF7DDFA0198FFF7C2FF03468DF832
:103C880013309DF8133083F00103DBB2002B03D10E
:103C9800019B1B7C002B7AD1019B1B685B680393FB
:103CA800019B1B685A68019B1C6811460198FFF725
:103CB80071FF034663609DF81330002B0AD0019B07
:103CC8001B681A68019B1C6811460198FFF762FF80
:103CD80003462360019BDB68013B072B37D801A211
:103CE80052F823F00D3D00001D3D0000573D000037
:103CF8002F3D0000573D0000573D0000573D000094
:103D0800413D0000019B5A68039B1344009A1278B6
:103D18001A702DE0019B5A68039B5B001344009ABC
:103D280012881A8024E0019B5A68039B9B00134465
:103D3800009A12681A601BE0019B5A68039BDB001B
:103D48001A44009BD3E90034C2E9003410E0019B17
:103D58005B681946019BDB68039A02FB03F30B447B
:103D68001846019BDB681A46009902F055FD00BF12
:103D78000198FFF729FF0290019B1B689B68029A34
:103D88009A4207D9019B1B68029A9A6002E00423B1
:103D9800059300E000BF0020FEF75EFA059B184679
:103DA80006B010BD44B0000010B586B00390029173
:103DB80013468DF8073000230593039B002B03D18E
:103DC8004249D920FEF78AFA029B002B03D13F49CA
:103DD800DA20FEF783FA0020FEF72AFA039800F0AB
:103DE80077F8034683F00103DBB2002B65D0039B11
:103DF8001B681B6804939DF8073083F00103DBB24E
:103E0800002B0AD0039B1B681A68039B1C68114689
:103E18000398FFF7BFFE03462360039BDB68013B63
:103E2800072B38D801A252F823F000BF553E0000F6
:103E3800653E00009F3E0000773E00009F3E000068
:103E48009F3E00009F3E0000893E0000039B5A6889
:103E5800049B13441A78029B1A7030E0039B5A683B
:103E6800049B5B0013441A88029B1A8027E0039B7B
:103E78005A68049B9B0013441A68029B1A601EE050
:103E8800039B5A68049BDB001344D3E90034029A6D
:103E9800C2E9003413E0039B5B681946039BDB68A7
:103EA800049A02FB03F30B441946039BDB681A468A
:103EB800029802F0B1FC00BF01E005230593002041
:103EC800FEF7CAF9059B184606B010BD44B00000BD
:103ED80000B585B00190019B002B04D10B4940F23D
:103EE8000A20FEF7FBF9019B1B681B680393019BE3
:103EF8001B685B680293039A029B9A420CBF0123DA
:103F08000023DBB2184605B05DF804FB44B000009E
:103F180008B500F0FFF800BF08BD000008B500F0C4
:103F280013F9024B00225A7000BF08BDA0070020F9
:103F380084B001900091019B1B68039306E0039AEB
:103F4800009B9A420DD0039B1B680393039B002B95
:103F5800F5D1019B1A68009B1A60019B009A1A60B0
:103F680000E000BF04B0704700B583B00190234B58
:103F78001B78002B04D122494FF49370FEF7AEF959
:103F88001E4B5B78DBB2002B12D0019B002B03D0B9
:103F9800019B5B68002098470020FEF749F9174B02
:103FA8005B680133154A53600020FEF755F917E0A6
:103FB8000020FEF73DF9019B002B03D00199114821
:103FC800FFF7B6FF0D4B5B68002B01D1FFF7A0FF91
:103FD8000A4B5B680133094A53600020FEF73CF93D
:103FE800064B5B68002B04D105494FF4A170FEF71E
:103FF80075F900BF03B05DF804FB00BFA0070020FF
:1040080084B00000A807002008B5124B1B78002BCD
:1040180004D1114940F24710FEF760F90D4B5B6877
:10402800002B04D10C494FF4A470FEF757F9002077
:10403800FEF7FEF8074B5B68013B064A5360054BE9
:104048005B68002B01D1FFF769FF0020FEF704F938
:1040580000BF08BDA007002084B0000082B0019016
:104068004FF08042019BC2F8043300BF02B0704792
:1040780082B001904FF08042019BC2F8083300BF24
:1040880002B0704782B003468DF807309DF80730BC
:1040980003F1804301221A6000BF02B0704784B068
:1040A8000346ADF80630BDF8063003F18043002220
:1040B8001A60BDF8063003F180431B680393039B25
:1040C80000BF04B0704782B00346ADF80630BDF8B3
:1040D800063003F180431B68002B14BF0123002323
:1040E800DBB2184602B0704782B003468DF807303D
:1040F8004FF08043D3F80C3403F001129DF80730D9
:1041080043F480339A420CBF01230023DBB21846E4
:1041180002B0704708B50A4B1B79002B03D1094937
:10412800FB20FEF7DBF84FF48070FFF7B8FF0120A3
:10413800FFF794FF0020FFF7A5FF00BF08BD00BFF1
:10414800B4070020F8B0000008B50C4B1B79002B11
:1041580004D10B4940F20310FEF7C0F80420FFF722
:1041680091FF00BF0120FFF7BFFF0346002BF9D1E5
:10417800024B00225A7100BF08BD00BFB4070020DF
:10418800F8B0000008B54FF48070FFF79CFF0346B5
:10419800002B14D04FF48070FFF781FF0120FFF748
:1041A80067FF114B5B7983F00103DBB2002B06D06C
:1041B8000D4B01225A710C4B1B68002098474FF495
:1041C8008270FFF780FF0346002B0AD04FF48270FD
:1041D800FFF765FF0220FFF74BFF034B1B68012029
:1041E800984700BF08BD00BFB407002000B583B0E2
:1041F8000346ADF80630BDF80630184600F026F83C
:1042080003461B68012B0CBF01230023DBB21846B1
:1042180003B05DF804FB00B585B00346ADF8063081
:10422800BDF80630184600F011F803461A46002378
:104238001360BDF80630184600F008F803461B68FE
:104248000393039B00BF05B05DF804FB82B00346EF
:10425800ADF80630BDF8063003F1804303F5C043DE
:10426800184602B07047000082B00190034BD3F8A3
:104278000423019B1340184602B0704700600040B9
:1042880082B00190054A019B03F5A27352F82330CE
:104298001B0A03F03F03184602B070470060004055
:1042A80082B00190064A019B03F5A27352F82330AD
:1042B8001B0C03F00303DBB2184602B0704700BFC3
:1042C8000060004000B583B00190019B1B682F2B54
:1042D80004D90B494FF4F370FEF700F8019B1B68F3
:1042E8001F2B02D84FF0A04306E0019B1B6803F088
:1042F8001F02019B1A60034B184603B05DF804FBCC
:1043080060B100000003005000B585B001900B4675
:104318008DF8033001AB1846FFF7D4FF0390019ADC
:10432800039B02F5E07253F82230019A23F44031DE
:10433800039B02F5E07243F82210019A039B02F5F1
:10434800E07253F822309DF8032012041146019AB6
:104358001943039B02F5E07243F8221000BF05B031
:104368005DF804FB00B585B0019001AB1846FFF776
:10437800A9FF0390019A039B02F5E07253F82230DB
:104388001B0C03F00303DBB2184605B05DF804FB11
:1043980082B00190019BD3F81035184602B07047DF
:1043A80000B589B0039002910192174A05AB92E8D3
:1043B800030083E80300039A029B1344022B04D9E9
:1043C800124940F21630FDF789FF039B079311E06D
:1043D800079B9B0008AA134453F80C3C1846FFF7A8
:1043E800D7FF0246019B1A60019B04330193079B88
:1043F80001330793039A029B1344079A9A42E7D31F
:1044080000BF09B05DF804FB90B1000060B1000086
:1044180084B001900091009B0393019BDB080293F9
:10442800019B03F0070301930122019B02FA03F3A6
:104438000399029A0A4412781340184604B0704748
:1044480084B001900091009B0393019BDB080293C9
:10445800019B03F007030193039A029B13441B7803
:104468005AB20121019B01FA03F35BB2134359B21B
:10447800039A029B1344CAB21A7000BF04B0704773
:1044880082B00190044A019B1344303393F9003001
:10449800184602B0704700BFBC07002082B00190E8
:1044A800034A019B52F82330184602B0704700BFF8
:1044B800BC07002000B599B00023149306AB002276
:1044C8001A605A604FF48073ADF84A30012316938E
:1044D8000023139321E0BDF84A301846FFF786FE03
:1044E8000346002B0ED01698FFF7BEFE0346002B9E
:1044F80008D0BDF84A301846FFF78DFE149A169B6F
:1045080013431493169B5B001693BDF84A3004338B
:10451800ADF84A30139B01331393139B072BDAD959
:104528004FF4BE70FFF762FE0346002B0DD04FF428
:10453800BE70FFF770FE149B43F00043149306AB64
:104548001A4602210020FFF72BFF149BDBB2002B39
:1045580029D0012316930023139321E0169A149B64
:104568001340002B16D01398FFF78AFE119013986A
:10457800FFF796FE03468DF843301398FFF78EFF3A
:104588000F900F9B002B05D09DF843200F9B1146E1
:1045980011989847169B5B001693139B013313934E
:1045A800139B072BDAD9149B002B80F2F080002391
:1045B8008DF85F3004AB00221A605A60002315930F
:1045C8000AE0159B9B0018AA13444FF0FF3243F8EA
:1045D800582C159B01331593159B012BF1D90023FA
:1045E8008DF85F300023139378E06B4A139B1344D4
:1045F800603393F900308DF83B309DF83B3023F061
:10460800C0030D93644A139B1344603393F900303D
:10461800B3F1FF3F5FD002AB19460D98FFF7F8FEE4
:104628000346002B57D09DF83B309B098DF833305B
:104638000D98FFF725FF03461846FFF72FFF0B904D
:104648000B9B002B03D19DF83330032B43D19DF8EE
:104658003330032B04D104AB19460D98FFF7F0FE55
:104668000D98FFF77FFE03468DF82B3006AB1946F1
:104678000D98FFF7CDFE0990099B002B03D09DF8FC
:104688002B30022B06D0099B002B24D19DF82B3010
:10469800032B20D19DF83330032B13D19DF82B30F9
:1046A800022B01D1032300E002238DF823309DF86B
:1046B800233019460D98FFF727FE9DF85F30013328
:1046C8008DF85F300B9B002B05D09DF833200B9B9A
:1046D80011460D989847139B01331393139B032B93
:1046E80083D99DF85F30002B4CD001238DF85E30C4
:1046F8006B461A4602210020FFF752FE002315934D
:1047080014E0159B9B0018AA134453F8602C159BC2
:104718009B0018A90B4453F8483C9A4203D0002345
:104728008DF85E3005E0159B01331593159B012B21
:10473800E7D99DF85E30002B03D000238DF85F3059
:1047480020E0002315931AE0159B9B0018AA134438
:1047580053F8602C159B9B0018A90B4443F8482C70
:10476800159B9B0018AA134453F8502C159B9B00CB
:1047780018A90B4443F8582C159B01331593159B26
:10478800012BE1D99DF85F30002B7FF428AF00BFE3
:1047980019B05DF804FB00BFBC07002084B001908D
:1047A8000B46ADF80230BDF80230019A13440022DE
:1047B8001A60BDF80230019A13441B680393039BE7
:1047C80000BF04B0704782B001900B46ADF80230CC
:1047D800BDF80230019A13441B68002B14BF012353
:1047E8000023DBB2184602B0704782B001900091F6
:1047F800019BD3F80423009B1340002B14BF012313
:104808000023DBB2184602B0704782B00190019BCA
:104818009BB250339BB29B009BB2184602B07047C4
:1048280082B001904FF48032019B02FA03F31846DC
:1048380002B0704700B587B00390029113468DF817
:10484800073000238DF8173030E09DF817301846F0
:10485800FFF7DBFF0346ADF814309DF81730184614
:10486800FFF7DEFF0490BDF8143019460398FFF7F0
:10487800AAFF0346002B14D004990398FFF7B5FF4D
:104888000346002B0DD0BDF8143019460398FFF7E6
:1048980085FF029B1B68029A5168BDF814201046D8
:1048A80098479DF8173001338DF817309DF8172079
:1048B8009DF807309A42C8D300BF07B05DF804FBE3
:1048C80008B5042202490348FFF7B4FF00BF08BD3A
:1048D800280800200080004008B504220249034847
:1048E800FFF7A8FF00BF08BD340800200090004073
:1048F80008B5042202490348FFF79CFF00BF08BD22
:104908004008002000A0004082B003468DF8073020
:104918009DF8073003F01F0205499DF907305B0930
:10492800012000FA02F241F8232000BF02B07047CC
:1049380000E100E082B003468DF807309DF80730AB
:1049480003F01F0206499DF907305B09012000FAB0
:1049580002F2203341F8232000BF02B0704700BFA5
:1049680000E100E082B0034600918DF807309DF920
:104978000730002B0CDA009BDAB20C499DF807309F
:1049880003F00F03043B5201D2B20B441A7609E03C
:10499800009BDAB206499DF907305201D2B20B44A6
:1049A80083F8002300BF02B0704700BF00ED00E0AD
:1049B80000E100E082B00190019B03F06043B3F195
:1049C800005F0CBF01230023DBB2184602B070471A
:1049D80082B00190019B1B0B5BB2184602B0704776
:1049E80000B583B003460A468DF8073013468DF8A4
:1049F80006309DF80630072B03D908496B20FDF7D0
:104A08006DFC9DF806209DF9073011461846FFF702
:104A1800A9FF00BF03B05DF804FB00BF48B2000067
:104A280000B583B003468DF807309DF90730184666
:104A3800FFF76AFF00BF03B05DF804FB00B583B061
:104A480003468DF807309DF907301846FFF772FFC7
:104A580000BF03B05DF804FB82B001900B468DF8EF
:104A680003309DF80330019A134401221A6000BFF5
:104A780002B0704784B001900B46ADF80230BDF823
:104A88000230019A134400221A60BDF80230019ADC
:104A980013441B680393039B00BF04B0704782B0A4
:104AA80001900B46ADF80230BDF80230019A13446C
:104AB8001B68002B14BF01230023DBB2184602B089
:104AC800704782B001900091019BD3F80022009BAF
:104AD800DB431A40019BC3F8002200BF02B07047B5
:104AE80082B001900091019B009AC3F8042300BF93
:104AF80002B0704782B001900091019B009AC3F800
:104B0800082300BF02B0704782B00190019B0622C3
:104B1800C3F8002500BF02B0704782B00190019B26
:104B28000022C3F8002500BF02B0704784B003908C
:104B380002910192039B029AC3F80825039B019AEC
:104B4800C3F80C2500BF04B0704782B001900091F3
:104B5800019B009AC3F8242500BF02B0704784B0B7
:104B68000190019BD3F8C4340393019B039AC3F8C3
:104B7800C424039B184604B0704782B001900B46CA
:104B88008DF803309DF80320019BC3F8882500BFEA
:104B980002B0704784B0039002910192029A039B7D
:104BA800C3F84425039B019AC3F8482500BF04B005
:104BB800704784B0039002910192029A039BC3F854
:104BC8003425039B019AC3F8382500BF04B0704709
:104BD80082B001900091019B009AC3F8002200BFA7
:104BE80002B0704782B00190019BD3F84C3518464B
:104BF80002B0704782B00190019BD3F83C3518464B
:104C080002B0704782B00190019B0122C3F8502581
:104C180000BF02B0704782B00190019B0022C3F828
:104C2800502500BF02B0704782B00190019B01225D
:104C3800C3F8402500BF02B0704782B00190019BC5
:104C48000022C3F8402500BF02B0704700B583B00A
:104C58000190019B1B682F2B04D90B494FF4F3706B
:104C6800FDF73CFB019B1B681F2B02D84FF0A043AC
:104C780006E0019B1B6803F01F02019B1A60034BAF
:104C8800184603B05DF804FB78B20000000300503A
:104C980000B585B00190084611461A4603468DF8BE
:104CA80003300B468DF8023013468DF8013001AB06
:104CB8001846FFF7CBFF03909DF803209DF80230BC
:104CC8005B001A439DF801309B001A439DF8183089
:104CD8001B0242EA03019DF81C301B04019A194388
:104CE800039B02F5E07243F8221000BF05B05DF89F
:104CF80004FB00B585B003900023019300230093C3
:104D08000023012200210398FFF7C2FF00BF05B06E
:104D18005DF804FB84B0019003230393019B03F027
:104D28000203002B02D048F201230393019B03F0F6
:104D38000403002B02D048F202230393039B184676
:104D480004B0704700B58BB00590049103920293AC
:104D5800049B002B03D14149A920FDF7BFFA049B0E
:104D68001A68049B5B689A4203D13C49AA20FDF764
:104D7800B5FA059B1B791A46342303FB02F3384A1C
:104D880013440993099B93F82D30002B03D0082373
:104D98000793079B5DE0099B039A1A60099B029A97
:104DA8005A60099B00229A60099B002283F83020F0
:104DB800099B002283F82F20049B5A7B099B83F8C8
:104DC8003220049B186800230193062300930323D1
:104DD80000220021FFF75CFF049B58680023019321
:104DE80006230093032300220021FFF751FF059BB0
:104DF8001B680893049B1968049B5B681A4608980B
:104E0800FFF794FE049B9B6819460898FFF79DFEE0
:104E1800099B1B68002B15D0059B1B681846FFF7DC
:104E2800D7FD03461A46049B1B7B19461046FFF71D
:104E3800D7FD059B1B681846FFF7CAFD03461846B1
:104E4800FFF7EEFD099B012283F82D20002307932D
:104E5800079B18460BB05DF804FB00BFB0B200001A
:104E68004C08002000B585B00190019B1B791A46BB
:104E7800342303FB02F31D4A13440393039B93F863
:104E88002D30002B03D11A49F820FDF727FA039B90
:104E98001B68002B08D0019B1B681846FFF798FD7C
:104EA80003461846FFF7CAFD019800F04BF8039B2C
:104EB80093F8323083F00103DBB2002B0DD0019B55
:104EC8001B68D3F808351846FFF713FF019B1B68CA
:104ED800D3F80C351846FFF70CFF039B002283F824
:104EE8002D2000BF05B05DF804FB00BF4C08002072
:104EF800B0B2000000B585B00190019B1B791A463D
:104F0800342303FB02F30D4A13440393039B93F8E2
:104F18002D30012B04D00A4940F21110FDF7DEF9BB
:104F2800019B1B681846FFF7EFFD039B022283F8DD
:104F38002D2000BF05B05DF804FB00BF4C08002021
:104F4800B0B2000000B585B00190019B1B791A46EC
:104F5800342303FB02F3134A13440393039B93F88C
:104F68002D30002B04D110494FF48E70FDF7B6F99F
:104F7800019B1B680293039B00229A600B490298CD
:104F8800FFF7B8FD4FF4BC510298FFF79AFD02985D
:104F9800FFF7C3FD039B012283F82D2000BF05B056
:104FA8005DF804FB4C080020B0B2000002029C012E
:104FB80000B583B001900091009B03F00103002B22
:104FC80003D00198FFF71EFE02E00198FFF723FEC9
:104FD800009B03F00203002B03D00198FFF724FE87
:104FE80002E00198FFF729FE00BF03B05DF804FB5B
:104FF80030B589B003900291019200930023079382
:1050080008238DF81B304FF48273ADF81830019BDC
:10501800DB681846FFF7CEFC034683F00103DBB2DA
:10502800002B03D010230793079BA2E1A049029805
:10503800FFF760FD039B93F82F30DBB2002B09D0FC
:10504800039B9B6819460298FFF74AFD11230793B3
:10505800079B8EE1009B03F00403002B06D1009B05
:1050680003F01003002B01D1012300E0002303F01B
:105078000103DAB2039B83F82F20039B019A03F103
:105088000C0415460FCD0FC42B682360009B1B0929
:1050980003F00103002B14BF01230023DAB2039BA2
:1050A80083F83020019B5B7819460298FFF765FD6D
:1050B8004FF482710298FFF7DDFC4FF49271029869
:1050C800FFF7D8FC00990298FFF772FF019B1B7845
:1050D800032B00F2F38001A252F823F02B520000B8
:1050E80085520000D1510000F5500000009B03F0EC
:1050F8001003002B04D06F4940F27110FDF7EEF851
:10510800009B03F00803002B04D06A494FF4B970E0
:10511800FDF7E4F8009B03F00403002B04D0654975
:1051280040F27310FDF7DAF8019B1B691846FFF788
:1051380041FC034683F00103DBB2002B03D01023AC
:105148000793079B15E14FF480710298FFF740FD24
:10515800019BD968019B5B681A460298FFF71AFD04
:105168004FF4A8710298FFF785FC4FF4B0710298CC
:10517800FFF780FC4FF4A4710298FFF77BFC202115
:105188000298FFF769FC08210298FFF765FC00BF49
:105198004FF4A8710298FFF782FC034683F00103DD
:1051A800DBB2002BF4D14FF4A8710298FFF762FC30
:1051B800019B1969019B9B681A460298FFF7EAFC54
:1051C800039B3D4A9A607CE0019BD968019B5B6820
:1051D8001A460298FFF7DEFC019B1B691846FFF789
:1051E800E9FB034683F00103DBB2002B03D0102355
:1051F8000793079BBDE0019B1969019B9B681A46B1
:105208000298FFF7D6FC4FF484510298FFF7E0FCB0
:10521800039B40F202229A6020210298FFF71CFCAF
:105228004FE0019BD968019B5B681A460298FFF71B
:10523800B1FC009B03F02003002B11D04FF48071C8
:105248000298FFF7C5FC039B1B4A9A604FF4A471B0
:105258000298FFF70FFC4FF4A473ADF8183008E07C
:105268004FF400710298FFF7B3FC039B40F202224F
:105278009A6020210298FFF7EFFB22E0019BD96892
:10528800019B5B681A460298FFF793FC4FF4805124
:105298000298FFF79DFC039B40F202229A600023CC
:1052A8008DF81B3020210298FFF7D6FB09E000BFDC
:1052B80002029C01B0B20000000204000723079319
:1052C80000BF009B03F00803002B09D1019B1B784A
:1052D800032B05D09DF81B3019460298FFF7BCFB3D
:1052E800039B1B68002B28D0009B03F00403002BB2
:1052F80003D0039B4FF400729A60039B9B68194686
:105308000298FFF7EDFB33E04FF492710298FFF734
:10531800C6FB0346002B10D04FF492710298FFF79A
:10532800A9FB20210298FFF797FB14210298FFF7A9
:1053380093FB4FF48273ADF81830BDF81830194656
:105348000298FFF7ACFB034683F00103DBB2002BA6
:10535800DAD10298FFF703FC0590039B002283F83B
:105368002F20059B002B03D00598FFF7D3FC07904F
:10537800079B184609B030BD00B587B0039002916D
:105388000192039B1B79002B09D1029B5B68B3F543
:10539800803F04D2029B9B68B3F5803F12D3039BE6
:1053A8001B79012B09D1029B5B68B3F5803F04D2BE
:1053B800029B9B68B3F5803F04D31B494FF4F870F8
:1053C800FCF78CFF00230593039B1B791A463423B3
:1053D80003FB02F3154A13440493049B1B68002B38
:1053E80008D1029B1B78022B04D10F494FF4FB70A4
:1053F800FCF774FF049B1B68002B08D1029B1B78E9
:10540800032B04D1084940F2F710FCF767FF039B10
:105418001968019B029A0498FFF7EAFD0590059B1D
:10542800184607B05DF804FBB0B200004C08002035
:1054380030B58BB001900091009B1B68002B04D104
:105448007E4940F24520FCF749FF4FF492710198DC
:10545800FFF725FB0346002B27D04FF492710198E4
:10546800FFF708FB4FF482710198FFF718FB03461A
:1054780083F00103DBB2002B17D0009B9B68194611
:105488000198FFF737FB009B02229A60009B9B68FC
:1054980019460198FFF724FB20210198FFF7DCFA51
:1054A80014210198FFF7D8FAC5E04FF482710198EA
:1054B800FFF7F5FA0346002B50D04FF4827101989C
:1054C800FFF7D8FA009B04AC03F10C050FCD0FC40D
:1054D8002B682360009B93F82E30002B1BD0009B79
:1054E8001B7B012B04D10198FFF784FB034603E0E3
:1054F8000198FFF777FB03460593009B1B7B022B64
:1055080004D10198FFF776FB034603E00198FFF703
:1055180069FB034606934FF4B0710198FFF7AAFAA6
:105528004FF4AE710198FFF7A5FA009B93F830305D
:1055380083F00103DBB2002B04D1009B93F82E30DB
:10554800002B4CD000210198FFF742FB009B002262
:105558009A603B490198FFF7CDFA40E04FF4A471F7
:105568000198FFF787FA009B1B7B002B1BD1009B40
:1055780004AC03F10C050FCD0FC42B682360009B0E
:1055880093F8303083F00103DBB2002B27D00021E1
:105598000198FFF71DFB009B00229A60284901989B
:1055A800FFF7A8FA1BE04FF400710198FFF710FB12
:1055B800009B40F202229A6021490198FFF79AFA6B
:1055C800009B9B6819460198FFF78AFA0821019801
:1055D800FFF742FA20210198FFF73EFA2BE00198E5
:1055E800FFF7BDFA0990099B03F00203002B03D0D3
:1055F80001238DF80C300BE0099B03F00403002B0A
:1056080003D002238DF80C3002E000238DF80C3013
:10561800009B93F8303083F00103DBB2002B03D0FA
:10562800009B002283F82F20009B1B68009A51687A
:1056380003AA104698470BB030BD00BFB0B20000B7
:1056480002029C0108B503490348FFF7F1FE00BFB9
:1056580008BD00BF4C0800200030004008B50349D1
:105668004FF04020FFF7E4FE00BF08BD800800208F
:1056780000B585B00190019B002B0AD0074B43F081
:1056880001030393019B9B010293039B0298984794
:1056980000E000BF05B05DF804FB00BF20B30000C8
:1056A80000B583B00190019B1B682F2B04D90B49CF
:1056B8004FF4F370FCF712FE019B1B681F2B02D8F6
:1056C8004FF0A04306E0019B1B6803F01F02019BFB
:1056D8001A60034B184603B05DF804FBE8B20000FB
:1056E8000003005000B585B0019001AB1846FFF7E4
:1056F800D7FF0390019B012202FA03F3194603988E
:1057080000F035F800BF05B05DF804FB00B585B0C2
:10571800019001AB1846FFF7C3FF0390019B0122DC
:1057280002FA03F31946039800F02BF800BF05B0FE
:105738005DF804FB00B585B0019001AB1846FFF792
:10574800AFFF0390039800F00AF80246019B22FA83
:1057580003F303F00103184605B05DF804FB82B0BB
:105768000190019BD3F81035184602B0704782B0FB
:1057780001900091019B009AC3F8082500BF02B070
:10578800704782B001900091019B009AC3F80C25E4
:1057980000BF02B0704700B585B001904FF0A0423D
:1057A800019B1B6803F5E07340F20C6142F823107B
:1057B8004FF0A042019B5B6803F5E07340F20C6177
:1057C80042F82310019B1B681846FFF78BFF019BCB
:1057D8005B681846FFF786FF4FF0A042019B1B68E5
:1057E80003F5E07340F20D6142F823104FF0A04238
:1057F800019B5B6803F5E07340F20D6142F82310EA
:105808000420FFF735FF002303931EE0019B5B682C
:105818001846FFF78FFF0346002B03D0039B002B8E
:1058280017D124E0019B1B681846FFF76FFF04207F
:10583800FFF71EFF019B1B681846FFF753FF042064
:10584800FFF716FF039B01330393039B082BDDDD52
:1058580000E000BF019B5B681846FFF757FF042074
:10586800FFF706FF019B5B681846FFF73BFF05B093
:105878005DF804FB00B589B001900091009B079387
:10588800019B1B788DF80C30019B1B798DF810302B
:10589800019B5B798DF81130019B9B68DBB28DF819
:1058A8001230019BDB68DBB28DF81330019B1B695A
:1058B8000593019B5B690693074A079B52F82330BF
:1058C8000649079A51F8221003AA1046984700BFC4
:1058D80009B05DF804FB00BFB4080020BC08002034
:1058E80000B587B00390029101920093039B1B7847
:1058F80005931249059B019A41F823201049059BFD
:10590800009A41F82320029B5B7B002B02D002986F
:10591800FFF741FF00230493039B181D019B002BF5
:1059280001D0084A00E00022059B0299FFF70AFA15
:105938000490049B184607B05DF804FBB4080020E7
:10594800BC0800207D58000084B001900B46ADF8DB
:105958000230BDF80230019A134400221A60BDF8E3
:105968000230019A13441B680393039B00BF04B0E1
:10597800704782B001900B46ADF80230BDF8023096
:10598800019A13441B68002B14BF01230023DBB2C8
:10599800184602B07047000000B583B00190019B23
:1059A8001B682F2B04D90B494FF4F370FCF796FCB6
:1059B800019B1B681F2B02D84FF0A04306E0019BF8
:1059C8001B6803F01F02019B1A60034B184603B0C3
:1059D8005DF804FB58B300000003005000B585B023
:1059E800019001AB1846FFF7D7FF0390019B0122F6
:1059F80002FA03F31946039800F018F800BF05B03F
:105A08005DF804FB00B585B0019001AB1846FFF7BF
:105A1800C3FF0390019B012202FA03F3194603987E
:105A280000F00EF800BF05B05DF804FB82B00190ED
:105A38000091019B009AC3F8082500BF02B0704787
:105A480082B001900091019B009AC3F80C2500BF19
:105A580002B0704700B583B00190019BDB7FFF2B3C
:105A68000ED0019B9B7F002B05D0019BDB7F184646
:105A7800FFF7C8FF04E0019BDB7F1846FFF7AEFF86
:105A8800019B00225A77019B00221A72019B1B6816
:105A9800019A02F10800019A52681146984700BF1E
:105AA80003B05DF804FB000000B583B001900091DD
:105AB8004FF48C710198FFF75CFF0346002B10D060
:105AC8004FF48C710198FFF73FFF009B1B68002B78
