:100000000000042079030000610300006303000086
:1000100065030000670300006903000000000000A2
:100020000000000000000000000000006B03000062
:100030006D030000000000006F030000710300006A
:1000400073030000A98800004174000073030000DE
:1000500073030000730300000941000073030000F4
:1000600073030000730300007303000073030000B8
:1000700073030000C17300007303000073030000EA
:100080007303000071240000730300007303000079
:10009000B124000073030000730300007303000029
:1000A0007303000073030000730300007303000078
:1000B000294E000073030000000000000000000053
:1000C00073030000414E0000594E0000730300000E
:1000D000A5710000730300007303000073030000A8
:1000E000730300007303000009A800000000000073
:1000F00000000000714E00000000000073030000CB
:1001000000000000000000000000000000000000EF
:1001100000000000000000000000000000000000DF
:1001200000000000000000000000000000000000CF
:1001300000000000000000000000000000000000BF
:1001400000000000000000000000000000000000AF
:10015000000000000000000000000000000000009F
:10016000000000000000000000000000000000008F
:10017000000000000000000000000000000000007F
:10018000000000000000000000000000000000006F
:10019000000000000000000000000000000000005F
:1001A000000000000000000000000000000000004F
:1001B000000000000000000000000000000000003F
:1001C000000000000000000000000000000000002F
:1001D000000000000000000000000000000000001F
:1001E000000000000000000000000000000000000F
:1001F00000000000000000000000000000000000FF
:10020000364937480A1A02D0072291438D463549AC
:1002100035480A1A06D00722914381F30988022241
:1002200082F3148831483249324A00F045F83248A6
:100230003249334A00F040F832483349334A00F03B
:100240003BF833483349344A00F036F833483449F0
:10025000344A00F031F834483449354A00F02CF87B
:1002600034483549354A00F027F8354835490022E9
:1002700000F02DF834483549002200F028F83448C1
:100280003449091A082903DB0022026004300160A6
:10029000314A90471F482049884205D002680430FF
:1002A00003B4904703BCF7E700208646EC460020E5
:1002B00000212A4A9047FEE7884207D0521A05D00B
:1002C000037801300B700131013AF9D1704788424F
:1002D00002D002700130FAE77047000000000420ED
:1002E00000E0032000000420000004203CC80000BF
:1002F0000000002084000020D8030000D803000084
:1003000048A800003CC800000000002000000020B9
:10031000A4A80000A4A80000A4A80000A4A80000AD
:10032000A4A80000A4A80000A4A80000A4A800009D
:100330003BC80000C0C800008400002084000020EA
:1003400084000020341E0020341E0020341E0020B3
:10035000341E0020341E0020A103000045170000B9
:10036000FEE7FEE7FEE7FEE7FEE7FEE7FEE7FEE765
:10037000FEE7FEE7704700BF1048804710484FF087
:100380000701884385460F4880470F48016841F4BC
:1003900070010160BFF34F8FBFF36F8FFFF730BF66
:1003A0000A480B490B4A884207D0521A05D00378F5
:1003B00001300B700131013AF9D17047750300002B
:1003C000000004207151000088ED00E0A4A80000A6
:0803D0000000002000000020E5
:1003D80000B585B00190019B002B0AD0074B43F074
:1003E80001030393019B9B010293039B0298984787
:1003F80000E000BF05B05DF804FB00BFB0A8000036
:1004080000B583B00190019B002B0AD04FF47A709D
:10041800FFF7DEFF019B013B0193019B002BF5D108
:1004280000E000BF03B05DF804FB08B504F07AFEF5
:1004380000BF08BD00B589B0039002910192019BED
:10044800002B33D00023079303230693029A079BBC
:100458001344019A1946002004F016FE0590079AE5
:10046800059B13440793019A059BD31A0193059B97
:10047800002B13D10F4B1B7883F00103DBB2002B49
:1004880013D10120FFF7BCFF069B013B0693069B97
:10049800002B03D1074B00221A7007E0054B0122FD
:1004A8001A70019B002BD1D100E000BF00BF09B03A
:1004B8005DF804FB8400002000B585B0039002912C
:1004C800054B00934023054A0299039800F012F85F
:1004D80000BF05B05DF804FB3D0400008800002063
:1004E80082B0019000BF02B0704782B0019000BF97
:1004F80002B0704700B5A1B0059004910392029331
:10050800049802F0AEFE039B1593029B16930023FA
:10051800179300238DF8603000231993229B1A93B8
:1005280000231F930FA91F9B0822049802F072FF53
:1005380008231F93119B1293BDF84030ADF84C303F
:10054800BDF84230ADF84E3000238DF851309DF89B
:100558003C3003F00303DBB2012B26D10F9BC3F31E
:1005680095231C939DF83C30C3F3C203DBB28DF88E
:100578005030BDF83C30C3F38313DBB21B931B9B95
:100588009A0009A91F9B049802F044FF1B9B9B003B
:100598001F9A13441F9312AA09A915AB0093134677
:1005A8001B9A1C9800F0C4FE2FE09DF83C3003F025
:1005B8000303DBB2022B28D1BDF83E30C3F3891305
:1005C8009BB21E939DF83C30C3F3C203DBB28DF897
:1005D80050301E9B082B28BF08231D9307A91F9B7B
:1005E8001D9A049802F016FF1F9A1D9B13441F932F
:1005F8001E9A1D9BD31A1E9315AB12AA07A81D9904
:1006080000F038FF1E9B002BE3D1049802F038FE5F
:1006180000BF21B05DF804FB82B00190019BDB684C
:1006280001225A7100BF02B07047000000B583B0C4
:100638004FF0FF330193FFF7F8FE0421084800F05C
:1006480093FD0190019B002B03DA0649412001F03C
:100658009FFF0348FFF7E0FF00BF03B05DF804FB0E
:1006680080A80000C8A8000000B583B001900091E0
:10067800019B1B681B6800990198984700BF03B04D
:100688005DF804FB00B583B00190019B1B685B68B3
:100698000198984700BF03B05DF804FB00B583B02C
:1006A8000190019B1B689B680198984700BF03B0A5
:1006B8005DF804FB82B001900B468DF80330019B76
:1006C800DB689DF803201A7100BF02B0704782B042
:1006D8000190019BDB681B79184602B0704782B015
:1006E8000190019BDB6801225A7100BF02B070477C
:1006F80082B00190019BDB685B79184602B07047B5
:1007080000B585B001900091154BFF229A60144BFB
:1007180000221A60124B00225A60114B0022C3F8C3
:1007280018240F4B0022C3F814240D4B002283F821
:1007380020240C4802F0FAFC0390039B002B01D004
:10074800039B08E0084802F085FE084A084BD31AC4
:10075800DB0802930023184605B05DF804FB00BFD0
:100768003002002090A8000014A9000080A8000012
:1007780048A80000024A034BD31ADB081846704702
:1007880080A8000048A8000000B587B001900B467B
:100798008DF803309DF80330002B1FD0FFF7EAFFD8
:1007A80004900023059313E0059B9B000E4A134415
:1007B8000393039B1B881A46019B1B689A4204D12A
:1007C800019B059A1A60002309E0059B01330593F4
:1007D800059A049B9A42E7D3052300E000231846B4
:1007E80007B05DF804FB00BF0000002000B585B02D
:1007F80001900B468DF803309DF8032001AB11469C
:100808001846FFF7C1FF0346002B07D1019BDB0009
:10081800054A13440393039B1B6800E00023184612
:1008280005B05DF804FB00BF48A8000084B0019043
:100838000B468DF80330019BDB00174A13440293E3
:100848009DF80330013B032B1CD801A252F823F07A
:10085800690800007108000079080000830800009A
:1008680002238DF80F3011E004238DF80F300DE0CE
:10087800029B1B798DF80F3008E0029B5B798DF89D
:100888000F3003E000238DF80F3000BF9DF80F30C4
:10089800184604B0704700BF48A8000084B0019013
:1008A800009100238DF80F30019B1B7803F004039F
:1008B800DBB2002B24D0019B1B78C3F30103DBB20E
:1008C800012B02D0022B0CD017E0009B1B68019A69
:1008D8001288C2F38312D2B213449A1C009B1A6086
:1008E8000BE0009B1B68019A5288C2F3891292B2EE
:1008F80013449A1C009B1A6000BF01238DF80F3027
:100908009DF80F30184604B07047000000B58BB052
:100918000023ADF826303E4801F0C8FE3D4801F0FE
:10092800C5FE3D4B5B6804933B4B9B680693049A5A
:10093800069B134002339B00374A13440433089341
:1009480004AB19460898FFF7A9FF0346002B09D006
:10095800049A069B134002339B002F4A1344043326
:100968000893EDE700BF0023079311E0049B5A1C8E
:100978000492069A1340079A920001A90A4426494C
:1009880002339B000B445B681360079B013307939A
:10099800079B012BEAD99DF80430C3F30103DBB2AE
:1009A800012B10D0022B1CD1BDF80A30ADF826302F
:1009B800BDF80630C3F389139BB203339A08049B2E
:1009C8001344049313E0BDF80A30ADF82630BDF89F
:1009D8000430C3F38313DBB21A46049B1344049315
:1009E80005E00E494FF4BF7001F0D2FD00BF094881
:1009F80001F068FE0590059B002B02D0049B064A77
:100A08005360BDF8263018460BB05DF804FB00BFF4
:100A180048060020440600203002002024A90000D7
:100A280000B585B00021074801F0C9FD0390039B7C
:100A38000293029B83F310030193019B184605B0B0
:100A48005DF804FB4C06002000B589B003900291C4
:100A580001920093039B1B0C0793FFF7E1FF06909D
:100A6800FFF788FE0246079B934204D3214940F2D0
:100A7800A31001F08DFD069B1904009B5A1C0A9BCC
:100A88001340079A0A431C4902339B000B445A60DF
:100A9800009A0A9B134002339B00174A13440433FD
:100AA8000593039B03F00703D9B2059A137861F302
:100AB800C5031370019B03F00F03D9B2059A13887D
:100AC80061F389131380029BC3F31501059A136818
:100AD80061F39F231360059A1378012161F30103E1
:100AE8001370059A13786FF38203137000BF09B06F
:100AF8005DF804FB24A900003002002000B58BB08B
:100B08000390029113468DF80730039B0233089334
:100B180001238DF81F30002001F0E4FC3E4B1A68D9
:100B2800029B1A603C4B9A683B4B59683A4B1B68CE
:100B3800CB1A13440133099314E00121374801F01B
:100B480085FDFFF7E3FE05900599344801F07EFD29
:100B5800314B9A68304B59682F4B1B68CB1A13449A
:100B680001330993089A099B9A42E6D89DF81F30E9
:100B7800002B48D0002304939DF80730002B17D092
:100B88009DF81030012262F301038DF810309DF8B2
:100B9800103043F004038DF81030039B03F00F036B
:100BA800DAB2BDF8103062F38913ADF8103016E0F0
:100BB8009DF81030022262F301038DF810309DF881
:100BC800103043F004038DF81030039BC3F309037E
:100BD8009AB2BDF8123062F38F13ADF812300E4B93
:100BE8001A680D4B9B68134002339B000A4A134452
:100BF80004330693049A069B1A60074B1A68089BED
:100C08001344054A1360002001F080FC9DF81F3052
:100C180018460BB05DF804FB300200204C0600209B
:100C280000B58BB005900491039202931F4B9B680B
:100C3800079306AB012219460298FFF75FFF0346A8
:100C4800002B24D0069B023309930023089311E05C
:100C5800089B9B00039A1A44099B591C0991079900
:100C68000B401268114902339B000B445A60089BE1
:100C780001330893089A029B9A42E9D3069A079B84
:100C880000931346029A04990598FFF7DDFE074B77
:100C980093F82034002B05D000BF00F065F8034618
:100CA800002BFAD100BF0BB05DF804FB3002002026
:100CB80000B583B0019000910023002200990198AB
:100CC800FFF7AEFF00BF03B05DF804FB00B587B0C7
:100CD800039002910192019B059305AA01230299B1
:100CE8000398FFF79DFF00BF07B05DF804FB00B550
:100CF80087B00390029101920093019B0493009B9B
:100D0800059304AA022302990398FFF789FF00BFFD
:100D180007B05DF804FB00B58BB003900291019217
:100D28000093019B0593009B06930C9B07930D9BD7
:100D380008930E9B099305AA052302990398FFF7C8
:100D48006FFF00BF0BB05DF804FB0000054B5A684D
:100D5800044B1B689A420CBF01230023DBB21846E0
:100D6800704700BF3002002000B599B0FFF7EEFFD2
:100D78000346002B01D00023B5E19A4B0022C3F8AB
:100D88001824BFF34F8F974B5B680493954B9B6870
:100D98001093049A109B134002339B00914A13440A
:100DA80004331193002317930023169300230F9302
:100DB80004AB19461198FFF771FD0346002B19D0B3
:100DC800884BD3F81834002B14D1864B1A68049B2F
:100DD8009A4205D8834B1B68824A5360002382E1FC
:100DE800049A109B134002339B007E4A1344043339
:100DF8001193DDE70023159311E0049B5A1C04921C
:100E0800109A1340159A920001A90A4475490233B1
:100E18009B000B445B681360159B01331593159B6E
:100E2800012BEAD99DF8043003F00303DBB2022B4F
:100E380040F09C80BDF80630C3F389139BB20D9334
:100E4800BDF80630C3F389139BB2502B28BF50233B
:100E58009BB20C930C9BC3F309039AB2BDF80630FE
:100E680062F38F13ADF806300C9B08330B939DF893
:100E78000430C3F3C203DBB20F930B995A4802F054
:100E880060F91790179B002B00F0D080179802F09C
:100E9800E8F901A9169B0822179802F09DFA169BFB
:100EA80008331693049BDA43109B134001339B00CD
:100EB8000A930C9A0A9B9A4242D90A9B002B08D0A3
:100EC800049A109B134002339B00464A1344043390
:100ED80000E0464B08930A9B002B02D00A9BDBB22A
:100EE80001E00C9BDBB28DF81F300A9B002B01D070
:100EF8003E4B00E0002306930A9B002B06D00C9B78
:100F0800DAB20A9BDBB2D31ADBB200E000238DF819
:100F180017309DF81F20169B0899179802F05CFA65
:100F28009DF81F30169A13441693069B002B16D073
:100F38009DF81720169B0699179802F04DFA0EE0B7
:100F4800049A109B134002339B00264A134404332F
:100F58000993169B0C9A0999179802F03DFA0D9B74
:100F680003339A08049B134404935FE09DF804300C
:100F780003F00303DBB2012B58D1BDF80430C3F3EF
:100F88008313DBB2062B28BF0623DAB2BDF8043080
:100F980062F38913ADF80430BDF80430C3F383134A
:100FA800DBB202330E939DF80430C3F3C203DBB205
:100FB8000F930E9B9B0019460B4802F0C2F817903E
:100FC800179B002B32D0179802F04BF901A9169BFA
:100FD8000822179802F000FA169B0833169300238C
:100FE80015931AE03002002090A800003C0200206F
:100FF800049B5A1C0492109A134002339B003C4AEB
:101008001344191D169B0422179802F0E5F9169B44
:1010180004331693159B01331593BDF80430C3F3BD
:101028008313DBB21A46159B9342E1D3179B002B1F
:1010380039D02F4BD3F8103414932D4BD3F81834E0
:10104800002B1BD0179802F01BF946E000238DF8FF
:101058004F301498FFF74CFB0346002B02D00123B6
:101068008DF84F309DF84F30002B03D01799149806
:10107800FFF7FAFA149BDB681B681493149B002B88
:10108800E4D1179802F0FCF8002001F02BFA184B75
:10109800D3F81834002B02D1049B154A5360002062
:1010A80001F034FA19E0124BD3F81034129306E029
:1010B8001298FFF7F3FA129BDB681B681293129BD6
:1010C800002BF5D10B4A0C4BD31ADB081B0443F059
:1010D80002030A491846FFF7EBFDFFF737FE034600
:1010E80083F00103DBB2184619B05DF804FB00BFBA
:1010F8003002002060A8000048A8000068A900008D
:1011080000B585B00023039323E0164BD3F81034C1
:10111800029301238DF807300FE00298FFF7D7FA02
:1011280003461A46039B934203D100238DF80730E8
:1011380006E0029BDB681B680293029B002BECD144
:101148009DF80730002B01D0039B07E0039B013378
:101158000393039B092BD8DD4FF0FF33184605B0E6
:101168005DF804FB3002002000B585B001900B4605
:101178008DF80330FFF7C4FF0390039BB3F1FF3FE3
:1011880001D1039B22E0039BDBB219460198FFF7CC
:1011980091FA104BD3F81034002B08D10D4A019B5B
:1011A800C2F81034019BDB6800221A600DE0094B7D
:1011B800D3F81034DA68019BDB6812681A60054BB3
:1011C800D3F81034DB68019A1A60039B184605B0FF
:1011D8005DF804FB3002002000B583B00C4BD3F857
:1011E800103401930A4B012283F8202409E0019866
:1011F800FFF775FA0198FFF745FA019BDB681B6852
:101208000193019B002BF2D100BF03B05DF804FBF2
:101218003002002082B00190009100BF02B07047F8
:1012280010B584B003900291039BDB88002B0AD091
:10123800039BDB881A461F4B009313461E4A1F491F
:10124800029801F06DFB039B1B7A052B2ED0039BA4
:101258005B7A002B12D0039B9B881A46039B1B7A50
:1012680019461046FFF7E2FA03461A46144B53F89C
:1012780022301A461349029801F052FB039B1B685F
:1012880019460298FFF7C6FF039B1B7A1A460E4BB6
:1012980053F82240039B9B8800211846FFF7A6FAC3
:1012A800034622460949029801F03AFB00BF04B000
:1012B80010BD00BF9CA90000ACA90000E4A9000073
:1012C8001C000020FCA900000800002000AA000063
:1012D80000B585B00390029113468DF80730039B43
:1012E8001B7A052B0FD0039B5B7A002B06D00D4B86
:1012F8001B681A460C49029801F012FB0B49029828
:1013080001F00EFB07E09DF80730002B03D00749DA
:10131800029801F005FB029801F0E0FA00BF05B061
:101328005DF804FB1C000020FCA900000CAA0000CA
:1013380030B58BB007900691059204930E9B1B7BEA
:101348008DF827300E9B00221A730E990498FFF728
:1013580067FF059B062B7FD801A252F823F000BF38
:10136800851300008F1300009F130000B3130000C3
:10137800D1130000F91300002914000007990E98F2
:1013880001F0CEFA69E0069B1B681A4607990E9889
:1013980001F0C6FA61E0069B1A68069B04331B68D5
:1013A80007990E9801F0BCFA57E0069B1A68069B4D
:1013B80004331968069B08331B6800930B4607998A
:1013C8000E9801F0ADFA48E0069B1968069B0433B5
:1013D8001868069B08331B68069A0C32126801923B
:1013E800009303460A4607990E9801F099FA34E0EB
:1013F800069B1868069B04331C68069B08331B6809
:10140800069A0C3212680699103109680291019205
:1014180000932346024607990E9801F081FA1CE0D2
:10142800069B1C68069B04331D68069B08331B68D3
:10143800069A0C3212680699103109680698143019
:10144800006803900291019200932B462246079967
:101458000E9801F065FA00E000BF00220E9904988A
:10146800FFF736FF0E9B9DF827201A7300BF0BB0BD
:1014780030BD00BF00B587B0039002910192009380
:10148800029B082B60D8009B1B7B8DF81330009BB8
:1014980000221A7300990198FFF7C2FE00230593F2
:1014A80014E0059A029B9A4209D2039A059B1344B9
:1014B8001B781A462649009801F032FA03E02549BC
:1014C800009801F02DFA059B01330593059B072B26
:1014D800E7D92149009801F023FA0023059326E073
:1014E800059A029B9A421BD2039A059B13441B78C8
:1014F8008DF812309DF812307E2B0AD89DF81230E4
:10150800184605F0B9FA0346002B02D09DF81230B0
:1015180000E02E231A461149009801F001FA03E071
:101528000F49009801F0FCF9059B01330593059BD1
:10153800072BD5D9012200990198FFF7C9FE009B16
:101548009DF813201A7300E000BF07B05DF804FB94
:1015580010AA000018AA00001CAA000020AA000077
:1015680024AA000000B585B00190019B002B0AD089
:10157800074B43F001030393019B9B010293039BD9
:101588000298984700E000BF05B05DF804FB00BF73
:1015980020AB000000B583B00190019B1B682F2B86
:1015A80004D90B494FF4F37000F0F2FF019B1B685C
:1015B8001F2B02D84FF0A04306E0019B1B6803F0E5
:1015C8001F02019B1A60034B184603B05DF804FB29
:1015D80028AA00000003005000B585B00190084615
:1015E80011461A4603468DF803300B468DF8023033
:1015F80013468DF8013001AB1846FFF7CBFF039077
:101608009DF803209DF802305B001A439DF80130D5
:101618009B001A439DF818301B0242EA03019DF80B
:101628001C301B04019A1943039B02F5E07243F82E
:10163800221000BF05B05DF804FB00B585B003902B
:101648000023019300230093002301220121039822
:10165800FFF7C2FF00BF05B05DF804FB00B585B019
:10166800019001AB1846FFF795FF0390019B0122FB
:1016780002FA03F31946039800F004F800BF05B016
:101688005DF804FB82B001900091019B009AC3F8B9
:10169800082500BF02B0704700B583B00190019BD8
:1016A800002B0AD04FF47A70FFF75CFF019B013BD7
:1016B8000193019B002BF5D100E000BF03B05DF85A
:1016C80004FB000000B583B001900B468DF8033091
:1016D800019B0B2B10D1144B1B680133124A13606A
:1016E800124A134BD31ADB081B0443F003031149B6
:1016F8001846FFF7DDFA12E0019B0C2B0FD10A4BBD
:101708005B680133084A5360084A094BD31ADB085F
:101718001B0443F0030308491846FFF7C9FA00BF42
:1017280003B05DF804FB00BF5406002060A8000069
:1017380048A8000058AA000064AA000000B583B0B9
:101748000D20FFF77AFF0E20FFF777FF0F20FFF736
:1017580074FF1020FFF771FF4FF400410020FEF7DF
:10176800CFFF0190019B002B04D04C4A62210198C5
:1017780000F0F8F8FEF75AFF494A4A4BD31ADB083B
:101788001B0443F0030348491846FFF791FA03F096
:10179800C7FE03F0B9FF00BFFFF7E6FA0346002BC8
:1017A800FAD13F4A3F4BD31ADB081B0443F003002E
:1017B8003E4B1B681A463E49FFF788FA384A394BB0
:1017C800D31ADB081B0443F00300384B5B681A4646
:1017D8003849FFF77BFA4FF4FA70FFF75DFF0F20E7
:1017E800FFF73CFF4FF4FA70FFF756FF324803F05B
:1017F800DDFF324804F034F804F048F84FF47A700A
:10180800FFF74AFF264A274BD31ADB081B0443F08D
:101818000300294B1B681A462949FFF757FA264B3C
:1018280001221A601E4A1F4BD31ADB081B0443F01F
:101838000300214B1B681A462149FFF747FA214A42
:101848001A491D4804F038F84FF4FA70FFF724FFDE
:10185800134A144BD31ADB081B0443F00300194B3B
:101868005B681A461849FFF731FA0D4A0D4BD31A2F
:10187800DB081B0443F00300124B9B681A4613490C
:10188800FFF724FA094B1B680A33084A1360074B11
:101898005B680A33054A53607DE700BF70AA000001
:1018A80060A8000048A80000A4AA00005406002070
:1018B800BCAA0000D0AA00005C0600206006002038
:1018C800E8AA00004000002000AB00000CAB0000BC
:1018D80086B003900291019201238DF817309DF88C
:1018E80017301F4A039B13601D4A029B53601C4A12
:1018F800019B9360039B44F20102934212D044F28D
:101908000202934221D1019B154AD360144BDB6834
:101918001B881A46124B9A61114BDB685B68104AA8
:10192800D36112E0019B0E4A13610D4B1B699B6842
:101938000B4A53610A4B1B691B68094A9361084BA0
:101948001B695B68064AD36100BF72B600BF9DF889
:101958001730DBB2002BFAD162B600BF06B0704771
:101968006406002000B583B002900091019244F211
:10197800010071466A4600F003F803B000BD00BFDD
:1019880030B58BB007900691059272B6FFF724FC2C
:1019980000BFFFF7E9F90346002BFAD1079B44F291
:1019A8000102934215D044F2020293423ED1059BB4
:1019B80009932C4A2C4BD31ADB081B0443F0010073
:1019C800099B5B681A46099B1B882849FFF78FF912
:1019D80039E0059B0893234A234BD31ADB081B04E1
:1019E80043F00104089B9D68089B9B68184601F01A
:1019F8004FFD03461846089B5B681946089B1B6801
:101A0800069A02920193009103462A4618492046F5
:101A1800FFF781F9134A144BD31ADB081B0443F070
:101A2800010314491846FFF743F90CE00D4A0E4B21
:101A3800D31ADB081B0443F00103069A0E49184623
:101A4800FFF744F900BF0D4B1B6803F00103002B9F
:101A580000D000BE059A06990798FFF739FF00BF26
:101A68000BB030BD60A8000048A8000028AB0000FB
:101A780044AB00006CAB000080AB0000F0ED00E070
:101A880082B003468DF807309DF807309AB2064BAE
:101A98001B889A4204D29DF807300133DBB200E07C
:101AA8000023184602B070479006002000B583B0A6
:101AB8000B4B1B788DF807300A4B1B78DBB21846A6
:101AC800FFF7DEFF03461A469DF8073093420CBF26
:101AD80001230023DBB2184603B05DF804FB00BF06
:101AE8008C0600208D06002000B587B003900B46B9
:101AF8000192ADF80A30334B1B88BDF80A209A4290
:101B080059D84FF6FF73ADF81230002000F0EAFC08
:101B1800FFF7CCFF0346002B0ED12B4B1B78DBB213
:101B2800ADF81230284B1B78DBB21846FFF7A8FF38
:101B380003461A46244B1A70002000F0E7FCBDF853
:101B480012304FF6FF72934232D0204B1A68BDF81C
:101B58001230DB001344019A1A60039B002B1CD03F
:101B6800BDF80A30002B18D0194B1B68BDF812209D
:101B78001449098801FB02F21344BDF80A200399AD
:101B8800184604F0C5FF114B1A68BDF81230DB0087
:101B98001344BDF80A209A8007E00C4B1A68BDF878
:101BA8001230DB00134400229A800023059304E0DE
:101BB8000423059301E009230593059B184607B004
:101BC8005DF804FB8E0600208D06002084060020A8
:101BD8008806002082B003468DF807309DF807304C
:101BE80003F01F0205499DF907305B09012000FA3F
:101BF80002F241F8232000BF02B0704700E100E084
:101C080082B003468DF807309DF8073003F01F02B5
:101C180006499DF907305B09012000FA02F22033DA
:101C280041F8232000BF02B0704700BF00E100E088
:101C380082B003468DF807309DF8073003F01F0285
:101C480006499DF907305B09012000FA02F240338A
:101C580041F8232000BF02B0704700BF00E100E058
:101C680082B003468DF807309DF8073003F01F0255
:101C780006499DF907305B09012000FA02F260333A
:101C880041F8232000BF02B0704700BF00E100E028
:101C980000B585B00190019B002B0AD0074B43F09B
:101CA80001030393019B9B010293039B02989847AE
:101CB80000E000BF05B05DF804FB00BFD0AB00003A
:101CC80008B50D4B4FF48032C3F844230A4B4FF448
:101CD8008032C3F804231120FFF7C2FF1120FFF759
:101CE80079FF054B01221A602F20FFF7D1FF034B24
:101CF80001221A7000BF08BD00100140B207002081
:101D080008B51120FFF77CFF0E4B4FF48032C3F863
:101D180048230C4B4FF48032C3F80823094B0122A7
:101D28005A602F20FFF7B4FF064B01229A60064B3A
:101D380000221A602F20FFF7ABFF044B00221A7015
:101D480000BF08BD00100140A4070020B207002012
:101D5800024BD3F804351846704700BF0010014005
:101D680082B001900091019A009BD31A23F07F431F
:101D7800184602B07047000082B00190034A019BE8
:101D8800C2F8403500BF02B0704700BF00100140E4
:101D980086B00190284B1B68002B03D1264A019B73
:101DA800136045E0019B1A68234B1B681B689A4225
:101DB80010D8214B1B681968019B1A681E4B1B68B9
:101DC8008A1A1A601C4B1A68019BDA611A4A019B2D
:101DD80013602DE0019B1B680393174B1B68059349
:101DE800154B1B68049309E0049B1B68039AD31ADC
:101DF8000393049B0593049BDB690493049B002BCA
:101E080004D0049B1B68039A9A42EDD8049B002BCC
:101E180005D0049B1A68039BD21A049B1A60019B85
:101E2800039A1A60019B049ADA61059B019ADA61A8
:101E380000BF06B0704700BFA007002000B587B0FC
:101E480001902A4B1B680393284B1B680593059B3D
:101E5800049308E0049A019B9A4208D0049B0593D6
:101E6800049BDB690493049B002BF3D100E000BFC3
:101E7800049B002B01D1002333E0059A049B9A426E
:101E880014D11A4B1B68DB69184A1360174B1B687F
:101E9800002B0BD1164B01229A60164B00221A60B8
:101EA800154B01221A702F20FFF7F2FE049B1B68C6
:101EB8000293049BDA69059BDA61059BDB6904934D
:101EC800049B002B05D0049B1A68029B1A44049BB0
:101ED8001A60064B1B68039A9A4214BF0123002319
:101EE800DBB2184607B05DF804FB00BFA00700206E
:101EF80000100140A4070020B307002008B51120F6
:101F0800FFF796FE00BF08BD08B51420FFF790FE46
:101F180000BF08BD00B585B001900B46ADF8023092
:101F2800BDF80230082B0CBF01230023DBB203935A
:101F3800039B002B05D1094A40F273110020FFF7DB
:101F480011FD019B0293029B1B68029A526810467E
:101F5800984700BF05B05DF804FB00BF98AB0000D0
:101F680000B587B00190019B5B690293019B9B6957
:101F7800039302AB0A4A08211846FFF7B5FD0590FE
:101F8800059B0493049B002B05D0064A40F2871159
:101F98000498FFF7E7FC00BF07B05DF804FB00BF3B
:101FA8001D1F000098AB000000B585B02B4B1B68C7
:101FB800002B4ED000230193FFF7CAFE0246284BA0
:101FC8001B6819461046FFF7CBFE0290234B1B688F
:101FD80003931DE0039B1B68029A9A421CD3039B40
:101FE8001B68029AD31A0293039B1B68019A134435
:101FF8000193039B0093039BDB690393009B1B7C6A
:10200800002B05D0009B00221A740098FFF7A8FF48
:10201800039B002BDED100E000BF124B1A78124B55
:102028001B789A420CD1104B1B780133DAB20E4B55
:102038001A700D4B1B78022B02D10B4B00221A7021
:10204800094B1B781946094A019B42F82130FFF7D2
:102058005BFF00BF05B05DF804FB00BFA0070020D0
:10206800A4070020B0070020B1070020A80700201F
:1020780082B00190184B1A78184B1B789A4223D0DB
:10208800154B1B780133DAB2134B1A70124B1B78BD
:10209800022B02D1104B00221A700F4B1B781A46E4
:1020A8000F4B53F82220019B1A60019B1A680D4BB5
:1020B8001B6813440B4A13600A4B1B6823F07F43C9
:1020C800084A1360012303E0019B00221A600023E1
:1020D800184602B0704700BFB0070020B1070020C3
:1020E800A8070020A407002088B00390029101925D
:1020F8000023079338E0204B1B680693069B1B6858
:10210800039A9A4206D2069B1A68039BD21A069B28
:102118001A602DE0069B1B68039AD31A0393069B4B
:102128001B68079A13440793069B00221A60124BF8
:102138001B680593069BDB690F4A1360069BDB68E7
:10214800002B11D0029A079B134423F07F42069B71
:102158005A60069BDA68069B9A60019B1A68069B80
:10216800DA61019B059A1A60034B1B68002BC2D1E8
:1021780000BF08B0704700BFA007002000B589B0B5
:10218800019000238DF81F30664B1B680593AAE069
:10219800019B002B05D0019B0693069BDB690193ED
:1021A80061E0614B1B781A4613465B001344DB0061
:1021B8005D4A1344043304935B4B1B780133DAB252
:1021C800594B1A70584B1A78574B9B789A4202D140
:1021D800554B00221A70049B5B680693049B1B787E
:1021E800022B04D0032B1BD0012B1FD01DE0049B16
:1021F8005B681846FFF722FE0346002B02D0012336
:102208008DF81F30069B00221A746CE0454B1B6842
:102218000393039B00221A74039BDB69414A1360F2
:10222800404B1B68002BF1D15DE05CE000BF069BD2
:102238001B7C002B00D056E0049B9A68069B5A60D2
:10224800049BDA68069B9A60049B1A69069BDA600D
:10225800049B5A69069B9A61344B1B78002B02D069
:10226800069B00225A60069B5A68314B1B68D31A9A
:1022780023F07F432F4A93420ED8069B5A682C4B73
:102288001B6819461046FFF76BFD0246069B9B68C4
:102298001A44069B1A6017E0254B1A68069B5B6870
:1022A80019461046FFF75CFD0290069B9B68029A50
:1022B8009A4206D2069B9A68029BD21A069B1A601B
:1022C80002E0069B00221A60069B00225A60069BC9
:1022D80000229A60069B01221A74069B0022DA618A
:1022E8000698FFF755FD019B002B7FF451AF0E4B6D
:1022F8001A780D4B5B789A427FF44AAF9DF81F30ED
:10230800002B04D1074B1B68059A9A4201D0012380
:1023180000E0002303F00103DBB2184609B05DF8C2
:1023280004FB00BFA007002094060020B30700208C
:10233800A4070020FEFF7F0010B588B00190274B4E
:102348001B68002B44D0254B1B681B680793FFF7BD
:10235800FFFC0690224B1B68059305990698FFF72A
:10236800FFFC0346033304931E4B1B7883F00103E1
:10237800DBB2002B01D0FFF7A3FC049A079B934222
:1023880038BF1346059A13440593059B23F07F43F2
:1023980005930598FFF7F0FCFFF7DAFC0390069920
:1023A8000398FFF7DDFC0346DC1C06990598FFF748
:1023B800D7FC03469C420DD9FFF7CAFC03461846D2
:1023C800FFF7DAFC2F20FFF763FCFFF797FD01E02A
:1023D800FFF796FC00BF08B010BD00BFA0070020A3
:1023E800A4070020B207002000B587B0002301939E
:1023F80000238DF81730194B1B680493184B1B6882
:1024080003936B461846FFF733FE03468DF80B30EF
:102418009DF80B30002B08D0009B01AA04991846A0
:10242800FFF762FE01238DF81730019B1846FFF76E
:10243800A5FE0346002B02D001238DF817309DF826
:102448001730002B02D00398FFF776FF054B0022C8
:102458001A7000BF07B05DF804FB00BFA407002096
:10246800A0070020B307002008B50E4B0022C3F8D0
:1024780040210C4B0022C3F844210A4B0022C3F828
:102488004821084B0022C3F84C21064B0022C3F810
:102498000021044B0022C3F80421FFF785FD00BF8B
:1024A80008BD00BF0010014008B5FFF79DFF00BF41
:1024B80008BD000072B6034B1B680133014A136064
:1024C80000BF7047B4070020054B1B68013B044A56
:1024D8001360034B1B68002B00D162B600BF704726
:1024E800B407002000B583B0019000F025F803463A
:1024F800012B03D00449432000F04AF8FFF7DAFF24
:1025080000BF03B05DF804FBD8AB000000B583B092
:1025180003468DF8073000F00FF80346012B03D06F
:102528000449512000F034F8FFF7CEFF00BF03B094
:102538005DF804FBD8AB000084B0EFF3058301938A
:10254800019BC3F308030393039B002B0DD1EFF307
:1025580014830093009B0293029B03F00103002B5A
:102568000CBF01230023DBB200E00123184604B0AE
:10257800704700B585B0039002910192019B9BB210
:102588000299184600F004F800BF05B05DF804FB96
:1025980000B585B003460091ADF80630BDF80630A9
:1025A800ADF80830009B039302AB1A46002144F2B1
:1025B8000200FFF7E5F900BF05B05DF804FB10B4B1
:1025C80087B001900091019B009A53E8004F104694
:1025D80043E8000191F0000FF7D1059404900391AE
:1025E800059B184607B05DF8044B704710B487B0D8
:1025F80001900091019B009A53E8004F44EA0200C1
:1026080043E8000191F0000FF6D10594049003917E
:10261800049B184607B05DF8044B704710B487B0A8
:1026280001900091019B009A53E8004F04EA0200D0
:1026380043E8000191F0000FF6D10594049003914E
:10264800059B184607B05DF8044B704710B487B077
:1026580001900091019B009A53E8004F04EB02009F
:1026680043E8000191F0000FF6D10594049003911E
:10267800049B184607B05DF8044B704710B487B048
:1026880001900091019B009A53E8004FA4EB0200CF
:1026980043E8000191F0000FF6D1059404900391EE
:1026A800049B184607B05DF8044B704700B583B02B
:1026B800019001210198FFF799FF0346184603B0DE
:1026C8005DF804FB00B583B0019000210198FFF785
:1026D800A5FF0346184603B05DF804FB00B583B0B8
:1026E80001900B468DF80330019B002B03D108495C
:1026F800E820FFF74DFF019BDA689DF80330019948
:10270800098A01FB03F31344184603B05DF804FB80
:1027180024AC000000B583B001900091019B002B10
:1027280003D10849F520FFF733FF009B019AD268CF
:102738009B1A019A128AB3FBF2F3DBB2184603B074
:102748005DF804FB24AC000000B585B00190019B46
:10275800002B01D10E234DE0019B1B68002B03D1F8
:102768002649FF20FFF714FF019B5B68002B04D16B
:1027780022494FF48070FFF70BFF019B9B68002BE9
:1027880004D11E4940F20110FFF702FF019BDB68EC
:10279800002B04D119494FF48170FFF7F9FE019B12
:1027A8001B8A002B04D1154940F20310FFF7F0FEF5
:1027B800019B9B681A46019B5B68D31A8DF80F3002
:1027C800019B1B68019A52681A6007E0019B1A680E
:1027D8001368591C11609DF80F201A709DF80F306E
:1027E8005A1E8DF80F20002BF0D1019B1B68002288
:1027F8001A710023184605B05DF804FB24AC0000EC
:1028080000B585B00190019B002B04D11C494FF401
:102818009270FFF7BDFE002303930020FFF762FECE
:10282800019B1B681A68019B5B689A4220D9019B2F
:102838001B681A68013A1A601B681B7819460198C8
:10284800FFF74CFF0390019B9B681A46019B1B688E
:102858001B68D31A8DF80B30019B1B681B799DF8F8
:102868000B209A4204D9019B1B689DF80B201A7112
:102878000020FFF74BFE039B184605B05DF804FBEC
:1028880024AC000010B584B001900091019B002B8E
:1028980004D1114940F24710FFF77AFE009B002B44
:1028A80004D10D494FF4A470FFF772FE009B039307
:1028B8000020FFF717FE019B1B681C68621C1A604A
:1028C80003990198FFF726FF034623700020FFF7BE
:1028D8001DFE00BF04B010BD24AC000000B583B0DD
:1028E8000190019B002B03D10C493120FFF750FECA
:1028F800019B9B68002B0CD0019B5B69019A1069B6
:10290800019A1168019A92689847019B00229A607F
:1029180000E000BF03B05DF804FB00BF60AC00003E
:102928000EB400B584B00190019B002B03D1184967
:102938004220FFF72DFE019B5B69002B03D1144950
:102948004320FFF725FE019B1B68002B03D110498C
:102958004420FFF71DFE019B5B68002B03D10C4947
:102968004520FFF715FE059B002B0AD00023039393
:1029780006AB039303AB1A460599019800F0B8F922
:1029880000E000BF04B05DF804EB03B0704700BF7F
:1029980060AC000000B583B001900B468DF80330A1
:1029A8009DF803300A2B03D10D210198FFF7F2FFA0
:1029B800019B1A68019B9B68581C01998860134405
:1029C8009DF803201A70019B9A68019B5B689A42E4
:1029D80002D30198FFF782FF00BF03B05DF804FB44
:1029E80000B587B0039002910192009300230593EC
:1029F800009B03F00103002B24D00BE0029B013362
:102A08000293059B013305939DF8133019460398EB
:102A1800FFF7C0FF029B1B788DF813309DF8133029
:102A2800002BEBD106E0019B013B01932021039889
:102A3800FFF7B0FF019A059B9A422ED9019B002B04
:102A4800F1D12AE0029B002B0BD0029804F0DEF8AB
:102A5800059006E0019B013B019320210398FFF7B5
:102A680099FF019A059B9A420FD9019B002BF1D13E
:102A78000BE0029B01330293059B013305939DF8FC
:102A8800133019460398FFF785FF029B1B788DF8D2
:102A980013309DF81330002BEBD100BF07B05DF861
:102AA80004FB000000B589B00390029101920093E5
:102AB800029B07930123069307E0079A019BB2FB49
:102AC800F3F30793069B01330693079A019B9A42F7
:102AD800F3D2009A069B9A4201D9009B06930B9B5E
:102AE80003F00103002B22D10A9B002B1FD00B9B64
:102AF80003F00203002B06D0009B002B03D13023E8
:102B08008DF8173002E020238DF8173008E00A9B73
:102B1800013B0A939DF8173019460398FFF73AFFCF
:102B28000A9B002B03D0069A0A9B9A42EFD30123F3
:102B38000793009B012B03D9009B013B009309E0FD
:102B4800029A079BB2FBF3F30493049A019B9A42FF
:102B580000D205E0079B019A02FB03F30793E8E71D
:102B6800029A079BB2FBF3F30493049B079A02FBB8
:102B780003F3029AD31A0293154A049B13441B7851
:102B880019460398FFF706FF079A019BB2FBF3F378
:102B98000793079B002BE3D10B9B03F00103002B4A
:102BA80011D00A9B002B0ED006E00A9B013B0A932A
:102BB80020210398FFF7EEFE0A9B002B03D0069A0C
:102BC8000A9B9A42F1D300BF09B05DF804FB00BF2D
:102BD800C8AC000000B589B0059004910392029337
:102BE800049B002BB8BF5B4206930123079307E0C1
:102BF800039B069A92FBF3F30693079B0133079313
:102C0800039B069A9A42F3DA029A079B9A4201D9E1
:102C1800029B07930A9B002B0AD0049B002B04DB22
:102C28000B9B03F00403002B02D00A9B013B0A9381
:102C38000B9B03F00203002B02D0029B002B16D043
:102C48000B9B03F00103002B11D10A9B002B0ED024
:102C580006E00A9B013B0A9320210598FFF79AFE9C
:102C68000A9B002B03D0079A0A9B9A42F1D3049B34
:102C7800002B07DA049B5B4204932D210598FFF78C
:102C880089FE08E00B9B03F00403002B03D02B21E3
:102C98000598FFF77FFE0B9B03F00203002B19D06A
:102CA8000B9B03F00103002B14D1029B002B11D1C5
:102CB8000A9B002B0ED006E00A9B013B0A933021A9
:102CC8000598FFF767FE0A9B002B03D0079A0A9B1B
:102CD8009A42F1D304990B9B01930A9B0093029BA0
:102CE800039A0598FFF7DEFE00BF09B05DF804FB04
:102CF80000B58FB0059004910392059B002B04D179
:102D0800C8494FF4A270FFF743FC059B5B69002B91
:102D180004D1C4494FF4A370FFF73AFC059B1B6824
:102D2800002B04D1BF4940F24710FFF731FC059B47
:102D38005B68002B04D1BB494FF4A470FFF728FC53
:102D4800049B002B00F0ED81049B1B788DF8373035
:102D5800049B013304939DF83730002B00F0D88191
:102D68009DF83730252B40F0C78100230A930123B3
:102D78000C93049B1B788DF837309DF837302D2B3A
:102D880004D0302B0AD02B2B10D017E00A9B43F02D
:102D980001030A93049B0133049312E00A9B43F056
:102DA80002030A93049B013304930AE00A9B43F04D
:102DB80004030A93049B0133049302E000230C9359
:102DC80000BF0C9B002BD4D1002309939DF837300A
:102DD8002A2B0CD1039B1B68191D039A11601B68D1
:102DE800099A13440993049B013304931AE0049B42
:102DF8001B788DF837309DF837302F2B12D99DF876
:102E08003730392B0ED8049B01330493099A1346A3
:102E18009B0013445B001A469DF837301344303B3F
:102E28000993D3E700230B93049B1B788DF8373065
:102E38009DF837302E2B1DD1049B01330493049B3E
:102E48001B788DF837309DF837302F2B12D99DF825
:102E58003730392B0ED8049B013304930B9A134651
:102E68009B0013445B001A469DF837301344303BEF
:102E78000B93E4E7049B1B788DF837309DF83730C7
:102E88006C2B03D09DF83730682B07D1049B013396
:102E98000493049B1B788DF83730EFE79DF83730A3
:102EA800253B532B00F2238101A252F823F000BFE7
:102EB800ED300000F7300000F7300000F730000078
:102EC800F7300000F7300000F7300000F73000005E
:102ED800F7300000F7300000F7300000F73000004E
:102EE800F7300000F7300000F7300000F73000003E
:102EF800F7300000F7300000F7300000F73000002E
:102F0800F7300000F7300000F7300000F73000001D
:102F1800F7300000F7300000F7300000F73000000D
:102F2800F7300000F7300000F7300000F7300000FD
:102F3800F7300000F7300000F7300000F7300000ED
:102F4800F7300000F7300000F7300000F7300000DD
:102F5800F7300000F7300000F7300000F7300000CD
:102F6800F7300000F7300000F7300000F7300000BD
:102F7800F7300000F7300000F7300000793000002B
:102F8800F7300000F7300000F7300000F73000009D
:102F9800F7300000F7300000F7300000F73000008D
:102FA800F7300000F7300000093000003130000031
:102FB800F7300000F7300000F7300000F73000006D
:102FC80031300000F7300000F7300000F730000023
:102FD800F7300000F7300000F7300000B93000008B
:102FE800F7300000F73000009D300000F730000097
:102FF80055300000F7300000F7300000793000004D
:10300800039B1B68191D039A11601B680C930C9B8A
:103018008DF81F309DF81F3019460598FFF7BAFC48
:1030280066E000BF90AC0000039B1B68191D039A63
:1030380011601B680C930A9B0193099B00930B9BDF
:103048000A220C990598FFF7C5FD51E0039B1B6800
:10305800191D039A11601B680C930C990A9B019324
:10306800099B00930B9B0A220598FFF71BFD3FE085
:10307800039B1B68191D039A11601B680C930C991C
:103088000A9B0193099B00930B9B10220598FFF75D
:1030980009FD2DE0039B1B68191D039A11601B682D
:1030A80008930A9B099A08990598FFF799FC1FE06D
:1030B800039B1B68191D039A11601B680C93302130
:1030C8000598FFF767FC78210598FFF763FC0C99D2
:1030D8000023019308230093082310220598FFF783
:1030E800E1FC05E025210598FFF754FC00E000BF4E
:1030F800049B0133049305E09DF837301946059881
:10310800FFF748FC049B1B78002B7FF41DAE00E002
:1031180000BF059B1B7B002B04D00598FFF7DEFB47
:1031280000E000BF0FB05DF804FB00BF00B583B03E
:1031380001900198FFF708FB0346184603B05DF8B5
:1031480004FB00B58BB001900091019B1B8A043BE6
:103158000793009A079B1344DA1C079BB2FBF3F30F
:103168008DF81B300198FFF74BFB0590059B002B52
:1031780001D1002338E0059B00221A71059B01222A
:103188005A71079B9AB2059BDA80059B09939DF8B3
:103198001B30013B0493099B019A1A600023089392
:1031A8001DE00198FFF72CFB0390039B002B0ED02A
:1031B800059B5B790133DAB2059B5A71099B039A27
:1031C8001A60039B019A1A60039B099304E005980F
:1031D80000F00EF8002307E0089B01330893089AD3
:1031E800049B9A42DDD3059B18460BB05DF804FB9F
:1031F80000B58BB00190019B0793079B5B798DF815
:103208001B30019B08939DF81B30013B059300235D
:10321800099305E0089B1B680893099B01330993F0
:10322800099A059B9A42F5D3089B1B680493019B56
:103238000893002309930BE0089B1B6803930899E4
:103248000498FFF71FFB039B0893099B013309931D
:103258009DF81B30099A9A42EED300BF0BB05DF877
:1032680004FB00B585B00190019B0393039B0433D5
:1032780001211846FFF7EAF900BF05B05DF804FB25
:1032880000B587B00190019B0593059B043301218C
:103298001846FFF7F3F90346039303AB0493049B23
:1032A8001B78002B02D10198FFF7A2FF00BF07B0DF
:1032B8005DF804FB00B591B0039002910192009370
:1032C800039B002B03D14349B620FFF761F9039B09
:1032D8000993039B0F93099BDB881A46099B5B792B
:1032E80003FB02F3043B0893009A089B9A4203D31A
:1032F8003849C420FFF74CF9099BDB880793009BEA
:103308001A1D079BB2FBF3F30E93009B0433079A35
:10331800B3FBF2F2079901FB02F29B1A0D93019B92
:103328001A68009B1344089A9A4203D2089A009B91
:10333800D31A01E0019B1B680C93019B0C9A1A603D
:1033480005E00F9B1B680F930E9B013B0E930E9B92
:10335800002BF6D100230B93079A0D9BD31A0A93DF
:103368000A9A0C9B934228BF13460A932AE0029AB2
:103378000B9B134406930F9A0D9B13440433059338
:103388009DF84830002B05D00A9A0599069803F055
:10339800BFFB04E00A9A0699059803F0B9FB0023DD
:1033A8000D930F9B1B680F930C9A0A9BD31A0C93CF
:1033B8000B9A0A9B13440B93079A0C9B934228BFC2
:1033C80013460A930C9B002BD1D100BF11B05DF8B6
:1033D80004FB00BFD8AC000000B589B0059004918B
:1033E80003920293039B079307AA00230093029B6F
:1033F80004990598FFF75EFF079B039A9A4203D04A
:103408000349F620FFF7C4F800BF09B05DF804FBD4
:10341800D8AC000000B589B00590049103920293DE
:10342800039B079307AA01230093029B049905981D
:10343800FFF740FF079B039A9A4204D004494FF4D0
:103448008070FFF7A5F800BF09B05DF804FB00BF66
:10345800D8AC000082B00190019B9B6800229A6062
:10346800019B9B6800221A61019B9B6800225A619C
:10347800019B9B680022DA60019B9B6800225A60CE
:10348800019B9B6800221A6000BF02B070470000D1
:1034980000B585B00190019800F00EF80390039BE9
:1034A800002B01D0039B00E0024B184605B05DF8E5
:1034B80004FB00BFECAD000086B00190164B0593ED
:1034C800164B04931FE0049A059BD31ADB10DA0FFE
:1034D80013445B10DB00059A13440393039B1B689A
:1034E8000293029A019B9A4202D9039B04930AE031
:1034F800029A019B9A4203D2039B0833059302E088
:10350800039B5B6804E0059A049B9A42DBD3002383
:10351800184606B0704700BFC0B10000D8B200001E
:1035280008B500F0E5F800BF08BD000008B500F0D8
:10353800F9F8024B00225A7000BF08BDB8070020F6
:1035480084B001900091019B1B68039306E0039AE5
:10355800009B9A420DD0039B1B680393039B002B8F
:10356800F5D1019B1A68009B1A60019B009A1A60AA
:1035780000E000BF04B0704700B583B00190234B52
:103588001B78002B04D122494FF49370FFF700F801
:103598001E4B5B78DBB2002B12D0019B002B03D0B3
:1035A800019B5B68002098470020FEF79BFF174BA4
:1035B8005B680133154A53600020FEF7A7FF17E048
:1035C8000020FEF78FFF019B002B03D001991148C3
:1035D800FFF7B6FF0D4B5B68002B01D1FFF7A0FF8B
:1035E8000A4B5B680133094A53600020FEF78EFFDF
:1035F800064B5B68002B04D105494FF4A170FEF718
:10360800C7FF00BF03B05DF804FB00BFB807002088
:10361800E0B20000C007002008B5124B1B78002B51
:1036280004D1114940F24710FEF7B2FF0D4B5B6819
:10363800002B04D10C494FF4A470FEF7A9FF002019
:10364800FEF750FF074B5B68013B064A5360054B8A
:103658005B68002B01D1FFF769FF0020FEF756FFDA
:1036680000BF08BDB8070020E0B2000082B001909A
:103678004FF08042019BC2F8043300BF02B070478C
:1036880082B003468DF807309DF8073003F1804378
:1036980001221A6000BF02B0704784B00346ADF83B
:1036A8000630BDF8063003F1804300221A60BDF8E9
:1036B800063003F180431B680393039B00BF04B0EB
:1036C800704782B003468DF807304FF08043D3F837
:1036D8000C3403F001129DF8073043F480339A420A
:1036E8000CBF01230023DBB2184602B0704700006C
:1036F80008B50A4B1B79002B03D10949FB20FEF7BB
:1037080047FF4FF48070FFF7C8FF0120FFF7AEFFB7
:103718000020FFF7B5FF00BF08BD00BFCC070020A1
:1037280054B3000008B50C4B1B79002B04D10B498E
:1037380040F20310FEF72CFF0420FFF7A1FF00BFA3
:103748000120FFF7BEFF0346002BF9D1024B0022F0
:103758005A7100BF08BD00BFCC07002054B3000059
:1037680082B003468DF807309DF8073003F01F023A
:1037780005499DF907305B09012000FA02F241F87A
:10378800232000BF02B0704700E100E082B003468A
:1037980000918DF807309DF90730002B0CDA009B5B
:1037A800DAB20C499DF8073003F00F03043B5201CD
:1037B800D2B20B441A7609E0009BDAB206499DF9A9
:1037C80007305201D2B20B4483F8002300BF02B085
:1037D800704700BF00ED00E000E100E000B583B0F5
:1037E80003460A468DF8073013468DF806309DF8D3
:1037F8000630072B03D908496B20FEF7C9FE9DF850
:1038080006209DF9073011461846FFF7BFFF00BF95
:1038180003B05DF804FB00BF8CB3000000B583B0B3
:1038280003468DF807309DF907301846FFF798FFD3
:1038380000BF03B05DF804FB00B583B00346ADF8E4
:103848000630BDF80630184600F026F803461B6817
:10385800012B0CBF01230023DBB2184603B05DF82F
:1038680004FB00B585B00346ADF80630BDF8063058
:10387800184600F011F803461A4600231360BDF8F5
:103888000630184600F008F803461B680393039BAC
:1038980000BF05B05DF804FB82B00346ADF8063002
:1038A800BDF8063003F1804303F5C043184602B063
:1038B8007047000082B00190034A019BC2F80433AC
:1038C80000BF02B0704700BF0060004082B00190A6
:1038D800034BD3F80423019B1340184602B07047EA
:1038E8000060004082B00190084A019B03F5A27372
:1038F80052F82330054943F00102019B03F5A273F6
:1039080041F8232000BF02B0704700BF00600040AC
:1039180084B00390029113468DF80730144A039B34
:1039280003F5A27352F82330114923F44F3323F4DB
:103938004073039A02F5A27241F822300C4A039BA5
:1039480003F5A27352F82320029B1B0203F47C5157
:103958009DF807301B0403F440330B4304491A4312
:10396800039B03F5A27341F8232000BF04B07047FE
:103978000060004082B00190054A019B03F5A273E4
:1039880052F823301B0A03F03F03184602B0704771
:103998000060004082B00190064A019B03F5A273C3
:1039A80052F823301B0C03F00303DBB2184602B0B5
:1039B800704700BF0060004000B583B00190019BD4
:1039C8001B682F2B04D90B494FF4F370FEF7E0FD69
:1039D800019B1B681F2B02D84FF0A04306E0019BF8
:1039E8001B6803F01F02019B1A60034B184603B0C3
:1039F8005DF804FBBCB300000003005000B585B0BF
:103A08000190084611461A4603468DF803300B46C6
:103A18008DF8023013468DF8013001AB1846FFF7D8
:103A2800CBFF03909DF803209DF802305B001A43FA
:103A38009DF801309B001A439DF818301B0242EA9A
:103A480003019DF81C301B04019A1943039B02F5DE
:103A5800E07243F8221000BF05B05DF804FB00B522
:103A680085B003900B468DF80B309DF80B20002392
:103A78000193002300931346002200210398FFF7C7
:103A8800BDFF00BF05B05DF804FB00B585B001902F
:103A980001AB1846FFF790FF0390019A039B02F5CC
:103AA800E07253F8223023F002030293019A039B39
:103AB80002F5E072029943F8221000BF05B05DF8E4
:103AC80004FB00B585B001900B468DF8033001ABBF
:103AD8001846FFF771FF0390019A039B02F5E07205
:103AE80053F82230019A23F44031039B02F5E07227
:103AF80043F82210019A039B02F5E07253F8223032
:103B08009DF8032012041146019A1943039B02F5FC
:103B1800E07243F8221000BF05B05DF804FB00B561
:103B280085B0019001AB1846FFF746FF0390039854
:103B380000F020F80246019B22FA03F303F0010388
:103B4800184605B05DF804FB00B585B0019001ABDF
:103B58001846FFF731FF0390019A039B02F5E072C4
:103B680053F822301B0C03F00303DBB2184605B0F0
:103B78005DF804FB82B00190019BD3F8103518461C
:103B880002B0704700B589B0039002910192174ABC
:103B980005AB92E8030083E80300039A029B1344F1
:103BA800022B04D9124940F21630FEF7F1FC039BB0
:103BB800079311E0079B9B0008AA134453F80C3C99
:103BC8001846FFF7D7FF0246019B1A60019B043392
:103BD8000193079B01330793039A029B1344079AA7
:103BE8009A42E7D300BF09B05DF804FBECB30000CC
:103BF800BCB3000084B001900091009B0393019B2B
:103C0800DB080293019B03F0070301930122019B48
:103C180002FA03F30399029A0A44127813401846E9
:103C280004B0704784B001900091009B0393019BFE
:103C3800DB080293019B03F007030193039A029B9D
:103C480013441B785AB20121019B01FA03F35BB2BA
:103C5800134359B2039A029B1344CAB21A7000BFA5
:103C680004B0704782B001900C4A019B1344303372
:103C780093F90030002B09DB084A019B13443033C9
:103C880093F90030072B01DC012300E0002303F047
:103C98000103DBB2184602B0704700BFD40700200A
:103CA80082B00190064A019B1344303393F90030E7
:103CB800072BCCBF01230023DBB2184602B07047A4
:103CC800D407002082B00190064A019B1344303388
:103CD80093F90030DB43DBB2DB09DBB2184602B0F4
:103CE800704700BFD407002084B00390029101926E
:103CF8008DF80330029B59B20E4A039B13443033AC
:103D08000A461A700B49029B019A41F823209DF834
:103D1800033083F00103DBB2002B08D0029B083B81
:103D2800039A51B2034A13440A4683F8602000BF3D
:103D380004B07047D407002082B00190044A019B68
:103D480013443033FF221A7000BF02B0704700BF1F
:103D5800D407002000B583B0019004490198FFF70B
:103D680061FF00BF03B05DF804FB00BF3808002006
:103D780082B00190044A019B1344303393F9003018
:103D8800184602B0704700BFD407002082B00190E7
:103D9800034A019B52F82330184602B0704700BF0F
:103DA800D407002000B589B00390029113468DF81E
:103DB8000730FF238DF81F309DF80730002B01D006
:103DC800002300E0082305939DF80730002B01D05D
:103DD800082300E00C230493059B069314E00F4A84
:103DE800069B52F82330B3F1FF3F0AD19DF8073004
:103DF800029A06990398FFF777FF069B8DF81F3004
:103E080006E0069B01330693069A049B9A42E6D382
:103E18009DF91F30184609B05DF804FBD40700204F
:103E280082B003468DF807309DF80730094A4FF0F5
:103E3800FF3142F823109DF80730072B07D99DF86A
:103E48000730083B034A1344FF2283F8602000BF71
:103E580002B07047D407002000B583B0254B93F813
:103E68006A30002B03D008230193019B3EE0002316
:103E78008DF8033009E09DF803301846FFF75CFF22
:103E88009DF8033001338DF803309DF803302F2B54
:103E9800F1D900238DF8033009E09DF80330184666
:103EA800FFF7BEFF9DF8033001338DF803309DF80E
:103EB80003300B2BF1D9062200210F4802F051FEE6
:103EC80006210620FFF78AFC0620FFF7A7FC4FF41F
:103ED800BE70FFF7C6FC4FF00040FFF7EBFC054B48
:103EE800012283F86A2000230193019B184603B03E
:103EF8005DF804FBD40700203808002000B587B01F
:103F0800039002910192039B2F2B04D9364940F26A
:103F18000720FEF73DFB002305930398FFF7D2FE29
:103F28000346002B02D00823059357E0029B9B7899
:103F3800C3F34003DBB21A4601990398FFF732FF37
:103F480003468DF813309DF91330B3F1FF3F43D08A
:103F5800029B9B78C3F38003DBB283F00103DBB2DF
:103F6800002B13D0029B9B7803F00103DBB2002BDC
:103F780003D00398FFF789FD05E0029B5B7819469B
:103F88000398FFF76CFD0398FFF7E4FE029B9B780C
:103F980003F00203DBB2002B08D09DF91300029B4B
:103FA8001B781A460399FFF7B3FC17E09DF9133005
:103FB800083B0E4A134493F96010029B1B789B013F
:103FC8005AB29DF91330083B0A4351B2074A1344C9
:103FD8000A4683F8602001E004230593059B1846F0
:103FE80007B05DF804FB00BFFCB30000D407002055
:103FF80000B589B001900B468DF80330019B2F2B3B
:1040080004D93D4940F23720FEF7C2FA0198FFF77C
:1040180059FE0346002B04D137494FF40E70FEF7C2
:10402800B7FA0198FFF73CFE0346002B2FD0019802
:10403800FFF79EFE0346083B304A134493F960306D
:104048008DF80F309DF80F309B098DF80E309DF8D4
:104058000E30032B0BD10198FFF761FD0346002BAF
:1040680001D0032300E002238DF81F3008E09DF8FB
:104078000E30012B01D1022300E003238DF81F30FD
:104088009DF81F3019460198FFF71BFD30E0019895
:10409800FFF7E8FD0346002B2AD00198FFF768FEDA
:1040A80003460693069B9BB240339BB29B00ADF838
:1040B8001630069B1846FFF715FCBDF81630184653
:1040C800FFF7CFFB9DF80330002B11D00198FFF7C5
:1040D8004FFE03461846FFF759FE0490049B002B39
:1040E80006D00122069B02FA03F31846FFF7E2FB0B
:1040F80000BF09B05DF804FBFCB30000D407002042
:1041080000B599B00023149306AB00221A605A60D8
:104118004FF48073ADF84A300123169300231393AC
:1041280021E0BDF84A301846FFF786FB0346002B0E
:104138000ED01698FFF7CAFB0346002B08D0BDF82F
:104148004A301846FFF78DFB149A169B13431493B5
:10415800169B5B001693BDF84A300433ADF84A301D
:10416800139B01331393139B072BDAD94FF4BE70BB
:10417800FFF762FB0346002B0DD04FF4BE70FFF72C
:1041880070FB149B43F00043149306AB1A460221BC
:104198000020FFF7F7FC149BDBB2002B29D001238A
:1041A80016930023139321E0169A149B1340002BB7
:1041B80016D01398FFF7DEFB11901398FFF7EAFB70
:1041C80003468DF843301398FFF7E0FD0F900F9BDF
:1041D800002B05D09DF843200F9B11461198984756
:1041E800169B5B001693139B01331393139B072BAA
:1041F800DAD9149B002B80F2F08000238DF85F3011
:1042080004AB00221A605A60002315930AE0159B3C
:104218009B0018AA13444FF0FF3243F8582C159B03
:1042280001331593159B012BF1D900238DF85F30CD
:104238000023139378E06B4A139B1344603393F97C
:1042480000308DF83B309DF83B3023F0C0030D93D0
:10425800644A139B1344603393F90030B3F1FF3F72
:104268005FD002AB19460D98FFF7C4FC0346002B3C
:1042780057D09DF83B309B098DF833300D98FFF7E8
:1042880077FD03461846FFF781FD0B900B9B002B2B
:1042980003D19DF83330032B43D19DF83330032BE2
:1042A80004D104AB19460D98FFF7BCFC0D98FFF735
:1042B8004BFC03468DF82B3006AB19460D98FFF7DB
:1042C80099FC0990099B002B03D09DF82B30022BF9
:1042D80006D0099B002B24D19DF82B30032B20D12D
:1042E8009DF83330032B13D19DF82B30022B01D1CD
:1042F800032300E002238DF823309DF8233019466C
:104308000D98FFF7DEFB9DF85F3001338DF85F30C5
:104318000B9B002B05D09DF833200B9B11460D9865
:104328009847139B01331393139B032B83D99DF851
:104338005F30002B4CD001238DF85E306B461A4657
:1043480002210020FFF71EFC0023159314E0159BA3
:104358009B0018AA134453F8602C159B9B0018A9BE
:104368000B4453F8483C9A4203D000238DF85E3042
:1043780005E0159B01331593159B012BE7D99DF893
:104388005E30002B03D000238DF85F3020E000233F
:1043980015931AE0159B9B0018AA134453F8602C38
:1043A800159B9B0018A90B4443F8482C159B9B00B0
:1043B80018AA134453F8502C159B9B0018A90B44BA
:1043C80043F8582C159B01331593159B012BE1D904
:1043D8009DF85F30002B7FF428AF00BF19B05DF85F
:1043E80004FB00BFD407002082B003468DF80730D5
:1043F8009DF8073003F01F0205499DF907305B0956
:10440800012000FA02F241F8232000BF02B07047F1
:1044180000E100E082B0034600918DF807309DF975
:104428000730002B0CDA009BDAB20C499DF80730F4
:1044380003F00F03043B5201D2B20B441A7609E091
:10444800009BDAB206499DF907305201D2B20B44FB
:1044580083F8002300BF02B0704700BF00ED00E002
:1044680000E100E082B00190019B03F06043B3F1EA
:10447800005F0CBF01230023DBB2184602B070476F
:1044880082B00190019B1B0B5BB2184602B07047CB
:1044980000B583B003460A468DF8073013468DF8F9
:1044A80006309DF80630072B03D908496B20FEF724
:1044B8006FF89DF806209DF9073011461846FFF75A
:1044C800A9FF00BF03B05DF804FB00BF34B40000CF
:1044D80000B583B003468DF807309DF907301846BC
:1044E800FFF782FF00BF03B05DF804FB82B00190C4
:1044F8000B468DF803309DF80330019A13440122CE
:104508001A6000BF02B0704782B001900B468DF868
:1045180003309DF80320019B1344184602B07047EE
:1045280084B001900B46ADF80230BDF80230019A14
:10453800134400221A60BDF80230019A13441B6824
:104548000393039B00BF04B0704782B001900B46F1
:10455800ADF80230BDF80230019A13441B68002BF5
:1045680014BF01230023DBB2184602B0704782B0A3
:1045780001900091019B009AC3F8002200BF02B08D
:10458800704782B001900091019B009AC3F8002304
:1045980000BF02B0704782B00190019B0122C3F8AE
:1045A800002500BF02B0704784B00190009100233D
:1045B8008DF80F3011E09DF80F309B00009A1344DE
:1045C8009DF80F201968019B02F5AC7243F8221080
:1045D8009DF80F3001338DF80F309DF80F30032B05
:1045E800E9D900BF04B0704700B583B00190084610
:1045F80011461A4603468DF803300B468DF80230F3
:104608001346ADF80030BDF90030002B04DA0C4930
:1046180040F2B320FDF7BCFF9DF80320019BC3F8CF
:104628000C259DF80220019BC3F80425BDF8002045
:10463800019BC3F8082500BF03B05DF804FB00BF69
:1046480064B4000000B585B003900B4601928DF864
:104658000B30019B002B04D1144940F2BE20FDF71A
:1046680097FF019B1A689DF80B301946039800F0D4
:104678001FF8019B9A889DF80B301946039800F0A3
:104688003DF8019B9A689DF80B301946039800F095
:1046980069F8019BDA689DF80B301946039800F019
:1046A80089F800BF05B05DF804FB00BF64B40000E2
:1046B80000B585B003900B4601928DF80B309DF83C
:1046C8000B30012B04D90C4940F2CA20FDF760FFDA
:1046D800019B002B04D1084940F2CB20FDF758FF7D
:1046E8009DF80B30019A039929335B010B441A603A
:1046F80000BF05B05DF804FB64B4000000B583B0EA
:1047080001900B468DF803301346ADF800309DF844
:104718000330012B04D9124940F2D320FDF738FFAA
:10472800BDF80030002B04D10D494FF43570FDF76A
:104738002FFFBDF90030002B04DA094940F2D520DB
:10474800FDF726FF9DF80330BDF8002001992933B5
:104758005B010B4404331A6000BF03B05DF804FB2F
:1047680064B4000000B585B003900B4601928DF843
:104778000B309DF80B30012B04D90D4940F2DD2098
:10478800FDF706FF019BB3F1807F04D3084940F28F
:10479800DE20FDF7FDFE9DF80B30039A5B01134404
:1047A80003F5A563019A1A6000BF05B05DF804FB24
:1047B80064B4000000B585B003900B4601928DF8F3
:1047C8000B309DF80B30012B04D90D4940F2E6203F
:1047D800FDF7DEFE019BB3F1807F04D3084940F268
:1047E800E720FDF7D5FE9DF80B30039A5B011344D3
:1047F80003F22C53019A1A6000BF05B05DF804FB60
:1048080064B4000082B001900B468DF80330134663
:104818008DF802309DF803209DF802301B021A43E0
:10482800019BC3F8102500BF02B0704782B0019009
:104838000B46ADF80230BDF80220019BC3F81425E1
:1048480000BF02B07047000000B583B00190019B23
:104858001B682F2B04D90B494FF4F370FDF798FE12
:10486800019B1B681F2B02D84FF0A04306E0019B59
:104878001B6803F01F02019B1A60034B184603B024
:104888005DF804FB90B400000003005000B585B04B
:104898000190084611461A4603468DF803300B4628
:1048A8008DF8023013468DF8013001AB1846FFF73A
:1048B800CBFF03909DF803209DF802305B001A435C
:1048C8009DF801309B001A439DF818301B0242EAFC
:1048D80003019DF81C301B04019A1943039B02F540
:1048E800E07243F8221000BF05B05DF804FB00B584
:1048F80085B0039000230193002300930023012235
:1049080001210398FFF7C2FF00BF05B05DF804FB63
:1049180000B585B0019001AB1846FFF795FF0390ED
:10492800019B012202FA03F31946039800F018F8D4
:1049380000BF05B05DF804FB00B585B0019001AB80
:104948001846FFF781FF0390019B012202FA03F347
:104958001946039800F00EF800BF05B05DF804FB97
:1049680082B001900091019B009AC3F8082500BF0E
:1049780002B0704782B001900091019B009AC3F881
:104988000C2500BF02B0704700B589B001900091B6
:1049980000238DF81F3050E09DF81F30009AD35C3B
:1049A8008DF81E309DF81E30FF2B38D09DF81E3034
:1049B80003F08003002B14BF012300238DF81D3062
:1049C8009DF81E209DF81F3022F080029B0008A948
:1049D8000B4443F8142C9DF81D30002B0AD09DF889
:1049E8001F309B0008AA134453F8143C1846FFF7DD
:1049F8008FFF09E09DF81F309B0008AA134453F865
:104A0800143C1846FFF798FF9DF81F309B0008AA32
:104A1800134453F8143C1846FFF769FF08E09DF863
:104A28001F309B0008AA13444FF0FF3243F8142CA0
:104A38009DF81F3001338DF81F309DF81F30032B70
:104A4800AAD9019B1B6803AA11461846FFF7ACFDBB
:104A580000BF09B05DF804FB00B587B00390029170
:104A68000192029B002B03D13E498020FDF790FD67
:104A7800039B1B79DB003C4A13440593059B1B7978
:104A8800DBB2002B03D008230493049B66E0059B4C
:104A9800019A1A6002990398FFF776FF039B1B6837
:104AA8001846FFF778FD039B1868029B5979029B0B
:104AB8009A79029B1B89FFF797FD039B1868029B55
:104AC800997A029BDB7A1A46FFF79CFE039B1B68C8
:104AD80000211846FFF74BFD039B1B680021184671
:104AE800FFF74FFD039B1B684FF48E711846FFF7C5
:104AF80017FD039B1B684FF488711846FFF710FDDC
:104B0800039B1B684FF48A711846FFF709FD039B46
:104B18001B684FF482711846FFF702FD059B1B685E
:104B2800002B15D0039B1B681846FFF7A9FC03460A
:104B38001A46029B1B7919461046FFF7A9FC039BEE
:104B48001B681846FFF79CFC03461846FFF7C0FC95
:104B5800059B01221A7100230493049B184607B091
:104B68005DF804FBC4B400004008002000B587B01D
:104B78000390029111461A460B468DF807301346EA
:104B88008DF80630029B02221A71029B9DF80720BD
:104B98005A71029B1B68002B25D0822305939DF830
:104BA800073003F00403002B03D0059B43F01003E8
:104BB80005939DF8073003F00803002B03D0059BED
:104BC80043F0200305939DF8073003F01003002BF2
:104BD80003D0059B23F080030593039B1B6805996D
:104BE8001846FFF7CEFC039B1B684FF482711846EA
:104BF800FFF796FC9DF90730002B0ADA039B1B6828
:104C08009DF8062011461846FFF77EFC0490049B89
:104C180008E0039B1B689DF8062011461846FFF71D
:104C280065FC0023184607B05DF804FB00B589B0A1
:104C38000390029100931346ADF80630039B1B794D
:104C4800DB003C4A13440593059B1B79DBB2002B20
:104C580004D139494FF48D70FDF79AFCBDF8063040
:104C6800002B04D1344940F21B10FDF791FC029B44
:104C78001B681846FFF7F6FB0346002B04D12E49A4
:104C88004FF48E70FDF784FC039B1B68029A002189
:104C98001846FFF7D7FC039B1B68029A01211846A8
:104CA800FFF7D0FCBDF8063003F00103002B14BF5A
:104CB800012300238DF81F30039B1868BDF80630C8
:104CC8005B089AB29DF81F309BB213449BB21946F9
:104CD800FFF7ACFD009B03F00103002B02D010236B
:104CE80006930FE0009B03F00203002B08D09DF809
:104CF8001F30002B01D0082300E00423069301E0B5
:104D080000230693039B1B6806991846FFF72FFCA0
:104D1800009BDAB29DF81F30002B01D00C2300E075
:104D2800082305990398FFF721FF0346184609B0A1
:104D38005DF804FB40080020C4B4000000B583B04F
:104D4800019000914FF488710198FFF7FEFB03462C
:104D5800002B12D04FF488710198FFF7E1FB009BFC
:104D68005B7903F00403002B07D0009B1B68002B22
:104D780003D0009B1B68012098474FF48A71019863
:104D8800FFF7E3FB0346002B12D04FF48A7101981A
:104D9800FFF7C6FB009B5B7903F00803002B07D0E5
:104DA800009B1B68002B03D0009B1B6802209847C0
:104DB8004FF48E710198FFF7C8FB0346002B12D001
:104DC8004FF48E710198FFF7ABFB009B5B7903F002
:104DD8001003002B07D1009B1B68002B03D0009BFE
:104DE8001B68002098474FF482710198FFF7ADFBCC
:104DF8000346002B0FD04FF482710198FFF790FB08
:104E0800009B01221A71009B1B68002B03D0009B9A
:104E18001B680320984700BF03B05DF804FB00003F
:104E280008B503490348FFF789FF00BF08BD00BF65
:104E38004008002000C0014008B503490348FFF7B7
:104E48007DFF00BF08BD00BF4808002000100240D9
:104E580008B503490348FFF771FF00BF08BD00BF4D
:104E6800500800200020024008B503490348FFF716
:104E780065FF00BF08BD00BF5808002000D00240F1
:104E880000B583B01F4B0193019B02221A61019B5D
:104E980002225A61019B1C4A9A61019B1B4ADA61F2
:104EA800019B4FF400721A62019B00229A62019BD7
:104EB80000225A62019B0022DA62019B124A9A641C
:104EC800019B134ADA64019B10221A65019B002298
:104ED8009A65019B00225A65019B0022DA65019BB5
:104EE80007330C49184601F06FFE019B0A49184622
:104EF80001F06AFE019B20229A7100BF03B05DF8A1
:104F080004FB00BF6008002024B50000D80800207A
:104F1800D80A002030B5000034B5000000B589B0CB
:104F280003900291019200230693039BDB6805938B
:104F3800039B1B690493049A059B9A4205D9049A1A
:104F4800059BD31A013B079307E0039B9A680499D2
:104F5800059BCB1A1344013B0793039B9A68059B57
:104F6800D31A079A934228BF13460793079A019BBF
:104F7800934228BF13460793039B5A68059B134423
:104F8800079A0299184601F0C3FD069A079B134435
:104F98000693029A079B13440293019A079BD31A1C
:104FA8000193059A079B13440593039B9B68059AF5
:104FB8009A4201D100230593039B059ADA60019B6D
:104FC800002BB5D1069B184609B05DF804FB00B567
:104FD80089B0039002910192039BDB680793039BBE
:104FE8009A68079BD31A0693069A019B9A420ED990
:104FF800039B5A68079B1344019A0299184601F0CB
:1050080087FD079A019B1A44039BDA601AE0069B06
:105018000593039B5A68079B1344059A02991846FF
:1050280001F076FD019A069BD31A0593039B5868F5
:10503800029A069B1344059A194601F069FD039BE1
:10504800059ADA6000BF09B05DF804FB86B00190EC
:10505800019B1B690493019BDB680393049A039BE0
:105068009A4208D8019B9A68039BD21A049B13445E
:10507800013B059304E0049A039BD31A013B059373
:10508800059B184606B0704700B589B00390029199
:105098000192029B0693039B5A1C13465B00134420
:1050A800DB001F4A13440593059B5B69012B17D04E
:1050B800012B02D3022B23D029E00598FFF7C6FF66
:1050C8000490049A019B9A4202D20023079321E09C
:1050D800019B0793019A06990598FFF778FF19E055
:1050E8000598FFF7B3FF0490019A049B934228BFE9
:1050F80013460793079A06990598FFF768FF09E092
:10510800019A06990598FFF709FF079002E0002326
:10511800079300BF079B184609B05DF804FB00BF62
:105128006008002008B5FFF7ABFE00BF08BD00000F
:10513800BFF34F8F054BDB6803F4E0620349044B70
:105148001343CB60BFF34F8F00BFFDE700ED00E0D6
:105158000400FA05024B034A1A6000BF704700BFFB
:105168004C0000200090D00308B500F025F9034654
:10517800002B0ED04FF080430022C3F80C214FF0D3
:1051880080430022C3F810214FF080430022C3F867
:10519800382500F035F90346002B76D04FF08053C0
:1051A8007C4AD3F80434C2F820354FF08053794A4A
:1051B800D3F80834C2F824354FF08053754AD3F831
:1051C8000C34C2F828354FF08053724AD3F81034A3
:1051D800C2F82C354FF080536E4AD3F81434C2F815
:1051E80030354FF080536B4AD3F81834C2F8343551
:1051F8004FF08053674AD3F81C34C2F840354FF05B
:105208008053644AD3F82034C2F844354FF08053B1
:10521800604AD3F82434C2F848354FF080535D4AC9
:10522800D3F82834C2F84C354FF08053594AD3F894
:105238002C34C2F850354FF08053564AD3F83034E6
:10524800C2F854354FF08053524AD3F83434C2F878
:1052580060354FF080534F4AD3F83834C2F864357C
:105268004FF080534B4AD3F83C34C2F868354FF0BE
:105278008053484AD3F84034C2F86C354FF0805315
:10528800444AD3F84434C2F8703500F0DDF80346D8
:10529800002B02D0404B414A1A6000F0E7F8034661
:1052A800002B03D03E4BFB22C3F8182500F0F0F882
:1052B8000346002B0AD03B4B1B6823F00F023A4BE6
:1052C8001B6803F00F03374913430B6000F0F2F833
:1052D8000346002B03D0354B4FF400721A6000F0E0
:1052E800FBF80346002B0DD04FF08043D3F8003471
:1052F80003F00103002B05D04FF080436FF001024B
:10530800C3F800242A4BD3F88830294A43F47003A1
:10531800C2F88830BFF34F8FBFF36F8F4FF0102361
:10532800D3F80032002B05DB4FF01023D3F80432FA
:10533800002B2BDA1F4B0122C3F8042500BF1D4B9D
:10534800D3F80034002BFAD04FF010231222C3F800
:10535800002200BF174BD3F80034002BFAD04FF0CF
:1053680010231222C3F8042200BF124BD3F80034D2
:10537800002BFAD00F4B0022C3F8042500BF0D4BB9
:10538800D3F80034002BFAD0FFF7D2FEFFF7E2FE85
:1053980000BF08BD00C000408C5600404881030093
:1053A80000F00040E40E0040580200104096024011
:1053B80000ED00E000E001400F4B1B68082B17D1FF
:1053C8000E4B1B68002B01D1012312E00B4B1B680D
:1053D800012B01D101230CE0084B1B68022B01D1E2
:1053E800012306E0054B1B68032B01D1012300E0D4
:1053F80001231846704700BF300100103401001027
:105408000F4B1B68082B17D10E4B1B68002B01D1C3
:10541800012312E00B4B1B68012B01D101230CE087
:10542800084B1B68022B01D1012306E0054B1B68C2
:10543800032B01D1012300E001231846704700BF68
:105448003001001034010010064B1B68082B05D1F1
:10545800054B1B68002B01D1012300E000231846EF
:10546800704700BF3001001034010010064B1B6864
:10547800082B05D1054B1B68002B01D1012300E047
:1054880000231846704700BF300100103401001097
:10549800064B1B68082B05D1054B1B68002B01D157
:1054A800012300E000231846704700BF30010010B8
:1054B80034010010064B1B68082B05D1054B1B68EF
:1054C800002B01D1012300E000231846704700BFDC
:1054D80030010010340100100F4B1B68082B17D146
:1054E8000E4B1B68002B01D1012312E00B4B1B68EC
:1054F800012B01D101230CE0084B1B68022B01D1C1
:10550800012306E0054B1B68032B01D1012300E0B2
:1055180001231846704700BF300100103401001005
:1055280000B587B0FEF798FC0590059B0493049B93
:10553800002B04D0224A27210498FCF713FA01AB68
:1055480000210A461A800A469A7001238DF8043011
:105558009DF8063043F002038DF8063003238DF8DA
:10556800053001AB174A19460B20FEF7C7FC05901A
:10557800059B0393039B002B04D0114A3021039809
:10558800FCF7F0F901AB0F4A19460C20FEF7B6FC00
:105598000590059B0293029B002B04D0084A3321F7
:1055A8000298FCF7DFF901210B20FEF721FD01210C
:1055B8000C20FEF71DFD00BF07B05DF804FB00BF1F
:1055C8003CB50000CD16000000B583B00190019BEA
:1055D8001B682F2B04D90B494FF4F370FCF7D8FF45
:1055E800019B1B681F2B02D84FF0A04306E0019BCC
:1055F8001B6803F01F02019B1A60034B184603B097
:105608005DF804FB84B500000003005000B585B0C8
:105618000190084611461A4603468DF803300B469A
:105628008DF8023013468DF8013001AB1846FFF7AC
:10563800CBFF03909DF803209DF802305B001A43CE
:105648009DF801309B001A439DF818301B0242EA6E
:1056580003019DF81C301B04019A1943039B02F5B2
:10566800E07243F8221000BF05B05DF804FB00B5F6
:1056780085B00390002301930023009300230122A7
:1056880001210398FFF7C2FF00BF05B05DF804FBD6
:1056980000B585B0019001AB1846FFF795FF039060
:1056A800019B012202FA03F31946039800F018F847
:1056B80000BF05B05DF804FB00B585B0019001ABF3
:1056C8001846FFF781FF0390019B012202FA03F3BA
:1056D8001946039800F00EF800BF05B05DF804FB0A
:1056E80082B001900091019B009AC3F8082500BF81
:1056F80002B0704782B001900091019B009AC3F8F4
:105708000C2500BF02B0704700B585B0204A214B78
:10571800D31ADB081B0443F003031F491846FBF7A1
:10572800C7FA1E4A6B4607CA83E807006B46002281
:1057380019461B48FFF790F90390039B002B04D0F0
:10574800184A2E210398FCF70DF9174B00221A80EE
:10575800154B00225A80144B00229A80124B0022CB
:10576800DA801C20FFF783FF1D20FFF780FF1E2033
:10577800FFF77DFF1F20FFF77AFF0F20FFF777FF66
:105788001020FFF774FF00BF05B05DF804FB00BFF1
:1057980060A8000048A80000B4B5000014B60000D6
:1057A80050000020CCB50000E80A002000B583B006
:1057B8000190019B1B68042B4DD801A252F823F0DD
:1057C800DD570000F7570000115800002B58000063
:1057D800455800001C20FFF76FFF1D20FFF76CFFE6
:1057E8001E20FFF769FF1F20FFF766FF34E01C202B
:1057F800FFF74EFF1D20FFF75FFF1E20FFF748FF52
:105808001F20FFF759FF27E01C20FFF755FF1D2039
:10581800FFF73EFF1E20FFF74FFF1F20FFF738FF5F
:105828001AE01C20FFF734FF1D20FFF745FF1E205C
:10583800FFF742FF1F20FFF72BFF0DE01C20FFF7AB
:105848003BFF1D20FFF724FF1E20FFF721FF1F202D
:10585800FFF732FF00E000BF00BF03B05DF804FBB4
:1058680082B00190019B1B88C3F164039AB2064B76
:105878001A80019B5B88C3F164039AB2024B5A8079
:1058880000BF02B0704700BFE80A002010B584B01E
:10589800064B6C460FCB84E80F00694602230122B1
:1058A8000348FFF7C3F900BF04B010BD20B60000DD
:1058B800500000200000000030B589B0039002912C
:1058C8000192029B1B68844A1360029B5B68834AAF
:1058D8001360039B1B68042B00F2858201A252F817
:1058E80023F000BF0159000013590000295B000094
:1058F8005B5C0000495D0000774B1B68784A1360C9
:10590800764B1B68774A136076E2734B1A68744BC0
:105918001B689A4200F06982704B1A68714B1B68C9
:105928009A4200F062826C4B1A686D4B1B68D31A5E
:105938006D4A1360694B1A686A4B1B68D31A6B4A25
:105948001360694B1A68694B1B6813445B08684A03
:105958001360614B1B68624A1360604B1B68614AA5
:105968001360019B1B681A46624B1A60614B1B68E7
:10597800184600F055FA03460C46CDE9063454A300
:10598800D3E90023DDE9060100F0FAFB03460C46E3
:10599800184621464FF00002574B00F0A7FC03467B
:1059A8000C46CDE90634524B1A68544B1B68B2FBBF
:1059B800F3F3184600F04BFA04460D469DED060B2E
:1059C80000F0D6FD53EC102B2046294600F0D8FBFA
:1059D80003460C461846214600F04AFA0246484B50
:1059E8001A60434B1A68454B1B68B2FBF3F3184621
:1059F80000F02DFA04460D469DED060B00F098FECA
:105A080053EC102B2046294600F0BAFB03460C46FF
:105A18001846214600F02CFA02463A4B1A60019BC0
:105A28005A68374B1B681A44019B5A60019B9A6855
:105A3800344B1B681A44019B9A60334A334BD31A80
:105A4800DB081B0443F00304DDE9040100F037FA26
:105A580003461A462E492046FBF738F92A4A2B4BAB
:105A6800D31ADB081B0443F00300224B1B681A46B9
:105A78002849FBF72BF9244A244BD31ADB081B04CB
:105A880043F00304DDE9060100F019FA03461A465B
:105A980021492046FBF71AF91B4A1C4BD31ADB088D
:105AA8001B0443F00300174B1B681A461B49FBF7FE
:105AB8000DF9154A154BD31ADB081B0443F00300F4
:105AC8000F4B1B681A461549FBF700F98DE100BF1B
