:100000000000042079030000610300006303000086
:1000100065030000670300006903000000000000A2
:100020000000000000000000000000006B03000062
:100030006D030000000000006F030000710300006A
:1000400021790300594D03001533030073030000A9
:100050007303000073030000758303007303000043
:1000600073030000730300007303000073030000B8
:1000700073030000D12D030073030000730300001D
:1000800073030000C133000073030000730300001A
:1000900001340000730300007303000073030000C9
:1000A0007303000073030000730300007303000078
:1000B0007303000073030000000000000000000054
:1000C0007303000073030000730300007303000058
:1000D00055FE020073030000730300007303000069
:1000E00073030000730300002520040000000000DB
:1000F0000000000073030000000000007303000014
:1001000000000000000000000000000000000000EF
:1001100000000000000000000000000000000000DF
:1001200000000000000000000000000000000000CF
:1001300000000000000000000000000000000000BF
:1001400000000000000000000000000000000000AF
:10015000000000000000000000000000000000009F
:10016000000000000000000000000000000000008F
:10017000000000000000000000000000000000007F
:10018000000000000000000000000000000000006F
:10019000000000000000000000000000000000005F
:1001A000000000000000000000000000000000004F
:1001B000000000000000000000000000000000003F
:1001C000000000000000000000000000000000002F
:1001D000000000000000000000000000000000001F
:1001E000000000000000000000000000000000000F
:1001F00000000000000000000000000000000000FF
:10020000364937480A1A02D0072291438D463549AC
:1002100035480A1A06D00722914381F30988022241
:1002200082F3148831483249324A00F045F83248A6
:100230003249334A00F040F832483349334A00F03B
:100240003BF833483349344A00F036F833483449F0
:10025000344A00F031F834483449354A00F02CF87B
:1002600034483549354A00F027F8354835490022E9
:1002700000F02DF834483549002200F028F83448C1
:100280003449091A082903DB0022026004300160A6
:10029000314A90471F482049884205D002680430FF
:1002A00003B4904703BCF7E700208646EC460020E5
:1002B00000212A4A9047FEE7884207D0521A05D00B
:1002C000037801300B700131013AF9D1704788424F
:1002D00002D002700130FAE77047000000000420ED
:1002E00000E0032000000420000004207443050007
:1002F0000000002000010020D8030000D803000007
:10030000E094040074430500000000200000002079
:1003100034950400349504003495040034950400A9
:100320003495040034950400349504003495040099
:100330007143050074440500000100200001002005
:1003400000010020EC210120EC210120F0210120FE
:10035000F0210120F0210120A1030000E520000090
:10036000FEE7FEE7FEE7FEE7FEE7FEE7FEE7FEE765
:10037000FEE7FEE7704700BF1048804710484FF087
:100380000701884385460F4880470F48016841F4BC
:1003900070010160BFF34F8FBFF36F8FFFF730BF66
:1003A0000A480B490B4A884207D0521A05D00378F5
:1003B00001300B700131013AF9D17047750300002B
:1003C0000000042035A5030088ED00E0349504000A
:0803D0000000002000000020E5
:1003D80000487047E421012000B585B00190019BD9
:1003E800002B0AD0074B43F001030393019B9B01A9
:1003F8000293039B0298984700E000BF05B05DF8A0
:1004080004FB00BF4095040000B583B00190019B38
:10041800002B0AD04FF47A70FFF7DEFF019B013BF7
:100428000193019B002BF5D100E000BF03B05DF8FC
:1004380004FB08B53AF058F800BF08BD00B589B00C
:10044800039002910192019B002B33D00023079364
:1004580003230693029A079B1344019A1946002026
:1004680039F08EFF0590079A059B13440793019A6C
:10047800059BD31A0193059B002B13D10F4B1B78B7
:1004880083F00103DBB2002B13D10120FFF7BCFF7F
:10049800069B013B0693069B002B03D1074B0022CA
:1004A8001A7007E0054B01221A70019B002BD1D16D
:1004B80000E000BF00BF09B05DF804FB00010020A8
:1004C80000B585B003900291054B00934023054A7F
:1004D8000299039800F012F800BF05B05DF804FB1C
:1004E800450400000401002082B0019000BF02B062
:1004F800704782B0019000BF02B0704700B5A1B04C
:100508000590049103920293049804F090F8039BD9
:100518001593029B16930023179300238DF86030E0
:1005280000231993229B1A9300231F930FA91F9B43
:100538000822049804F054F908231F93119B12937E
:10054800BDF84030ADF84C30BDF84230ADF84E3013
:1005580000238DF851309DF83C3003F00303DBB2E3
:10056800012B26D10F9BC3F395231C939DF83C3098
:10057800C3F3C203DBB28DF85030BDF83C30C3F38F
:100588008313DBB21B931B9B9A0009A91F9B04983A
:1005980004F026F91B9B9B001F9A13441F9312AA71
:1005A80009A915AB009313461B9A1C9800F0C4FECA
:1005B8002FE09DF83C3003F00303DBB2022B28D177
:1005C800BDF83E30C3F389139BB21E939DF83C30AF
:1005D800C3F3C203DBB28DF850301E9B082B28BF33
:1005E80008231D9307A91F9B1D9A049804F0F8F887
:1005F8001F9A1D9B13441F931E9A1D9BD31A1E936B
:1006080015AB12AA07A81D9900F038FF1E9B002BF6
:10061800E3D1049804F01AF800BF21B05DF804FB98
:1006280082B00190019BDB6801225A7100BF02B0C1
:100638007047000000B583B04FF0FF330193FFF718
:10064800F8FE0421084800F093FD0190019B002B5F
:1006580003DA0649412003F081F90348FFF7E0FF78
:1006680000BF03B05DF804FB109504005895040022
:1006780000B583B001900091019B1B681B6800992D
:100688000198984700BF03B05DF804FB00B583B03C
:100698000190019B1B685B680198984700BF03B0F5
:1006A8005DF804FB00B583B00190019B1B689B6853
:1006B8000198984700BF03B05DF804FB82B0019031
:1006C8000B468DF80330019BDB689DF803201A71F7
:1006D80000BF02B0704782B00190019BDB681B79B4
:1006E800184602B0704782B00190019BDB68012276
:1006F8005A7100BF02B0704782B00190019BDB685D
:100708005B79184602B0704700B585B0019000913A
:10071800154BFF229A60144B00221A60124B0022DC
:100728005A60114B0022C3F818240F4B0022C3F85B
:1007380014240D4B002283F820240C4803F0DCFE1F
:100748000390039B002B01D0039B08E0084804F0AA
:1007580067F8084A084BD31ADB08029300231846A7
:1007680005B05DF804FB00BFAC0200202095040032
:10077800A495040010950400E0940400024A034B79
:10078800D31ADB081846704710950400E09404005B
:1007980000B587B001900B468DF803309DF8033003
:1007A800002B1FD0FFF7EAFF04900023059313E006
:1007B800059B9B000E4A13440393039B1B881A4610
:1007C800019B1B689A4204D1019B059A1A60002379
:1007D80009E0059B01330593059A049B9A42E7D3E8
:1007E800052300E00023184607B05DF804FB00BFAE
:1007F8000000002000B585B001900B468DF803304D
:100808009DF8032001AB11461846FFF7C1FF0346C8
:10081800002B07D1019BDB00054A13440393039B7C
:100828001B6800E00023184605B05DF804FB00BF14
:10083800E094040084B001900B468DF80330019BCE
:10084800DB00174A134402939DF80330013B032B46
:100858001CD801A252F823F07108000079080000A2
:10086800810800008B08000002238DF80F3011E08A
:1008780004238DF80F300DE0029B1B798DF80F30A3
:1008880008E0029B5B798DF80F3003E000238DF8B8
:100898000F3000BF9DF80F30184604B0704700BFF6
:1008A800E094040084B00190009100238DF80F308B
:1008B800019B1B7803F00403DBB2002B24D0019BBF
:1008C8001B78C3F30103DBB2012B02D0022B0CD03F
:1008D80017E0009B1B68019A1288C2F38312D2B2F8
:1008E80013449A1C009B1A600BE0009B1B68019A3A
:1008F8005288C2F3891292B213449A1C009B1A6060
:1009080000BF01238DF80F309DF80F30184604B052
:100918007047000000B58BB00023ADF826303E4884
:1009280003F0AAF83D4803F0A7F83D4B5B68049331
:100938003B4B9B680693049A069B134002339B002B
:10094800374A13440433089304AB19460898FFF751
:10095800A9FF0346002B09D0049A069B13400233D3
:100968009B002F4A134404330893EDE700BF00238C
:10097800079311E0049B5A1C0492069A1340079AA5
:10098800920001A90A44264902339B000B445B6884
:100998001360079B01330793079B012BEAD99DF846
:1009A8000430C3F30103DBB2012B10D0022B1CD19E
:1009B800BDF80A30ADF82630BDF80630C3F3891308
:1009C8009BB203339A08049B1344049313E0BDF8C5
:1009D8000A30ADF82630BDF80430C3F38313DBB218
:1009E8001A46049B1344049305E00E494FF4BF7064
:1009F80002F0B4FF00BF094803F04AF80590059BD0
:100A0800002B02D0049B064A5360BDF826301846D6
:100A18000BB05DF804FB00BFC4060020C006002030
:100A2800AC020020B495040000B585B00021074849
:100A380002F0ABFF0390039B0293029B83F3100326
:100A48000193019B184605B05DF804FBC806002019
:100A580000B589B00390029101920093039B1B0C8F
:100A68000793FFF7E1FF0690FFF788FE0246079B12
:100A7800934204D3214940F2A31002F06FFF069B72
:100A88001904009B5A1C0A9B1340079A0A431C49E5
:100A980002339B000B445A60009A0A9B13400233AE
:100AA8009B00174A134404330593039B03F0070381
:100AB800D9B2059A137861F3C5031370019B03F04B
:100AC8000F03D9B2059A138861F389131380029B27
:100AD800C3F31501059A136861F39F231360059A00
:100AE8001378012161F301031370059A13786FF3EA
:100AF8008203137000BF09B05DF804FBB4950400CD
:100B0800AC02002000B58BB00390029113468DF81B
:100B18000730039B0233089301238DF81F30002010
:100B280002F040FD3E4B1A68029B1A603C4B9A68E3
:100B38003B4B59683A4B1B68CB1A13440133099352
:100B480014E00121374802F067FFFFF7E3FE059044
:100B58000599344802F060FF314B9A68304B596868
:100B68002F4B1B68CB1A134401330993089A099B2E
:100B78009A42E6D89DF81F30002B48D000230493F2
:100B88009DF80730002B17D09DF81030012262F332
:100B980001038DF810309DF8103043F004038DF8F0
:100BA8001030039B03F00F03DAB2BDF8103062F384
:100BB8008913ADF8103016E09DF81030022262F368
:100BC80001038DF810309DF8103043F004038DF8C0
:100BD8001030039BC3F309039AB2BDF8123062F3D5
:100BE8008F13ADF812300E4B1A680D4B9B681340EB
:100BF80002339B000A4A134404330693049A069B63
:100C08001A60074B1A68089B1344054A13600020B2
:100C180002F0DCFC9DF81F3018460BB05DF804FBB1
:100C2800AC020020C806002000B58BB005900491E6
:100C3800039202931F4B9B68079306AB0122194648
:100C48000298FFF75FFF0346002B24D0069B023370
:100C580009930023089311E0089B9B00039A1A4408
:100C6800099B591C099107990B40126811490233D5
:100C78009B000B445A60089B01330893089A029B17
:100C88009A42E9D3069A079B00931346029A04995D
:100C98000598FFF7DDFE074B93F82034002B05D0AD
:100CA80000BF00F065F80346002BFAD100BF0BB077
:100CB8005DF804FBAC02002000B583B00190009100
:100CC8000023002200990198FFF7AEFF00BF03B090
:100CD8005DF804FB00B587B0039002910192019B77
:100CE800059305AA012302990398FFF79DFF00BF0A
:100CF80007B05DF804FB00B587B00390029101923C
:100D08000093019B0493009B059304AA0223029974
:100D18000398FFF789FF00BF07B05DF804FB00B533
:100D28008BB00390029101920093019B0593009B65
:100D380006930C9B07930D9B08930E9B099305AA9A
:100D4800052302990398FFF76FFF00BF0BB05DF80A
:100D580004FB0000054B5A68044B1B689A420CBF01
:100D680001230023DBB21846704700BFAC02002005
:100D780000B599B0FFF7EEFF0346002B01D0002322
:100D8800B5E19A4B0022C3F81824BFF34F8F974B55
:100D98005B680493954B9B681093049A109B1340CF
:100DA80002339B00914A1344043311930023179391
:100DB8000023169300230F9304AB19461198FFF7ED
:100DC80071FD0346002B19D0884BD3F81834002B3B
:100DD80014D1864B1A68049B9A4205D8834B1B682A
:100DE800824A5360002382E1049A109B1340023325
:100DF8009B007E4A134404331193DDE700231593C7
:100E080011E0049B5A1C0492109A1340159A920000
:100E180001A90A44754902339B000B445B681360BF
:100E2800159B01331593159B012BEAD99DF80430C6
:100E380003F00303DBB2022B40F09C80BDF80630C0
:100E4800C3F389139BB20D93BDF80630C3F389131E
:100E58009BB2502B28BF50239BB20C930C9BC3F31F
:100E680009039AB2BDF8063062F38F13ADF8063065
:100E78000C9B08330B939DF80430C3F3C203DBB219
:100E88000F930B995A4803F042FB1790179B002BBE
:100E980000F0D080179803F0CAFB01A9169B08221E
:100EA800179803F07FFC169B08331693049BDA43CC
:100EB800109B134001339B000A930C9A0A9B9A4299
:100EC80042D90A9B002B08D0049A109B1340023386
:100ED8009B00464A1344043300E0464B08930A9BA0
:100EE800002B02D00A9BDBB201E00C9BDBB28DF831
:100EF8001F300A9B002B01D03E4B00E000230693D5
:100F08000A9B002B06D00C9BDAB20A9BDBB2D31AE1
:100F1800DBB200E000238DF817309DF81F20169BE8
:100F28000899179803F03EFC9DF81F30169A134451
:100F38001693069B002B16D09DF81720169B069932
:100F4800179803F02FFC0EE0049A109B134002330D
:100F58009B00264A134404330993169B0C9A09995B
:100F6800179803F01FFC0D9B03339A08049B134446
:100F780004935FE09DF8043003F00303DBB2012B18
:100F880058D1BDF80430C3F38313DBB2062B28BF56
:100F98000623DAB2BDF8043062F38913ADF80430E1
:100FA800BDF80430C3F38313DBB202330E939DF80C
:100FB8000430C3F3C203DBB20F930E9B9B001946A8
:100FC8000B4803F0A4FA1790179B002B32D0179800
:100FD80003F02DFB01A9169B0822179803F0E2FBEA
:100FE800169B08331693002315931AE0AC020020D1
:100FF80020950400B8020020049B5A1C0492109A01
:10100800134002339B003C4A1344191D169B0422CB
:10101800179803F0C7FB169B04331693159B0133EF
:101028001593BDF80430C3F38313DBB21A46159B3E
:101038009342E1D3179B002B39D02F4BD3F81034B0
:1010480014932D4BD3F81834002B1BD0179803F0AA
:10105800FDFA46E000238DF84F301498FFF74CFB5B
:101068000346002B02D001238DF84F309DF84F30F6
:10107800002B03D017991498FFF7FAFA149BDB6832
:101088001B681493149B002BE4D1179803F0DEFA25
:10109800002002F087FA184BD3F81834002B02D13D
:1010A800049B154A5360002002F090FA19E0124B95
:1010B800D3F81034129306E01298FFF7F3FA129B54
:1010C800DB681B681293129B002BF5D10B4A0C4B63
:1010D800D31ADB081B0443F002030A491846FFF73A
:1010E800EBFDFFF737FE034683F00103DBB218463A
:1010F80019B05DF804FB00BFAC020020F0940400B6
:10110800E0940400F895040000B585B0002303932B
:1011180023E0164BD3F81034029301238DF80730DF
:101128000FE00298FFF7D7FA03461A46039B93424B
:1011380003D100238DF8073006E0029BDB681B68AB
:101148000293029B002BECD19DF80730002B01D0B5
:10115800039B07E0039B01330393039B092BD8DD13
:101168004FF0FF33184605B05DF804FBAC020020D1
:1011780000B585B001900B468DF80330FFF7C4FF2A
:101188000390039BB3F1FF3F01D1039B22E0039B34
:10119800DBB219460198FFF791FA104BD3F81034D7
:1011A800002B08D10D4A019BC2F81034019BDB6863
:1011B80000221A600DE0094BD3F81034DA68019B5D
:1011C800DB6812681A60054BD3F81034DB68019AA3
:1011D8001A60039B184605B05DF804FBAC020020BA
:1011E80000B583B00C4BD3F8103401930A4B01229D
:1011F80083F8202409E00198FFF775FA0198FFF7B2
:1012080045FA019BDB681B680193019B002BF2D117
:1012180000BF03B05DF804FBAC02002082B001906F
:10122800009100BF02B0704710B584B003900291DE
:10123800039BDB88002B0AD0039BDB881A461F4BD5
:10124800009313461E4A1F49029802F04FFD039B64
:101258001B7A052B2ED0039B5B7A002B12D0039BA5
:101268009B881A46039B1B7A19461046FFF7E2FA39
:1012780003461A46144B53F822301A46134902986B
:1012880002F034FD039B1B6819460298FFF7C6FF5E
:10129800039B1B7A1A460E4B53F82240039B9B88EC
:1012A80000211846FFF7A6FA034622460949029884
:1012B80002F01CFD00BF04B010BD00BF2C96040056
:1012C8003C960400749604001C0000208C960400D0
:1012D800080000209096040000B585B003900291A4
:1012E80013468DF80730039B1B7A052B0FD0039B01
:1012F8005B7A002B06D00D4B1B681A460C490298E6
:1013080002F0F4FC0B49029802F0F0FC07E09DF8AB
:101318000730002B03D00749029802F0E7FC029837
:1013280002F0C2FC00BF05B05DF804FB1C00002001
:101338008C9604009C96040030B58BB007900691FB
:10134800059204930E9B1B7B8DF827300E9B002281
:101358001A730E990498FFF767FF059B062B7FD831
:1013680001A252F823F000BF8D130000971300006C
:10137800A7130000BB130000D913000001140000DC
:101388003114000007990E9802F0B0FC69E0069B42
:101398001B681A4607990E9802F0A8FC61E0069BA4
:1013A8001A68069B04331B6807990E9802F09EFC86
:1013B80057E0069B1A68069B04331968069B083396
:1013C8001B6800930B4607990E9802F08FFC48E0C3
:1013D800069B1968069B04331868069B08331B682C
:1013E800069A0C3212680192009303460A4607993E
:1013F8000E9802F07BFC34E0069B1868069B0433C9
:101408001C68069B08331B68069A0C3212680699FA
:101418001031096802910192009323460246079908
:101428000E9802F063FC1CE0069B1C68069B0433C4
:101438001D68069B08331B68069A0C3212680699C9
:1014480010310968069814300068039002910192DF
:1014580000932B46224607990E9802F047FC00E0BD
:1014680000BF00220E990498FFF736FF0E9B9DF8E7
:1014780027201A7300BF0BB030BD00BF00B587B07E
:101488000390029101920093029B082B60D8009B65
:101498001B7B8DF81330009B00221A73009901986A
:1014A800FFF7C2FE0023059314E0059A029B9A42B7
:1014B80009D2039A059B13441B781A4626490098BB
:1014C80002F014FC03E02549009802F00FFC059B8C
:1014D80001330593059B072BE7D92149009802F0B2
:1014E80005FC0023059326E0059A029B9A421BD22D
:1014F800039A059B13441B788DF812309DF812301F
:101508007E2B0AD89DF8123018463CF053FC03464F
:10151800002B02D09DF8123000E02E231A46114904
:10152800009802F0E3FB03E00F49009802F0DEFBAD
:10153800059B01330593059B072BD5D901220099FB
:101548000198FFF7C9FE009B9DF813201A7300E06D
:1015580000BF07B05DF804FBA0960400A89604003D
:10156800AC960400B0960400B496040000B583B0AD
:101578000190019B1B682F2B04D90B494FF4F37082
:1015880002F0ECF9019B1B681F2B02D84FF0A04317
:1015980006E0019B1B6803F01F02019B1A60034BC6
:1015A800184603B05DF804FBB89604000003005029
:1015B80000B585B00190084611461A4603468DF8D5
:1015C80003300B468DF8023013468DF8013001AB1D
:1015D8001846FFF7CBFF03909DF803209DF80230D3
:1015E8005B001A439DF801309B001A439DF81830A0
:1015F8001B0242EA03019DF81C301B04019A19439F
:10160800039B02F5E07243F8221000BF05B05DF8B5
:1016180004FB00B585B003900023019300230093D9
:101628000023012201210398FFF7C2FF00BF05B084
:101638005DF804FB00B585B003900B468DF80B30C0
:101648009DF80B20002301930023009313460022EA
:1016580000210398FFF7ACFF00BF05B05DF804FB5D
:1016680000B585B0019001AB1846FFF77FFF0390E6
:10167800019B012202FA03F31946039800F069F866
:1016880000BF05B05DF804FB00B585B0019001AB63
:101698001846FFF76BFF0390019B012202FA03F340
:1016A8001946039800F05FF800BF05B05DF804FB29
:1016B80000B585B0019001AB1846FFF757FF0390BE
:1016C800039BD3F804350293029BDA43019B012163
:1016D80001FA03F31A40039BC3F80825019B012272
:1016E8009A40029B1A40039BC3F80C2500BF05B023
:1016F8005DF804FB00B583B001900091009B002BBE
:1017080003D10198FFF7C0FF02E00198FFF7A8FF97
:1017180000BF03B05DF804FB00B585B0019001ABD4
:101728001846FFF723FF0390039800F00AF80246D3
:10173800019B22FA03F303F00103184605B05DF894
:1017480004FB82B00190019BD3F80435184602B01F
:10175800704782B001900091019B009AC3F8082558
:1017680000BF02B0704782B001900091019B009ABF
:10177800C3F80C2500BF02B07047000000B585B063
:101788000190019B032B03D911493A2002F0E6F896
:10179800104A019B13441B781846FFF7BDFF034608
:1017A800002B14BF012300238DF80F309DF80F3054
:1017B800002B14BF01230023DBB283F00103DBB24B
:1017C80003F00103DBB2184605B05DF804FB00BF67
:1017D800E89604001497040000B583B00190019BBB
:1017E800032B03D90749412002F0B8F8064A019BA8
:1017F80013441B7800211846FFF77CFF00BF03B095
:101808005DF804FBE89604001497040000B583B063
:101818000190019B032B03D90749472002F09EF84A
:10182800064A019B13441B7801211846FFF762FF03
:1018380000BF03B05DF804FBE896040014970400A9
:1018480000B583B00023019305E00198FFF7DEFFA0
:10185800019B01330193019B032BF6D900BF03B011
:101868005DF804FB00B583B00023019305E00198FF
:10187800FFF7B2FF019B01330193019B032BF6D9BC
:1018880000BF03B05DF804FB00B583B00190019B75
:10189800032B03D907495F2002F060F8064A019B31
:1018A80013441B781846FFF703FF00BF03B05DF829
:1018B80004FB00BFE89604001497040000B583B049
:1018C8000023019309E0094A019B13441B78184639
:1018D800FFF79FFE019B01330193019B032BF2D974
:1018E800FFF7AEFF00BF03B05DF804FB14970400D8
:1018F80000B583B0002301930AE0094A019B134411
:101908001B7803211846FFF795FE019B01330193CD
:10191800019B032BF1D900BF03B05DF804FB00BFA6
:101928001897040084B001904FF0FF33029300230E
:1019380003930DE00A4A039B13441B781A46019B44
:10194800934202D1039B029305E0039B0133039367
:10195800039B032BEED9029B184604B0704700BFC7
:101968001897040000B583B00190019B03F00103B0
:10197800002B01D0FFF7A2FF019B03F00203002B0D
:1019880001D0FFF7B5FF00BF03B05DF804FB00000E
:1019980000B583B00190019B1B682F2B04D90B491C
:1019A8004FF4F37001F0DAFF019B1B681F2B02D87C
:1019B8004FF0A04306E0019B1B6803F01F02019B48
:1019C8001A60034B184603B05DF804FB1C9704002B
:1019D8000003005000B585B00190084611461A462C
:1019E80003468DF803300B468DF8023013468DF808
:1019F800013001AB1846FFF7CBFF03909DF8032099
:101A08009DF802305B001A439DF801309B001A4391
:101A18009DF818301B0242EA03019DF81C301B0494
:101A2800019A1943039B02F5E07243F8221000BFA4
:101A380005B05DF804FB00B585B003900023019361
:101A4800002300930023012201210398FFF7C2FF1E
:101A580000BF05B05DF804FB4FF0A0434FF480329F
:101A6800C3F80C254FF0A0430022C3F8082500BF97
:101A780070474FF0A0434FF48032C3F808254FF069
:101A8800A0430022C3F80C2500BF704708B50C4BD3
:101A98003C225A800A4B01221A70094B00225A70C4
:101AA80008483CF059FC03469AB2054B9A80044B0F
:101AB8009B881A46034904483CF0A9FB00BF08BDAF
:101AC800FC070020400000200608002030B482B047
:101AD8000190019B9B68094A14461D46286869685D
:101AE800AA68EB680FC42B8A2380019B1A79044BE0
:101AF8001A7000BF02B030BC704700BFE807002072
:101B0800FA07002010B582B0FFF7A6FF0F4B1C683C
:101B18000F483CF021FC03469AB20E4B21460E4872
:101B280039F064FB0190019B002B0BD00B4A0C4B46
:101B3800D31ADB081B0443F00103019A094918462C
:101B4800FFF7C8F800BF02B010BD00BF6C0000204E
:101B58005400002060080020D0060020F094040003
:101B6800E09404004C97040008B5FFF782FF00BF1B
:101B780008BD000000B583B00190019B1A8B094B8A
:101B88009A80094A094BD31ADB081B0443F0030067
:101B9800019B1B8B1A460649FFF79CF800BF03B050
:101BA8005DF804FB6C000020F0940400E09404004D
:101BB8008497040000B583B00190094A094BD31AF1
:101BC800DB081B0443F00300019B5B791A46019B69
:101BD800DB880549FFF78FF800BF03B05DF804FB09
:101BE800F0940400E0940400BC97040000B583B0AE
:101BF8000190084A084BD31ADB081B0443F0030082
:101C0800019B1B791A460549FFF764F800BF03B02A
:101C18005DF804FBF0940400E0940400F4970400D9
:101C280000B583B001900091009B1B780C2B00F24B
:101C3800818001A252F823F0931C00003D1D000092
:101C4800AF1C0000751C0000E91C00003D1D0000D1
:101C5800CB1C00003D1D00001F1D00003D1D0000A5
:101C68003D1D00003D1D0000011D0000344A354B9C
:101C7800D31ADB081B0443F0030333491846FFF764
:101C88001BF80098FFF722FF55E02D4A2D4BD31A79
:101C9800DB081B0443F003032C491846FFF70CF834
:101CA800FFF730FF47E0264A264BD31ADB081B0410
:101CB80043F0030326491846FEF7FEFFFFF754FFDB
:101CC80039E01F4A1F4BD31ADB081B0443F00303F8
:101CD80020491846FEF7F0FF0098FFF74BFF2AE06F
:101CE800174A184BD31ADB081B0443F003031A499D
:101CF8001846FEF7E1FF1EE0114A124BD31ADB0823
:101D08001B0443F0030315491846FEF7D5FF009856
:101D1800FFF750FF0FE00A4A0A4BD31ADB081B04EF
:101D280043F003030E491846FEF7C6FF0098FFF775
:101D38005DFF00E000BF00BF03B05DF804FB00BF1B
:101D4800F0940400E09404002898040060980400CB
:101D580084980400AC980400D898040014990400EE
:101D68005499040010B582B001900091094A0A4BB9
:101D7800D31ADB081B0443F00304009802F096FE14
:101D88000346019A05492046FEF7B5FF00BF02B099
:101D980010BD00BFF0940400E09404009099040082
:101DA80000B587B003468DF80F300F4B99880DF1B9
:101DB8000F020E4B009301230D4839F0C8F9059026
:101DC800059B002B0BD00B4A0B4BD31ADB081B04CB
:101DD80043F00103059A09491846FEF77BFF00BF47
:101DE80007B05DF804FB00BF6C000020600800200D
:101DF800D0060020F0940400E0940400C099040088
:101E080008B5084B1B78312B01D1302200E0312274
:101E1800044B1A70034B1B781846FFF7C1FF00BF2D
:101E280008BD00BF5E08002000B585B003468DF8E8
:101E380007303BF05FFE0346184602F037FE0346C4
:101E4800012B52D99DF80730102B19D0112B49D0EE
:101E58000F2B00D04EE00521284839F049FB0290AD
:101E6800029B002B43D0264A264BD31ADB081B04BF
:101E780043F00103029A24491846FEF72BFF36E087
:101E88001E4839F051F80346032B13D11B4839F08B
:101E980031F90390039B002B2BD0194A194BD31A05
:101EA800DB081B0443F00103039A18491846FEF7A0
:101EB80011FF1EE0164B1A78164B17490F4839F0D8
:101EC800A9F80390039B002B13D00D4A0D4BD31A8E
:101ED800DB081B0443F00103039A10491846FEF778
:101EE800F9FE06E0FFF78CFF04E000BF02E000BF48
:101EF80000E000BF05B05DF804FB00BFD00600207D
:101F0800F0940400E0940400F8990400309A040066
:101F1800FA070020FC070020E8070020649A040064
:101F280000B583B001F06EFA0190019B0093009B0D
:101F3800002B05D0044A4FF4A371009800F01EFB53
:101F480000BF03B05DF804FB989A040000B583B0A5
:101F5800002301930DE00122019B02FA03F303F42D
:101F6800F033002B02D00198FFF765FD019B013388
:101F78000193019B1F2BEED94FF0A0434FF4F03291
:101F8800C3F808254FF0A0430022C3F80C2500BF72
:101F980003B05DF804FB000000B583B04FF40041C6
:101FA8000020FEF7B1FB0190019B0093009B002BE2
:101FB80005D0064A4FF4AC71009800F0DFFAFEF73E
:101FC80039FB00BF03B05DF804FB00BF989A04001A
:101FD80000B585B01249032036F092FE0390039BAA
:101FE8000293029B002B05D00E4A4FF4B27102985F
:101FF80000F0C4FA3BF07EFD0346184637F04CF873
:102008000390039B0193019B002B05D0054A40F2E6
:102018006711019800F0B2FA00BF05B05DF804FB43
:10202800311E0000989A040000B585B001AB00226B
:102038001A605A609A6001238DF8063001AB184681
:102048003BF07CFB3BF0DCFC03483BF065FD00BF4C
:1020580005B05DF804FB00BF6D1D000000B583B03E
:102068003BF048FD03460C4A4BF659010B4838F043
:1020780063FF0190019B0093009B002B05D0084A49
:1020880040F28311009800F079FAFFF7FFFC00BFD7
:1020980003B05DF804FB00BF291C0000D006002037
:1020A800989A040000B583B00A4A2021082000F05D
:1020B8004BFB0190019B0093009B002B05D0064A27
:1020C8004FF4C671009800F059FA00BF03B05DF8EC
:1020D80004FB00BF64080020989A040000B583B090
:1020E80001900091FFF758FFFFF7DCFFFFF718FF9B
:1020F800FFF72CFFFFF798FFFFF76AFFFFF7AEFF28
:102108003BF098FC00F0DEFBFEF732FE034683F05E
:102118000103DBB2002BF3D03BF0CEFCF0E700006C
:102128002DE9F04F8BB0019000238DF827309DE00A
:10213800544B1A689DF82730DB0013440893089B1A
:102148001B7819464FF001024FF00003A1F1200C53
:10215800C1F1200003FA01F902FA0CFC49EA0C0962
:1021680022FA00F049EA000902FA01F8CDE90689E5
:10217800454BD3E90001DDE9062302EA000A03EA38
:10218800010B5AEA0B036CD0DDE906236FEA020063
:102198006FEA03013C4BD3E900AB0AEA00020BEA01
:1021A80001033949C1E90023089B1B78184636F01A
:1021B800C3F803468DF81730089B1B7819464FF073
:1021C80001024FF00003A1F1200CC1F1200003FA35
:1021D80001F502FA0CFC45EA0C0522FA00F0054369
:1021E80002FA01F4294BD3E9002304EA020A05EABA
:1021F800030B9DF817204FF0000308990978A1F107
:10220800200CC1F1200003FA01F702FA0CFC47EA9E
:102218000C0722FA00F0074302FA01F6BB4508BF93
:10222800B2451ED19DF81730089A5278012A0CBF82
:1022380001220022D2B293420CBF01230023DBB259
:10224800DAB24FF00003CDE90223089B5B68002B4C
:1022580007D0089B5B68089A12789DF8081010460A
:1022680098479DF8273001338DF82730084B1B78A5
:102278009DF827209A42FFF45BAF00BF0BB0BDE882
:10228800F08F00BF740A0020A80A0020A00A0020CE
:10229800780A002070B586B001900A468DF80320B0
:1022A8004FF001014FF000020198A0F12006C0F1A3
:1022B800200502FA00F401FA06F6344321FA05F57E
:1022C8002C4301FA00F3CDE90434304B184601F0F1
:1022D8002FF90390039B002B54D12D4BD3E9001207
:1022E800DDE9043403EA010504EA020655EA0603B7
:1022F80037D1019836F020F80346002B0CD0254B37
:10230800D3E90012DDE9043443EA010544EA020690
:10231800204AC2E900560FE0DDE904346FEA030100
:102328006FEA04021B4BD3E9005605EA010306EAEB
:102338000204184AC2E90034154BD3E90012DDE95A
:10234800043443EA010544EA0206114AC2E9005688
:102358000E48114B1B680022194601F0B7F803908C
:1023680011E0DDE904346FEA03016FEA0402084B67
:10237800D3E9005605EA010306EA0204044AC2E961
:10238800003400E000BF06B070BD00BF800A002026
:10239800A80A0020A00A00207C0A002010B58AB0F4
:1023A80003900B4601928DF80B30019B042B01D84A
:1023B80007235AE035F0B2FE034683F00103DBB28F
:1023C800002B09D035F058FE0990099B0893089B0B
:1023D800002B01D0089B48E0254A039B1360254A3F
:1023E8009DF80B301370244A019B1360234A4FF069
:1023F80000034FF00004C2E90034214A4FF0000303
:102408004FF00004C2E9003422E09DF80B30DB00F5
:10241800039A1344079305AB00210A461A800A461B
:102428009A7003238DF81430079B9B788DF815302C
:10243800079B1B78184605AB124A194635F07AFEF9
:102448000990099B0693069B002B01D0069B0CE084
:102458009DF80B305A1E8DF80B20002BD5D10A4A57
:1024680000210A4801F002F8034618460AB010BDD8
:10247800740A0020780A00207C0A0020A00A0020A4
:10248800A80A00209D22000029210000CC9A0400FF
:1024980000B583B0114B1B68002B03D11049BA203B
:1024A80001F05CFA002301930CE00C4B1A68019BC5
:1024B800DB0013441B780121184635F0B5FE019B5B
:1024C80001330193074B1B781A46019B9342ECD3C7
:1024D8000023184603B05DF804FB00BF740A00200F
:1024E800D09A0400780A002086B0039002910192E5
:1024F80001238DF817309DF817301F4A039B13608E
:102508001D4A029B53601C4A019B9360039B44F243
:102518000102934212D044F20202934221D1019B5C
:10252800154AD360144BDB681B881A46124B9A6114
:10253800114BDB685B68104AD36112E0019B0E4ABD
:1025480013610D4B1B699B680B4A53610A4B1B694E
:102558001B68094A9361084B1B695B68064AD3618B
:1025680000BF72B600BF9DF81730DBB2002BFAD15E
:1025780062B600BF06B07047B00A002000B583B04D
:1025880002900091019244F2010071466A4600F0FF
:1025980003F803B000BD00BF30B58BB007900691BB
:1025A800059272B6FEF71CFE00BFFEF7E1FB03467C
:1025B800002BFAD1079B44F20102934215D044F252
:1025C800020293423ED1059B09932C4A2C4BD31A05
:1025D800DB081B0443F00100099B5B681A46099B52
:1025E8001B882849FEF787FB39E0059B0893234A97
:1025F800234BD31ADB081B0443F00104089B9D6896
:10260800089B9B68184602F029F903461846089B60
:102618005B681946089B1B68069A02920193009111
:1026280003462A4618492046FEF779FB134A144BFD
:10263800D31ADB081B0443F0010314491846FEF7BC
:102648003BFB0CE00D4A0E4BD31ADB081B0443F08E
:102658000103069A0E491846FEF73CFB00BF0D4BD6
:102668001B6803F00103002B00D000BE059A0699F1
:102678000798FFF739FF00BF0BB030BDF094040096
:10268800E09404000C9B0400289B0400509B040069
:10269800649B0400F0ED00E082B00190019B03F020
:1026A8000303002B0CBF01230023DBB2184602B042
:1026B8007047000082B003468DF807309DF8073058
:1026C8009AB2064B1B889A4204D29DF80730013310
:1026D800DBB200E00023184602B07047DC0A002095
:1026E80000B583B00B4B1B788DF807300A4B1B786D
:1026F800DBB21846FFF7DEFF03461A469DF807309F
:1027080093420CBF01230023DBB2184603B05DF8E7
:1027180004FB00BFD80A0020D90A002082B0084B69
:102728001B788DF80730074B1B78DBB29DF8072024
:102738009A420CBF01230023DBB2184602B070474F
:10274800D80A0020D90A002000B585B003460092B7
:10275800ADF806300B46ADF80430BDF8043001334F
:102768009BB2DB00ADF80E300098FFF795FF0346EB
:1027780083F00103DBB2002B01D0072317E00E4AD8
:10278800009B1360BDF80E30009A13440B4A136087
:102798000B4B00221A700B4B00221A700A4ABDF824
:1027A80006301380094ABDF8043013800023184608
:1027B80005B05DF804FB00BFD00A0020D40A002051
:1027C800D90A0020D80A0020DA0A0020DC0A0020F2
:1027D80000B587B003900B460192ADF80A30334B31
:1027E8001B88BDF80A209A4259D84FF6FF73ADF8F6
:1027F8001230002000F0D6FEFFF772FF0346002BD0
:102808000ED12B4B1B78DBB2ADF81230284B1B785E
:10281800DBB21846FFF74EFF03461A46244B1A70E0
:10282800002000F0D3FEBDF812304FF6FF7293423D
:1028380032D0204B1A68BDF81230DB001344019ADD
:102848001A60039B002B1CD0BDF80A30002B18D04F
:10285800194B1B68BDF812201449098801FB02F2C4
:102868001344BDF80A20039918463BF0D0FC114BDD
:102878001A68BDF81230DB001344BDF80A209A80AC
:1028880007E00C4B1A68BDF81230DB001344002235
:102898009A800023059304E00423059301E00923AB
:1028A8000593059B184607B05DF804FBDA0A00207B
:1028B800D90A0020D00A0020D40A00200023184694
:1028C8007047000000B585B02FE0204B1B78DBB2C5
:1028D800ADF80E301E4B1B68BDF80E201D49098847
:1028E80001FB02F2134402931B4B1A68BDF80E3029
:1028F800DB0013449B88ADF80630174B1A68BDF807
:102908000E30DB0013441B680093BDF80620009BC3
:102918001146029898470D4B1B78DBB21846FFF713
:10292800C9FE03461A46094B1A70FFF7C7FF03464C
:1029380083F00103DBB2002B04D0FFF7EFFE034660
:10294800002BC2D000BF05B05DF804FBD80A0020F8
:10295800D40A0020DA0A0020D00A002082B00346F8
:102968008DF807309DF8073003F01F0205499DF9DF
:1029780007305B09012000FA02F241F8232000BF6A
:1029880002B0704700E100E082B003468DF80730DE
:102998009DF8073003F01F0206499DF907305B09CF
:1029A800012000FA02F2203341F8232000BF02B0D0
:1029B800704700BF00E100E082B003468DF80730A1
:1029C8009DF8073003F01F0206499DF907305B099F
:1029D800012000FA02F2403341F8232000BF02B080
:1029E800704700BF00E100E082B003468DF8073071
:1029F8009DF8073003F01F0206499DF907305B096F
:102A0800012000FA02F2603341F8232000BF02B02F
:102A1800704700BF00E100E082B0034600918DF8E6
:102A280007309DF90730002B0CDA009BDAB20C490D
:102A38009DF8073003F00F03043B5201D2B20B4458
:102A48001A7609E0009BDAB206499DF9073052016F
:102A5800D2B20B4483F8002300BF02B0704700BF16
:102A680000ED00E000E100E000B585B00190019BB9
:102A7800002B0AD0074B43F001030393019B9B01F2
:102A88000293039B0298984700E000BF05B05DF8E9
:102A980004FB00BFC09B040000B583B00190064A48
:102AA800019BC2F8083506211120FFF7B5FF00BFCA
:102AB80003B05DF804FB00BF0010014008B50D4BE2
:102AC8004FF48032C3F844230A4B4FF48032C3F8E2
:102AD80004231120FFF788FF1120FFF73FFF054B64
:102AE80001221A602F20FFF7BFFF034B01221A7043
:102AF80000BF08BD00100140FE0B002008B51120E2
:102B0800FFF742FF0E4B4FF48032C3F848230C4BBB
:102B18004FF48032C3F80823094B01225A602F2052
:102B2800FFF7A2FF064B01229A60064B00221A60AB
:102B38002F20FFF799FF044B00221A7000BF08BD31
:102B480000100140F00B0020FE0B0020024BD3F8D0
:102B580004351846704700BF0010014082B001904C
:102B68000091019A009BD31A23F07F43184602B0C4
:102B78007047000082B00190034A019BC2F84035BB
:102B880000BF02B0704700BF0010014086B001903E
:102B9800284B1B68002B03D1264A019B136045E094
:102BA800019B1A68234B1B681B689A4210D8214B5B
:102BB8001B681968019B1A681E4B1B688A1A1A60E1
:102BC8001C4B1A68019BDA611A4A019B13602DE0BD
:102BD800019B1B680393174B1B680593154B1B68D8
:102BE800049309E0049B1B68039AD31A0393049B7C
:102BF8000593049BDB690493049B002B04D0049B7E
:102C08001B68039A9A42EDD8049B002B05D0049BBD
:102C18001A68039BD21A049B1A60019B039A1A60D4
:102C2800019B049ADA61059B019ADA6100BF06B03C
:102C3800704700BFEC0B002000B587B001902A4B0D
:102C48001B680393284B1B680593059B049308E0B6
:102C5800049A019B9A4208D0049B0593049BDB6964
:102C68000493049B002BF3D100E000BF049B002BCE
:102C780001D1002333E0059A049B9A4214D11A4BE0
:102C88001B68DB69184A1360174B1B68002B0BD1B4
:102C9800164B01229A60164B00221A60154B01222E
:102CA8001A702F20FFF7E0FE049B1B680293049B19
:102CB800DA69059BDA61059BDB690493049B002BA9
:102CC80005D0049B1A68029B1A44049B1A60064BA1
:102CD8001B68039A9A4214BF01230023DBB21846EB
:102CE80007B05DF804FB00BFEC0B002000100140AA
:102CF800F00B0020FF0B002008B51120FFF75CFE49
:102D080000BF08BD08B51420FFF756FE00BF08BD78
:102D180000B585B001900B46ADF80230BDF8023021
:102D2800082B0CBF01230023DBB20393039B002B6A
:102D380005D1094A40F273110020FFF71FFC019BDF
:102D48000293029B1B68029A52681046984700BF7C
:102D580005B05DF804FB00BF7C9B040000B587B09C
:102D68000190019B5B690293019B9B69039302ABF2
:102D78000A4A08211846FFF72BFD0590059B049386
:102D8800049B002B05D0064A40F287110498FFF7F0
:102D9800F5FB00BF07B05DF804FB00BF192D00006C
:102DA8007C9B040000B585B02B4B1B68002B4ED0D4
:102DB80000230193FFF7CAFE0246284B1B681946F9
:102DC8001046FFF7CBFE0290234B1B6803931DE0D0
:102DD800039B1B68029A9A421CD3039B1B68029AA6
:102DE800D31A0293039B1B68019A13440193039B14
:102DF8000093039BDB690393009B1B7C002B05D08E
:102E0800009B00221A740098FFF7A8FF039B002B71
:102E1800DED100E000BF124B1A78124B1B789A42A1
:102E28000CD1104B1B780133DAB20E4B1A700D4BD4
:102E38001B78022B02D10B4B00221A70094B1B780E
:102E48001946094A019B42F82130FFF75BFF00BF92
:102E580005B05DF804FB00BFEC0B0020F00B002070
:102E6800FC0B0020FD0B0020F40B002082B0019029
:102E7800184B1A78184B1B789A4223D0154B1B789D
:102E88000133DAB2134B1A70124B1B78022B02D1A2
:102E9800104B00221A700F4B1B781A460F4B53F831
:102EA8002220019B1A60019B1A680D4B1B68134472
:102EB8000B4A13600A4B1B6823F07F43084A1360D0
:102EC800012303E0019B00221A600023184602B088
:102ED800704700BFFC0B0020FD0B0020F40B002006
:102EE800F00B002088B00390029101920023079311
:102EF80038E0204B1B680693069B1B68039A9A428E
:102F080006D2069B1A68039BD21A069B1A602DE00C
:102F1800069B1B68039AD31A0393069B1B68079AA0
:102F280013440793069B00221A60124B1B680593F3
:102F3800069BDB690F4A1360069BDB68002B11D0E8
:102F4800029A079B134423F07F42069B5A60069B14
:102F5800DA68069B9A60019B1A68069BDA61019BF6
:102F6800059A1A60034B1B68002BC2D100BF08B03A
:102F7800704700BFEC0B002000B589B0019000231A
:102F88008DF81F30664B1B680593AAE0019B002B48
:102F980005D0019B0693069BDB69019361E0614BB9
:102FA8001B781A4613465B001344DB005D4A134442
:102FB800043304935B4B1B780133DAB2594B1A7014
:102FC800584B1A78574B9B789A4202D1554B00229E
:102FD8001A70049B5B680693049B1B78022B04D031
:102FE800032B1BD0012B1FD01DE0049B5B681846E8
:102FF800FFF722FE0346002B02D001238DF81F3075
:10300800069B00221A746CE0454B1B680393039BD4
:1030180000221A74039BDB69414A1360404B1B680A
:10302800002BF1D15DE05CE000BF069B1B7C002B10
:1030380000D056E0049B9A68069B5A60049BDA68A5
:10304800069B9A60049B1A69069BDA60049B5A697E
:10305800069B9A61344B1B78002B02D0069B0022FA
:103068005A60069B5A68314B1B68D31A23F07F437A
:103078002F4A93420ED8069B5A682C4B1B68194658
:103088001046FFF76BFD0246069B9B681A44069B99
:103098001A6017E0254B1A68069B5B6819461046AC
:1030A800FFF75CFD0290069B9B68029A9A4206D243
:1030B800069B9A68029BD21A069B1A6002E0069B3E
:1030C80000221A60069B00225A60069B00229A6022
:1030D800069B01221A74069B0022DA610698FFF704
:1030E80055FD019B002B7FF451AF0E4B1A780D4B09
:1030F8005B789A427FF44AAF9DF81F30002B04D1C9
:10310800074B1B68059A9A4201D0012300E000236F
:1031180003F00103DBB2184609B05DF804FB00BFF9
:10312800EC0B0020E00A0020FF0B0020F00B002031
:10313800FEFF7F0010B588B00190274B1B68002B5D
:1031480044D0254B1B681B680793FFF7FFFC0690CC
:10315800224B1B68059305990698FFF7FFFC034669
:10316800033304931E4B1B7883F00103DBB2002B5F
:1031780001D0FFF7A3FC049A079B934238BF13467C
:10318800059A13440593059B23F07F4305930598FF
:10319800FFF7F0FCFFF7DAFC039006990398FFF7B6
:1031A800DDFC0346DC1C06990598FFF7D7FC0346AF
:1031B8009C420DD9FFF7CAFC03461846FFF7DAFC14
:1031C8002F20FFF751FCFFF797FD01E0FFF796FC72
:1031D80000BF08B010BD00BFEC0B0020F00B0020B2
:1031E800FE0B002000B587B00023019300238DF863
:1031F8001730194B1B680493184B1B6803936B46D5
:103208001846FFF733FE03468DF80B309DF80B3058
:10321800002B08D0009B01AA04991846FFF762FE0C
:1032280001238DF81730019B1846FFF7A5FE0346CA
:10323800002B02D001238DF817309DF81730002B92
:1032480002D00398FFF776FF054B00221A7000BFE3
:1032580007B05DF804FB00BFF00B0020EC0B00206A
:10326800FF0B002082B003468DF80730034A9DF813
:103278000730537000BF02B0704700BFE00A00205B
:1032880084B00190144B5B7801338DF80F30124BEA
:103298009B789DF80F209A4202D100238DF80F30B9
:1032A8000D4B1B789DF80F209A4201D100230FE0A7
:1032B800019B9DF80F201A70074B5B781A4613463E
:1032C8005B001344DB00044A134404330293029B5B
:1032D800184604B0704700BFE00A002000B589B066
:1032E800039002910192009300230793002000F0BD
:1032F80059F90DF117031846FFF7C2FF0690069B10
:10330800002B02D10423079318E0069B01221A70B0
:10331800069B039A5A60FFF719FC0246069B9A60BF
:10332800069B029ADA60069B019A1A61069B009A2C
:103338005A619DF817301846FFF794FF002000F0F7
:1033480045F9079B002B01D1FFF7DCFC079B1846CA
:1033580009B05DF804FB00B587B001900B468DF805
:10336800033000230593002000F01CF90DF10F0332
:103378001846FFF785FF0490049B002B02D1042315
:1033880005930BE0049B9DF803201A70049B019A97
:103398005A609DF80F301846FFF764FF002000F0D0
:1033A80015F9059B002B01D1FFF7ACFC059B1846CE
:1033B80007B05DF804FB000008B50E4B0022C3F807
:1033C80040210C4B0022C3F844210A4B0022C3F8C9
:1033D8004821084B0022C3F84C21064B0022C3F8B1
:1033E8000021044B0022C3F80421FFF7DBFC00BFD7
:1033F80008BD00BF0010014008B5FFF7F3FE00BF8D
:1034080008BD000008B5FFF779FB134B00221A70BE
:10341800114B00225A70104B0B229A700F4B00224E
:103428001A600F4B00221A700E4B00221A701420DB
:10343800FFF7DAFA06211420FFF7EEFA1420FFF757
:103448008DFA0020FFF728FBFFF780FB0246064BAA
:103458001A600023184608BDE00A0020EC0B002083
:10346800FC0B0020FD0B0020F00B002086B0039021
:103478000B4601928DF80B30134B9B78002B01D132
:1034880008231EE0019B002B01D1072319E0039BB1
:10349800002B01D1072314E0039B1B681B7C002B26
:1034A80001D008230DE0039B1B680593059B0022B0
:1034B8001A74059B9DF80B205A74059B019A5A6152
:1034C8000023184606B07047E00A002000B587B010
:1034D800039002910192039B0593144B9B78002B58
:1034E80001D108231EE0039B002B01D1082319E01A
:1034F800029B042B01D8072314E0059B5B69002B72
:1035080001D108230EE0059B5B7C012B01D1029BB6
:1035180000E000230493019B049A02990598FFF7A1
:10352800DDFE0346184607B05DF804FBE00A0020FC
:1035380000B585B00190019B03930D4B9B78002B40
:1035480001D1082310E0019B002B03D0039B5B698A
:10355800002B01D1082307E0039B00221A740221E3
:103568000398FFF7F8FE0346184605B05DF804FB1C
:10357800E00A002072B6034B1B680133014A13604E
:1035880000BF7047000C0020054B1B68013B044A34
:103598001360034B1B68002B00D162B600BF704755
:1035A800000C002000B583B0019000F025F8034618
:1035B800012B03D00449432000F0D0F9FFF7DAFFCC
:1035C80000BF03B05DF804FBC89B040000B583B0DE
:1035D80003468DF8073000F00FF80346012B03D09F
:1035E8000449512000F0BAF9FFF7CEFF00BF03B03D
:1035F8005DF804FBC89B040084B0EFF305830193D6
:10360800019BC3F308030393039B002B0DD1EFF336
:1036180014830093009B0293029B03F00103002B89
:103628000CBF01230023DBB200E00123184604B0DD
:10363800704700B585B0039002910192019B9BB23F
:103648000299184600F08AF900BF05B05DF804FB3E
:1036580086B0039002910192039B5B090593059B39
:103668005B01039AD31A0493029B059A1A60019B83
:10367800049A1A6000BF06B07047000000B585B014
:10368800019002AA03AB19460198FFF7E1FF039BDB
:10369800074A52F82310029B01229A40039B0A43CF
:1036A800034941F8232000BF05B05DF804FB00BFC3
:1036B8000414002084B001900091002303931FE0BC
:1036C800019B002B10D0124A039B52F82330019A19
:1036D8009A4209D80F4A039B52F823200E49039BAC
:1036E80051F823309A4206D10A4A039B52F82330F4
:1036F800009A9A4201D2039B06E0039B013303938D
:10370800039B062BDCD90023184604B0704700BF82
:10371800149C04004C9C0400309C040000B585B047
:10372800019001990020FFF7C5FF0390034A039B0E
:1037380052F82330184605B05DF804FB149C0400C9
:1037480000B585B0019002AA03AB19460198FFF7AE
:103758007FFF039B084A52F82320029B22FA03F3B7
:1037680003F00103002B14BF01230023DBB218462A
:1037780005B05DF804FB00BF0414002000B585B057
:10378800019002AA03AB19460198FFF761FF039B5A
:10379800084A52F82310029B012202FA03F3DA4383
:1037A800039B0A40034941F8232000BF05B05DF898
:1037B80004FB00BF0414002000B583B0002301936C
:1037C8000023019305E00198FFF758FF019B01339F
:1037D8000193019B0B2BF6D9034B01221A7000238E
:1037E800184603B05DF804FB0814002000B589B042
:1037F800019000912E4B1B7883F00103DBB2002B64
:1038080002D048F208134EE0019B002B02D148F287
:103818000E1348E0009B002B02D148F20E1342E041
:10382800009B1B680493049B002B03D0049BB3F5F7
:10383800807F02D948F2071335E00C210498FFF77E
:1038480039FF03901B4A039B52F8233006931A4A08
:10385800039B52F82330079348F2041305931EE0A4
:103868000698FFF75BFF02900698FFF769FF03468B
:10387800002B0DD0002305930698FFF77FFF079BC9
:103888000E4A1A44019B1A60009B029A1A6009E0CA
:10389800079A029B13440793069B01330693069BE2
:1038A8000B2BDDD9059B184609B05DF804FB00BF5A
:1038B80008140020309C0400689C0400040C0020BC
:1038C80000B587B0019000230493019B039303AADA
:1038D80004AB11461846FFF789FF0590059B002B9E
:1038E80001D000230493049B184607B05DF804FB3D
:1038F80000B585B00190174B1B7883F00103DBB24C
:10390800002B20D1019B002B1FD000230393002301
:10391800029313E0039B104A1344019A9A4203D17D
:103928000298FFF7ABFE0CE00298FFF7F7FE02469D
:10393800039B13440393029B01330293029B0B2BBB
:10394800E8D900BF02E000BF00E000BF05B05DF8A5
:1039580004FB00BF08140020040C002000B585B04B
:1039680003460091ADF80630BDF80630ADF80830D2
:10397800009B039302AB1A46002144F20200FEF7B3
:103988000BFE00BF05B05DF804FB10B487B00190D2
:103998000091019B009A53E8004F104643E800014C
:1039A80091F0000FF7D1059404900391059B1846F8
:1039B80007B05DF8044B704710B487B001900091D0
:1039C800019B009A53E8004F44EA020043E80001D3
:1039D80091F0000FF6D1059404900391049B1846CA
:1039E80007B05DF8044B704710B487B001900091A0
:1039F800019B009A53E8004F04EA020043E80001E3
:103A080091F0000FF6D1059404900391059B184698
:103A180007B05DF8044B704710B487B0019000916F
:103A2800019B009A53E8004F04EB020043E80001B1
:103A380091F0000FF6D1059404900391049B184669
:103A480007B05DF8044B704710B487B0019000913F
:103A5800019B009A53E8004FA4EB020043E80001E1
:103A680091F0000FF6D1059404900391049B184639
:103A780007B05DF8044B704700B583B00190012191
:103A88000198FFF799FF0346184603B05DF804FB59
:103A980000B583B0019000210198FFF7A5FF034608
:103AA800184603B05DF804FB00B583B001900B46DF
:103AB8008DF80330019B002B03D10849E820FFF75C
:103AC8004DFF019BDA689DF803300199098A01FBD3
:103AD80003F31344184603B05DF804FB849C040008
:103AE80000B583B001900091019B002B03D10849D8
:103AF800F520FFF733FF009B019AD2689B1A019AC1
:103B0800128AB3FBF2F3DBB2184603B05DF804FB8C
:103B1800849C040000B585B00190019B002B01D165
:103B28000E234DE0019B1B68002B03D12649FF2083
:103B3800FFF714FF019B5B68002B04D122494FF467
:103B48008070FFF70BFF019B9B68002B04D11E4977
:103B580040F20110FFF702FF019BDB68002B04D144
:103B680019494FF48170FFF7F9FE019B1B8A002B5E
:103B780004D1154940F20310FFF7F0FE019B9B6842
:103B88001A46019B5B68D31A8DF80F30019B1B689E
:103B9800019A52681A6007E0019B1A681368591C59
:103BA80011609DF80F201A709DF80F305A1E8DF87D
:103BB8000F20002BF0D1019B1B6800221A710023F3
:103BC800184605B05DF804FB849C040000B585B078
:103BD8000190019B002B04D11C494FF49270FFF710
:103BE800BDFE002303930020FFF7DCFC019B1B684C
:103BF8001A68019B5B689A4220D9019B1B681A6866
:103C0800013A1A601B681B7819460198FFF74CFFA8
:103C18000390019B9B681A46019B1B681B68D31A7B
:103C28008DF80B30019B1B681B799DF80B209A427D
:103C380004D9019B1B689DF80B201A710020FFF71F
:103C4800C5FC039B184605B05DF804FB849C040082
:103C580010B584B001900091019B002B04D111494B
:103C680040F24710FFF77AFE009B002B04D10D4964
:103C78004FF4A470FFF772FE009B03930020FFF738
:103C880091FC019B1B681C68621C1A6003990198CF
:103C9800FFF726FF034623700020FFF797FC00BFBD
:103CA80004B010BD849C040000B583B00190019B52
:103CB800002B03D10C493120FFF750FE019B9B6874
:103CC800002B0CD0019B5B69019A1069019A11685D
:103CD800019A92689847019B00229A6000E000BF11
:103CE80003B05DF804FB00BFC09C04000EB400B52F
:103CF80084B00190019B002B03D118494220FFF7A3
:103D08002DFE019B5B69002B03D114494320FFF76B
:103D180025FE019B1B68002B03D110494420FFF7A7
:103D28001DFE019B5B68002B03D10C494520FFF762
:103D380015FE059B002B0AD00023039306AB0393C3
:103D480003AB1A460599019800F0B8F900E000BFE6
:103D580004B05DF804EB03B0704700BFC09C0400DA
:103D680000B583B001900B468DF803309DF8033001
:103D78000A2B03D10D210198FFF7F2FF019B1A6866
:103D8800019B9B68581C0199886013449DF8032087
:103D98001A70019B9A68019B5B689A4202D301984A
:103DA800FFF782FF00BF03B05DF804FB00B587B0E2
:103DB800039002910192009300230593009B03F066
:103DC8000103002B24D00BE0029B01330293059BD7
:103DD800013305939DF8133019460398FFF7C0FF88
:103DE800029B1B788DF813309DF81330002BEBD114
:103DF80006E0019B013B019320210398FFF7B0FFE8
:103E0800019A059B9A422ED9019B002BF1D12AE0F9
:103E1800029B002B0BD002983AF09EFA059006E020
:103E2800019B013B019320210398FFF799FF019A19
:103E3800059B9A420FD9019B002BF1D10BE0029B05
:103E480001330293059B013305939DF813301946FE
:103E58000398FFF785FF029B1B788DF813309DF8B8
:103E68001330002BEBD100BF07B05DF804FB000056
:103E780000B589B00390029101920093029B0793C9
:103E88000123069307E0079A019BB2FBF3F307931C
:103E9800069B01330693079A019B9A42F3D2009A34
:103EA800069B9A4201D9009B06930B9B03F00103E2
:103EB800002B22D10A9B002B1FD00B9B03F002037F
:103EC800002B06D0009B002B03D130238DF8173030
:103ED80002E020238DF8173008E00A9B013B0A9383
:103EE8009DF8173019460398FFF73AFF0A9B002BF5
:103EF80003D0069A0A9B9A42EFD301230793009BAB
:103F0800012B03D9009B013B009309E0029A079B10
:103F1800B2FBF3F30493049A019B9A4200D205E0A2
:103F2800079B019A02FB03F30793E8E7029A079BB2
:103F3800B2FBF3F30493049B079A02FB03F3029A80
:103F4800D31A0293154A049B13441B781946039805
:103F5800FFF706FF079A019BB2FBF3F30793079B52
:103F6800002BE3D10B9B03F00103002B11D00A9B1C
:103F7800002B0ED006E00A9B013B0A9320210398F0
:103F8800FFF7EEFE0A9B002B03D0069A0A9B9A4283
:103F9800F1D300BF09B05DF804FB00BF289D040001
:103FA80000B589B00590049103920293049B002BFD
:103FB800B8BF5B4206930123079307E0039B069A69
:103FC80092FBF3F30693079B01330793039B069A2F
:103FD8009A42F3DA029A079B9A4201D9029B079305
:103FE8000A9B002B0AD0049B002B04DB0B9B03F0DD
:103FF8000403002B02D00A9B013B0A930B9B03F09E
:104008000203002B02D0029B002B16D00B9B03F05F
:104018000103002B11D10A9B002B0ED006E00A9B4E
:10402800013B0A9320210598FFF79AFE0A9B002B73
:1040380003D0079A0A9B9A42F1D3049B002B07DA14
:10404800049B5B4204932D210598FFF789FE08E045
:104058000B9B03F00403002B03D02B210598FFF7DB
:104068007FFE0B9B03F00203002B19D00B9B03F080
:104078000103002B14D1029B002B11D10A9B002BAA
:104088000ED006E00A9B013B0A9330210598FFF702
:1040980067FE0A9B002B03D0079A0A9B9A42F1D32A
:1040A80004990B9B01930A9B0093029B039A059822
:1040B800FFF7DEFE00BF09B05DF804FB00B58FB066
:1040C800059004910392059B002B04D1C8494FF435
:1040D800A270FFF743FC059B5B69002B04D1C44920
:1040E8004FF4A370FFF73AFC059B1B68002B04D123
:1040F800BF4940F24710FFF731FC059B5B68002B76
:1041080004D1BB494FF4A470FFF728FC049B002B93
:1041180000F0ED81049B1B788DF83730049B013348
:1041280004939DF83730002B00F0D8819DF8373084
:10413800252B40F0C78100230A9301230C93049B8D
:104148001B788DF837309DF837302D2B04D0302B65
:104158000AD02B2B10D017E00A9B43F001030A93D7
:10416800049B0133049312E00A9B43F002030A9371
:10417800049B013304930AE00A9B43F004030A9367
:10418800049B0133049302E000230C9300BF0C9BB3
:10419800002BD4D1002309939DF837302A2B0CD15A
:1041A800039B1B68191D039A11601B68099A134425
:1041B8000993049B013304931AE0049B1B788DF840
:1041C80037309DF837302F2B12D99DF83730392BDF
:1041D8000ED8049B01330493099A13469B00134499
:1041E8005B001A469DF837301344303B0993D3E7F8
:1041F80000230B93049B1B788DF837309DF83730DC
:104208002E2B1DD1049B01330493049B1B788DF83E
:1042180037309DF837302F2B12D99DF83730392B8E
:104228000ED8049B013304930B9A13469B00134446
:104238005B001A469DF837301344303B0B93E4E794
:10424800049B1B788DF837309DF837306C2B03D0E2
:104258009DF83730682B07D1049B01330493049BE6
:104268001B788DF83730EFE79DF83730253B532B17
:1042780000F2238101A252F823F000BFB9440000E4
:10428800C3440000C3440000C3440000C34400000A
:10429800C3440000C3440000C3440000C3440000FA
:1042A800C3440000C3440000C3440000C3440000EA
:1042B800C3440000C3440000C3440000C3440000DA
:1042C800C3440000C3440000C3440000C3440000CA
:1042D800C3440000C3440000C3440000C3440000BA
:1042E800C3440000C3440000C3440000C3440000AA
:1042F800C3440000C3440000C3440000C34400009A
:10430800C3440000C3440000C3440000C344000089
:10431800C3440000C3440000C3440000C344000079
:10432800C3440000C3440000C3440000C344000069
:10433800C3440000C3440000C3440000C344000059
:10434800C3440000C344000045440000C3440000C7
:10435800C3440000C3440000C3440000C344000039
:10436800C3440000C3440000C3440000C344000029
:10437800C3440000D5430000FD430000C3440000CF
:10438800C3440000C3440000C3440000FD430000D0
:10439800C3440000C3440000C3440000C3440000F9
:1043A800C3440000C344000085440000C344000027
:1043B800C344000069440000C344000021440000D5
:1043C800C3440000C344000045440000039B1B682D
:1043D800191D039A11601B680C930C9B8DF81F30F4
:1043E8009DF81F3019460598FFF7BAFC66E000BF34
:1043F800F09C0400039B1B68191D039A11601B683D
:104408000C930A9B0193099B00930B9B0A220C991E
:104418000598FFF7C5FD51E0039B1B68191D039A1A
:1044280011601B680C930C990A9B0193099B0093DC
:104438000B9B0A220598FFF71BFD3FE0039B1B68B7
:10444800191D039A11601B680C930C990A9B019320
:10445800099B00930B9B10220598FFF709FD2DE09F
:10446800039B1B68191D039A11601B6808930A9B1C
:10447800099A08990598FFF799FC1FE0039B1B68A8
:10448800191D039A11601B680C9330210598FFF7DA
:1044980067FC78210598FFF763FC0C9900230193CA
:1044A80008230093082310220598FFF7E1FC05E094
:1044B80025210598FFF754FC00E000BF049B013359
:1044C800049305E09DF8373019460598FFF748FC36
:1044D800049B1B78002B7FF41DAE00E000BF059BFA
:1044E8001B7B002B04D00598FFF7DEFB00E000BF24
:1044F8000FB05DF804FB00BF00B583B001900198D0
:10450800FFF708FB0346184603B05DF804FB00B547
:104518008BB001900091019B1B8A043B0793009A82
:10452800079B1344DA1C079BB2FBF3F38DF81B308F
:104538000198FFF74BFB0590059B002B01D1002349
:1045480038E0059B00221A71059B01225A71079BCE
:104558009AB2059BDA80059B09939DF81B30013BB5
:104568000493099B019A1A60002308931DE001989F
:10457800FFF72CFB0390039B002B0ED0059B5B7968
:104588000133DAB2059B5A71099B039A1A60039B9F
:10459800019A1A60039B099304E0059800F00EF84D
:1045A800002307E0089B01330893089A049B9A426A
:1045B800DDD3059B18460BB05DF804FB00B58BB046
:1045C8000190019B0793079B5B798DF81B30019B3A
:1045D80008939DF81B30013B05930023099305E0E0
:1045E800089B1B680893099B01330993099A059B4B
:1045F8009A42F5D3089B1B680493019B08930023F8
:1046080009930BE0089B1B68039308990498FFF72C
:104618001FFB039B0893099B013309939DF81B30EB
:10462800099A9A42EED300BF0BB05DF804FB00B5BF
:1046380085B00190019B0393039B04330121184625
:10464800FFF7EAF900BF05B05DF804FB00B587B0D5
:104658000190019B0593059B043301211846FFF740
:10466800F3F90346039303AB0493049B1B78002BD5
:1046780002D10198FFF7A2FF00BF07B05DF804FB65
:1046880000B591B00390029101920093039B002B17
:1046980003D14349B620FFF761F9039B0993039BB4
:1046A8000F93099BDB881A46099B5B7903FB02F38E
:1046B800043B0893009A089B9A4203D33849C420C4
:1046C800FFF74CF9099BDB880793009B1A1D079B92
:1046D800B2FBF3F30E93009B0433079AB3FBF2F299
:1046E800079901FB02F29B1A0D93019B1A68009B24
:1046F8001344089A9A4203D2089A009BD31A01E0FD
:10470800019B1B680C93019B0C9A1A6005E00F9B98
:104718001B680F930E9B013B0E930E9B002BF6D14B
:1047280000230B93079A0D9BD31A0A930A9A0C9BA2
:10473800934228BF13460A932AE0029A0B9B13441C
:1047480006930F9A0D9B1344043305939DF8483044
:10475800002B05D00A9A0599069839F058FD04E00F
:104768000A9A0699059839F052FD00230D930F9B7C
:104778001B680F930C9A0A9BD31A0C930B9A0A9BEB
:1047880013440B93079A0C9B934228BF13460A9332
:104798000C9B002BD1D100BF11B05DF804FB00BF0A
:1047A800389D040000B589B00590049103920293E6
:1047B800039B079307AA00230093029B049905987B
:1047C800FFF75EFF079B039A9A4203D00349F6203E
:1047D800FFF7C4F800BF09B05DF804FB389D04007A
:1047E80000B589B00590049103920293039B079347
:1047F80007AA01230093029B04990598FFF740FF3D
:10480800079B039A9A4204D004494FF48070FFF73B
:10481800A5F800BF09B05DF804FB00BF389D04008F
:1048280082B00190019B9B6800229A60019B9B6863
:1048380000221A61019B9B6800225A61019B9B68B8
:104848000022DA60019B9B6800225A60019B9B68EA
:1048580000221A6000BF02B07047000000B585B0A2
:104868000190019800F00EF80390039B002B01D0F3
:10487800039B00E0024B184605B05DF804FB00BF3F
:104888004C9E040086B00190164B0593164B04937A
:104898001FE0049A059BD31ADB10DA0F13445B1050
:1048A800DB00059A13440393039B1B680293029A47
:1048B800019B9A4202D9039B04930AE0029A019B46
:1048C8009A4203D2039B0833059302E0039B5B687B
:1048D80004E0059A049B9A42DBD30023184606B0ED
:1048E800704700BF20A2040038A3040044F6EC037C
:1048F800C058704700F58F4078300CF0C1B900F50A
:104908008940603070472DE9F34144F603030646B9
:10491800C45C88461CBB00F5824505F5747002AF7F
:1049280004F0D7FAFD2307F8083D052241460DF1AA
:10493800010039F06CFC06F58F4039467830ADF847
:10494800064009F0D8FA05F51A7000F0F9FE05F5E9
:104958002F7000F04BFF204602B0BDE8F0810D201B
:10496800FAE713B544F62C030122C45C002101A820
:1049780039F076FC200742BF9DF8043043F001036C
:104988008DF80430610742BF9DF8043043F00203FC
:104998008DF80430A20742BF9DF8043043F00403A9
:1049A8008DF80430E30742BF9DF8043043F0080354
:1049B8008DF804309DF8040002B010BD11F0010F0D
:1049C8000CBF002308238A0748BF43F004034A07A3
:1049D80048BF43F002030A0748BF43F0010300F54C
:1049E8008F40194678300CF065B900F588402430BE
:1049F80003F046BB38B5A1B144F60303C35C93B9D1
:104A080000F5824404F5497003F09EFB054604F561
:104A18001A7000F095FE04F52F7000F0E7FE2846A6
:104A280038BD0725FBE70D25F9E700F58940683013
:104A3800704738B544F60303C35C83B900F5824474
:104A480004F5747004F028FA054604F51A7000F0AD
:104A580077FE04F52F7000F0C9FE284638BD0D25F5
:104A6800FBE744F23443C058704700F588402430CF
:104A780003F033BC44F29043C058704744F290436B
:104A8800C150704700F58F4078300AF061BE00F5DC
:104A98008F40002178300AF0FABD2AB121B100F523
:104AA8008F4078300DF0D9BD0720704744F60303D6
:104AB800C05C704721B100F58F40783009F06EBDB9
:104AC8000720704700F58F40783009F0B9BB38B53A
:104AD8000C46002936D000F58F4078300CF05CFC8D
:104AE8000368236043686360038B2381038B9B12F5
:104AF800A37290F82430E37290F82530C3F383034F
:104B08002373837F637390F82530C3F3010305464D
:104B1800A3732BF0B6F8AB68C01A4FF47A73B0FBE6
:104B2800F3F0237CE07343F001032374AB7E03F0BE
:104B38000703DA1F53425341227C63F34102227474
:104B4800002038BD0720FCE700F5CA40343014F0D7
:104B58003FB800F5CA40343014F03EB800F5CA40FA
:104B6800343014F0C5BB10B50C4671B144F2D643CD
:104B7800C25A4FF6FF739A420FD000F58F400021BA
:104B88007830BDE810400BF06BBF00F58F407830EF
:104B9800012109F0A7F8204610BD0D20FCE713B548
:104BA80002AA002402F8014D012306214C3015F019
:104BB80032F908B18DF807409DF80700003018BF9A
:104BC800012002B010BD07B502AA012302F8011D99
:104BD8004C30062115F06FF903B05DF804FB00F5C1
:104BE8008F4078300CF070BE10B586B006AC00F57A
:104BF8008F4044F8041D0A990291099901919DF882
:104C080020100091783021460AF00FFA06B010BD46
:104C180000F592403830704700BA704738B50D46F5
:104C280004462BF02EF82A4601462046BDE83840B7
:104C380016F088B910B506220446002139F010FB99
:104C48000023A371E37110BD07B5054B01A91B88AB
:104C5800ADF8043018F091FE03B05DF804FB00BF16
:104C680038A3040038B5044604301D461BF090FCF8
:104C7800059B227F23620023636204F120036FF304
:104C88000002C4E90A35049B227704F11400236367
:104C9800FFF7D0FF204638BD037F13F0010314BF90
:104CA800143018467047037FDB0702D5143016F01E
:104CB800B5B90120704730B5C3B0017C04466846D9
:104CC8001BF099F804F1200016F004F96946201D3C
:104CD8001BF0CAFC0546C0B968461BF0B7F9024686
:104CE80098B10068516804F1140303C3237F43F0AB
:104CF80001032377237C0E2B07D1204603F0BEFF48
:104D08002A46014668461BF0BBFB284643B030BD27
:104D180030B5C3B0017C054668461BF06CF869469F
:104D2800281D1BF060FC044640B9284603F0A6FF86
:104D38002246014668461BF0A3FB0446204643B0C2
:104D480030BD10B504461430FFF774FF237F6FF3AE
:104D58000003201D23771BF02CFC04F12000BDE884
:104D6800104016F0B7B8FFF7A6BFF7B50023044602
:104D780008460E468DF807301BF068F90546A0B9BD
:104D8800271D294638461BF0EAFC9DF807502DB32D
:104D9800314638461BF09CFC204603F078FF90F81B
:104DA800C336042B25D0002016E00068696804F19A
:104DB800140303C3237F43F001032377237C0E2BC3
:104DC800DED1204603F05AFF0DF1070201463046B6
:104DD8001BF056FB0028D3D003B0F0BD0028D7DC69
:104DE800E1D004F120004FF47A71FFF717FF28464D
:104DF800F2E7204603F04BFF42F26C25284412F0FC
:104E08005DFA204603F043FF284412F06EFACAE721
:104E180070B50E46054603F03AFF31460446281D94
:104E28001BF08AFC064658B994F8C336042B07D8F9
:104E3800DFE803F0030608080F002846FFF73BFFEA
:104E4800304670BD4FF47A7105F12000FFF7E6FE99
:104E5800F6E704F509542C342846FFF72CFF2046C2
:104E680012F02CFA204612F040FAE9E730B5C3B048
:104E780004460D46017C68461AF0BDFF201D6946B0
:104E88001BF0B1FB044660B9352168461AF0DFFF14
:104E980030B108F0DBF820B1034B03402B6003B9B5
:104EA8001724204643B030BD00F8FF07F0B5D1B055
:104EB800054603F0ECFE2C220646002103A839F033
:104EC800CFF906F1A407297C0EA81AF094FF3846FA
:104ED800FFF7BAFE044600283FD00222002119F04D
:104EE800BFFA0221204619F085FC296B204619F0EB
:104EF8006CFB204619F01CFC0EA9281D1BF073FB47
:104F0800BDF83C210EA9204608F08FFA054600BBE3
:104F180006F63C0303AD06F64C0C186859682A4699
:104F280003C2083363451546F7D14FF47C4207A9FD
:104F380006F5D76009F0D5FA4FF2BF03ADF82E3069
:104F48000023009303AA2146384619F05DF8054668
:104F580020B1204608F055F900E00325284651B055
:104F6800F0BDF0B5C3B0044603F091FE074600F566
:104F7800D76008F070FE50B3217F251D11F00101A4
:104F880018BF04F1140128461BF0E9FB00281EDABB
:104F9800267C0E2E12D1332168461AF02CFF694662
:104FA80007F520701BF01FFB314668461AF04FFFCB
:104FB80020B1811C28461BF0D2FB40B12046FFF7E8
:104FC80075FF4FF47A7104F12000FFF727FE43B014
:104FD800F0BD08B501F0CAF800F586406830BDE8B4
:104FE8000840FFF7BEBF08B501F0C0F800F58740DC
:104FF8003C30BDE80840FFF7B4BF2DE9F047C4B026
:10500800054617461C468A469DF8309103F03FFE38
:10501800297C804602A81AF0EEFE08F1A40602A92F
:10502800281D1BF0E0FA3046FFF70EFE0546002863
:1050380052D0514619F0F6FB284619F079FBB9F120
:10504800000F19D0013CA144A14533D014F8011F29
:10505800052903D198F98833002BF5DA02A81AF04C
:10506800F6FE01460028EFD042782846023208F0C2
:10507800DCF90028E8D019E0BDF80C9102AB99449E
:105088001C464C4516D22378052B07D198F988334E
:10509800002B03DB637802331C44F2E76278214675
:1050A8000232284608F0C1F90028F3D0284608F053
:1050B800A8F811E0EB8B298C994204D1013989B207
:1050C800284608F0A2F8002300933A4629463046BD
:1050D80018F09AFF0028E9D144B0BDE8F087000035
:1050E8002DE9F04FB1F820B0C5B080460D46924684
:1050F800EB8B5B450AD80026009604AB524629463E
:105108004046FFF77AFF45B0BDE8F08F03AB0222B7
:105118005946284608F0E8F89DF80C309DF80D40EF
:105128000D2B1ED11FFA84F904AF0BF102013B4687
:105138004A4689B22846264608F0D6F8002CDAD026
:105148000D49D8F82C0039F0E0F80028D4D183B202
:1051580099450BD901303B1813F8013C342BF6D193
:10516800CAE70234A3441FFA8BFBC1E701BF661CE0
:1051780034233B55F6B2BFE749A30400FFF7B0BF9D
:10518800FFF7AEBF2DE9F04F93B099460D46904614
:10519800044603F07CFD07462C22002107A807F1EE
:1051A800A40A39F05DF85046FFF74EFD064660B395
:1051B8000222002119F054F90221304619F01AFB95
:1051C800216B304619F001FA304619F0B1FA42F273
:1051D8005463FB5C022B30D108EB090143468B4238
:1051E80015D21A780B2A28D05A7802321344F6E7D7
:1051F8004A464146304608F018F90446002800F0AF
:105208005381304607F0FDFF7AE1032478E10B2350
:1052180007F515508DF80830103002238DF8093045
:1052280019F00EFD40BAADF80A00042202A9304672
:1052380008F0FBF804460028E3D195F86430D80755
:1052480027D50E238DF808300DF10A0008238DF8B4
:105258000930FFF7EFFCD5E90031062202A8104417
:10526800013A43704FEA132343EA01634FEA1121DD
:10527800F4D1BDF810305BBA03F001035BBA0A221F
:1052880002A93046ADF8103008F0CFF804460028DF
:10529800B7D195F86430990727D533238DF80830AE
:1052A8000DF10A0008238DF80930FFF7C3FCD5E992
:1052B8000231062202A81044013A43704FEA132330
:1052C80043EA01634FEA1121F4D1BDF810305BBA0B
:1052D80003F001035BBA0A2202A93046ADF8103088
:1052E80008F0A3F8044600288BD195F864305A07D3
:1052F80019D505238DF8083010238DF80930EB18DF
:105308000DF10A0203F1100153F8040B42F8040BE3
:105318008B42F9D1122202A9304608F086F80446D9
:1053280000287FF46EAF95F864301B071DD505F192
:10533800200B0323102158468DF808308DF80910EA
:1053480038F088FE5946044602460DF10A0038F046
:105358005EFFE2B28DF8092002A90232304608F059
:1053680064F8044600287FF44CAF95F86430DC06F6
:1053780016D52A4602238DF8083008238DF80930FF
:1053880052F8313FCDF80A3002A95368CDF80E30F3
:105398000A22304608F049F8044600287FF431AF65
:1053A80095F86430980616D52A4607238DF80830F4
:1053B80008238DF8093052F8393FCDF80A3002A990
:1053C8005368CDF80E300A22304608F02EF804460D
:1053D80000287FF416AF95F86430590613D53423A6
:1053E8008DF80830686C04238DF80930FFF714FC39
:1053F8000622CDF80A0002A9304608F016F804463D
:1054080000287FF4FEAE95F86430DB0913D0012341
:105418008DF8083002238DF80930B5F84830042299
:105428005BBA02A93046ADF80A3007F0FEFF044621
:1054380000287FF4E6AE95F86530DA0713D5002327
:105448008DF80830B5F84A10032302A88DF8093002
:1054580007F0CFFD052202A9304607F0E6FF044613
:1054680000287FF4CEAE95F865301B0718D5352394
:10547800062200210DF10A008DF808308DF8092068
:1054880038F0EEFE296E02A807F0C6FD08220DEBE3
:105498000201304607F0C9FF044600287FF4B1AE88
:1054A800B9F1000F7FF4A4AEF38B318C994204D18B
:1054B800013989B2304607F0A8FE07F63C0307AC6D
:1054C80007F64C0518685968224603C20833AB42F0
:1054D8001446F7D14FF47C420BA907F5D76009F0C1
:1054E80000F84FF2BF03ADF83E300023009307AA3F
:1054F8003146504618F088FD044600287FF481AEF6
:10550800204613B0BDE8F08F2DE9F04F93B00F4659
:105518009946934605461C9E03F0B9FB2C2280460B
:10552800002107A838F09CFE3B7813F001041EBF49
:105538000E228DF80C200124980706D512A9621CAA
:105548000C44332104F83C1CD4B2590706D512A9DF
:10555800621C0C44052104F83C1CD4B21A0706D579
:1055680012A9621C0C44032104F83C1CD4B2D806CE
:1055780006D512A9621C0C44022104F83C1CD4B2C2
:10558800990606D512A9621C0C44072104F83C1C94
:10559800D4B25A0606D512A9621C0C44342104F868
:1055A8003C1CD4B2DB0906D012AA631C14440122A5
:1055B80004F83C2CDCB27B78D80706D512A9621C0B
:1055C8000C44002104F83C1CD4B2990706D512A952
:1055D800621C0C44042104F83C1CD4B25A0706D5BA
:1055E80012A9621C0C440C2104F83C1CD4B21B0701
:1055F80006D512AA631C1444352204F83C2CDCB2EC
:1056080008F1A40A5046FFF71FFB0746002869D097
:105618000222002118F024FF0221384619F0EAF886
:10562800E96A384618F0D1FF19EB040508D176BBB2
:105638004FF47C420BA908F5D76008F052FF32E01E
:10564800384619F075F80D23022202A938468DF85C
:1056580009508DF8083007F0E8FE054698B954B9A6
:10566800B9F1000FE3D04A465946384607F0DDFE47
:10567800054640B9DBE7224603A9384607F0D5FEC0
:1056880005460028ECD0384607F0BBFD26E0334637
:105698000BAC06F1100518685968224603C2083396
:1056A800AB421446F7D108F63C0307AC08F64C08A1
:1056B80018685968224603C2083343451446F7D18F
:1056C8004FF2BF03ADF83E300023009307AA3946D6
:1056D800504618F099FC05460028D4D1284613B046
:1056E800BDE8F08F0325F9E773B5104E104D114B47
:1056F8000193009533460E220446FFF7B3FA0E4B8A
:105708000E4A6663C4E90E340023C4E91035C4E9BF
:1057180012242365204603F0BAFA04F13401A430B8
:1057280018F00DF9204602B070BD00BF3AA304007E
:105738003FA30400DB4F000085510000CF6000004C
:10574800FFF7FFBAFFF764BBF0B5C3B014461F46B6
:1057580005460E46017C68461AF04DFB21469DF829
:1057680020313A4668461AF079FC044638B9314681
:1057780068461AF056FE69462846FFF7F6FA2046AC
:1057880043B0F0BD73B5134E134D144B019304464B
:10579800334600953322FFF765FA04F13402C4E971
:1057A8000F260F4A0F4B6363C4E911240E4A0023E6
:1057B800A363C4E91335C4E91524E365204603F05F
:1057C80066FA04F14001A43018F0B9F8204602B096
:1057D80070BD00BF49A3040044A30400EF4F0000BC
:1057E800895100002F590000E960000010B50446F7
:1057F800FFF7A7FA04F13400BDE8104015F06ABBC2
:1058080010B5C2B00446017C68461AF0F4FA04F1F7
:105818001400FFF70FFA237F6FF30003237769461D
:105828002046FFF7A2FA42B010BD10B5C2B0044638
:10583800017C68461AF0DFFA6946201D34341AF0F4
:10584800D2FE204615F046FB342168461AF0FFFACE
:1058580058B1D0F80200FFF7DFF9021EB8BF6FF0A9
:1058680000424099204615F06DFB42B010BD38B596
:105878000546FFF7CDFA044610B92846FFF7D5FFCD
:10588800204638BDF0B5C3B015461F4604460E463F
:10589800017C68461AF0AFFA29469DF820313A464D
:1058A80068461AF0DBFB054650B9314668461AF0DF
:1058B800B8FD69462046FFF758FA2046FFF7B5FFBE
:1058C800284643B0F0BD70B5C2B0017C04466846B6
:1058D8001AF091FA6946201D1AF085FE34216846AF
:1058E8001AF0B5FA80B1D0F80200A66B409DFFF718
:1058F80093F9751B854207D2421B314604F13400E7
:1059080015F020FB42B070BD68461AF034FE204600
:1059180003F0BDF9694600F50A70FFF726FA20463C
:10592800FFF764FFEEE708B500F020FC00F58740BC
:105938003C30BDE80840FFF7C6BF30B5C3B00446E9
:105948000D46017C68461AF056FA6946201D1AF081
:105958004AFE294668461AF097FB43B030BD00005E
:105968002DE9FF41884616461F4603F090F9184B6B
:1059780000F1A4051B88ADF80C3003A9284617F0E0
:10598800FCFF0446B8B1414618F04CFF204618F019
:10599800CFFE10238DF80C300322012303A92046E3
:1059A8008DF80D308DF80E7007F03FFD034628B1D5
:1059B800204607F026FC04B0BDE8F081009032468E
:1059C8002146284618F020FB0028F4D0F0E700BF55
:1059D8004EA304002DE9F041C8B0064603F057F97C
:1059E800317C044606A81AF006FA04F5D76008F0D8
:1059F80032F9002800F00981371D06A938461AF047
:105A0800F2FD0E2106A81AF022FA0546B8B90E23AF
:105A1800062201468DF804300DEB020008238DF8AC
:105A2800053038F01DFC01A906A8ADF80650ADF800
:105A38000850ADF80A50ADF80C501AF08AFB002156
:105A480006A81AF004FA68B903238DF804008DF843
:105A5800053094F8981301A807F0CBFA01A906A815
:105A68001AF077FB352106A81AF0F1F9014690B92A
:105A7800062235230DEB02008DF804308DF8052041
:105A880038F0EEFBD4F89C1301A807F0C5FA01A979
:105A980006A81AF05EFB022106A81AF0D8F988B900
:105AA80002238DF8043008238DF80530D4F8A0338C
:105AB800CDF80630D4F8A433CDF80A3001A906A8E9
:105AC8001AF047FB072106A81AF0C1F988B907237D
