:1000000000000420750300005D0300005F03000092
:1000100061030000630300006503000000000000AE
:100020000000000000000000000000006703000066
:1000300069030000000000006B0300006D03000076
:100040002D4B0000B92F0400751504006F0300004C
:100050006F0300006F030000815500006F03000074
:10006000155E00002D5E0000455E00006F0300007D
:100070006F030000311004006F0300006F030000E5
:100080006F0300002D2D00006F0300006F030000C0
:100090006D2D00006F0300006F0300006F03000070
:1000A0006F0300006F0300006F0300006F03000088
:1000B0006F0300006F03000000000000000000005C
:1000C0006F0300006F0300006F0300006F03000068
:1000D000B5E003006F0300006F0300006F03000032
:1000E0006F0300006F030000E987040000000000B8
:1000F000000000006F030000000000006F0300001C
:1001000000000000000000000000000000000000EF
:1001100000000000000000000000000000000000DF
:1001200000000000000000000000000000000000CF
:1001300000000000000000000000000000000000BF
:1001400000000000000000000000000000000000AF
:10015000000000000000000000000000000000009F
:10016000000000000000000000000000000000008F
:10017000000000000000000000000000000000007F
:10018000000000000000000000000000000000006F
:10019000000000000000000000000000000000005F
:1001A000000000000000000000000000000000004F
:1001B000000000000000000000000000000000003F
:1001C000000000000000000000000000000000002F
:1001D000000000000000000000000000000000001F
:1001E000000000000000000000000000000000000F
:1001F00000000000000000000000000000000000FF
:10020000354936480A1A02D0072291438D463449AF
:1002100034480A1A06D00722914381F30988022242
:1002200082F3148830483149314A00F044F83148AB
:100230003149324A00F03FF831483249324A00F041
:100240003AF832483249334A00F035F832483349F7
:10025000334A00F030F833483349344A00F02BF881
:1002600033483449344A00F026F8344834490022EF
:1002700000F02CF833483449002200F027F83348C6
:100280003349091A082902DB002202604160314A21
:1002900090471F481F49884205D00268043003B4C4
:1002A000904703BCF7E700208646EC46002000217B
:1002B000294A9047FEE7884207D0521A05D00378B2
:1002C00001300B700131013AF9D17047884202D0F8
:1002D00002700130FAE770470000042000E00320BC
:1002E00000000420000004208447050000000020D6
:1002F0000C010020D4030000D40300008C970400FC
:10030000844705000000002000000020E89704005A
:10031000E8970400E8970400E8970400E8970400D1
:10032000E8970400E8970400E89704008147050077
:10033000904805000C0100200C0100200C01002059
:100340000C2201200C220120102201201022012069
:10035000102201209D030000251A0000FEE7FEE7A1
:10036000FEE7FEE7FEE7FEE7FEE7FEE7FEE7FEE765
:10037000704700BF1048804710484FF0070188437E
:1003800085460F4880470F48016841F470010160BD
:10039000BFF34F8FBFF36F8FFFF732BF0A480B4990
:1003A0000B4A884207D0521A05D0037801300B70EF
:1003B0000131013AF9D170477103000000000420B7
:1003C000657B000088ED00E0E89704000000002055
:0403D0000000002009
:1003D400004870470422012000B585B00190019BBC
:1003E400002B0AD0074B43F001030393019B9B01AD
:1003F4000293039B0298984700E000BF05B05DF8A4
:1004040004FB00BF0098040000B583B00190019B79
:10041400002B0AD04FF47A70FFF7DEFF019B013BFB
:100424000193019B002BF5D100E000BF03B05DF800
:1004340004FB08B507F072FB00BF08BD00B589B026
:10044400039002910192019B002B33D00023079368
:1004540003230693029A079B1344019A194600202A
:1004640007F0A8FA0590079A059B13440793019A8D
:10047400059BD31A0193059B002B13D10F4B1B78BB
:1004840083F00103DBB2002B13D10120FFF7BCFF83
:10049400069B013B0693069B002B03D1074B0022CE
:1004A4001A7007E0054B01221A70019B002BD1D171
:1004B40000E000BF00BF09B05DF804FB0C010020A0
:1004C40000B585B003900291054B00934023054A83
:1004D4000299039800F012F800BF05B05DF804FB20
:1004E400410400001001002082B0019000BF02B05E
:1004F400704782B0019000BF02B0704700B5A1B050
:100504000590049103920293049803F048FD039B21
:100514001593029B16930023179300238DF86030E4
:1005240000231993229B1A9300231F930FA91F9B47
:100534000822049803F00CFE08231F93119B1293C6
:10054400BDF84030ADF84C30BDF84230ADF84E3017
:1005540000238DF851309DF83C3003F00303DBB2E7
:10056400012B26D10F9BC3F395231D939DF83C309B
:10057400C3F3C203DBB28DF85030BDF83C30C3F393
:100584008313DBB21C931C9B9A0009A91F9B04983C
:1005940003F0DEFD1C9B9B001F9A13441F9312AAB9
:1005A40009A915AB009313461C9A1D9800F0C4FECC
:1005B4002FE09DF83C3003F00303DBB2022B28D17B
:1005C400BDF83E30C3F389139BB21E939DF83C30B3
:1005D400C3F3C203DBB28DF850301E9B082B28BF37
:1005E40008231B9307A91F9B1B9A049803F0B0FDD3
:1005F4001F9A1B9B13441F931E9A1B9BD31A1E9373
:1006040015AB12AA07A81B9900F038FF1E9B002BFC
:10061400E3D1049803F0D2FC00BF21B05DF804FBE1
:1006240082B00190019BDB6801225A7100BF02B0C5
:100634007047000000B583B04FF0FF330193FFF71C
:10064400F8FE0421084800F093FD0190019B002B63
:1006540003DA0649412002F039FE0348FFF7E0FFC0
:1006640000BF03B05DF804FBC497040018980400AD
:1006740000B583B001900091019B1B681B68009931
:100684000198984700BF03B05DF804FB00B583B040
:100694000190019B1B685B680198984700BF03B0F9
:1006A4005DF804FB00B583B00190019B1B689B6857
:1006B4000198984700BF03B05DF804FB82B0019035
:1006C4000B468DF80330019BDB689DF803201A71FB
:1006D40000BF02B0704782B00190019BDB681B79B8
:1006E400184602B0704782B00190019BDB6801227A
:1006F4005A7100BF02B0704782B00190019BDB6861
:100704005B79184602B0704700B585B0019000913E
:10071400154BFF229A60144B00221A60124B0022E0
:100724005A60114B0022C3F818240F4B0022C3F85F
:1007340014240D4B002283F820240C4803F094FB6E
:100744000390039B002B01D0039B08E0084803F0AF
:100754001FFD084A084BD31ADB08029300231846EE
:1007640005B05DF804FB00BFB8020020D497040074
:1007740064980400C49704008C970400024A034B55
:10078400D31ADB0818467047C49704008C970400FA
:1007940000B587B001900B468DF803309DF8033007
:1007A400002B1FD0FFF7EAFF04900023059313E00A
:1007B400059B9B000E4A13440393039B1B881A4614
:1007C400019B1B689A4204D1019B059A1A6000237D
:1007D40009E0059B01330593059A049B9A42E7D3EC
:1007E400052300E00023184607B05DF804FB00BFB2
:1007F4000000002000B585B001900B468DF8033051
:100804009DF8032001AB11461846FFF7C1FF0346CC
:10081400002B07D1019BDB00054A13440393039B80
:100824001B6800E00023184605B05DF804FB00BF18
:100834008C97040084B001900B468DF80330019B23
:10084400DB00174A134402939DF80330013B032B4A
:100854001CD801A252F823F06D08000075080000AE
:100864007D0800008708000002238DF80F3011E096
:1008740004238DF80F300DE0029B1B798DF80F30A7
:1008840008E0029B5B798DF80F3003E000238DF8BC
:100894000F3000BF9DF80F30184604B0704700BFFA
:1008A4008C97040084B00190009100238DF80F30E0
:1008B400019B1B7803F00403DBB2002B24D0019BC3
:1008C4001B78C3F30103DBB2012B02D0022B0CD043
:1008D40017E0009B1B68019A1288C2F38312D2B2FC
:1008E40013449A1C009B1A600BE0009B1B68019A3E
:1008F4005288C2F3891292B213449A1C009B1A6064
:1009040000BF01238DF80F309DF80F30184604B056
:100914007047000000B58BB00023ADF826303E4888
:1009240002F062FD3D4802F05FFD3D4B5B680493BD
:100934003B4B9B680693049A069B134002339B002F
:10094400374A13440433089304AB19460898FFF755
:10095400A9FF0346002B09D0049A069B13400233D7
:100964009B002F4A134404330893EDE700BF002390
:10097400079311E0049B5A1C0492069A1340079AA9
:10098400920001A90A44264902339B000B445B6888
:100994001360079B01330793079B012BEAD99DF84A
:1009A4000430C3F30103DBB2012B10D0022B1CD1A2
:1009B400BDF80A30ADF82630BDF80630C3F389130C
:1009C4009BB203339A08049B1344049313E0BDF8C9
:1009D4000A30ADF82630BDF80430C3F38313DBB21C
:1009E4001A46049B1344049305E00E494FF4BF7068
:1009F40002F06CFC00BF094802F002FD0590059B63
:100A0400002B02D0049B064A5360BDF826301846DA
:100A14000BB05DF804FB00BFD0060020CC0600201C
:100A2400B80200207498040000B585B0002107487E
:100A340002F063FC0390039B0293029B83F3100375
:100A44000193019B184605B05DF804FBD406002011
:100A540000B589B00390029101920093039B1B0C93
:100A64000793FFF7E1FF0690FFF788FE0246079B16
:100A7400934204D3214940F2A31002F027FC069BC1
:100A84001904009B5A1C0A9B1340079A0A431C49E9
:100A940002339B000B445A60009A0A9B13400233B2
:100AA4009B00174A134404330593039B03F0070385
:100AB400D9B2059A137861F3C5031370019B03F04F
:100AC4000F03D9B2059A138861F389131380029B2B
:100AD400C3F31501059A136861F39F231360059A04
:100AE4001378012161F301031370059A13786FF3EE
:100AF4008203137000BF09B05DF804FB749804000E
:100B0400B802002000B58BB00390029113468DF813
:100B14000730039B0233089301238DF81F30002014
:100B240002F0F8F93E4B1A68029B1A603C4B9A6833
:100B34003B4B59683A4B1B68CB1A13440133099356
:100B440014E00121374802F01FFCFFF7E3FE069092
:100B54000699344802F018FC314B9A68304B5968B6
:100B64002F4B1B68CB1A134401330993089A099B32
:100B74009A42E6D89DF81F30002B48D000230493F6
:100B84009DF80730002B17D09DF81030012262F336
:100B940001038DF810309DF8103043F004038DF8F4
:100BA4001030039B03F00F03DAB2BDF8103062F388
:100BB4008913ADF8103016E09DF81030022262F36C
:100BC40001038DF810309DF8103043F004038DF8C4
:100BD4001030039BC3F309039AB2BDF8123062F3D9
:100BE4008F13ADF812300E4B1A680D4B9B681340EF
:100BF40002339B000A4A134404330593049A059B69
:100C04001A60074B1A68089B1344054A13600020B6
:100C140002F094F99DF81F3018460BB05DF804FB00
:100C2400B8020020D406002000B58BB005900491D2
:100C3400039202931F4B9B68079306AB012219464C
:100C44000298FFF75FFF0346002B24D0069B023374
:100C540009930023089311E0089B9B00039A1A440C
:100C6400099B591C099107990B40126811490233D9
:100C74009B000B445A60089B01330893089A029B1B
:100C84009A42E9D3069A079B00931346029A049961
:100C94000598FFF7DDFE074B93F82034002B05D0B1
:100CA40000BF00F065F80346002BFAD100BF0BB07B
:100CB4005DF804FBB802002000B583B001900091F8
:100CC4000023002200990198FFF7AEFF00BF03B094
:100CD4005DF804FB00B587B0039002910192019B7B
:100CE400059305AA012302990398FFF79DFF00BF0E
:100CF40007B05DF804FB00B587B003900291019240
:100D04000093019B0493009B059304AA0223029978
:100D14000398FFF789FF00BF07B05DF804FB00B537
:100D24008BB00390029101920093019B0593009B69
:100D340006930C9B07930D9B08930E9B099305AA9E
:100D4400052302990398FFF76FFF00BF0BB05DF80E
:100D540004FB0000054B5A68044B1B689A420CBF05
:100D640001230023DBB21846704700BFB8020020FD
:100D740000B599B0FFF7EEFF0346002B01D0002326
:100D8400B5E19A4B0022C3F81824BFF34F8F974B59
:100D94005B680493954B9B681093049A109B1340D3
:100DA40002339B00914A1344043311930023179395
:100DB4000023169300230F9304AB19461198FFF7F1
:100DC40071FD0346002B19D0884BD3F81834002B3F
:100DD40014D1864B1A68049B9A4205D8834B1B682E
:100DE400824A5360002382E1049A109B1340023329
:100DF4009B007E4A134404331193DDE700231593CB
:100E040011E0049B5A1C0492109A1340159A920004
:100E140001A90A44754902339B000B445B681360C3
:100E2400159B01331593159B012BEAD99DF80430CA
:100E340003F00303DBB2022B40F09C80BDF80630C4
:100E4400C3F389139BB20E93BDF80630C3F3891321
:100E54009BB2502B28BF50239BB20D930D9BC3F321
:100E640009039AB2BDF8063062F38F13ADF8063069
:100E74000D9B08330C939DF80430C3F3C203DBB21B
:100E84000F930C995A4802F0FAFF1790179B002B06
:100E940000F0D080179803F082F801A9169B08226D
:100EA400179803F037F9169B08331693049BDA431B
:100EB400109B134001339B000B930D9A0B9B9A429A
:100EC40042D90B9B002B08D0049A109B1340023389
:100ED4009B00464A1344043300E0464B0A930B9BA1
:100EE400002B02D00B9BDBB201E00D9BDBB28DF833
:100EF40027300B9B002B01D03E4B00E000230893CE
:100F04000B9B002B06D00D9BDAB20B9BDBB2D31AE2
:100F1400DBB200E000238DF81F309DF82720169BDC
:100F24000A99179803F0F6F89DF82730169A134497
:100F34001693089B002B16D09DF81F20169B08992A
:100F4400179803F0E7F80EE0049A109B134002335D
:100F54009B00264A134404330693169B0D9A069964
:100F6400179803F0D7F80E9B03339A08049B134495
:100F740004935FE09DF8043003F00303DBB2012B1C
:100F840058D1BDF80430C3F38313DBB2062B28BF5A
:100F94000623DAB2BDF8043062F38913ADF80430E5
:100FA400BDF80430C3F38313DBB2023305939DF819
:100FB4000430C3F3C203DBB20F93059B9B001946B5
:100FC4000B4802F05CFF1790179B002B32D0179848
:100FD40002F0E5FF01A9169B0822179803F09AF87E
:100FE400169B08331693002315931AE0B8020020C9
:100FF400D4970400C4020020049B5A1C0492109A43
:10100400134002339B003C4A1344191D169B0422CF
:10101400179803F07FF8169B04331693159B01333E
:101024001593BDF80430C3F38313DBB21A46159B42
:101034009342E1D3179B002B39D02F4BD3F81034B4
:1010440014932D4BD3F81834002B1BD0179802F0AF
:10105400B5FF46E000238DF84F301498FFF74CFBA2
:101064000346002B02D001238DF84F309DF84F30FA
:10107400002B03D017991498FFF7FAFA149BDB6836
:101084001B681493149B002BE4D1179802F096FF6D
:10109400002001F03FFF184BD3F81834002B02D185
:1010A400049B154A5360002001F048FF19E0124BDD
:1010B400D3F81034129306E01298FFF7F3FA129B58
:1010C400DB681B681293129B002BF5D10B4A0C4B67
:1010D400D31ADB081B0443F002030A491846FFF73E
:1010E400EBFDFFF737FE034683F00103DBB218463E
:1010F40019B05DF804FB00BFB8020020A4970400F7
:101104008C970400B898040000B585B000230393BD
:1011140023E0164BD3F81034029301238DF80730E3
:101124000FE00298FFF7D7FA03461A46039B93424F
:1011340003D100238DF8073006E0029BDB681B68AF
:101144000293029B002BECD19DF80730002B01D0B9
:10115400039B07E0039B01330393039B092BD8DD17
:101164004FF0FF33184605B05DF804FBB8020020C9
:1011740000B585B001900B468DF80330FFF7C4FF2E
:101184000390039BB3F1FF3F01D1039B22E0039B38
:10119400DBB219460198FFF791FA104BD3F81034DB
:1011A400002B08D10D4A019BC2F81034019BDB6867
:1011B40000221A600DE0094BD3F81034DA68019B61
:1011C400DB6812681A60054BD3F81034DB68019AA7
:1011D4001A60039B184605B05DF804FBB8020020B2
:1011E40000B583B00C4BD3F8103401930A4B0122A1
:1011F40083F8202409E00198FFF775FA0198FFF7B6
:1012040045FA019BDB681B680193019B002BF2D11B
:1012140000BF03B05DF804FBB802002082B0019067
:10122400009100BF02B0704710B584B003900291E2
:10123400039BDB88002B0AD0039BDB881A461F4BD9
:10124400009313461E4A1F49029802F007FA039BB3
:101254001B7A052B2ED0039B5B7A002B12D0039BA9
:101264009B881A46039B1B7A19461046FFF7E2FA3D
:1012740003461A46144B53F822301A46134902986F
:1012840002F0ECF9039B1B6819460298FFF7C6FFAE
:10129400039B1B7A1A460E4B53F82240039B9B88F0
:1012A40000211846FFF7A6FA034622460949029888
:1012B40002F0D4F900BF04B010BD00BFEC980400E4
:1012C400FC980400349904001C0000204C9904008C
:1012D400080000205099040000B585B003900291E5
:1012E40013468DF80730039B1B7A052B0FD0039B05
:1012F4005B7A002B06D00D4B1B681A460C490298EA
:1013040002F0ACF90B49029802F0A8F907E09DF845
:101314000730002B03D00749029802F09FF9029886
:1013240002F07AF900BF05B05DF804FB1C00002050
:101334004C9904005C99040030B58BB00790069179
:10134400059204930E9B1B7B8DF827300E9B002285
:101354001A730E990498FFF767FF059B062B7FD835
:1013640001A252F823F000BF891300009313000078
:10137400A3130000B7130000D5130000FD130000F1
:101384002D14000007990E9802F068F969E0069B95
:101394001B681A4607990E9802F060F961E0069BF3
:1013A4001A68069B04331B6807990E9802F056F9D5
:1013B40057E0069B1A68069B04331968069B08339A
:1013C4001B6800930B4607990E9802F047F948E012
:1013D400069B1968069B04331868069B08331B6830
:1013E400069A0C3212680192009303460A46079942
:1013F4000E9802F033F934E0069B1868069B043318
:101404001C68069B08331B68069A0C3212680699FE
:10141400103109680291019200932346024607990C
:101424000E9802F01BF91CE0069B1C68069B043313
:101434001D68069B08331B68069A0C3212680699CD
:1014440010310968069814300068039002910192E3
:1014540000932B46224607990E9802F0FFF800E00D
:1014640000BF00220E990498FFF736FF0E9B9DF8EB
:1014740027201A7300BF0BB030BD00BF00B587B082
:101484000390029101920093029B082B60D8009B69
:101494001B7B8DF81330009B00221A73009901986E
:1014A400FFF7C2FE0023059314E0059A029B9A42BB
:1014B40009D2039A059B13441B781A4626490098BF
:1014C40002F0CCF803E02549009802F0C7F8059B28
:1014D40001330593059B072BE7D92149009802F0B6
:1014E400BDF80023059326E0059A029B9A421BD27D
:1014F400039A059B13441B788DF812309DF8123023
:101504007E2B0AD89DF8123018460AF0DFF90346FC
:10151400002B02D09DF8123000E02E231A46114908
:10152400009802F09BF803E00F49009802F096F847
:10153400059B01330593059B072BD5D901220099FF
:101544000198FFF7C9FE009B9DF813201A7300E071
:1015540000BF07B05DF804FB6099040068990400BB
:101564006C990400709904007499040000B583B068
:101574000190019B1B682F2B04D90B494FF4F37086
:1015840001F0A4FE019B1B681F2B02D84FF0A0435F
:1015940006E0019B1B6803F01F02019B1A60034BCA
:1015A400184603B05DF804FB78990400000300506A
:1015B40000B585B00190084611461A4603468DF8D9
:1015C40003300B468DF8023013468DF8013001AB21
:1015D4001846FFF7CBFF03909DF803209DF80230D7
:1015E4005B001A439DF801309B001A439DF81830A4
:1015F4001B0242EA03019DF81C301B04019A1943A3
:10160400039B02F5E07243F8221000BF05B05DF8B9
:1016140004FB00B585B003900023019300230093DD
:101624000023012201210398FFF7C2FF00BF05B088
:101634005DF804FB00B585B003900B468DF80B30C4
:101644009DF80B20002301930023009313460022EE
:1016540000210398FFF7ACFF00BF05B05DF804FB61
:1016640000B585B0019001AB1846FFF77FFF0390EA
:10167400019B012202FA03F31946039800F069F86A
:1016840000BF05B05DF804FB00B585B0019001AB67
:101694001846FFF76BFF0390019B012202FA03F344
:1016A4001946039800F05FF800BF05B05DF804FB2D
:1016B40000B585B0019001AB1846FFF757FF0390C2
:1016C400039BD3F804350293029BDA43019B012167
:1016D40001FA03F31A40039BC3F80825019B012276
:1016E4009A40029B1A40039BC3F80C2500BF05B027
:1016F4005DF804FB00B583B001900091009B002BC2
:1017040003D10198FFF7C0FF02E00198FFF7A8FF9B
:1017140000BF03B05DF804FB00B585B0019001ABD8
:101724001846FFF723FF0390039800F00AF80246D7
:10173400019B22FA03F303F00103184605B05DF898
:1017440004FB82B00190019BD3F80435184602B023
:10175400704782B001900091019B009AC3F808255C
:1017640000BF02B0704782B001900091019B009AC3
:10177400C3F80C2500BF02B07047000000B585B067
:101784000190019B032B03D911493A2001F09EFDDE
:10179400104A019B13441B781846FFF7BDFF03460C
:1017A400002B14BF012300238DF80F309DF80F3058
:1017B400002B14BF01230023DBB283F00103DBB24F
:1017C40003F00103DBB2184605B05DF804FB00BF6B
:1017D400A8990400D499040000B583B00190019B3A
:1017E400032B03D90749412001F070FD064A019BF0
:1017F40013441B7800211846FFF77CFF00BF03B099
:101804005DF804FBA8990400D499040000B583B0E2
:101814000190019B032B03D90749472001F056FD92
:10182400064A019B13441B7801211846FFF762FF07
:1018340000BF03B05DF804FBA8990400D499040028
:1018440000B583B00023019305E00198FFF7DEFFA4
:10185400019B01330193019B032BF6D900BF03B015
:101864005DF804FB00B583B00023019305E0019803
:10187400FFF7B2FF019B01330193019B032BF6D9C0
:1018840000BF03B05DF804FB00B583B00190019B79
:10189400032B03D907495F2001F018FD064A019B79
:1018A40013441B781846FFF703FF00BF03B05DF82D
:1018B40004FB00BFA8990400D499040000B583B0C8
:1018C4000023019309E0094A019B13441B7818463D
:1018D400FFF79FFE019B01330193019B032BF2D978
:1018E400FFF7AEFF00BF03B05DF804FBD49904001A
:1018F40000B583B0002301930AE0094A019B134415
:101904001B7803211846FFF795FE019B01330193D1
:10191400019B032BF1D900BF03B05DF804FB00BFAA
:10192400D899040084B001904FF0FF330293002350
:1019340003930DE00A4A039B13441B781A46019B48
:10194400934202D1039B029305E0039B013303936B
:10195400039B032BEED9029B184604B0704700BFCB
:10196400D899040000B583B00190019B03F00103F2
:10197400002B01D0FFF7A2FF019B03F00203002B11
:1019840001D0FFF7B5FF00BF03B05DF804FB000012
:1019940000B585B00190019B002B0AD0074B43F0A2
:1019A40001030393019B9B010293039B02989847B5
:1019B40000E000BF05B05DF804FB00BF109A04000E
:1019C40000B583B00190019B002B0AD04FF47A70CC
:1019D400FFF7DEFF019B013B0193019B002BF5D137
:1019E40000E000BF03B05DF804FB000000B583B065
:1019F4004FF400410020FEF787FE0190019B009305
:101A0400009B002B04D0054A4221009800F06CFA98
:101A1400FEF710FE00BF03B05DF804FBDC99040080
:101A240000B583B001900091FFF7E0FF09F01AFCC4
:101A34004FF47A70FFF7C4FF09F0BEFCFCE7000026
:101A44002DE9F04792B0099000238DF84730ADE0BE
:101A54005C4B1A689DF84730DB0013441093109BCD
:101A64001B7818464FF001034FF00004A0F1200248
:101A7400C0F1200104FA00FA03FA02F24AEA020A67
:101A840023FA01F14AEA010A03FA00F9CDE90E9AB0
:101A94004D4BD3E90012DDE90E3401EA0300009056
:101AA40002EA04030193DDE90034234379D0DDE93C
:101AB4000E34DA430292E3430393434BD3E90034F5
:101AC400DDE9020102461A4004920A4602EA0403CE
:101AD40005933D4BDDE90412C3E90012109B1B780A
:101AE400184603F031FD03468DF83730109B1B7800
:101AF40018464FF001034FF00004A0F12002C0F19A
:101B0400200104FA00F603FA02F2164323FA01F163
:101B14000E4303FA00F52D4BD3E9003405EA030222
:101B2400069206EA040307939DF837104FF000026B
:101B3400109B1B781C46A4F12003C4F1200002FA78
:101B440004F801FA03F348EA030821FA00F048EA2A
:101B5400000801FA04F7DDE90634444508BFBB4236
:101B64001FD19DF83720109B5B78012B0CBF0123FC
:101B74000023DBB29A420CBF01230023DBB2DBB2A9
:101B84004FF00004CDE90A34109B5B68002B08D0A9
:101B9400109B5C68109B1A789DF8283019461046F3
:101BA400A0479DF8473001338DF84730084B1A7829
:101BB4009DF847309342FFF44BAF00BF12B0BDE82D
:101BC400F08700BFDC060020100700200807002073
:101BD400E00600202DE9F04790B00B900B468DF8FD
:101BE4002B304FF001034FF000040B98A0F12002BA
:101BF400C0F1200104FA00F603FA02F2164323FAB4
:101C040001F10E4303FA00F5CDE90E56394B18469F
:101C140001F046F90D900D9B002B66D1364BD3E9AC
:101C24000012DDE90E3401EA0300009002EA040325
:101C34000193DDE90034234343D10B9803F084FC82
:101C44000346002B10D02D4BD3E90012DDE90E34EE
:101C540041EA0300029042EA04030393274BDDE9BF
:101C64000212C3E9001213E0DDE90E346FEA03093E
:101C74006FEA040A214BD3E9003409EA030204920F
:101C84000AEA040305931D4BDDE90412C3E90012BB
:101C9400194BD3E90012DDE90E3441EA0300069042
:101CA40042EA04030793144BDDE90612C3E9001268
:101CB4001048134B1B680022194601F0BFF80D9021
:101CC40014E0DDE90E34DF436FEA04080A4BD3E97C
:101CD400003407EA0302089208EA04030993064B56
:101CE400DDE90812C3E9001200E000BF10B0BDE84E
:101CF400F08700BFE8060020100700200807002036
:101D0400E406002010B58AB003900B4601928DF8CA
:101D14000B30019B042B01D807235AE003F006FB88
:101D2400034683F00103DBB2002B09D003F0ACFAC5
:101D34000990099B0893089B002B01D0089B48E05D
:101D4400254A039B1360254A9DF80B301370244ADF
:101D5400019B1360234A4FF000034FF00004C2E9D3
:101D64000034214A4FF000034FF00004C2E900346C
:101D740022E09DF80B30DB00039A1344079305AB74
:101D840000210A461A800A469A7003238DF81430FB
:101D9400079B9B788DF81530079B1B78184605AB7D
:101DA400124A194603F0CEFA0990099B0693069B42
:101DB400002B01D0069B0CE09DF80B305A1E8DF8C9
:101DC4000B20002BD5D10A4A00210A4801F006F85D
:101DD400034618460AB010BDDC060020E0060020C9
:101DE400E40600200807002010070020D91B00008B
:101DF400451A0000189A040000B583B0114B1B6803
:101E0400002B03D11049BA2001F060FA002301939A
:101E14000CE00C4B1A68019BDB0013441B78012176
:101E2400184603F009FB019B01330193074B1B7810
:101E34001A46019B9342ECD30023184603B05DF885
:101E440004FB00BFDC0600201C9A0400E00600200E
:101E540086B003900291019201238DF817309DF80A
:101E64001730204A039B13601E4A029B53601D4A8D
:101E7400019B9360039B44F20102934213D0039BA2
:101E840044F20202934221D1019B164AD360154BBE
:101E9400DB681B881A46134B9A61124BDB685B683C
:101EA400104AD36112E0019B0E4A13610D4B1B696A
:101EB4009B680C4A53610B4B1B691B68094A93616D
:101EC400084B1B695B68074AD36100BF72B600BF49
:101ED4009DF81730DBB2002BFAD162B600BF06B012
:101EE400704700BF1807002000B583B0029000912E
:101EF400019244F2010071466A4600F003F803B00F
:101F040000BD00BF30B58BB007900691059272B644
:101F1400FFF766F900BFFEF72BFF0346002BFAD14B
:101F2400079B44F20102934216D0079B44F202023B
:101F340093423ED1059B09932C4A2D4BD31ADB08BF
:101F44001B0443F00100099B5B681A46099B1B882C
:101F54002849FEF7D0FE39E0059B0893234A244B19
:101F6400D31ADB081B0443F00104089B9D68089BFB
:101F74009B68184602F02AF903461846089B5B68DA
:101F84001946089B1B68069A029201930091034626
:101F94002A4619492046FEF7C2FE144A144BD31AA6
:101FA400DB081B0443F0010314491846FEF784FEC2
:101FB4000CE00E4A0E4BD31ADB081B0443F001035A
:101FC400069A0F491846FEF785FE00BF0D4B1B68A5
:101FD40003F00103002B00D000BE059A0699079870
:101FE400FFF736FF00BF0BB030BD00BFA49704005D
:101FF4008C970400589A0400749A04009C9A040074
:10200400B09A0400F0ED00E082B00190019B03F06F
:102014000303002B0CBF01230023DBB2184602B0DC
:102024007047000082B003468DF807309DF80730F2
:102034009AB2064B1B889A4204D29DF807300133AA
:10204400DBB200E00023184602B0704744070020CA
:1020540000B583B00B4B1B788DF807300A4B1B7807
:10206400DBB21846FFF7DEFF03461A469DF8073039
:1020740093420CBF01230023DBB2184603B05DF882
:1020840004FB00BF400700204107002082B0084B3A
:102094001B788DF80730074B1B78DBB29DF80720BF
:1020A4009A420CBF01230023DBB2184602B07047EA
:1020B400400700204107002000B585B00346009288
:1020C400ADF806300B46ADF80430BDF804300133EA
:1020D4009BB2DB00ADF80E300098FFF795FF034686
:1020E40083F00103DBB2002B01D0072317E00E4A73
:1020F400009B1360BDF80E30009A13440B4A136022
:102104000B4B00221A700B4B00221A700A4ABDF8BE
:1021140006301380094ABDF80430138000231846A2
:1021240005B05DF804FB00BF380700203C07002021
:1021340041070020400700204207002044070020F8
:1021440000B587B003900B460192ADF80A30334BCB
:102154001B88BDF80A209A4259D84FF6FF73ADF890
:102164001230002000F0D6FEFFF772FF0346002B6A
:102174000ED12B4B1B78DBB2ADF81230284B1B78F9
:10218400DBB21846FFF74EFF03461A46244B1A707B
:10219400002000F0D3FEBDF812304FF6FF729342D8
:1021A40032D0204B1A68BDF81230DB001344019A78
:1021B4001A60039B002B1CD0BDF80A30002B18D0EA
:1021C400194B1B68BDF812201449098801FB02F25F
:1021D4001344BDF80A200399184609F0ADFD114BCC
:1021E4001A68BDF81230DB001344BDF80A209A8047
:1021F40007E00C4B1A68BDF81230DB0013440022D0
:102204009A800023059304E00423059301E0092345
:102214000593059B184607B05DF804FB42070020B0
:1022240041070020380700203C07002000231846FF
:102234007047000000B585B02FE0204B1B78DBB25F
:10224400ADF80E301E4B1B68BDF80E201D490988E1
:1022540001FB02F2134402931B4B1A68BDF80E30C3
:10226400DB0013449B88ADF80630174B1A68BDF8A1
:102274000E30DB0013441B680093BDF80620009B5E
:102284001146029898470D4B1B78DBB21846FFF7AE
:10229400C9FE03461A46094B1A70FFF7C7FF0346E7
:1022A40083F00103DBB2002B04D0FFF7EFFE0346FB
:1022B400002BC2D000BF05B05DF804FB400700202E
:1022C4003C070020420700203807002082B0034664
:1022D4008DF807309DF8073003F01F0205499DF97A
:1022E40007305B09012000FA02F241F8232000BF05
:1022F40002B0704700E100E082B003468DF8073079
:102304009DF8073003F01F0206499DF907305B0969
:10231400012000FA02F2203341F8232000BF02B06A
:10232400704700BF00E100E082B003468DF807303B
:102334009DF8073003F01F0206499DF907305B0939
:10234400012000FA02F2403341F8232000BF02B01A
:10235400704700BF00E100E082B003468DF807300B
:102364009DF8073003F01F0206499DF907305B0909
:10237400012000FA02F2603341F8232000BF02B0CA
:10238400704700BF00E100E082B0034600918DF881
:1023940007309DF90730002B0CDA009BDAB20C49A8
:1023A4009DF8073003F00F03043B5201D2B20B44F3
:1023B4001A7609E0009BDAB206499DF9073052010A
:1023C400D2B20B4483F8002300BF02B0704700BFB1
:1023D40000ED00E000E100E000B585B00190019B54
:1023E400002B0AD0074B43F001030393019B9B018D
:1023F4000293039B0298984700E000BF05B05DF884
:1024040004FB00BF009B040000B583B00190064AA2
:10241400019BC2F8083506211120FFF7B5FF00BF64
:1024240003B05DF804FB00BF0010014008B50D4B7C
:102434004FF48032C3F844230A4B4FF48032C3F87C
:1024440004231120FFF788FF1120FFF73FFF054BFE
:1024540001221A602F20FFF7BFFF034B01221A70DD
:1024640000BF08BD001001406608002008B5112017
:10247400FFF742FF0E4B4FF48032C3F848230C4B56
:102484004FF48032C3F80823094B01225A602F20ED
:10249400FFF7A2FF064B01229A60064B00221A6046
:1024A4002F20FFF799FF044B00221A7000BF08BDCC
:1024B400001001405808002066080020024BD3F8A1
:1024C40004351846704700BF0010014082B00190E7
:1024D4000091019A009BD31A23F07F43184602B05F
:1024E4007047000082B00190034A019BC2F8403556
:1024F40000BF02B0704700BF0010014086B00190D9
:10250400284B1B68002B03D1264A019B136045E02E
:10251400019B1A68234B1B681B689A4210D8214BF5
:102524001B681968019B1A681E4B1B688A1A1A607B
:102534001C4B1A68019BDA611A4A019B13602DE057
:10254400019B1B680393174B1B680593154B1B6872
:10255400049309E0049B1B68039AD31A0393049B16
:102564000593049BDB690493049B002B04D0049B18
:102574001B68039A9A42EDD8049B002B05D0049B58
:102584001A68039BD21A049B1A60019B039A1A606F
:10259400019B049ADA61059B019ADA6100BF06B0D7
:1025A400704700BF5408002000B587B001902A4B43
:1025B4001B680393284B1B680593059B049308E051
:1025C400049A019B9A4208D0049B0593049BDB69FF
:1025D4000493049B002BF3D100E000BF049B002B69
:1025E40001D1002333E0059A049B9A4214D11A4B7B
:1025F4001B68DB69184A1360174B1B68002B0BD14F
:10260400164B01229A60164B00221A60154B0122C8
:102614001A702F20FFF7E0FE049B1B680293049BB3
:10262400DA69059BDA61059BDB690493049B002B43
:1026340005D0049B1A68029B1A44049B1A60064B3B
:102644001B68039A9A4214BF01230023DBB2184685
:1026540007B05DF804FB00BF5408002000100140DF
:10266400580800206708002008B51120FFF75CFE19
:1026740000BF08BD08B51420FFF756FE00BF08BD13
:1026840000B585B001900B46ADF80230BDF80230BC
:10269400082B0CBF01230023DBB20393039B002B05
:1026A40005D1094A40F273110020FFF71DFC019B7C
:1026B4000293029B1B68029A52681046984700BF17
:1026C40005B05DF804FB00BFC89A040000B587B0EC
:1026D4000190019B5B690293019B9B69039302AB8D
:1026E4000A4A08211846FFF72BFD0590059B049321
:1026F400049B002B05D0064A40F287110498FFF78B
:10270400F3FB00BF07B05DF804FB00BF85260000A3
:10271400C89A040000B585B02B4B1B68002B4ED023
:1027240000230193FFF7CAFE0246284B1B68194693
:102734001046FFF7CBFE0290234B1B6803931DE06A
:10274400039B1B68029A9A421CD3039B1B68029A40
:10275400D31A0293039B1B68019A13440193039BAE
:102764000093039BDB690393009B1B7C002B05D028
:10277400009B00221A740098FFF7A8FF039B002B0C
:10278400DED100E000BF124B1A78124B1B789A423C
:102794000CD1104B1B780133DAB20E4B1A700D4B6F
:1027A4001B78022B02D10B4B00221A70094B1B78A9
:1027B4001946094A019B42F82130FFF75BFF00BF2D
:1027C40005B05DF804FB00BF540800205808002041
:1027D40064080020650800205C08002082B0019095
:1027E400184B1A78184B1B789A4223D0154B1B7838
:1027F4000133DAB2134B1A70124B1B78022B02D13D
:10280400104B00221A700F4B1B781A460F4B53F8CB
:102814002220019B1A60019B1A680D4B1B6813440C
:102824000B4A13600A4B1B6823F07F43084A13606A
:10283400012303E0019B00221A600023184602B022
:10284400704700BF64080020650800205C08002071
:102854005808002088B00390029101920023079346
:1028640038E0204B1B680693069B1B68039A9A4228
:1028740006D2069B1A68039BD21A069B1A602DE0A7
:10288400069B1B68039AD31A0393069B1B68079A3B
:1028940013440793069B00221A60124B1B6805938E
:1028A400069BDB690F4A1360069BDB68002B11D083
:1028B400029A079B134423F07F42069B5A60069BAF
:1028C400DA68069B9A60019B1A68069BDA61019B91
:1028D400059A1A60034B1B68002BC2D100BF08B0D5
:1028E400704700BF5408002000B589B00190002350
:1028F4008DF81F30664B1B680593AAE0019B002BE3
:1029040005D0019B0693069BDB69019361E0614B53
:102914001B781A4613465B001344DB005D4A1344DC
:10292400043304935B4B1B780133DAB2594B1A70AE
:10293400584B1A78574B9B789A4202D1554B002238
:102944001A70049B5B680693049B1B78022B04D0CB
:10295400032B1BD0012B1FD01DE0049B5B68184682
:10296400FFF722FE0346002B02D001238DF81F300F
:10297400069B00221A746CE0454B1B680393039B6F
:1029840000221A74039BDB69414A1360404B1B68A5
:10299400002BF1D15DE05CE000BF069B1B7C002BAB
:1029A40000D056E0049B9A68069B5A60049BDA6840
:1029B400069B9A60049B1A69069BDA60049B5A6919
:1029C400069B9A61344B1B78002B02D0069B002295
:1029D4005A60069B5A68314B1B68D31A23F07F4315
:1029E4002F4A93420ED8069B5A682C4B1B681946F3
:1029F4001046FFF76BFD0246069B9B681A44069B34
:102A04001A6017E0254B1A68069B5B681946104646
:102A1400FFF75CFD0290069B9B68029A9A4206D2DD
:102A2400069B9A68029BD21A069B1A6002E0069BD8
:102A340000221A60069B00225A60069B00229A60BC
:102A4400069B01221A74069B0022DA610698FFF79E
:102A540055FD019B002B7FF451AF0E4B1A780D4BA3
:102A64005B789A427FF44AAF9DF81F30002B04D163
:102A7400074B1B68059A9A4201D0012300E000230A
:102A840003F00103DBB2184609B05DF804FB00BF94
:102A94005408002048070020670800205808002038
:102AA400FEFF7F0010B588B00190274B1B68002BF8
:102AB40044D0254B1B681B680793FFF7FFFC069067
:102AC400224B1B68059305990698FFF7FFFC034604
:102AD400033304931E4B1B7883F00103DBB2002BFA
:102AE40001D0FFF7A3FC049A079B934238BF134617
:102AF400059A13440593059B23F07F43059305989A
:102B0400FFF7F0FCFFF7DAFC039006990398FFF750
:102B1400DDFC0346DC1C06990598FFF7D7FC034649
:102B24009C420DD9FFF7CAFC03461846FFF7DAFCAE
:102B34002F20FFF751FCFFF797FD01E0FFF796FC0C
:102B440000BF08B010BD00BF540800205808002082
:102B54006608002000B587B00023019300238DF898
:102B64001730194B1B680493184B1B6803936B466F
:102B74001846FFF733FE03468DF80B309DF80B30F3
:102B8400002B08D0009B01AA04991846FFF762FEA7
:102B940001238DF81730019B1846FFF7A5FE034665
:102BA400002B02D001238DF817309DF81730002B2D
:102BB40002D00398FFF776FF054B00221A7000BF7E
:102BC40007B05DF804FB00BF58080020540800203B
:102BD4006708002082B003468DF80730034A9DF849
:102BE4000730537000BF02B0704700BF4807002091
:102BF40084B00190144B5B7801338DF80F30124B85
:102C04009B789DF80F209A4202D100238DF80F3053
:102C14000D4B1B789DF80F209A4201D100230FE041
:102C2400019B9DF80F201A70074B5B781A461346D8
:102C34005B001344DB00044A134404330293029BF5
:102C4400184604B0704700BF4807002000B589B09B
:102C5400039002910192009300230793002000F057
:102C640059F90DF117031846FFF7C2FF0690069BAA
:102C7400002B02D10423079318E0069B01221A704B
:102C8400069B039A5A60FFF719FC0246069B9A605A
:102C9400069B029ADA60069B019A1A61069B009AC7
:102CA4005A619DF817301846FFF794FF002000F092
:102CB40045F9079B002B01D1FFF7DCFC079B184665
:102CC40009B05DF804FB00B587B001900B468DF8A0
:102CD400033000230593002000F01CF90DF10F03CD
:102CE4001846FFF785FF0490049B002B02D10423B0
:102CF40005930BE0049B9DF803201A70049B019A32
:102D04005A609DF80F301846FFF764FF002000F06A
:102D140015F9059B002B01D1FFF7ACFC059B184668
:102D240007B05DF804FB000008B50E4B0022C3F8A1
:102D340040210C4B0022C3F844210A4B0022C3F863
:102D44004821084B0022C3F84C21064B0022C3F84B
:102D54000021044B0022C3F80421FFF7DBFC00BF71
:102D640008BD00BF0010014008B5FFF7F3FE00BF27
:102D740008BD000008B5FFF779FB134B00221A7059
:102D8400114B00225A70104B0B229A700F4B0022E9
:102D94001A600F4B00221A700E4B00221A70142076
:102DA400FFF7DAFA06211420FFF7EEFA1420FFF7F2
:102DB4008DFA0020FFF728FBFFF780FB0246064B45
:102DC4001A600023184608BD480700205408002054
:102DD40064080020650800205808002086B003908D
:102DE4000B4601928DF80B30134B9B78002B01D1CD
:102DF40008231EE0019B002B01D1072319E0039B4C
:102E0400002B01D1072314E0039B1B681B7C002BC0
:102E140001D008230DE0039B1B680593059B00224A
:102E24001A74059B9DF80B205A74059B019A5A61EC
:102E34000023184606B070474807002000B587B045
:102E4400039002910192039B0593144B9B78002BF2
:102E540001D108231EE0039B002B01D1082319E0B4
:102E6400029B042B01D8072314E0059B5B69002B0C
:102E740001D108230EE0059B5B7C012B01D1029B51
:102E840000E000230493019B049A02990598FFF73C
:102E9400DDFE0346184607B05DF804FB4807002032
:102EA40000B585B00190019B03930D4B9B78002BDB
:102EB40001D1082310E0019B002B03D0039B5B6925
:102EC400002B01D1082307E0039B00221A7402217E
:102ED4000398FFF7F8FE0346184605B05DF804FBB7
:102EE4004807002072B6034B1B680133014A136084
:102EF40000BF704768080020054B1B68013B044A6B
:102F04001360034B1B68002B00D162B600BF7047EF
:102F14006808002000B583B0019000F025F803464E
:102F2400012B03D00449432000F0D0F9FFF7DAFF66
:102F340000BF03B05DF804FB089B040000B583B038
:102F440003468DF8073000F00FF80346012B03D039
:102F54000449512000F0BAF9FFF7CEFF00BF03B0D7
:102F64005DF804FB089B040084B0EFF30583019330
:102F7400019BC3F308030393039B002B0DD1EFF3D1
:102F840014830093009B0293029B03F00103002B24
:102F94000CBF01230023DBB200E00123184604B078
:102FA400704700B585B0039002910192019B9BB2DA
:102FB4000299184600F08AF900BF05B05DF804FBD9
:102FC40086B0039002910192039B5B090593059BD4
:102FD4005B01039AD31A0493029B059A1A60019B1E
:102FE400049A1A6000BF06B07047000000B585B0AF
:102FF400019002AA03AB19460198FFF7E1FF039B76
:10300400074A52F82310029B01229A40039B0A4369
:10301400034941F8232000BF05B05DF804FB00BF5D
:103024006C10002084B001900091002303931FE0F2
:10303400019B002B10D0124A039B52F82330019AB3
:103044009A4209D80F4A039B52F823200E49039B46
:1030540051F823309A4206D10A4A039B52F823308E
:10306400009A9A4201D2039B06E0039B0133039327
:10307400039B062BDCD90023184604B0704700BF1D
:10308400549B04008C9B0400709B040000B585B025
:10309400019001990020FFF7C5FF0390034A039BA9
:1030A40052F82330184605B05DF804FB549B040025
:1030B40000B585B0019002AA03AB19460198FFF749
:1030C4007FFF039B084A52F82320029B22FA03F352
:1030D40003F00103002B14BF01230023DBB21846C5
:1030E40005B05DF804FB00BF6C10002000B585B08E
:1030F400019002AA03AB19460198FFF761FF039BF5
:10310400084A52F82310029B012202FA03F3DA431D
:10311400039B0A40034941F8232000BF05B05DF832
:1031240004FB00BF6C10002000B583B000230193A2
:103134000023019305E00198FFF758FF019B013339
:103144000193019B0B2BF6D9034B01221A70002328
:10315400184603B05DF804FB7010002000B589B078
:10316400019000912E4B1B7883F00103DBB2002BFE
:1031740002D048F208134EE0019B002B02D148F222
:103184000E1348E0009B002B02D148F20E1342E0DC
:10319400009B1B680393039B002B03D0039BB3F595
:1031A400807F02D948F2071335E00C210398FFF71A
:1031B40039FF02901B4A029B52F8233006931A4AA5
:1031C400029B52F82330079348F2041305931EE040
:1031D4000698FFF75BFF04900698FFF769FF034624
:1031E400002B0DD0002305930698FFF77FFF079B64
:1031F4000E4A1A44019B1A60009B049A1A6009E063
:10320400079A049B13440793069B01330693069B7A
:103214000B2BDDD9059B184609B05DF804FB00BFF4
:1032240070100020709B0400A89B04006C08002010
:1032340000B587B0019000230493019B039303AA74
:1032440004AB11461846FFF789FF0590059B002B38
:1032540001D000230493049B184607B05DF804FBD7
:1032640000B585B00190174B1B7883F00103DBB2E6
:10327400002B20D1019B002B1FD00023029300239D
:10328400039313E0029B104A1344019A9A4203D118
:103294000398FFF7ABFE0CE00398FFF7F7FE024636
:1032A400029B13440293039B01330393039B0B2B55
:1032B400E8D900BF02E000BF00E000BF05B05DF840
:1032C40004FB00BF701000206C08002000B585B01E
:1032D40003460091ADF80630BDF80630ADF808306D
:1032E400009B039302AB1A46002144F20200FEF74E
:1032F40009FE00BF05B05DF804FB10B487B001906F
:103304000091019B009A53E8004F104643E80001E6
:1033140091F0000FF7D1059404900391059B184692
:1033240007B05DF8044B704710B487B0019000916A
:10333400019B009A53E8004F44EA020043E800016D
:1033440091F0000FF6D1059404900391049B184664
:1033540007B05DF8044B704710B487B0019000913A
:10336400019B009A53E8004F04EA020043E800017D
:1033740091F0000FF6D1059404900391059B184633
:1033840007B05DF8044B704710B487B0019000910A
:10339400019B009A53E8004F04EB020043E800014C
:1033A40091F0000FF6D1059404900391049B184604
:1033B40007B05DF8044B704710B487B001900091DA
:1033C400019B009A53E8004FA4EB020043E800017C
:1033D40091F0000FF6D1059404900391049B1846D4
:1033E40007B05DF8044B704700B583B0019001212C
:1033F4000198FFF799FF0346184603B05DF804FBF4
:1034040000B583B0019000210198FFF7A5FF0346A2
:10341400184603B05DF804FB00B583B001900B4679
:103424008DF80330019B002B03D10849E820FFF7F6
:103434004DFF019BDA689DF803300199098A01FB6D
:1034440003F31344184603B05DF804FBC49B040063
:1034540000B583B001900091019B002B03D1084972
:10346400F520FFF733FF009B019AD2689B1A019A5B
:10347400128AB3FBF2F3DBB2184603B05DF804FB27
:10348400C49B040000B585B00190019B002B01D1C1
:103494000E234CE0019B1B68002B03D12649FF201F
:1034A400FFF714FF019B5B68002B04D122494FF402
:1034B4008070FFF70BFF019B9B68002B04D11E4912
:1034C40040F20110FFF702FF019BDB68002B04D1DF
:1034D40019494FF48170FFF7F9FE019B1B8A002BF9
:1034E40004D1154940F20310FFF7F0FE019B9A68DE
:1034F400019B5B68D31A8DF80F30019B1B68019AFE
:1035040052681A6007E0019B1A681368591C11601D
:103514009DF80F201A709DF80F305A1E8DF80F2059
:10352400002BF0D1019B1B6800221A71002318465E
:1035340005B05DF804FB00BFC49B040000B585B072
:103544000190019B002B04D11C494FF49270FFF7AA
:10355400BDFE002303930020FFF7DCFC019B1B68E6
:103564001A68019B5B689A421FD9019B1B681A6801
:10357400013A1A601B681B7819460198FFF74CFF43
:103584000390019B9A68019B1B681B68D31A8DF8F2
:103594000B30019B1B681B799DF80B209A4204D9C0
:1035A400019B1B689DF80B201A710020FFF7C6FCD5
:1035B400039B184605B05DF804FB00BFC49B0400E0
:1035C40010B584B001900091019B002B04D11149E6
:1035D40040F24710FFF77AFE009B002B04D10D49FF
:1035E4004FF4A470FFF772FE009B03930020FFF7D3
:1035F40091FC019B1B681C68621C1A60039901986A
:10360400FFF726FF034623700020FFF797FC00BF57
:1036140004B010BDC49B040000B583B00190019BAD
:10362400002B03D10C493120FFF750FE019B9B680E
:10363400002B0CD0019B5B69019A1069019A1168F7
:10364400019A92689847019B00229A6000E000BFAB
:1036540003B05DF804FB00BF009C04000EB400B589
:1036640084B00190019B002B03D118494220FFF73D
:103674002DFE019B5B69002B03D114494320FFF706
:1036840025FE019B1B68002B03D110494420FFF742
:103694001DFE019B5B68002B03D10C494520FFF7FD
:1036A40015FE059B002B0AD00023039306AB03935E
:1036B40003AB1A460599019800F0B8F900E000BF81
:1036C40004B05DF804EB03B0704700BF009C040035
:1036D40000B583B001900B468DF803309DF803309C
:1036E4000A2B03D10D210198FFF7F2FF019B1A6801
:1036F400019B9B68581C0199886013449DF8032022
:103704001A70019B9A68019B5B689A4202D30198E4
:10371400FFF782FF00BF03B05DF804FB00B587B07C
:10372400039002910192009300230593009B03F000
:103734000103002B24D00BE0029B01330293059B71
:10374400013305939DF8133019460398FFF7C0FF22
:10375400029B1B788DF813309DF81330002BEBD1AE
:1037640006E0019B013B019320210398FFF7B0FF82
:10377400019A059B9A422ED9019B002BF1D12AE094
:10378400029B002B0BD0029808F07BFB059006E00F
:10379400019B013B019320210398FFF799FF019AB4
:1037A400059B9A420FD9019B002BF1D10BE0029BA0
:1037B40001330293059B013305939DF81330194699
:1037C4000398FFF785FF029B1B788DF813309DF853
:1037D4001330002BEBD100BF07B05DF804FB0000F1
:1037E40000B589B00390029101920093029B079364
:1037F4000123069307E0079A019BB2FBF3F30793B7
:10380400069B01330693079A019B9A42F3D2009ACE
:10381400069B9A4201D9009B06930B9B03F001037C
:10382400002B22D10A9B002B1FD00B9B03F0020319
:10383400002B06D0009B002B03D130238DF81730CA
:1038440002E020238DF8173008E00A9B013B0A931D
:103854009DF8173019460398FFF73AFF0A9B002B8F
:1038640003D0069A0A9B9A42EFD301230793009B45
:10387400012B03D9009B013B009309E0029A079BAB
:10388400B2FBF3F30493049A019B9A4200D205E03D
:10389400079B019A02FB03F30793E8E7029A079B4D
:1038A400B2FBF3F30493049B079A02FB03F3029A1B
:1038B400D31A0293154A049B13441B7819460398A0
:1038C400FFF706FF079A019BB2FBF3F30793079BED
:1038D400002BE3D10B9B03F00103002B11D00A9BB7
:1038E400002B0ED006E00A9B013B0A93202103988B
:1038F400FFF7EEFE0A9B002B03D0069A0A9B9A421E
:10390400F1D300BF09B05DF804FB00BF689C04005C
:1039140000B589B00590049103920293049B002B97
:10392400B8BF5B4206930123079307E0039B069A03
:1039340092FBF3F30693079B01330793039B069AC9
:103944009A42F3DA029A079B9A4201D9029B07939F
:103954000A9B002B0AD0049B002B04DB0B9B03F077
:103964000403002B02D00A9B013B0A930B9B03F038
:103974000203002B02D0029B002B16D00B9B03F0FA
:103984000103002B11D10A9B002B0ED006E00A9BE9
:10399400013B0A9320210598FFF79AFE0A9B002B0E
:1039A40003D0079A0A9B9A42F1D3049B002B07DAAF
:1039B400049B5B4204932D210598FFF789FE08E0E0
:1039C4000B9B03F00403002B03D02B210598FFF776
:1039D4007FFE0B9B03F00203002B19D00B9B03F01B
:1039E4000103002B14D1029B002B11D10A9B002B45
:1039F4000ED006E00A9B013B0A9330210598FFF79D
:103A040067FE0A9B002B03D0079A0A9B9A42F1D3C4
:103A140004990B9B01930A9B0093029B039A0598BC
:103A2400FFF7DEFE00BF09B05DF804FB00B58FB000
:103A3400059004910392059B002B04D1C8494FF4CF
:103A4400A270FFF743FC059B5B69002B04D1C449BA
:103A54004FF4A370FFF73AFC059B1B68002B04D1BD
:103A6400BF4940F24710FFF731FC059B5B68002B10
:103A740004D1BB494FF4A470FFF728FC049B002B2E
:103A840000F0ED81049B1B788DF83730049B0133E3
:103A940004939DF83730002B00F0D8819DF837301F
:103AA400252B40F0C78100230A9301230C93049B28
:103AB4001B788DF837309DF837302D2B04D0302B00
:103AC4000AD02B2B10D017E00A9B43F001030A9372
:103AD400049B0133049312E00A9B43F002030A930C
:103AE400049B013304930AE00A9B43F004030A9302
:103AF400049B0133049302E000230C9300BF0C9B4E
:103B0400002BD4D1002309939DF837302A2B0CD1F4
:103B1400039B1B68191D039A11601B68099A1344BF
:103B24000993049B013304931AE0049B1B788DF8DA
:103B340037309DF837302F2B12D99DF83730392B79
:103B44000ED8049B01330493099A13469B00134433
:103B54005B001A469DF837301344303B0993D3E792
:103B640000230B93049B1B788DF837309DF8373076
:103B74002E2B1DD1049B01330493049B1B788DF8D9
:103B840037309DF837302F2B12D99DF83730392B29
:103B94000ED8049B013304930B9A13469B001344E1
:103BA4005B001A469DF837301344303B0B93E4E72F
:103BB400049B1B788DF837309DF837306C2B03D07D
:103BC4009DF83730682B07D1049B01330493049B81
:103BD4001B788DF83730EFE79DF83730253B532BB2
:103BE40000F2238101A252F823F000BF253E000019
:103BF4002F3E00002F3E00002F3E00002F3E00000D
:103C04002F3E00002F3E00002F3E00002F3E0000FC
:103C14002F3E00002F3E00002F3E00002F3E0000EC
:103C24002F3E00002F3E00002F3E00002F3E0000DC
:103C34002F3E00002F3E00002F3E00002F3E0000CC
:103C44002F3E00002F3E00002F3E00002F3E0000BC
:103C54002F3E00002F3E00002F3E00002F3E0000AC
:103C64002F3E00002F3E00002F3E00002F3E00009C
:103C74002F3E00002F3E00002F3E00002F3E00008C
:103C84002F3E00002F3E00002F3E00002F3E00007C
:103C94002F3E00002F3E00002F3E00002F3E00006C
:103CA4002F3E00002F3E00002F3E00002F3E00005C
:103CB4002F3E00002F3E0000B13D00002F3E0000CB
:103CC4002F3E00002F3E00002F3E00002F3E00003C
:103CD4002F3E00002F3E00002F3E00002F3E00002C
:103CE4002F3E0000413D0000693D00002F3E0000D2
:103CF4002F3E00002F3E00002F3E0000693D0000D3
:103D04002F3E00002F3E00002F3E00002F3E0000FB
:103D14002F3E00002F3E0000F13D00002F3E00002A
:103D24002F3E0000D53D00002F3E00008D3D0000D9
:103D34002F3E00002F3E0000B13D0000039B1B6896
:103D4400191D039A11601B680C930C9B8DF823308A
:103D54009DF8233019460598FFF7BAFC66E000BFCA
:103D6400309C0400039B1B68191D039A11601B6897
:103D74000C930A9B0193099B00930B9B0A220C99B9
:103D84000598FFF7C5FD51E0039B1B68191D039AB5
:103D940011601B680C930C990A9B0193099B009377
:103DA4000B9B0A220598FFF71BFD3FE0039B1B6852
:103DB400191D039A11601B680C930C990A9B0193BB
:103DC400099B00930B9B10220598FFF709FD2DE03A
:103DD400039B1B68191D039A11601B6807930A9BB8
:103DE400099A07990598FFF799FC1FE0039B1B6844
:103DF400191D039A11601B680C9330210598FFF775
:103E040067FC78210598FFF763FC0C990023019364
:103E140008230093082310220598FFF7E1FC05E02E
:103E240025210598FFF754FC00E000BF049B0133F3
:103E3400049305E09DF8373019460598FFF748FCD0
:103E4400049B1B78002B7FF41DAE00E000BF059B94
:103E54001B7B002B04D00598FFF7DEFB00E000BFBE
:103E64000FB05DF804FB00BF00B583B0019001986A
:103E7400FFF708FB0346184603B05DF804FB00B5E2
:103E84008BB001900091019B1B8A043B0793009A1D
:103E9400079B1344DA1C079BB2FBF3F38DF81B302A
:103EA4000198FFF74BFB0590059B002B01D10023E4
:103EB40038E0059B00221A71059B01225A71079B69
:103EC4009AB2059BDA80059B09939DF81B30013B50
:103ED4000493099B019A1A60002308931DE001983A
:103EE400FFF72CFB0390039B002B0ED0059B5B7903
:103EF4000133DAB2059B5A71099B039A1A60039B3A
:103F0400019A1A60039B099304E0059800F00EF8E7
:103F1400002307E0089B01330893089A049B9A4204
:103F2400DDD3059B18460BB05DF804FB00B58BB0E0
:103F34000190019B0793079B5B798DF81B30019BD4
:103F440008939DF81B30013B05930023099305E07A
:103F5400089B1B680893099B01330993099A059BE5
:103F64009A42F5D3089B1B680493019B0893002392
:103F740009930BE0089B1B68039308990498FFF7C7
:103F84001FFB039B0893099B013309939DF81B3086
:103F9400099A9A42EED300BF0BB05DF804FB00B55A
:103FA40085B00190019B0393039B043301211846C0
:103FB400FFF7EAF900BF05B05DF804FB00B587B070
:103FC4000190019B0593059B043301211846FFF7DB
:103FD400F3F90346039303AB0493049B1B78002B70
:103FE40002D10198FFF7A2FF00BF07B05DF804FB00
:103FF40000B591B00390029101920093039B002BB2
:1040040003D14349B620FFF761F9039B0993039B4E
:104014000F93099BDB881A46099B5B7903FB02F328
:10402400043B0893009A089B9A4203D33849C4205E
:10403400FFF74CF9099BDB880793009B1A1D079B2C
:10404400B2FBF3F30E93009B0433079AB3FBF2F233
:10405400079901FB02F29B1A0D93019B1A68009BBE
:104064001344089A9A4203D2089A009BD31A01E097
:10407400019B1B680C93019B0C9A1A6005E00F9B33
:104084001B680F930E9B013B0E930E9B002BF6D1E6
:1040940000230B93079A0D9BD31A0A930A9A0C9B3D
:1040A400934228BF13460A932AE0029A0B9B1344B7
:1040B40006930F9A0D9B1344043305939DF84830DF
:1040C400002B05D00A9A0599069807F035FE04E0FE
:1040D4000A9A0699059807F02FFE00230D930F9B6B
:1040E4001B680F930C9A0A9BD31A0C930B9A0A9B86
:1040F40013440B93079A0C9B934228BF13460A93CD
:104104000C9B002BD1D100BF11B05DF804FB00BFA4
:10411400789C040000B589B0059004910392029341
:10412400039B079307AA00230093029B0499059815
:10413400FFF75EFF079B039A9A4203D00349F620D8
:10414400FFF7C4F800BF09B05DF804FB789C0400D5
:1041540000B589B00590049103920293039B0793E1
:1041640007AA01230093029B04990598FFF740FFD7
:10417400079B039A9A4204D004494FF48070FFF7D6
:10418400A5F800BF09B05DF804FB00BF789C0400EB
:1041940082B00190019B9B6800229A60019B9B68FE
:1041A40000221A61019B9B6800225A61019B9B6853
:1041B4000022DA60019B9B6800225A60019B9B6885
:1041C40000221A6000BF02B07047000000B585B03D
:1041D4000190019800F00EF80390039B002B01D08E
:1041E400039B00E0024B184605B05DF804FB00BFDA
:1041F4008C9D040086B00190164B0593164B0493D6
:104204001FE0049A059BD31ADB10DA0F13445B10EA
:10421400DB00059A13440393039B1B680293029AE1
:10422400019B9A4202D9039B04930AE0029A019BE0
:104234009A4203D2039B0833059302E0039B5B6815
:1042440004E0059A049B9A42DBD30023184606B087
:10425400704700BF60A1040078A204004FF08043BF
:10426400D3F818341B0C03F00103002B14BF0123F3
:104274000023DBB21846704782B003468DF807303E
:104284004FF08043D3F80C3403F001129DF807304B
:1042940043F480339A420CBF01230023DBB2184657
:1042A40002B0704708B50120FFF7E6FF0346184641
:1042B40008BD08B5FFF7D2FF0346184608BD000045
:1042C40008B500F0E1FB024B00229A7000BF08BD64
:1042D4007410002008B500F0EFFB00BF08BD00001B
:1042E40008B500F003FC024B00225A7000BF08BD61
:1042F4007410002000B583B000230193104B1B7889
:10430400002B02D08523019314E00D4B00229A6008
:104314000B4B00225A600A4B00221A61084B002200
:10432400DA60084800F05CFB019000F07FFB044B6E
:1043340001221A70019B184603B05DF804FB00BF0C
:10434400741000202546000084B001900091019B68
:104354001B68039306E0039A009B9A420DD0039BCB
:104364001B680393039B002BF5D1019B1A68009BE8
:104374001A60019B009A1A6000E000BF04B0704705
:1043840084B00190019B1B680393039B002B03D013
:10439400039B1A68019B1A60039B184604B070477C
:1043A40000B583B00190224B1B78002B03D1214927
:1043B400E920FEF78BFF1E4B9B78DBB2002B12D05B
:1043C400019B002B03D0019B5B68012098470020D0
:1043D400FEF7A0FD164BDB680133154AD3600020BD
:1043E400FEF7ACFD17E00020FEF794FD019B002BC7
:1043F40003D001991048FFF7A7FF0D4BDB68002B92
:1044040001D100F027FB0A4BDB680133084AD36073
:104414000020FEF793FD064BDB68002B04D1054911
:1044240040F20510FEF752FF00BF03B05DF804FB35
:104434007410002080A204008410002008B5124BE0
:104444001B78002B04D111494FF48570FEF73EFF11
:104454000D4BDB68002B04D10C4940F20B10FEF726
:1044640035FF0020FEF756FD074BDB68013B064A8B
:10447400D360054BDB68002B01D1FFF721FF00203F
:10448400FEF75CFD00BF08BD7410002080A204008C
:1044940008B5074B1B78002B04D106494FF48C70E8
:1044A400FEF714FFFFF705FF0346184608BD00BFDB
:1044B4007410002080A2040000B583B00190234B47
:1044C4001B78002B04D122494FF49370FEF7FEFEB3
:1044D4001E4B5B78DBB2002B12D0019B002B03D068
:1044E400019B5B68002098470020FEF713FD174BE3
:1044F4005B680133154A53600020FEF71FFD17E087
:104504000020FEF707FD019B002B03D00199114801
:10451400FFF71AFF0D4B5B68002B01D1FFF7DAFEA2
:104524000A4B5B680133094A53600020FEF706FD1D
:10453400064B5B68002B04D105494FF4A170FEF7CC
:10454400C5FE00BF03B05DF804FB00BF741000207B
:1045540080A204007C10002008B5124B1B78002BAD
:1045640004D1114940F24710FEF7B0FE0D4B5B68D1
:10457400002B04D10C494FF4A470FEF7A7FE0020D1
:10458400FEF7C8FC074B5B68013B064A5360054BCA
:104594005B68002B01D1FFF7A3FE0020FEF7CEFCE1
:1045A40000BF08BD7410002080A2040008B5074BAA
:1045B4001B78002B04D1064940F25510FEF786FE05
:1045C400FFF770FE0346184608BD00BF74100020B4
:1045D40080A2040000B585B003468DF807309DF82D
:1045E4000730002B02D10C4B039301E00B4B0393D8
:1045F4000398FFF7C5FE0290029B002B06D0029B96
:104604005B689DF8072010469847F1E700BF00BF9C
:1046140005B05DF804FB00BF7C100020841000206E
:1046240000B583B003468DF807309DF80730002BA2
:1046340005D10A4B01225A700020FFF7CBFF9DF8E9
:104644000730012B05D1054B01229A700120FFF799
:10465400C1FF00BF03B05DF804FB00BF741000206D
:1046640000BF034BD3F80034002BFAD000BF7047CF
:1046740000E0014000B583B001900D4B0222C3F865
:104684000425BFF36F8FBFF34F8F094A019BC2F814
:104694000835FFF7E5FF064B0022C3F80425BFF3F6
:1046A4006F8FBFF34F8F00BF03B05DF804FB00BFF3
:1046B40000E0014000B587B001900B468DF803304F
:1046C400019B03F003030593059BDB43019A13400D
:1046D4000493049B1A68059BDB00FF2101FA03F392
:1046E400DB43134003939DF80320059BDB0002FA90
:1046F40003F3039A134403930C4B0122C3F80425D8
:10470400BFF36F8FBFF34F8F049B039A1A60FFF7B9
:10471400A7FF064B0022C3F80425BFF36F8FBFF336
:104724004F8F00BF07B05DF804FB00BF00E00140FD
:1047340000B587B0039002910192002305930CE029
:10474400039A059BD018029A059B13441B781946BB
:10475400FFF7B0FF059B01330593059A019B9A422D
:10476400EED300BF07B05DF804FB000082B003463F
:104774008DF807309DF8073003F01F0205499DF9B5
:1047840007305B09012000FA02F241F8232000BF40
:1047940002B0704700E100E082B0034600918DF85A
:1047A40007309DF90730002B0CDA009BDAB20C4974
:1047B4009DF8073003F00F03043B5201D2B20B44BF
:1047C4001A7609E0009BDAB206499DF907305201D6
:1047D400D2B20B4483F8002300BF02B0704700BF7D
:1047E40000ED00E000E100E082B00190019B1B0BB2
:1047F4005BB2184602B0704700B583B003460A4660
:104804008DF8073013468DF806309DF80630072BD7
:1048140003D908496B20FEF759FD9DF806209DF940
:10482400073011461846FFF7B7FF00BF03B05DF825
:1048340004FB00BFBCA2040000B583B003468DF89E
:1048440007309DF907301846FFF790FF00BF03B00B
:104854005DF804FB82B003468DF807300F4A9DF9DA
:104864000730002B00DA1F335B115BB252F82320B0
:104874009DF90730594203F01F0301F01F0158BF8F
:104884004B425BB222FA03F303F00103002B14BF83
:1048940001230023DBB2184602B0704700E100E0B8
:1048A40082B001904FF08042019BC2F8043300BFF4
:1048B40002B0704782B001904FF08042019BC2F871
:1048C400083300BF02B0704782B003468DF807304A
:1048D4009DF8073003F1804301221A6000BF02B043
:1048E400704784B00346ADF80630BDF8063003F1D6
:1048F400804300221A60BDF8063003F180431B6830
:104904000393039B00BF04B0704782B00346ADF825
:104914000630BDF8063003F180431B68002B14BF3A
:1049240001230023DBB2184602B0704782B0019025
:104934004FF08042019BC2F8183500BF02B07047A7
:104944004FF08043D3F818341B0C03F00103002B01
:1049540014BF01230023DBB21846704782B003461C
:104964008DF807304FF08043D3F80C3403F0011274
:104974009DF8073043F480339A420CBF012300238F
:10498400DBB2184602B0704700B583B006238DF839
:1049940007304FF08040FFF727FF03461846FFF724
:1049A40059FF034683F00103DBB2002B13D04FF011
:1049B4008040FFF719FF03461A469DF80730194651
:1049C4001046FFF719FF4FF08040FFF70DFF034635
:1049D4001846FFF731FF00BF03B05DF804FB000089
:1049E40000B585B00190019B002B03D10D49A02097
:1049F400FEF76CFC002303930B4B1B79002B02D0B6
:104A04008523039308E0084A019B1360064B0122A7
:104A14001A71054B00225A71039B184605B05DF8C4
:104A240004FB00BFF4A204008810002008B5074B63
:104A34001B79002B03D10649B920FEF747FCFFF789
:104A4400A3FF0120FFF772FF00BF08BD88100020FC
:104A5400F4A2040008B50A4B1B79002B03D10949C1
:104A6400E620FEF733FC4FF48270FFF73AFF022092
:104A7400FFF716FF0820FFF727FF00BF08BD00BFA0
:104A840088100020F4A2040008B5094B1B79002B00
:104A940003D10849F320FEF719FC0C20FFF714FF9B
:104AA40000BFFFF74DFF0346002BFAD100BF08BD3E
:104AB40088100020F4A2040008B50A4B1B79002BCF
:104AC40003D10949FB20FEF701FC4FF48070FFF786
:104AD40008FF0120FFF7E4FE0020FFF7F5FE00BF0A
:104AE40008BD00BF88100020F4A2040008B50C4BD8
:104AF4001B79002B04D10B4940F20310FEF7E6FBAF
:104B04000420FFF7E1FE00BF0120FFF727FF034663
:104B1400002BF9D1024B00225A7100BF08BD00BF1F
:104B240088100020F4A2040008B54FF48070FFF749
:104B3400ECFE0346002B14D04FF48070FFF7D1FE37
:104B44000120FFF7B7FE114B5B7983F00103DBB261
:104B5400002B06D00D4B01225A710C4B1B68002010
:104B640098474FF48270FFF7D0FE0346002B0AD01B
:104B74004FF48270FFF7B5FE0220FFF79BFE034B54
:104B84001B680120984700BF08BD00BF88100020A3
:104B940082B003468DF807309DF8073003F01F02FA
:104BA40005499DF907305B09012000FA02F241F83A
:104BB400232000BF02B0704700E100E082B003464A
:104BC40000918DF807309DF90730002B0CDA009B1B
:104BD400DAB20C499DF8073003F00F03043B52018D
:104BE400D2B20B441A7609E0009BDAB206499DF969
:104BF40007305201D2B20B4483F8002300BF02B045
:104C0400704700BF00ED00E000E100E000B583B0B4
:104C140003460A468DF8073013468DF806309DF892
:104C24000630072B03D908496B20FEF74FFB9DF88C
:104C340006209DF9073011461846FFF7BFFF00BF55
:104C440003B05DF804FB00BF2CA3040000B583B0DF
:104C540003468DF807309DF907301846FFF798FF93
:104C640000BF03B05DF804FB00B583B00346ADF8A4
:104C74000630BDF80630184600F026F803461B68D7
:104C8400012B0CBF01230023DBB2184603B05DF8EF
:104C940004FB00B585B00346ADF80630BDF8063018
:104CA400184600F011F803461A4600231360BDF8B5
:104CB4000630184600F008F803461B680393039B6C
:104CC40000BF05B05DF804FB82B00346ADF80630C2
:104CD400BDF8063003F1804303F5C043184602B023
:104CE4007047000082B00190034A019BC2F804336C
:104CF40000BF02B0704700BF0060004082B0019066
:104D0400034BD3F80423019B1340184602B07047A9
:104D14000060004082B00190084A019B03F5A27331
:104D240052F82330054943F00102019B03F5A273B5
:104D340041F8232000BF02B0704700BF006000406C
:104D440084B00390029113468DF80730144A039BF4
:104D540003F5A27352F82330114923F44F3323F49B
:104D64004073039A02F5A27241F822300C4A039B65
:104D740003F5A27352F82320029B1B0203F47C5117
:104D84009DF807301B0403F440330B4304491A43D2
:104D9400039B03F5A27341F8232000BF04B07047BE
:104DA4000060004082B00190054A019B03F5A273A4
:104DB40052F823301B0A03F03F03184602B0704731
:104DC4000060004082B00190064A019B03F5A27383
:104DD40052F823301B0C03F00303DBB2184602B075
:104DE400704700BF0060004000B583B00190019B94
:104DF4001B682F2B04D90B494FF4F370FEF766FAA6
:104E0400019B1B681F2B02D84FF0A04306E0019BB7
:104E14001B6803F01F02019B1A60034B184603B082
:104E24005DF804FB5CA304000003005000B585B0EA
:104E34000190084611461A4603468DF803300B4686
:104E44008DF8023013468DF8013001AB1846FFF798
:104E5400CBFF03909DF803209DF802305B001A43BA
:104E64009DF801309B001A439DF818301B0242EA5A
:104E740003019DF81C301B04019A1943039B02F59E
:104E8400E07243F8221000BF05B05DF804FB00B5E2
:104E940085B003900B468DF80B309DF80B20002352
:104EA4000193002300931346002200210398FFF787
:104EB400BDFF00BF05B05DF804FB00B585B00190EF
:104EC40001AB1846FFF790FF0390019A039B02F58C
:104ED400E07253F8223023F002030293019A039BF9
:104EE40002F5E072029943F8221000BF05B05DF8A4
:104EF40004FB00B585B001900B468DF8033001AB7F
:104F04001846FFF771FF0390019A039B02F5E072C4
:104F140053F82230019A23F44031039B02F5E072E6
:104F240043F82210019A039B02F5E07253F82230F1
:104F34009DF8032012041146019A1943039B02F5BC
:104F4400E07243F8221000BF05B05DF804FB00B521
:104F540085B0019001AB1846FFF746FF0390039814
:104F640000F020F80246019B22FA03F303F0010348
:104F7400184605B05DF804FB00B585B0019001AB9F
:104F84001846FFF731FF0390019A039B02F5E07284
:104F940053F822301B0C03F00303DBB2184605B0B0
:104FA4005DF804FB82B00190019BD3F810351846DC
:104FB40002B0704700B589B0039002910192174A7C
:104FC40005AB92E8030083E80300039A029B1344B1
:104FD400022B04D9124940F21630FEF777F9039BED
:104FE400079311E0079B9B0008AA134453F80C3C59
:104FF4001846FFF7D7FF0246019B1A60019B043352
:105004000193079B01330793039A029B1344079A66
:105014009A42E7D300BF09B05DF804FB8CA30400F7
:105024005CA3040084B001900091009B0393019B56
:10503400DB080293019B03F0070301930122019B08
:1050440002FA03F30399029A0A44127813401846A9
:1050540004B0704784B001900091009B0393019BBE
:10506400DB080293019B03F007030193039A029B5D
:1050740013441B785AB20121019B01FA03F35BB27A
:10508400134359B2039A029B1344CAB21A7000BF65
:1050940004B0704782B001900C4A019B1344303332
:1050A40093F90030002B09DB084A019B1344303389
:1050B40093F90030072B01DC012300E0002303F007
:1050C4000103DBB2184602B0704700BF9010002005
:1050D40082B00190064A019B1344303393F90030A7
:1050E400072BCCBF01230023DBB2184602B0704764
:1050F4009010002082B00190064A019B1344303383
:1051040093F90030DB43DBB2DB09DBB2184602B0B3
:10511400704700BF9010002084B003900291019268
:105124008DF80330029B59B20E4A039B134430336B
:105134000A461A700B49029B019A41F823209DF8F4
:10514400033083F00103DBB2002B08D0029B083B41
:10515400039A51B2034A13440A4683F8602000BFFD
:1051640004B070479010002082B00190044A019B63
:1051740013443033FF221A7000BF02B0704700BFDF
:105184009010002000B583B0019004490198FFF706
:1051940061FF00BF03B05DF804FB00BFF410002002
:1051A40082B00190044A019B1344303393F90030D8
:1051B400184602B0704700BF9010002082B00190E2
:1051C400034A019B52F82330184602B0704700BFCF
:1051D4009010002000B589B00390029113468DF819
:1051E4000730FF238DF81F309DF80730002B01D0C6
:1051F400002300E0082305939DF80730002B01D01D
:10520400082300E00C230493059B069314E00F4A43
:10521400069B52F82330B3F1FF3F0AD19DF80730C3
:10522400029A06990398FFF777FF069B8DF81F30C3
:1052340006E0069B01330693069A049B9A42E6D342
:105244009DF91F30184609B05DF804FB901000204A
:1052540082B003468DF807309DF80730094A4FF0B5
:10526400FF3142F823109DF80730072B07D99DF82A
:105274000730083B034A1344FF2283F8602000BF31
:1052840002B070479010002000B583B0254B93F80E
:105294006A30002B03D008230093009B3EE00023D8
:1052A4008DF8073009E09DF807301846FFF75CFFDA
:1052B4009DF8073001338DF807309DF807302F2B08
:1052C400F1D900238DF8073009E09DF8073018461E
:1052D400FFF7BEFF9DF8073001338DF807309DF8C6
:1052E40007300B2BF1D9062200210F4806F04DFDA3
:1052F40006210620FFF78AFC0620FFF7A7FC4FF4DF
:10530400BE70FFF7C6FC4FF00040FFF7EBFC054B07
:10531400012283F86A2000230093009B184603B0FF
:105324005DF804FB90100020F4100020044B93F867
:105334006A30002B14BF01230023DBB218467047E8
:105344009010002000B587B0039002910192039B56
:105354002F2B04D9364940F20720FDF7B7FF00236D
:1053640005930398FFF7C6FE0346002B02D00823DB
:10537400059357E0029B9B78C3F34003DBB21A46C4
:1053840001990398FFF726FF03468DF813309DF922
:105394001330B3F1FF3F43D0029B9B78C3F38003E8
:1053A400DBB283F00103DBB2002B13D0029B9B78AA
:1053B40003F00103DBB2002B03D00398FFF77DFD5C
:1053C40005E0029B5B7819460398FFF760FD03989C
:1053D400FFF7D8FE029B9B7803F00203DBB2002B9D
:1053E40008D09DF91300029B1B781A460399FFF716
:1053F400A7FC17E09DF91330083B0E4A134493F9B8
:105404006010029B1B789B015AB29DF91330083B34
:105414000A4351B2074A13440A4683F8602001E064
:1054240004230593059B184607B05DF804FB00BFF1
:105434009CA304009010002000B587B001900B4697
:105444008DF80330019B2F2B04D93D4940F23720BE
:10545400FDF73CFF0198FFF74DFE0346002B04D1F6
:1054640037494FF40E70FDF731FF0198FFF730FE16
:105474000346002B2FD00198FFF792FE0346083B0A
:10548400304A134493F960308DF816309DF8163085
:105494009B098DF815309DF81530032B0BD101981D
:1054A400FFF755FD0346002B01D0032300E0022340
:1054B4008DF8173008E09DF81530012B01D1022337
:1054C40000E003238DF817309DF817301946019832
:1054D400FFF70FFD30E00198FFF7DCFD0346002BDA
:1054E4002AD00198FFF75CFE03460493049B9BB209
:1054F40040339BB29B00ADF80E30049B1846FFF777
:1055040009FCBDF80E301846FFF7C3FB9DF80330C5
:10551400002B11D00198FFF743FE03461846FFF70E
:105524004DFE0290029B002B06D00122049B02FA3E
:1055340003F31846FFF7D6FB00BF07B05DF804FB82
:105544009CA304009010002000B583B00190019B3F
:105554002F2B04D908494FF42270FDF7B7FE0198A8
:10556400FFF7F5FC0346002B14BF01230023DBB235
:10557400184603B05DF804FB9CA3040000B599B081
:105584000023149306AB00221A605A604FF4807310
:10559400ADF84A30012316930023139321E0BDF89C
:1055A4004A301846FFF760FB0346002B0ED01698CE
:1055B400FFF7A4FB0346002B08D0BDF84A30184679
:1055C400FFF767FB149A169B13431493169B5B0017
:1055D4001693BDF84A300433ADF84A30139B0133B7
:1055E4001393139B072BDAD94FF4BE70FFF73CFBE0
:1055F4000346002B0DD04FF4BE70FFF74AFB149BFB
:1056040043F00043149306AB1A4602210020FFF72F
:10561400D1FC149BDBB2002B29D001231693002369
:10562400139321E0169A149B1340002B16D0139861
:10563400FFF7B8FB11901398FFF7C4FB03468DF8EE
:1056440043301398FFF7BAFD0F900F9B002B05D042
:105654009DF843200F9B114611989847169B5B00B9
:105664001693139B01331393139B072BDAD9149BC3
:10567400002B80F2F08000238DF85F3004AB002211
:105684001A605A60002315930AE0159B9B0018AA20
:1056940013444FF0FF3243F8582C159B01331593F4
:1056A400159B012BF1D900238DF85F300023139350
:1056B40078E06B4A139B1344603393F900308DF800
:1056C4003B309DF83B3023F0C0030D93644A139B99
:1056D4001344603393F90030B3F1FF3F5FD002AB62
:1056E40019460D98FFF79EFC0346002B57D09DF8F2
:1056F4003B309B098DF833300D98FFF751FD03467D
:105704001846FFF75BFD0B900B9B002B03D19DF814
:105714003330032B43D19DF83330032B04D104AB36
:1057240019460D98FFF796FC0D98FFF725FC0346E4
:105734008DF82B3006AB19460D98FFF773FC0990D2
:10574400099B002B03D09DF82B30022B06D0099B1C
:10575400002B24D19DF82B30032B20D19DF833301E
:10576400032B13D19DF82B30022B01D1032300E02E
:1057740002238DF823309DF8233019460D98FFF746
:10578400B8FB9DF85F3001338DF85F300B9B002B25
:1057940005D09DF833200B9B11460D989847139B19
:1057A40001331393139B032B83D99DF85F30002B94
:1057B4004CD001238DF85E306B461A46022100203E
:1057C400FFF7F8FB0023159314E0159B9B0018AA20
:1057D400134453F8602C159B9B0018A90B4453F8F1
:1057E400483C9A4203D000238DF85E3005E0159BB7
:1057F40001331593159B012BE7D99DF85E30002BDF
:1058040003D000238DF85F3020E0002315931AE0C5
:10581400159B9B0018AA134453F8602C159B9B00FE
:1058240018A90B4443F8482C159B9B0018AA134451
:1058340053F8502C159B9B0018A90B4443F8582C83
:10584400159B01331593159B012BE1D99DF85F300E
:10585400002B7FF428AF00BF19B05DF804FB00BF34
:105864009010002082B003468DF807309DF8073071
:1058740003F01F0205499DF907305B09012000FA76
:1058840002F241F8232000BF02B0704700E100E0BB
:1058940082B0034600918DF807309DF90730002B44
:1058A4000CDA009BDAB20C499DF8073003F00F03C1
:1058B400043B5201D2B20B441A7609E0009BDAB2DF
:1058C40006499DF907305201D2B20B4483F80023F4
:1058D40000BF02B0704700BF00ED00E000E100E04F
:1058E40082B00190019B1B0B5BB2184602B070475B
:1058F40000B583B003460A468DF8073013468DF889
:1059040006309DF80630072B03D908496B20FDF7B4
:10591400DDFC9DF806209DF9073011461846FFF777
:10592400B7FF00BF03B05DF804FB00BFD4A30400BD
:1059340000B583B003468DF807309DF9073018464B
:10594400FFF790FF00BF03B05DF804FB82B0019045
:105954000B468DF803309DF80330019A134401225D
:105964001A6000BF02B0704784B001900B46ADF8D6
:105974000230BDF80230019A134400221A60BDF8C7
:105984000230019A13441B680393039B00BF04B0C5
:10599400704782B001900B46ADF80230BDF802307A
:1059A400019A13441B68002B14BF01230023DBB2AC
:1059B400184602B0704782B001900091019BD3F861
:1059C4000423009B1340002B14BF01230023DBB2EC
:1059D400184602B0704782B001900B468DF8033030
:1059E400019BD3F8043523F003029DF8033003F040
:1059F40003031A43019BC3F8042500BF02B0704798
:105A040082B001900B468DF80330019BD3F8083522
:105A140023F003029DF8033003F003031A43019BB0
:105A2400C3F8082500BF02B0704782B001900B464E
:105A34008DF80330019BD3F8103523F00F029DF845
:105A4400033003F00F031A43019BC3F8102500BF72
:105A540002B0704782B001900B468DF803309DF878
:105A64000320019B02F5A87253F82230184602B0B5
:105A7400704782B00190019BDBB21033DBB29B0014
:105A8400DBB2184602B0704782B00190019B9BB212
:105A940050339BB29B009BB2184602B0704782B051
:105AA40001904FF48032019B02FA03F3184602B0CE
:105AB4007047000010B588B0039002910192039BD7
:105AC4001B791A4613465B0013449B00704A134427
:105AD4000793029B002B03D16E494A20FDF7F6FB86
