:100000000000042079030000610300006303000086
:1000100065030000670300006903000000000000A2
:100020000000000000000000000000006B03000062
:100030006D030000000000006F030000710300006A
:10004000D134000095E700002DD3000073030000B9
:10005000514F000073030000D93E000073030000FD
:10006000E5420000FD42000015430000730300005C
:1000700073030000ADD2000073030000730300009F
:1000800073030000A5210000730300007303000048
:10009000E5210000730300007303000073030000F8
:1000A0007303000073030000730300007303000078
:1000B00061750000730300000000000000000000F4
:1000C000730300007975000091750000B5590000B8
:1000D00091D000007303000073030000730300005D
:1000E0007303000073030000F50601000000000028
:1000F00000000000A9750000000000000D51000084
:1001000000000000000000000000000000000000EF
:1001100000000000000000000000000000000000DF
:1001200000000000000000000000000000000000CF
:1001300000000000000000000000000000000000BF
:1001400000000000000000000000000000000000AF
:10015000000000000000000000000000000000009F
:10016000000000000000000000000000000000008F
:10017000000000000000000000000000000000007F
:10018000000000000000000000000000000000006F
:10019000000000000000000000000000000000005F
:1001A000000000000000000000000000000000004F
:1001B000000000000000000000000000000000003F
:1001C000000000000000000000000000000000002F
:1001D000000000000000000000000000000000001F
:1001E000000000000000000000000000000000000F
:1001F00000000000000000000000000000000000FF
:10020000364937480A1A02D0072291438D463549AC
:1002100035480A1A06D00722914381F30988022241
:1002200082F3148831483249324A00F045F83248A6
:100230003249334A00F040F832483349334A00F03B
:100240003BF833483349344A00F036F833483449F0
:10025000344A00F031F834483449354A00F02CF87B
:1002600034483549354A00F027F8354835490022E9
:1002700000F02DF834483549002200F028F83448C1
:100280003449091A082903DB0022026004300160A6
:10029000314A90471F482049884205D002680430FF
:1002A00003B4904703BCF7E700208646EC460020E5
:1002B00000212A4A9047FEE7884207D0521A05D00B
:1002C000037801300B700131013AF9D1704788424F
:1002D00002D002700130FAE77047000000000420ED
:1002E00000E0032000000420000004201C30010076
:1002F0000000002044030020D8030000D8030000C1
:10030000340701001C300100000000200000002024
:10031000B0070100B0070100B0070100B0070100FD
:10032000B0070100B0070100B0070100B0070100ED
:100330001B3001006033010044030020440300200F
:1003400044030020C4280020C4280020C428002022
:10035000C4280020C4280020A1030000F3150000D9
:10036000FEE7FEE7FEE7FEE7FEE7FEE7FEE7FEE765
:10037000FEE7FEE7704700BF1048804710484FF087
:100380000701884385460F4880470F48016841F4BC
:1003900070010160BFF34F8FBFF36F8FFFF730BF66
:1003A0000A480B490B4A884207D0521A05D00378F5
:1003B00001300B700131013AF9D17047750300002B
:1003C00000000420B55C000088ED00E0B0070100EB
:0803D0000000002000000020E5
:1003D80000B585B00190019B002B0AD0074B43F074
:1003E80001030393019B9B010293039B0298984787
:1003F80000E000BF05B05DF804FB00BFC0070100C6
:1004080000B583B00190019B002B0AD04FF47A709D
:10041800FFF7DEFF019B013B0193019B002BF5D108
:1004280000E000BF03B05DF804FB08B505F01CFC54
:1004380000BF08BD00B589B0039002910192019BED
:10044800002B33D00023079303230693029A079BBC
:100458001344019A1946002005F0B8FB0590079A45
:10046800059B13440793019A059BD31A0193059B97
:10047800002B13D10F4B1B7883F00103DBB2002B49
:1004880013D10120FFF7BCFF069B013B0693069B97
:10049800002B03D1074B00221A7007E0054B0122FD
:1004A8001A70019B002BD1D100E000BF00BF09B03A
:1004B8005DF804FB4403002000B585B00390029169
:1004C800054B00934023054A0299039800F012F85F
:1004D80000BF05B05DF804FB3D04000048030020A0
:1004E80082B0019000BF02B0704782B0019000BF97
:1004F80002B0704700B5A1B0059004910392029331
:10050800049802F048FD039B1593029B1693002361
:10051800179300238DF8603000231993229B1A93B8
:1005280000231F930FA91F9B0822049802F00CFEBA
:1005380008231F93119B1293BDF84030ADF84C303F
:10054800BDF84230ADF84E3000238DF851309DF89B
:100558003C3003F00303DBB2012B26D10F9BC3F31E
:1005680095231C939DF83C30C3F3C203DBB28DF88E
:100578005030BDF83C30C3F38313DBB21B931B9B95
:100588009A0009A91F9B049802F0DEFD1B9B9B00A3
:100598001F9A13441F9312AA09A915AB0093134677
:1005A8001B9A1C9800F0DAFE2FE09DF83C3003F00F
:1005B8000303DBB2022B28D1BDF83E30C3F3891305
:1005C8009BB21E939DF83C30C3F3C203DBB28DF897
:1005D80050301E9B082B28BF08231D9307A91F9B7B
:1005E8001D9A049802F0B0FD1F9A1D9B13441F9397
:1005F8001E9A1D9BD31A1E9315AB12AA07A81D9904
:1006080000F04EFF1E9B002BE3D1049802F0D2FCB1
:1006180000BF21B05DF804FB82B00190019BDB684C
:1006280001225A7100BF02B07047000000B583B0C4
:100638004FF0FF330193FFF7F8FE0421084800F05C
:10064800A9FD0190019B002B03DA0649412001F026
:1006580039FE0348FFF7E0FF00BF03B05DF804FB75
:100668008C070100D807010000B583B00190009104
:10067800019B1B681B6800990198984700BF03B04D
:100688005DF804FB00B583B00190019B1B685B68B3
:100698000198984700BF03B05DF804FB00B583B02C
:1006A8000190019B1B689B680198984700BF03B0A5
:1006B8005DF804FB82B001900B468DF80330019B76
:1006C800DB689DF803201A7100BF02B0704782B042
:1006D8000190019BDB681B79184602B0704782B015
:1006E8000190019BDB6801225A7100BF02B070477C
:1006F80082B00190019BDB685B79184602B07047B5
:1007080000B585B001900091154BFF229A60144BFB
:1007180000221A60124B00225A60114B0022C3F8C3
:1007280018240F4B0022C3F814240D4B002283F821
:1007380020240C4802F094FB0390039B002B01D06B
:10074800039B08E0084802F01FFD084A084BD31A2B
:10075800DB0802930023184605B05DF804FB00BFD0
:10076800F00400209C070100240801008C07010008
:1007780034070100024A034BD31ADB0818467047B6
:100788008C0701003407010000B587B001900B46C3
:100798008DF803309DF80330002B1FD0FFF7EAFFD8
:1007A80004900023059313E0059B9B000E4A134415
:1007B8000393039B1B881A46019B1B689A4204D12A
:1007C800019B059A1A60002309E0059B01330593F4
:1007D800059A049B9A42E7D3052300E000231846B4
:1007E80007B05DF804FB00BF0000002000B585B02D
:1007F80001900B468DF803309DF8032001AB11469C
:100808001846FFF7C1FF0346002B07D1019BDB0009
:10081800054A13440393039B1B6800E00023184612
:1008280005B05DF804FB00BF3407010084B00190F7
:100838000B468DF80330019BDB00174A13440293E3
:100848009DF80330013B032B1CD801A252F823F07A
:10085800690800007108000079080000830800009A
:1008680002238DF80F3011E004238DF80F300DE0CE
:10087800029B1B798DF80F3008E0029B5B798DF89D
:100888000F3003E000238DF80F3000BF9DF80F30C4
:10089800184604B0704700BF3407010084B00190C7
:1008A800009100238DF80F30019B1B7803F004039F
:1008B800DBB2002B24D0019B1B78C3F30103DBB20E
:1008C800012B02D0022B0CD017E0009B1B68019A69
:1008D8001288C2F38312D2B213449A1C009B1A6086
:1008E8000BE0009B1B68019A5288C2F3891292B2EE
:1008F80013449A1C009B1A6000BF01238DF80F3027
:100908009DF80F30184604B07047000000B58BB052
:100918000023ADF826303E4801F062FD3D4801F065
:100928005FFD3D4B5B6804933B4B9B680693049AC1
:10093800069B134002339B00374A13440433089341
:1009480004AB19460898FFF7A9FF0346002B09D006
:10095800049A069B134002339B002F4A1344043326
:100968000893EDE700BF0023079311E0049B5A1C8E
:100978000492069A1340079A920001A90A4426494C
:1009880002339B000B445B681360079B013307939A
:10099800079B012BEAD99DF80430C3F30103DBB2AE
:1009A800012B10D0022B1CD1BDF80A30ADF826302F
:1009B800BDF80630C3F389139BB203339A08049B2E
:1009C8001344049313E0BDF80A30ADF82630BDF89F
:1009D8000430C3F38313DBB21A46049B1344049315
:1009E80005E00E494FF4BF7001F06CFC00BF0948E8
:1009F80001F002FD0590059B002B02D0049B064ADE
:100A08005360BDF8263018460BB05DF804FB00BFF4
:100A18000809002004090020F0040020340801001F
:100A280000B585B00021074801F063FC0390039BE3
:100A38000293029B83F310030193019B184605B0B0
:100A48005DF804FB0C09002000B589B00390029101
:100A580001920093039B1B0C0793FFF7E1FF06909D
:100A6800FFF788FE0246079B934204D3214940F2D0
:100A7800A31001F027FC069B1904009B5A1C0A9B33
:100A88001340079A0A431C4902339B000B445A60DF
:100A9800009A0A9B134002339B00174A13440433FD
:100AA8000593039B03F00703D9B2059A137861F302
:100AB800C5031370019B03F00F03D9B2059A13887D
:100AC80061F389131380029BC3F31501059A136818
:100AD80061F39F231360059A1378012161F30103E1
:100AE8001370059A13786FF38203137000BF09B06F
:100AF8005DF804FB34080100F004002000B58BB059
:100B08000390029113468DF80730039B0233089334
:100B180001238DF81F30002001F07EFB3E4B1A6840
:100B2800029B1A603C4B9A683B4B59683A4B1B68CE
:100B3800CB1A13440133099314E00121374801F01B
:100B48001FFCFFF7E3FE05900599344801F018FCF7
:100B5800314B9A68304B59682F4B1B68CB1A13449A
:100B680001330993089A099B9A42E6D89DF81F30E9
:100B7800002B48D0002304939DF80730002B17D092
:100B88009DF81030012262F301038DF810309DF8B2
:100B9800103043F004038DF81030039B03F00F036B
:100BA800DAB2BDF8103062F38913ADF8103016E0F0
:100BB8009DF81030022262F301038DF810309DF881
:100BC800103043F004038DF81030039BC3F309037E
:100BD8009AB2BDF8123062F38F13ADF812300E4B93
:100BE8001A680D4B9B68134002339B000A4A134452
:100BF80004330693049A069B1A60074B1A68089BED
:100C08001344054A1360002001F01AFB9DF81F30B9
:100C180018460BB05DF804FBF00400200C09002016
:100C280000B58BB005900491039202931F4B9B680B
:100C3800079306AB012219460298FFF75FFF0346A8
:100C4800002B24D0069B023309930023089311E05C
:100C5800089B9B00039A1A44099B591C0991079900
:100C68000B401268114902339B000B445A60089BE1
:100C780001330893089A029B9A42E9D3069A079B84
:100C880000931346029A04990598FFF7DDFE074B77
:100C980093F82034002B05D000BF00F07BF8034602
:100CA800002BFAD100BF0BB05DF804FBF004002064
:100CB80000B583B0019000910023002200990198AB
:100CC800FFF7AEFF00BF03B05DF804FB00B587B0C7
:100CD800039002910192019B059305AA01230299B1
:100CE8000398FFF79DFF00BF07B05DF804FB00B550
:100CF80087B00390029101920093019B0493009B9B
:100D0800059304AA022302990398FFF789FF00BFFD
:100D180007B05DF804FB00B589B003900291019219
:100D28000093019B0593009B06930A9B079305AAD2
:100D3800032302990398FFF773FF00BF09B05DF81A
:100D480004FB00B58BB00390029101920093019BC4
:100D58000593009B06930C9B07930D9B08930E9B92
:100D6800099305AA052302990398FFF759FF00BFC5
:100D78000BB05DF804FB0000054B5A68044B1B6878
:100D88009A420CBF01230023DBB21846704700BF0C
:100D9800F004002000B599B0FFF7EEFF0346002BE2
:100DA80001D00023B5E19A4B0022C3F81824BFF301
:100DB8004F8F974B5B680493954B9B681093049AED
:100DC800109B134002339B00914A13440433119340
:100DD800002317930023169300230F9304AB19469F
:100DE8001198FFF75BFD0346002B19D0884BD3F809
:100DF8001834002B14D1864B1A68049B9A4205D8E4
:100E0800834B1B68824A5360002382E1049A109B3B
:100E1800134002339B007E4A134404331193DDE7E9
:100E28000023159311E0049B5A1C0492109A134056
:100E3800159A920001A90A44754902339B000B4494
:100E48005B681360159B01331593159B012BEAD939
:100E58009DF8043003F00303DBB2022B40F09C80C2
:100E6800BDF80630C3F389139BB20D93BDF8063065
:100E7800C3F389139BB2502B28BF50239BB20C930A
:100E88000C9BC3F309039AB2BDF8063062F38F13C3
:100E9800ADF806300C9B08330B939DF80430C3F370
:100EA800C203DBB20F930B995A4801F0E4FF179085
:100EB800179B002B00F0D080179802F06CF801A95E
:100EC800169B0822179802F021F9169B08331693EF
:100ED800049BDA43109B134001339B000A930C9A3E
:100EE8000A9B9A4242D90A9B002B08D0049A109B6D
:100EF800134002339B00464A1344043300E0464B38
:100F080008930A9B002B02D00A9BDBB201E00C9BE2
:100F1800DBB28DF81F300A9B002B01D03E4B00E05E
:100F2800002306930A9B002B06D00C9BDAB20A9B7F
:100F3800DBB2D31ADBB200E000238DF817309DF83E
:100F48001F20169B0899179802F0E0F89DF81F30AB
:100F5800169A13441693069B002B16D09DF817205B
:100F6800169B0699179802F0D1F80EE0049A109B88
:100F7800134002339B00264A134404330993169BFB
:100F88000C9A0999179802F0C1F80D9B03339A0837
:100F9800049B134404935FE09DF8043003F00303BB
:100FA800DBB2012B58D1BDF80430C3F38313DBB295
:100FB800062B28BF0623DAB2BDF8043062F3891382
:100FC800ADF80430BDF80430C3F38313DBB2023349
:100FD8000E939DF80430C3F3C203DBB20F930E9B4C
:100FE8009B0019460B4801F046FF1790179B002BF2
:100FF80032D0179801F0CFFF01A9169B0822179845
:1010080002F084F8169B08331693002315931AE010
:10101800F00400209C070100FC040020049B5A1CDB
:101028000492109A134002339B003C4A1344191D42
:10103800169B0422179802F069F8169B043316933E
:10104800159B01331593BDF80430C3F38313DBB24A
:101058001A46159B9342E1D3179B002B39D02F4B8F
:10106800D3F8103414932D4BD3F81834002B1BD01D
:10107800179801F09FFF46E000238DF84F30149831
:10108800FFF736FB0346002B02D001238DF84F30C3
:101098009DF84F30002B03D017991498FFF7E4FA06
:1010A800149BDB681B681493149B002BE4D11798DE
:1010B80001F080FF002001F0AFF8184BD3F8183486
:1010C800002B02D1049B154A5360002001F0B8F8A8
:1010D80019E0124BD3F81034129306E01298FFF778
:1010E800DDFA129BDB681B681293129B002BF5D16B
:1010F8000B4A0C4BD31ADB081B0443F002030A49C2
:101108001846FFF7D5FDFFF737FE034683F00103C6
:10111800DBB2184619B05DF804FB00BFF0040020EC
:101128006C070100340701007808010000B585B09C
:101138000023039323E0164BD3F8103402930123C2
:101148008DF807300FE00298FFF7C1FA03461A46F8
:10115800039B934203D100238DF8073006E0029BDE
:10116800DB681B680293029B002BECD19DF80730CB
:10117800002B01D0039B07E0039B01330393039BE0
:10118800092BD8DD4FF0FF33184605B05DF804FB96
:10119800F004002000B585B001900B468DF80330AF
:1011A800FFF7C4FF0390039BB3F1FF3F01D1039BFB
:1011B80022E0039BDBB219460198FFF77BFA104B3C
:1011C800D3F81034002B08D10D4A019BC2F8103413
:1011D800019BDB6800221A600DE0094BD3F810343C
:1011E800DA68019BDB6812681A60054BD3F8103483
:1011F800DB68019A1A60039B184605B05DF804FB8A
:10120800F004002000B583B00C4BD3F810340193E0
:101218000A4B012283F8202409E00198FFF75FFABE
:101228000198FFF72FFA019BDB681B680193019B6C
:10123800002BF2D100BF03B05DF804FBF0040020DE
:1012480082B00190009100BF02B0704710B584B021
:1012580003900291039BDB88002B0AD0039BDB8859
:101268001A461F4B009313461E4A1F49029801F065
:10127800F1F9039B1B7A052B2ED0039B5B7A002B7D
:1012880012D0039B9B881A46039B1B7A194610466B
:10129800FFF7CCFA03461A46144B53F822301A4685
:1012A8001349029801F0D6F9039B1B681946029866
:1012B800FFF7C6FF039B1B7A1A460E4B53F82240D2
:1012C800039B9B8800211846FFF790FA03462246A5
:1012D8000949029801F0BEF900BF04B010BD00BF73
:1012E800AC080100BC080100F40801001C00002043
:1012F8000C090100080000201009010000B585B0A4
:101308000390029113468DF80730039B1B7A052B37
:101318000FD0039B5B7A002B06D00D4B1B681A4637
:101328000C49029801F096F90B49029801F092F9DC
:1013380007E09DF80730002B03D00749029801F019
:1013480089F9029801F064F900BF05B05DF804FB63
:101358001C0000200C0901001C09010030B58BB0ED
:1013680007900691059204930E9B1B7B8DF82730FE
:101378000E9B00221A730E990498FFF767FF059BCE
:10138800062B7FD801A252F823F000BFB11300004A
:10139800BB130000CB130000DF130000FD13000097
:1013A800251400005514000007990E9801F052F911
:1013B80069E0069B1B681A4607990E9801F04AF9DE
:1013C80061E0069B1A68069B04331B6807990E9810
:1013D80001F040F957E0069B1A68069B0433196828
:1013E800069B08331B6800930B4607990E9801F07B
:1013F80031F948E0069B1968069B04331868069B78
:1014080008331B68069A0C3212680192009303464F
:101418000A4607990E9801F01DF934E0069B1868F2
:10142800069B04331C68069B08331B68069A0C321B
:1014380012680699103109680291019200932346B7
:10144800024607990E9801F005F91CE0069B1C68F6
:10145800069B04331D68069B08331B68069A0C32EA
:1014680012680699103109680698143000680390CC
:101478000291019200932B46224607990E9801F09B
:10148800E9F800E000BF00220E990498FFF736FF44
:101498000E9B9DF827201A7300BF0BB030BD00BF0C
:1014A80000B587B00390029101920093029B082B2C
:1014B80060D8009B1B7B8DF81330009B00221A73A9
:1014C80000990198FFF7C2FE0023059314E0059ADE
:1014D800029B9A4209D2039A059B13441B781A4629
:1014E8002649009801F0B6F803E02549009801F074
:1014F800B1F8059B01330593059B072BE7D92149D3
:10150800009801F0A7F80023059326E0059A029BAE
:101518009A421BD2039A059B13441B788DF812300C
:101528009DF812307E2B0AD89DF8123018460BF021
:1015380019FA0346002B02D09DF8123000E02E2342
:101548001A461149009801F085F803E00F49009800
:1015580001F080F8059B01330593059B072BD5D92E
:10156800012200990198FFF7C9FE009B9DF81320FE
:101578001A7300E000BF07B05DF804FB2009010002
:10158800280901002C090100300901003409010073
:1015980000B585B00190019B002B0AD0074B43F0A2
:1015A80001030393019B9B010293039B02989847B5
:1015B80000E000BF05B05DF804FB00BF4009010072
:1015C80000B583B00190019B002B0AD04FF47A70CC
:1015D800FFF7DEFF019B013B0193019B002BF5D137
:1015E80000E000BF03B05DF804FB08B504F06AFD35
:1015F80000BFFFF7CFFB0346002BFAD16420FFF7AB
:10160800DFFFF5E786B003900291019201238DF880
:1016180017309DF817301F4A039B13601D4A029B21
:1016280053601C4A019B9360039B44F2010293425E
:1016380012D044F20202934221D1019B154AD36091
:10164800144BDB681B881A46124B9A61114BDB68F6
:101658005B68104AD36112E0019B0E4A13610D4B7F
:101668001B699B680B4A53610A4B1B691B68094A33
:101678009361084B1B695B68064AD36100BF72B669
:1016880000BF9DF81730DBB2002BFAD162B600BF5D
:1016980006B070471409002000B583B0029000918D
:1016A800019244F2010071466A4600F003F803B063
:1016B80000BD00BF30B58BB007900691059272B699
:1016C800FFF7A0FD00BFFFF765FB0346002BFAD12B
:1016D800079B44F20102934215D044F2020293425E
:1016E8003ED1059B09932C4A2C4BD31ADB081B04CB
:1016F80043F00100099B5B681A46099B1B8828492F
:10170800FFF7F5FA39E0059B0893234A234BD31AD0
:10171800DB081B0443F00104089B9D68089B9B6839
:10172800184601F04FFD03461846089B5B681946AA
:10173800089B1B68069A02920193009103462A4669
:1017480018492046FFF7FDFA134A144BD31ADB0851
:101758001B0443F0010314491846FFF7A9FA0CE0EB
:101768000D4A0E4BD31ADB081B0443F00103069AFB
:101778000E491846FFF7AAFA00BF0D4B1B6803F085
:101788000103002B00D000BE059A06990798FFF7C1
:1017980039FF00BF0BB030BD6C07010034070100F2
:1017A80048090100640901008C090100A009010031
:1017B800F0ED00E082B003468DF807309DF8073061
:1017C8009AB2064B1B889A4204D29DF8073001331F
:1017D800DBB200E00023184602B070474009002041
:1017E80000B583B00B4B1B788DF807300A4B1B787C
:1017F800DBB21846FFF7DEFF03461A469DF80730AE
:1018080093420CBF01230023DBB2184603B05DF8F6
:1018180004FB00BF3C0900203D09002000B587B04B
:1018280003900B460192ADF80A30334B1B88BDF884
:101838000A209A4259D84FF6FF73ADF812300020AB
:1018480000F0EAFCFFF7CCFF0346002B0ED12B4B30
:101858001B78DBB2ADF81230284B1B78DBB2184688
:10186800FFF7A8FF03461A46244B1A70002000F021
:10187800E7FCBDF812304FF6FF72934232D0204B8E
:101888001A68BDF81230DB001344019A1A60039BF2
:10189800002B1CD0BDF80A30002B18D0194B1B6840
:1018A800BDF812201449098801FB02F21344BDF85F
:1018B8000A20039918460BF0A1F8114B1A68BDF8D5
:1018C8001230DB001344BDF80A209A8007E00C4B65
:1018D8001A68BDF81230DB00134400229A800023F6
:1018E800059304E00423059301E009230593059B70
:1018F800184607B05DF804FB3E0900203D090020AA
:10190800340900203809002082B003468DF80730DA
:101918009DF8073003F01F0205499DF907305B0960
:10192800012000FA02F241F8232000BF02B07047FC
:1019380000E100E082B003468DF807309DF80730DB
:1019480003F01F0206499DF907305B09012000FAE0
:1019580002F2203341F8232000BF02B0704700BFD5
:1019680000E100E082B003468DF807309DF80730AB
:1019780003F01F0206499DF907305B09012000FAB0
:1019880002F2403341F8232000BF02B0704700BF85
:1019980000E100E082B003468DF807309DF807307B
:1019A80003F01F0206499DF907305B09012000FA80
:1019B80002F2603341F8232000BF02B0704700BF35
:1019C80000E100E000B585B00190019B002B0AD032
:1019D800074B43F001030393019B9B010293039B75
:1019E8000298984700E000BF05B05DF804FB00BF0F
:1019F800F009010008B50D4B4FF48032C3F84423B9
:101A08000A4B4FF48032C3F804231120FFF7C2FFBA
:101A18001120FFF779FF054B01221A602F20FFF7ED
:101A2800D1FF034B01221A7000BF08BD001001400E
:101A3800620A002008B51120FFF77CFF0E4B4FF417
:101A48008032C3F848230C4B4FF48032C3F8082384
:101A5800094B01225A602F20FFF7B4FF064B0122E1
:101A68009A60064B00221A602F20FFF7ABFF044B49
:101A780000221A7000BF08BD00100140540A00205F
:101A8800620A0020024BD3F804351846704700BF9D
:101A98000010014082B001900091019A009BD31A76
:101AA80023F07F43184602B07047000082B00190CF
:101AB800034A019BC2F8403500BF02B0704700BF1F
:101AC8000010014086B00190284B1B68002B03D101
:101AD800264A019B136045E0019B1A68234B1B684B
:101AE8001B689A4210D8214B1B681968019B1A6819
:101AF8001E4B1B688A1A1A601C4B1A68019BDA6114
:101B08001A4A019B13602DE0019B1B680393174B36
:101B18001B680593154B1B68049309E0049B1B681D
:101B2800039AD31A0393049B0593049BDB690493DC
:101B3800049B002B04D0049B1B68039A9A42EDD89F
:101B4800049B002B05D0049B1A68039BD21A049BA4
:101B58001A60019B039A1A60019B049ADA61059B3B
:101B6800019ADA6100BF06B0704700BF500A002032
:101B780000B587B001902A4B1B680393284B1B685C
:101B88000593059B049308E0049A019B9A4208D0A8
:101B9800049B0593049BDB690493049B002BF3D1FE
:101BA80000E000BF049B002B01D1002333E0059A1D
:101BB800049B9A4214D11A4B1B68DB69184A1360BC
:101BC800174B1B68002B0BD1164B01229A60164B42
:101BD80000221A60154B01221A702F20FFF7F2FE1F
:101BE800049B1B680293049BDA69059BDA61059BD9
:101BF800DB690493049B002B05D0049B1A68029BA5
:101C08001A44049B1A60064B1B68039A9A4214BF35
:101C180001230023DBB2184607B05DF804FB00BFC0
:101C2800500A002000100140540A0020630A0020D6
:101C380008B51120FFF796FE00BF08BD08B51420AF
:101C4800FFF790FE00BF08BD00B585B001900B46B8
:101C5800ADF80230BDF80230082B0CBF0123002379
:101C6800DBB20393039B002B05D1094A40F27311A1
:101C78000020FFF711FD019B0293029B1B68029A4B
:101C880052681046984700BF05B05DF804FB00BFD6
:101C9800B809010000B587B00190019B5B69029308
:101CA800019B9B69039302AB0A4A08211846FFF778
:101CB800B5FD0590059B0493049B002B05D0064AAF
:101CC80040F287110498FFF7E7FC00BF07B05DF802
:101CD80004FB00BF511C0000B809010000B585B025
:101CE8002B4B1B68002B4ED000230193FFF7CAFE35
:101CF8000246284B1B6819461046FFF7CBFE029098
:101D0800234B1B6803931DE0039B1B68029A9A42AE
:101D18001CD3039B1B68029AD31A0293039B1B686C
:101D2800019A13440193039B0093039BDB6903937C
:101D3800009B1B7C002B05D0009B00221A74009886
:101D4800FFF7A8FF039B002BDED100E000BF124B7A
:101D58001A78124B1B789A420CD1104B1B7801331E
:101D6800DAB20E4B1A700D4B1B78022B02D10B4BBB
:101D780000221A70094B1B781946094A019B42F840
:101D88002130FFF75BFF00BF05B05DF804FB00BF23
:101D9800500A0020540A0020600A0020610A00202E
:101DA800580A002082B00190184B1A78184B1B78FB
:101DB8009A4223D0154B1B780133DAB2134B1A70B1
:101DC800124B1B78022B02D1104B00221A700F4BBA
:101DD8001B781A460F4B53F82220019B1A60019B6F
:101DE8001A680D4B1B6813440B4A13600A4B1B6897
:101DF80023F07F43084A1360012303E0019B00227C
:101E08001A600023184602B0704700BF600A00201D
:101E1800610A0020580A0020540A002088B0039064
:101E2800029101920023079338E0204B1B68069328
:101E3800069B1B68039A9A4206D2069B1A68039B64
:101E4800D21A069B1A602DE0069B1B68039AD31AC8
:101E58000393069B1B68079A13440793069B00226B
:101E68001A60124B1B680593069BDB690F4A1360C7
:101E7800069BDB68002B11D0029A079B134423F0C2
:101E88007F42069B5A60069BDA68069B9A60019B14
:101E98001A68069BDA61019B059A1A60034B1B6856
:101EA800002BC2D100BF08B0704700BF500A002005
:101EB80000B589B0019000238DF81F30664B1B6870
:101EC8000593AAE0019B002B05D0019B0693069B76
:101ED800DB69019361E0614B1B781A4613465B008E
:101EE8001344DB005D4A1344043304935B4B1B78B3
:101EF8000133DAB2594B1A70584B1A78574B9B7802
:101F08009A4202D1554B00221A70049B5B680693D3
:101F1800049B1B78022B04D0032B1BD0012B1FD052
:101F28001DE0049B5B681846FFF722FE0346002B62
:101F380002D001238DF81F30069B00221A746CE032
:101F4800454B1B680393039B00221A74039BDB69B0
:101F5800414A1360404B1B68002BF1D15DE05CE007
:101F680000BF069B1B7C002B00D056E0049B9A68A0
:101F7800069B5A60049BDA68069B9A60049B1A6960
:101F8800069BDA60049B5A69069B9A61344B1B785E
:101F9800002B02D0069B00225A60069B5A68314BE0
:101FA8001B68D31A23F07F432F4A93420ED8069B0F
:101FB8005A682C4B1B6819461046FFF76BFD024602
:101FC800069B9B681A44069B1A6017E0254B1A6803
:101FD800069B5B6819461046FFF75CFD0290069B5E
:101FE8009B68029A9A4206D2069B9A68029BD21A6A
:101FF800069B1A6002E0069B00221A60069B0022DC
:102008005A60069B00229A60069B01221A74069B5E
:102018000022DA610698FFF755FD019B002B7FF43B
:1020280051AF0E4B1A780D4B5B789A427FF44AAF4A
:102038009DF81F30002B04D1074B1B68059A9A4264
:1020480001D0012300E0002303F00103DBB21846AE
:1020580009B05DF804FB00BF500A002044090020C5
:10206800630A0020540A0020FEFF7F0010B588B0E4
:102078000190274B1B68002B44D0254B1B681B681D
:102088000793FFF7FFFC0690224B1B680593059901
:102098000698FFF7FFFC0346033304931E4B1B7897
:1020A80083F00103DBB2002B01D0FFF7A3FC049AF5
:1020B800079B934238BF1346059A13440593059B23
:1020C80023F07F4305930598FFF7F0FCFFF7DAFC50
:1020D800039006990398FFF7DDFC0346DC1C06997C
:1020E8000598FFF7D7FC03469C420DD9FFF7CAFCB9
:1020F80003461846FFF7DAFC2F20FFF763FCFFF7CB
:1021080097FD01E0FFF796FC00BF08B010BD00BFC7
:10211800500A0020540A0020620A002000B587B047
:102128000023019300238DF81730194B1B68049383
:10213800184B1B6803936B461846FFF733FE03469C
:102148008DF80B309DF80B30002B08D0009B01AAAE
:1021580004991846FFF762FE01238DF81730019B9A
:102168001846FFF7A5FE0346002B02D001238DF881
:1021780017309DF81730002B02D00398FFF776FF31
:10218800054B00221A7000BF07B05DF804FB00BFC2
:10219800540A0020500A0020630A002008B50E4B9C
:1021A8000022C3F840210C4B0022C3F844210A4BFB
:1021B8000022C3F84821084B0022C3F84C21064BE3
:1021C8000022C3F80021044B0022C3F80421FFF7C2
:1021D80085FD00BF08BD00BF0010014008B5FFF72E
:1021E8009DFF00BF08BD000072B6034B1B6801339A
:1021F800014A136000BF7047640A0020054B1B6842
:10220800013B044A1360034B1B68002B00D162B6E4
:1022180000BF7047640A002000B583B0019000F049
:1022280025F80346012B03D00449432000F04AF85F
:10223800FFF7DAFF00BF03B05DF804FBF8090100FF
:1022480000B583B003468DF8073000F00FF8034659
:10225800012B03D00449512000F034F8FFF7CEFFDA
:1022680000BF03B05DF804FBF809010084B0EFF388
:1022780005830193019BC3F308030393039B002B7E
:102288000DD1EFF314830093009B0293029B03F09C
:102298000103002B0CBF01230023DBB200E0012364
:1022A800184604B0704700B585B0039002910192BA
:1022B800019B9BB20299184600F004F800BF05B0D4
:1022C8005DF804FB00B585B003460091ADF8063013
:1022D800BDF80630ADF80830009B039302AB1A46F0
:1022E800002144F20200FFF7E5F900BF05B05DF8F0
:1022F80004FB10B487B001900091019B009A53E849
:10230800004F104643E8000191F0000FF7D1059403
:1023180004900391059B184607B05DF8044B70477D
:1023280010B487B001900091019B009A53E8004FC8
:1023380044EA020043E8000191F0000FF6D1059449
:1023480004900391049B184607B05DF8044B70474E
:1023580010B487B001900091019B009A53E8004F98
:1023680004EA020043E8000191F0000FF6D1059459
:1023780004900391059B184607B05DF8044B70471D
:1023880010B487B001900091019B009A53E8004F68
:1023980004EB020043E8000191F0000FF6D1059428
:1023A80004900391049B184607B05DF8044B7047EE
:1023B80010B487B001900091019B009A53E8004F38
:1023C800A4EB020043E8000191F0000FF6D1059458
:1023D80004900391049B184607B05DF8044B7047BE
:1023E80000B583B0019001210198FFF799FF0346DA
:1023F800184603B05DF804FB00B583B001900021D6
:102408000198FFF7A5FF0346184603B05DF804FBE3
:1024180000B583B001900B468DF80330019B002B6B
:1024280003D10849E820FFF74DFF019BDA689DF8C2
:1024380003300199098A01FB03F31344184603B0DA
:102448005DF804FB440A010000B583B001900091D7
:10245800019B002B03D10849F520FFF733FF009BB0
:10246800019AD2689B1A019A128AB3FBF2F3DBB283
:10247800184603B05DF804FB440A010000B585B0B6
:102488000190019B002B01D10E234DE0019B1B689D
:10249800002B03D12649FF20FFF714FF019B5B683F
:1024A800002B04D122494FF48070FFF70BFF019BEA
:1024B8009B68002B04D11E4940F20110FFF702FF70
:1024C800019BDB68002B04D119494FF48170FFF799
:1024D800F9FE019B1B8A002B04D1154940F2031019
:1024E800FFF7F0FE019B9B681A46019B5B68D31AB5
:1024F8008DF80F30019B1B68019A52681A6007E03B
:10250800019B1A681368591C11609DF80F201A70F6
:102518009DF80F305A1E8DF80F20002BF0D1019B2B
:102528001B6800221A710023184605B05DF804FBE9
:10253800440A010000B585B00190019B002B04D12D
:102548001C494FF49270FFF7BDFE0023039300204F
:10255800FFF762FE019B1B681A68019B5B689A4241
:1025680020D9019B1B681A68013A1A601B681B78FE
:1025780019460198FFF74CFF0390019B9B681A4688
:10258800019B1B681B68D31A8DF80B30019B1B68D5
:102598001B799DF80B209A4204D9019B1B689DF872
:1025A8000B201A710020FFF74BFE039B184605B05D
:1025B8005DF804FB440A010010B584B00190009155
:1025C800019B002B04D1114940F24710FFF77AFE16
:1025D800009B002B04D10D494FF4A470FFF772FE45
:1025E800009B03930020FFF717FE019B1B681C68E4
:1025F800621C1A6003990198FFF726FF03462370AF
:102608000020FFF71DFE00BF04B010BD440A010002
:1026180000B583B00190019B002B03D10C493120F8
:10262800FFF750FE019B9B68002B0CD0019B5B6958
:10263800019A1069019A1168019A92689847019B5A
:1026480000229A6000E000BF03B05DF804FB00BF01
:10265800800A01000EB400B584B00190019B002BE4
:1026680003D118494220FFF72DFE019B5B69002B1F
:1026780003D114494320FFF725FE019B1B68002B5B
:1026880003D110494420FFF71DFE019B5B68002B16
:1026980003D10C494520FFF715FE059B002B0AD0F6
:1026A8000023039306AB039303AB1A4605990198DD
:1026B80000F0B8F900E000BF04B05DF804EB03B027
:1026C800704700BF800A010000B583B001900B4637
:1026D8008DF803309DF803300A2B03D10D210198A2
:1026E800FFF7F2FF019B1A68019B9B68581C019930
:1026F800886013449DF803201A70019B9A68019B17
:102708005B689A4202D30198FFF782FF00BF03B0CB
:102718005DF804FB00B587B0039002910192009325
:1027280000230593009B03F00103002B24D00BE04A
:10273800029B01330293059B013305939DF81330E7
:1027480019460398FFF7C0FF029B1B788DF81330DA
:102758009DF81330002BEBD106E0019B013B019360
:1027680020210398FFF7B0FF019A059B9A422ED9C2
:10277800019B002BF1D12AE0029B002B0BD0029881
:102788000AF0BAF9059006E0019B013B019320216C
:102798000398FFF799FF019A059B9A420FD9019B6D
:1027A800002BF1D10BE0029B01330293059B01330F
:1027B80005939DF8133019460398FFF785FF029B90
:1027C8001B788DF813309DF81330002BEBD100BF28
:1027D80007B05DF804FB000000B589B003900291D2
:1027E80001920093029B07930123069307E0079A3F
:1027F800019BB2FBF3F30793069B01330693079AF9
:10280800019B9A42F3D2009A069B9A4201D9009BF7
:1028180006930B9B03F00103002B22D10A9B002B8C
:102828001FD00B9B03F00203002B06D0009B002B4C
:1028380003D130238DF8173002E020238DF81730AC
:1028480008E00A9B013B0A939DF817301946039844
:10285800FFF73AFF0A9B002B03D0069A0A9B9A427D
:10286800EFD301230793009B012B03D9009B013B66
:10287800009309E0029A079BB2FBF3F30493049ACE
:10288800019B9A4200D205E0079B019A02FB03F3E1
:102898000793E8E7029A079BB2FBF3F30493049BC0
:1028A800079A02FB03F3029AD31A0293154A049B70
:1028B80013441B7819460398FFF706FF079A019BF4
:1028C800B2FBF3F30793079B002BE3D10B9B03F0B9
:1028D8000103002B11D00A9B002B0ED006E00A9BA7
:1028E800013B0A9320210398FFF7EEFE0A9B002B79
:1028F80003D0069A0A9B9A42F1D300BF09B05DF84B
:1029080004FB00BFE80A010000B589B005900491F6
:1029180003920293049B002BB8BF5B4206930123EA
:10292800079307E0039B069A92FBF3F30693079B32
:1029380001330793039B069A9A42F3DA029A079B9C
:102948009A4201D9029B07930A9B002B0AD0049B49
:10295800002B04DB0B9B03F00403002B02D00A9B23
:10296800013B0A930B9B03F00203002B02D0029B4E
:10297800002B16D00B9B03F00103002B11D10A9BEF
:10298800002B0ED006E00A9B013B0A9320210598F4
:10299800FFF79AFE0A9B002B03D0079A0A9B9A42DC
:1029A800F1D3049B002B07DA049B5B4204932D218F
:1029B8000598FFF789FE08E00B9B03F00403002B42
:1029C80003D02B210598FFF77FFE0B9B03F0020332
:1029D800002B19D00B9B03F00103002B14D1029B91
:1029E800002B11D10A9B002B0ED006E00A9B013B5D
:1029F8000A9330210598FFF767FE0A9B002B03D046
:102A0800079A0A9B9A42F1D304990B9B01930A9B5C
:102A18000093029B039A0598FFF7DEFE00BF09B0FA
:102A28005DF804FB00B58FB0059004910392059BF7
:102A3800002B04D1C8494FF4A270FFF743FC059B53
:102A48005B69002B04D1C4494FF4A370FFF73AFC2B
:102A5800059B1B68002B04D1BF4940F24710FFF7C4
:102A680031FC059B5B68002B04D1BB494FF4A47073
:102A7800FFF728FC049B002B00F0ED81049B1B78DA
:102A88008DF83730049B013304939DF83730002BC1
:102A980000F0D8819DF83730252B40F0C7810023FE
:102AA8000A9301230C93049B1B788DF837309DF80B
:102AB80037302D2B04D0302B0AD02B2B10D017E019
:102AC8000A9B43F001030A93049B0133049312E029
:102AD8000A9B43F002030A93049B013304930AE020
:102AE8000A9B43F004030A93049B0133049302E016
:102AF80000230C9300BF0C9B002BD4D10023099317
:102B08009DF837302A2B0CD1039B1B68191D039A9B
:102B180011601B68099A13440993049B01330493B9
:102B28001AE0049B1B788DF837309DF837302F2B2F
:102B380012D99DF83730392B0ED8049B01330493F2
:102B4800099A13469B0013445B001A469DF83730D8
:102B58001344303B0993D3E700230B93049B1B7862
:102B68008DF837309DF837302E2B1DD1049B01335B
:102B78000493049B1B788DF837309DF837302F2B42
:102B880012D99DF83730392B0ED8049B01330493A2
:102B98000B9A13469B0013445B001A469DF8373086
:102BA8001344303B0B93E4E7049B1B788DF83730D4
:102BB8009DF837306C2B03D09DF83730682B07D140
:102BC800049B01330493049B1B788DF83730EFE79F
:102BD8009DF83730253B532B00F2238101A252F890
:102BE80023F000BF212E00002B2E00002B2E00000A
:102BF8002B2E00002B2E00002B2E00002B2E000069
:102C08002B2E00002B2E00002B2E00002B2E000058
:102C18002B2E00002B2E00002B2E00002B2E000048
:102C28002B2E00002B2E00002B2E00002B2E000038
:102C38002B2E00002B2E00002B2E00002B2E000028
:102C48002B2E00002B2E00002B2E00002B2E000018
:102C58002B2E00002B2E00002B2E00002B2E000008
:102C68002B2E00002B2E00002B2E00002B2E0000F8
:102C78002B2E00002B2E00002B2E00002B2E0000E8
:102C88002B2E00002B2E00002B2E00002B2E0000D8
:102C98002B2E00002B2E00002B2E00002B2E0000C8
:102CA8002B2E00002B2E00002B2E00002B2E0000B8
:102CB800AD2D00002B2E00002B2E00002B2E000027
:102CC8002B2E00002B2E00002B2E00002B2E000098
:102CD8002B2E00002B2E00002B2E00003D2D000077
:102CE800652D00002B2E00002B2E00002B2E00003F
:102CF8002B2E0000652D00002B2E00002B2E00002F
:102D08002B2E00002B2E00002B2E00002B2E000057
:102D1800ED2D00002B2E00002B2E0000D12D0000E1
:102D28002B2E0000892D00002B2E00002B2E0000DA
:102D3800AD2D0000039B1B68191D039A11601B68C9
:102D48000C930C9B8DF81F309DF81F301946059881
:102D5800FFF7BAFC66E000BFB00A0100039B1B68DE
:102D6800191D039A11601B680C930A9B0193099B18
:102D780000930B9B0A220C990598FFF7C5FD51E0BB
:102D8800039B1B68191D039A11601B680C930C990F
:102D98000A9B0193099B00930B9B0A220598FFF756
:102DA8001BFD3FE0039B1B68191D039A11601B68FC
:102DB8000C930C990A9B0193099B00930B9B10227F
:102DC8000598FFF709FD2DE0039B1B68191D039A61
:102DD80011601B6808930A9B099A08990598FFF7E0
:102DE80099FC1FE0039B1B68191D039A11601B685F
:102DF8000C9330210598FFF767FC78210598FFF7B9
:102E080063FC0C99002301930823009308231022E4
:102E18000598FFF7E1FC05E025210598FFF754FC2C
:102E280000E000BF049B0133049305E09DF83730B0
:102E380019460598FFF748FC049B1B78002B7FF484
:102E48001DAE00E000BF059B1B7B002B04D005983E
:102E5800FFF7DEFB00E000BF0FB05DF804FB00BF2A
:102E680000B583B001900198FFF708FB03461846A8
:102E780003B05DF804FB00B58BB001900091019B95
:102E88001B8A043B0793009A079B1344DA1C079B91
:102E9800B2FBF3F38DF81B300198FFF74BFB05905D
:102EA800059B002B01D1002338E0059B00221A71F5
:102EB800059B01225A71079B9AB2059BDA80059BF4
:102EC80009939DF81B30013B0493099B019A1A60F2
:102ED800002308931DE00198FFF72CFB0390039B48
:102EE800002B0ED0059B5B790133DAB2059B5A7132
:102EF800099B039A1A60039B019A1A60039B099322
:102F080004E0059800F00EF8002307E0089B013361
:102F18000893089A049B9A42DDD3059B18460BB088
:102F28005DF804FB00B58BB00190019B0793079BEC
:102F38005B798DF81B30019B08939DF81B30013B92
:102F480005930023099305E0089B1B680893099BD8
:102F580001330993099A059B9A42F5D3089B1B688C
:102F68000493019B0893002309930BE0089B1B68BB
:102F7800039308990498FFF71FFB039B0893099B89
:102F8800013309939DF81B30099A9A42EED300BF8A
:102F98000BB05DF804FB00B585B00190019B03936D
:102FA800039B043301211846FFF7EAF900BF05B077
:102FB8005DF804FB00B587B00190019B0593059B64
:102FC800043301211846FFF7F3F90346039303ABD3
:102FD8000493049B1B78002B02D10198FFF7A2FFF2
:102FE80000BF07B05DF804FB00B591B003900291F3
:102FF80001920093039B002B03D14349B620FFF7AE
:1030080061F9039B0993039B0F93099BDB881A467D
:10301800099B5B7903FB02F3043B0893009A089B26
:103028009A4203D33849C420FFF74CF9099BDB883F
:103038000793009B1A1D079BB2FBF3F30E93009BAB
:103048000433079AB3FBF2F2079901FB02F29B1AC9
:103058000D93019B1A68009B1344089A9A4203D265
:10306800089A009BD31A01E0019B1B680C93019BF3
:103078000C9A1A6005E00F9B1B680F930E9B013B8F
:103088000E930E9B002BF6D100230B93079A0D9BF2
:10309800D31A0A930A9A0C9B934228BF13460A93A1
:1030A8002AE0029A0B9B134406930F9A0D9B134434
:1030B800043305939DF84830002B05D00A9A0599EA
:1030C800069809F09BFC04E00A9A0699059809F00D
:1030D80095FC00230D930F9B1B680F930C9A0A9B7A
:1030E800D31A0C930B9A0A9B13440B93079A0C9BC5
:1030F800934228BF13460A930C9B002BD1D100BFE3
:1031080011B05DF804FB00BFF80A010000B589B0F2
:103118000590049103920293039B079307AA002347
:103128000093029B04990598FFF75EFF079B039A9B
:103138009A4203D00349F620FFF7C4F800BF09B04C
:103148005DF804FBF80A010000B589B00590049108
:1031580003920293039B079307AA01230093029B00
:1031680004990598FFF740FF079B039A9A4204D0F9
:1031780004494FF48070FFF7A5F800BF09B05DF867
:1031880004FB00BFF80A010082B00190019B9B6814
:1031980000229A60019B9B6800221A61019B9B6830
:1031A80000225A61019B9B680022DA60019B9B68A0
:1031B80000225A60019B9B6800221A6000BF02B07F
:1031C8007047000000B585B00190019800F00EF836
:1031D8000390039B002B01D0039B00E0024B184691
:1031E80005B05DF804FB00BF0C0C010086B001902F
:1031F800164B0593164B04931FE0049A059BD31AAC
:10320800DB10DA0F13445B10DB00059A13440393B9
:10321800039B1B680293029A019B9A4202D9039B63
:1032280004930AE0029A019B9A4203D2039B083353
:10323800059302E0039B5B6804E0059A049B9A42AD
:10324800DBD30023184606B0704700BFE00F01002B
:10325800F810010008B500F0FFF800BF08BD000035
:1032680008B500F013F9024B00225A7000BF08BDE0
:10327800680A002084B001900091019B1B680393A9
:1032880006E0039A009B9A420DD0039B1B680393A8
:10329800039B002BF5D1019B1A68009B1A60019BC8
:1032A800009A1A6000E000BF04B0704700B583B010
:1032B8000190234B1B78002B04D122494FF49370C3
:1032C800FFF700F81E4B5B78DBB2002B12D0019B96
:1032D800002B03D0019B5B68002098470020FEF775
:1032E8009BFF174B5B680133154A53600020FEF7BC
:1032F800A7FF17E00020FEF78FFF019B002B03D0EC
:1033080001991148FFF7B6FF0D4B5B68002B01D1FF
:10331800FFF7A0FF0A4B5B680133094A536000209E
:10332800FEF78EFF064B5B68002B04D105494FF46E
:10333800A170FEF7C7FF00BF03B05DF804FB00BF34
:10334800680A002000110100700A002008B5124B1D
:103358001B78002B04D1114940F24710FEF7B2FF49
:103368000D4B5B68002B04D10C494FF4A470FEF799
:10337800A9FF0020FEF750FF074B5B68013B064A98
:103388005360054B5B68002B01D1FFF769FF0020F4
:10339800FEF756FF00BF08BD680A002000110100B3
:1033A80082B001904FF08042019BC2F8043300BF05
:1033B80002B0704782B001904FF08042019BC2F882
:1033C800083300BF02B0704782B003468DF807305B
:1033D8009DF8073003F1804301221A6000BF02B054
:1033E800704784B00346ADF80630BDF8063003F1E7
:1033F800804300221A60BDF8063003F180431B6841
:103408000393039B00BF04B0704782B00346ADF836
:103418000630BDF8063003F180431B68002B14BF4B
:1034280001230023DBB2184602B0704782B003467E
:103438008DF807304FF08043D3F80C3403F00112B5
:103448009DF8073043F480339A420CBF01230023D0
:10345800DBB2184602B0704708B50A4B1B79002B3F
:1034680003D10949FB20FEF72DFF4FF48070FFF7C9
:10347800B8FF0120FFF794FF0020FFF7A5FF00BF6A
:1034880008BD00BF7C0A00207411010008B50C4B70
:103498001B79002B04D10B4940F20310FEF712FFF1
:1034A8000420FFF791FF00BF0120FFF7BFFF03468D
:1034B800002BF9D1024B00225A7100BF08BD00BF92
:1034C8007C0A00207411010008B54FF48070FFF7E2
:1034D8009CFF0346002B14D04FF48070FFF781FF48
:1034E8000120FFF767FF114B5B7983F00103DBB223
:1034F800002B06D00D4B01225A710C4B1B68002083
:1035080098474FF48270FFF780FF0346002B0AD0DC
:103518004FF48270FFF765FF0220FFF74BFF034B64
:103528001B680120984700BF08BD00BF7C0A002027
:1035380082B003468DF807309DF8073003F01F026C
:1035480005499DF907305B09012000FA02F241F8AC
:10355800232000BF02B0704700E100E082B00346BC
:1035680000918DF807309DF90730002B0CDA009B8D
:10357800DAB20C499DF8073003F00F03043B5201FF
:10358800D2B20B441A7609E0009BDAB206499DF9DB
:1035980007305201D2B20B4483F8002300BF02B0B7
:1035A800704700BF00ED00E000E100E000B583B027
:1035B80003460A468DF8073013468DF806309DF805
:1035C8000630072B03D908496B20FEF77BFE9DF8D0
:1035D80006209DF9073011461846FFF7BFFF00BFC8
:1035E80003B05DF804FB00BFAC11010000B583B067
:1035F80003468DF807309DF907301846FFF798FF06
:1036080000BF03B05DF804FB00B583B00346ADF816
:103618000630BDF80630184600F026F803461B6849
:10362800012B0CBF01230023DBB2184603B05DF861
:1036380004FB00B585B00346ADF80630BDF806308A
:10364800184600F011F803461A4600231360BDF827
:103658000630184600F008F803461B680393039BDE
:1036680000BF05B05DF804FB82B00346ADF8063034
:10367800BDF8063003F1804303F5C043184602B095
:103688007047000082B00190034A019BC2F80433DE
:1036980000BF02B0704700BF0060004082B00190D8
:1036A800034BD3F80423019B1340184602B070471C
:1036B8000060004082B00190084A019B03F5A273A4
:1036C80052F82330054943F00102019B03F5A27328
:1036D80041F8232000BF02B0704700BF00600040DF
:1036E80084B00390029113468DF80730144A039B67
:1036F80003F5A27352F82330114923F44F3323F40E
:103708004073039A02F5A27241F822300C4A039BD7
:1037180003F5A27352F82320029B1B0203F47C5189
:103728009DF807301B0403F440330B4304491A4344
:10373800039B03F5A27341F8232000BF04B0704730
:103748000060004082B00190054A019B03F5A27316
:1037580052F823301B0A03F03F03184602B07047A3
:103768000060004082B00190064A019B03F5A273F5
:1037780052F823301B0C03F00303DBB2184602B0E7
:10378800704700BF0060004000B583B00190019B06
:103798001B682F2B04D90B494FF4F370FEF792FDE9
:1037A800019B1B681F2B02D84FF0A04306E0019B2A
:1037B8001B6803F01F02019B1A60034B184603B0F5
:1037C8005DF804FBDC1101000003005000B585B072
:1037D8000190084611461A4603468DF803300B46F9
:1037E8008DF8023013468DF8013001AB1846FFF70B
:1037F800CBFF03909DF803209DF802305B001A432D
:103808009DF801309B001A439DF818301B0242EACC
:1038180003019DF81C301B04019A1943039B02F510
:10382800E07243F8221000BF05B05DF804FB00B554
:1038380085B003900B468DF80B309DF80B200023C4
:103848000193002300931346002200210398FFF7F9
:10385800BDFF00BF05B05DF804FB00B585B0019061
:1038680001AB1846FFF790FF0390019A039B02F5FE
:10387800E07253F8223023F002030293019A039B6B
:1038880002F5E072029943F8221000BF05B05DF816
:1038980004FB00B585B001900B468DF8033001ABF1
:1038A8001846FFF771FF0390019A039B02F5E07237
:1038B80053F82230019A23F44031039B02F5E07259
:1038C80043F82210019A039B02F5E07253F8223064
:1038D8009DF8032012041146019A1943039B02F52F
:1038E800E07243F8221000BF05B05DF804FB00B594
:1038F80085B0019001AB1846FFF746FF0390039887
:1039080000F020F80246019B22FA03F303F00103BA
:10391800184605B05DF804FB00B585B0019001AB11
:103928001846FFF731FF0390019A039B02F5E072F6
:1039380053F822301B0C03F00303DBB2184605B022
:103948005DF804FB82B00190019BD3F8103518464E
:1039580002B0704700B589B0039002910192174AEE
:1039680005AB92E8030083E80300039A029B134423
:10397800022B04D9124940F21630FEF7A3FC039B30
:10398800079311E0079B9B0008AA134453F80C3CCB
:103998001846FFF7D7FF0246019B1A60019B0433C4
:1039A8000193079B01330793039A029B1344079AD9
:1039B8009A42E7D300BF09B05DF804FB0C1201007E
:1039C800DC11010084B001900091009B0393019BDE
:1039D800DB080293019B03F0070301930122019B7B
:1039E80002FA03F30399029A0A441278134018461C
:1039F80004B0704784B001900091009B0393019B31
:103A0800DB080293019B03F007030193039A029BCF
:103A180013441B785AB20121019B01FA03F35BB2EC
:103A2800134359B2039A029B1344CAB21A7000BFD7
:103A380004B0704782B001900C4A019B13443033A4
:103A480093F90030002B09DB084A019B13443033FB
:103A580093F90030072B01DC012300E0002303F079
:103A68000103DBB2184602B0704700BF840A002089
:103A780082B00190064A019B1344303393F9003019
:103A8800072BCCBF01230023DBB2184602B07047D6
:103A9800840A002082B00190064A019B1344303307
:103AA80093F90030DB43DBB2DB09DBB2184602B026
:103AB800704700BF840A002084B0039002910192ED
:103AC8008DF80330029B59B20E4A039B13443033DE
:103AD8000A461A700B49029B019A41F823209DF867
:103AE800033083F00103DBB2002B08D0029B083BB4
:103AF800039A51B2034A13440A4683F8602000BF70
:103B080004B07047840A002082B00190044A019BE7
:103B180013443033FF221A7000BF02B0704700BF51
:103B2800840A002000B583B0019004490198FFF78A
:103B380061FF00BF03B05DF804FB00BFE80A002086
:103B480082B00190044A019B1344303393F900304A
:103B5800184602B0704700BF840A002082B0019066
:103B6800034A019B52F82330184602B0704700BF41
:103B7800840A002000B589B00390029113468DF89D
:103B88000730FF238DF81F309DF80730002B01D038
:103B9800002300E0082305939DF80730002B01D08F
:103BA800082300E00C230493059B069314E00F4AB6
:103BB800069B52F82330B3F1FF3F0AD19DF8073036
:103BC800029A06990398FFF777FF069B8DF81F3036
:103BD80006E0069B01330693069A049B9A42E6D3B5
:103BE8009DF91F30184609B05DF804FB840A0020CF
:103BF80082B003468DF807309DF80730094A4FF028
:103C0800FF3142F823109DF80730072B07D99DF89C
:103C18000730083B034A1344FF2283F8602000BFA3
:103C280002B07047840A002000B583B0254B93F892
:103C38006A30002B03D008230193019B3EE0002348
:103C48008DF8033009E09DF803301846FFF75CFF54
:103C58009DF8033001338DF803309DF803302F2B86
:103C6800F1D900238DF8033009E09DF80330184698
:103C7800FFF7BEFF9DF8033001338DF803309DF840
:103C880003300B2BF1D9062200210F4808F0DFFE84
:103C980006210620FFF78AFC0620FFF7A7FC4FF451
:103CA800BE70FFF7C6FC4FF00040FFF7EBFC054B7A
:103CB800012283F86A2000230193019B184603B070
:103CC8005DF804FB840A0020E80A002000B587B0EC
:103CD800039002910192039B2F2B04D9364940F29D
:103CE8000720FEF7EFFA002305930398FFF7D2FEAB
:103CF8000346002B02D00823059357E0029B9B78CC
:103D0800C3F34003DBB21A4601990398FFF732FF69
:103D180003468DF813309DF91330B3F1FF3F43D0BC
:103D2800029B9B78C3F38003DBB283F00103DBB211
:103D3800002B13D0029B9B7803F00103DBB2002B0E
:103D480003D00398FFF789FD05E0029B5B781946CD
:103D58000398FFF76CFD0398FFF7E4FE029B9B783E
:103D680003F00203DBB2002B08D09DF91300029B7D
:103D78001B781A460399FFF7B3FC17E09DF9133037
:103D8800083B0E4A134493F96010029B1B789B0171
:103D98005AB29DF91330083B0A4351B2074A1344FB
:103DA8000A4683F8602001E004230593059B184622
:103DB80007B05DF804FB00BF1C120100840A002054
:103DC80000B589B001900B468DF80330019B2F2B6D
:103DD80004D93D4940F23720FEF774FA0198FFF7FD
:103DE80059FE0346002B04D137494FF40E70FEF7F5
:103DF80069FA0198FFF73CFE0346002B2FD0019883
:103E0800FFF79EFE0346083B304A134493F960309F
:103E18008DF80F309DF80F309B098DF80E309DF806
:103E28000E30032B0BD10198FFF761FD0346002BE1
:103E380001D0032300E002238DF81F3008E09DF82D
:103E48000E30012B01D1022300E003238DF81F302F
:103E58009DF81F3019460198FFF71BFD30E00198C7
:103E6800FFF7E8FD0346002B2AD00198FFF768FE0C
:103E780003460693069B9BB240339BB29B00ADF86A
:103E88001630069B1846FFF715FCBDF81630184685
:103E9800FFF7CFFB9DF80330002B11D00198FFF7F7
:103EA8004FFE03461846FFF759FE0490049B002B6B
:103EB80006D00122069B02FA03F31846FFF7E2FB3D
:103EC80000BF09B05DF804FB1C120100840A002041
:103ED80000B599B00023149306AB00221A605A600B
:103EE8004FF48073ADF84A300123169300231393DF
:103EF80021E0BDF84A301846FFF786FB0346002B41
:103F08000ED01698FFF7CAFB0346002B08D0BDF861
:103F18004A301846FFF78DFB149A169B13431493E7
:103F2800169B5B001693BDF84A300433ADF84A304F
:103F3800139B01331393139B072BDAD94FF4BE70ED
:103F4800FFF762FB0346002B0DD04FF4BE70FFF75E
:103F580070FB149B43F00043149306AB1A460221EE
:103F68000020FFF7F7FC149BDBB2002B29D00123BC
:103F780016930023139321E0169A149B1340002BE9
:103F880016D01398FFF7DEFB11901398FFF7EAFBA2
:103F980003468DF843301398FFF7E0FD0F900F9B11
:103FA800002B05D09DF843200F9B11461198984788
:103FB800169B5B001693139B01331393139B072BDC
:103FC800DAD9149B002B80F2F08000238DF85F3043
:103FD80004AB00221A605A60002315930AE0159B6F
:103FE8009B0018AA13444FF0FF3243F8582C159B36
:103FF80001331593159B012BF1D900238DF85F3000
:104008000023139378E06B4A139B1344603393F9AE
:1040180000308DF83B309DF83B3023F0C0030D9302
:10402800644A139B1344603393F90030B3F1FF3FA4
:104038005FD002AB19460D98FFF7C4FC0346002B6E
:1040480057D09DF83B309B098DF833300D98FFF71A
:1040580077FD03461846FFF781FD0B900B9B002B5D
:1040680003D19DF83330032B43D19DF83330032B14
:1040780004D104AB19460D98FFF7BCFC0D98FFF767
:104088004BFC03468DF82B3006AB19460D98FFF70D
:1040980099FC0990099B002B03D09DF82B30022B2B
:1040A80006D0099B002B24D19DF82B30032B20D15F
:1040B8009DF83330032B13D19DF82B30022B01D1FF
:1040C800032300E002238DF823309DF8233019469E
:1040D8000D98FFF7DEFB9DF85F3001338DF85F30F8
:1040E8000B9B002B05D09DF833200B9B11460D9898
:1040F8009847139B01331393139B032B83D99DF884
:104108005F30002B4CD001238DF85E306B461A4689
:1041180002210020FFF71EFC0023159314E0159BD5
:104128009B0018AA134453F8602C159B9B0018A9F0
:104138000B4453F8483C9A4203D000238DF85E3074
:1041480005E0159B01331593159B012BE7D99DF8C5
:104158005E30002B03D000238DF85F3020E0002371
:1041680015931AE0159B9B0018AA134453F8602C6A
:10417800159B9B0018A90B4443F8482C159B9B00E2
:1041880018AA134453F8502C159B9B0018A90B44EC
:1041980043F8582C159B01331593159B012BE1D936
:1041A8009DF85F30002B7FF428AF00BF19B05DF891
:1041B80004FB00BF840A002084B001900B46ADF8D0
:1041C8000230BDF80230019A134400221A60BDF88B
:1041D8000230019A13441B680393039B00BF04B089
:1041E800704782B001900B46ADF80230BDF802303E
:1041F800019A13441B68002B14BF01230023DBB270
:10420800184602B0704782B001900091019BD3F824
:104218000423009B1340002B14BF01230023DBB2AF
:10422800184602B0704782B00190019B9BB2503390
:104238009BB29B009BB2184602B0704782B00190B7
:104248004FF48032019B02FA03F3184602B070471C
:1042580000B587B00390029113468DF8073000230C
:104268008DF8173030E09DF817301846FFF7DBFF60
:104278000346ADF814309DF817301846FFF7DEFFF7
:104288000490BDF8143019460398FFF7AAFF0346B7
:10429800002B14D004990398FFF7B5FF0346002BB1
:1042A8000DD0BDF8143019460398FFF785FF029B1F
:1042B8001B68029A5168BDF81420104698479DF86B
:1042C800173001338DF817309DF817209DF8073007
:1042D8009A42C8D300BF07B05DF804FB08B50422B2
:1042E80002490348FFF7B4FF00BF08BDF00A0020E9
:1042F8000080004008B5042202490348FFF7A8FFE0
:1043080000BF08BDFC0A00200090004008B5042248
:1043180002490348FFF79CFF00BF08BD080B0020B7
:1043280000A0004082B003468DF807309DF80730A2
:1043380003F01F0205499DF907305B09012000FAC7
:1043480002F241F8232000BF02B0704700E100E00C
:1043580082B0034600918DF807309DF90730002B95
:104368000CDA009BDAB20C499DF8073003F00F0312
:10437800043B5201D2B20B441A7609E0009BDAB230
:1043880006499DF907305201D2B20B4483F8002345
:1043980000BF02B0704700BF00ED00E000E100E0A0
:1043A80082B00190019B03F06043B3F1005F0CBF42
:1043B80001230023DBB2184602B0704782B0019097
:1043C800019B1B0B5BB2184602B0704700B583B067
:1043D80003460A468DF8073013468DF806309DF8D7
:1043E8000630072B03D908496B20FDF76BFF9DF8B2
:1043F80006209DF9073011461846FFF7A9FF00BFB0
:1044080003B05DF804FB00BFC412010000B583B01F
:1044180003468DF807309DF907301846FFF782FFED
:1044280000BF03B05DF804FB82B001900B468DF825
:1044380003309DF80330019A134401221A6000BF2B
:1044480002B0704784B001900B46ADF80230BDF859
:104458000230019A134400221A60BDF80230019A12
:1044680013441B680393039B00BF04B0704782B0DA
:1044780001900B46ADF80230BDF80230019A1344A2
:104488001B68002B14BF01230023DBB2184602B0BF
:10449800704782B001900091019B009AC3F80423F1
:1044A80000BF02B0704782B001900091019B009A52
:1044B800C3F8082300BF02B0704782B00190019B87
:1044C8000622C3F8002500BF02B0704784B00390ED
:1044D80002910192039B029AC3F80825039B019A53
:1044E800C3F80C2500BF04B0704782B0019000915A
:1044F800019B009AC3F8242500BF02B0704784B01E
:104508000190019BD3F8C4340393019B039AC3F829
:10451800C424039B184604B0704782B001900B4630
:104528008DF803309DF80320019BC3F8882500BF50
:1045380002B0704784B0039002910192029A039BE3
:10454800C3F84425039B019AC3F8482500BF04B06B
:10455800704784B0039002910192029A039BC3F8BA
:104568003425039B019AC3F8382500BF04B070476F
:1045780082B001900091019B009AC3F8002200BF0D
:1045880002B0704782B00190019BD3F84C351846B1
:1045980002B0704782B00190019BD3F83C351846B1
:1045A80002B0704782B00190019B0122C3F85025E8
:1045B80000BF02B0704782B00190019B0022C3F88F
:1045C800502500BF02B0704782B00190019B0122C4
:1045D800C3F8402500BF02B0704782B00190019B2C
:1045E8000022C3F8402500BF02B0704700B583B071
:1045F8000190019B1B682F2B04D90B494FF4F370D2
:10460800FDF760FE019B1B681F2B02D84FF0A043EB
:1046180006E0019B1B6803F01F02019B1A60034B15
:10462800184603B05DF804FBF412010000030050C3
:1046380000B585B00190084611461A4603468DF824
:1046480003300B468DF8023013468DF8013001AB6C
:104658001846FFF7CBFF03909DF803209DF8023022
:104668005B001A439DF801309B001A439DF81830EF
:104678001B0242EA03019DF81C301B04019A1943EE
:10468800039B02F5E07243F8221000BF05B05DF805
:1046980004FB84B0019003230393019B03F00203FE
:1046A800002B02D048F201230393019B03F004037B
:1046B800002B02D048F202230393039B184604B050
:1046C8007047000000B58BB00590049103920293E7
:1046D800049B002B03D14149A920FDF7F3FD049B5E
:1046E8001A68049B5B689A4203D13C49AA20FDF7EB
:1046F800E9FD059B1B791A46342303FB02F3384A6C
:1047080013440993099B93F82D30002B03D00823F9
:104718000793079B5DE0099B039A1A60099B029A1D
:104728005A60099B00229A60099B002283F8302076
:10473800099B002283F82F20049B5A7B099B83F84E
:104748003220049B18680023019306230093032357
:1047580000220021FFF76CFF049B58680023019397
:1047680006230093032300220021FFF761FF059B26
:104778001B680893049B1968049B5B681A46089891
:10478800FFF7A4FE049B9B6819460898FFF7ADFE47
:10479800099B1B68002B15D0059B1B681846FFF763
:1047A8000DFE03461A46049B1B7B19461046FFF76D
:1047B8000DFE059B1B681846FFF700FE03461846CA
:1047C800FFF724FE099B012283F82D20002307937D
:1047D800079B18460BB05DF804FB00BF2C130100C3
:1047E800140B002000B585B00190019B1B791A4677
:1047F800342303FB02F30D4A13440393039B93F8FA
:104808002D30012B04D00A4940F21110FDF75AFD52
:10481800019B1B681846FFF750FE039B022283F892
:104828002D2000BF05B05DF804FB00BF140B00206D
:104838002C13010000B583B001900091009B03F098
:104848000103002B03D00198FFF7ACFE02E00198AA
:10485800FFF7B1FE009B03F00203002B03D0019881
:10486800FFF7B2FE02E00198FFF7B7FE00BF03B002
:104878005DF804FB30B589B0039002910192009372
:104888000023079308238DF81B304FF48273ADF88B
:104898001830019BDB681846FFF782FD034683F05A
:1048A8000103DBB2002B03D010230793079BA2E17F
:1048B800A0490298FFF7F7FD039B93F82F30DBB26E
:1048C800002B09D0039B9B6819460298FFF7E1FD6E
:1048D80011230793079B8EE1009B03F00403002B31
:1048E80006D1009B03F01003002B01D1012300E047
:1048F800002303F00103DAB2039B83F82F20039B04
:10490800019A03F10C0415460FCD0FC42B682360E0
:10491800009B1B0903F00103002B14BF0123002394
:10492800DAB2039B83F83020019B5B781946029822
:10493800FFF7F3FD4FF482710298FFF783FD4FF400
:1049480092710298FFF77EFD00990298FFF772FFB7
:10495800019B1B78032B00F2F38001A252F823F08D
:10496800AF4A0000094B0000554A00007949000091
:10497800009B03F01003002B04D06F4940F2711024
:10498800FDF7A0FC009B03F00803002B04D06A4944
:104998004FF4B970FDF796FC009B03F00403002B5D
:1049A80004D0654940F27310FDF78CFC019B1B692C
:1049B8001846FFF7F5FC034683F00103DBB2002B32
:1049C80003D010230793079B15E14FF480710298D9
:1049D800FFF7CEFD019BD968019B5B681A460298D8
:1049E800FFF7A8FD4FF4A8710298FFF72BFD4FF4CD
:1049F800B0710298FFF726FD4FF4A4710298FFF7F3
:104A080021FD20210298FFF70FFD08210298FFF7EA
:104A18000BFD00BF4FF4A8710298FFF728FD03466D
:104A280083F00103DBB2002BF4D14FF4A871029894
:104A3800FFF708FD019B1969019B9B681A460298BC
:104A4800FFF778FD039B3D4A9A607CE0019BD9689B
:104A5800019B5B681A460298FFF76CFD019B1B6976
:104A68001846FFF79DFC034683F00103DBB2002BD9
:104A780003D010230793079BBDE0019B1969019B95
:104A88009B681A460298FFF764FD4FF48451029818
:104A9800FFF76EFD039B40F202229A6020210298E4
:104AA800FFF7C2FC4FE0019BD968019B5B681A467F
:104AB8000298FFF73FFD009B03F02003002B11D065
:104AC8004FF480710298FFF753FD039B1B4A9A60CD
:104AD8004FF4A4710298FFF7B5FC4FF4A473ADF836
:104AE800183008E04FF400710298FFF741FD039B6E
:104AF80040F202229A6020210298FFF795FC22E0FA
:104B0800019BD968019B5B681A460298FFF721FD53
:104B18004FF480510298FFF72BFD039B40F20222CD
:104B28009A6000238DF81B3020210298FFF77CFC47
:104B380009E000BF02029C012C13010000020400DE
:104B48000723079300BF009B03F00803002B09D13C
:104B5800019B1B78032B05D09DF81B301946029842
:104B6800FFF762FC039B1B68002B28D0009B03F017
:104B78000403002B03D0039B4FF400729A60039B3D
:104B88009B6819460298FFF784FC33E04FF4927152
:104B98000298FFF76CFC0346002B10D04FF492717B
:104BA8000298FFF74FFC20210298FFF73DFC1421E3
:104BB8000298FFF739FC4FF48273ADF81830BDF84E
:104BC800183019460298FFF752FC034683F0010398
:104BD800DBB2002BDAD10298FFF791FC0590039B1A
:104BE800002283F82F20059B002B03D00598FFF7A0
:104BF80050FD0790079B184609B030BD00B587B037
:104C0800039002910192039B1B79002B09D1029B0F
:104C18005B68B3F5803F04D2029B9B68B3F5803F85
:104C280004D31B494FF4F870FDF74CFB00230593A0
:104C3800039B1B791A46342303FB02F3154A1344DA
:104C48000493049B1B68002B08D1029B1B78022B42
:104C580004D10F494FF4FB70FDF734FB049B1B682C
:104C6800002B08D1029B1B78032B04D1084940F282
:104C7800F710FDF727FB039B1968019B029A04981C
:104C8800FFF7F8FD0590059B184607B05DF804FB93
:104C98002C130100140B002000B58BB00390019277
:104CA80000930B468DF80B3005AB00221A605A6052
:104CB8009A60DA601A619DF80B308DF81530009B08
:104CC8000693019B08939DF83030002B01D02022D9
:104CD80000E0002205AB19460398FFF78FFF034653
:104CE80018460BB05DF804FB00B58BB00390019239
:104CF80000930B468DF80B3005AB00221A605A6002
:104D08009A60DA601A6101238DF814309DF80B302F
:104D18008DF81530009B0693019B089305AB002284
:104D280019460398FFF76AFF034618460BB05DF86B
:104D380004FB000030B58BB001900091009B1B680C
:104D4800002B04D17E4940F24520FDF7BBFA4FF411
:104D580092710198FFF78BFB0346002B27D04FF485
:104D680092710198FFF76EFB4FF482710198FFF77B
:104D78007EFB034683F00103DBB2002B17D0009BB8
:104D88009B6819460198FFF78EFB009B02229A60E8
:104D9800009B9B6819460198FFF77BFB202101982F
:104DA800FFF742FB14210198FFF73EFBC5E04FF4E3
:104DB80082710198FFF75BFB0346002B50D04FF43C
:104DC80082710198FFF73EFB009B04AC03F10C05D0
:104DD8000FCD0FC42B682360009B93F82E30002B57
:104DE8001BD0009B1B7B012B04D10198FFF7D2FB42
:104DF800034603E00198FFF7C5FB03460593009BB4
:104E08001B7B022B04D10198FFF7C4FB034603E088
:104E18000198FFF7B7FB034606934FF4B07101986A
:104E2800FFF710FB4FF4AE710198FFF70BFB009BE7
:104E380093F8303083F00103DBB2002B04D1009BE0
:104E480093F82E30002B4CD000210198FFF790FBEF
:104E5800009B00229A603B490198FFF724FB40E041
:104E68004FF4A4710198FFF7EDFA009B1B7B002B10
:104E78001BD1009B04AC03F10C050FCD0FC42B68AC
:104E88002360009B93F8303083F00103DBB2002BE2
:104E980027D000210198FFF76BFB009B00229A6046
:104EA80028490198FFF7FFFA1BE04FF400710198B9
:104EB800FFF75EFB009B40F202229A6021490198AD
:104EC800FFF7F1FA009B9B6819460198FFF7E1FA92
:104ED80008210198FFF7A8FA20210198FFF7A4FA02
:104EE8002BE00198FFF70BFB0990099B03F00203E5
:104EF800002B03D001238DF80C300BE0099B03F045
:104F08000403002B03D002238DF80C3002E00023A9
:104F18008DF80C30009B93F8303083F00103DBB23E
:104F2800002B03D0009B002283F82F20009B1B68D6
:104F3800009A516803AA104698470BB030BD00BFCD
:104F48002C13010002029C0108B503494FF04020D0
:104F5800FFF7F0FE00BF08BD140B002084B00190DD
:104F68000B46ADF80230BDF80230019A1344002216
:104F78001A60BDF80230019A13441B680393039B1F
:104F880000BF04B0704782B001900B46ADF8023004
:104F9800BDF80230019A13441B68002B14BF01238B
:104FA8000023DBB2184602B07047000000B583B09A
:104FB8000190019B1B682F2B04D90B494FF4F37008
:104FC800FDF780F9019B1B681F2B02D84FF0A04307
:104FD80006E0019B1B6803F01F02019B1A60034B4C
:104FE800184603B05DF804FB941301000003005059
:104FF80000B585B0019001AB1846FFF7D7FF0390C5
:10500800019B012202FA03F31946039800F018F8ED
:1050180000BF05B05DF804FB00B585B0019001AB99
:105028001846FFF7C3FF0390019B012202FA03F31E
:105038001946039800F00EF800BF05B05DF804FBB0
:1050480082B001900091019B009AC3F8082500BF27
:1050580002B0704782B001900091019B009AC3F89A
:105068000C2500BF02B0704700B583B00190019BCA
:10507800DB7FFF2B0ED0019B9B7F002B05D0019B74
:10508800DB7F1846FFF7C8FF04E0019BDB7F18466B
:10509800FFF7AEFF019B00225A77019B00221A728C
:1050A800019B1B68019A02F10800019A5268114697
:1050B800984700BF03B05DF804FB000000B583B05B
:1050C800019000914FF48C710198FFF75CFF034643
:1050D800002B10D04FF48C710198FFF73FFF009B15
:1050E8001B68002B04D106494FF42770FDF7EAF836
:1050F8000098FFF7B9FF00BF03B05DF804FB00BFDD
:10510800CC13010008B503490348FFF7D7FF00BFD8
:1051180008BD00BF480B002000F0024082B00346E3
:105128008DF807309DF8073003F01F0205499DF9F7
:1051380007305B09012000FA02F241F8232000BF82
:1051480002B0704700E100E082B0034600918DF89C
:1051580007309DF90730002B0CDA009BDAB20C49B6
:105168009DF8073003F00F03043B5201D2B20B4401
:105178001A7609E0009BDAB206499DF90730520118
:10518800D2B20B4483F8002300BF02B0704700BFBF
:1051980000ED00E000E100E082B00190019B03F027
:1051A8006043B3F1005F0CBF01230023DBB2184654
:1051B80002B0704782B00190019B1B0B5BB218468E
:1051C80002B0704700B583B003460A468DF8073031
:1051D80013468DF806309DF80630072B03D9084989
:1051E8006B20FDF76FF89DF806209DF907301146F2
:1051F8001846FFF7A9FF00BF03B05DF804FB00BF26
:105208000414010000B583B003468DF807309DF9FA
:1052180007301846FFF782FF00BF03B05DF804FBB4
:1052280082B001900B468DF803309DF80330019A47
:10523800134401221A6000BF02B0704784B0019085
:105248000B46ADF80230BDF80230019A1344002233
:105258001A60BDF80230019A13441B680393039B3C
:1052680000BF04B0704782B001900B46ADF8023021
:10527800BDF80230019A13441B68002B14BF0123A8
:105288000023DBB2184602B0704782B0019000914B
:10529800019BD3F80022009B1A43019BC3F800220C
:1052A80000BF02B0704782B001900091019B009A44
:1052B800C3F8042300BF02B0704782B00190019B7D
:1052C8000222C3F8002500BF02B0704784B00390E3
:1052D800029101920093039B029AC3F80825039B4D
:1052E800019AC3F81025039B009AC3F80C25039B69
:1052F800049AC3F8142500BF04B0704784B0039023
:1053080002910192029A039BC3F84425039B019AD8
:10531800C3F8482500BF04B0704784B003900291D9
:105328000192029A039BC3F83425039B019AC3F8A0
:10533800382500BF04B0704782B00190019BD3F8B4
:105348004C35184602B0704782B00190019BD3F8E3
:105358003C35184602B0704784B001900B468DF872
:10536800033013468DF802309DF80230002B14BF2D
:1053780001230023DBB203939DF80330022B09D0ED
:10538800032B0CD0012B00D00EE0039B43F002034B
:10539800039309E0039B43F00403039304E0039B96
:1053A80043F00603039300BF019B039AC3F85425F7
:1053B80000BF04B0704782B001900B468DF80330EF
:1053C8009DF80320019BC3F8C02500BF02B07047B9
:1053D80082B001900B468DF803309DF80320019BA5
:1053E800C3F85C2500BF02B07047000000B583B069
:1053F8000190019B1B682F2B04D90B494FF4F370C4
:10540800FCF760FF019B1B681F2B02D84FF0A043DD
:1054180006E0019B1B6803F01F02019B1A60034B07
:10542800184603B05DF804FB341401000003005073
:1054380000B585B00190084611461A4603468DF816
:1054480003300B468DF8023013468DF8013001AB5E
:105458001846FFF7CBFF03909DF803209DF8023014
:105468005B001A439DF801309B001A439DF81830E1
:105478001B0242EA03019DF81C301B04019A1943E0
:10548800039B02F5E07243F8221000BF05B05DF8F7
:1054980004FB000030B58DB005900491039202938F
:1054A800049B002B03D17F498C20FCF70BFF039B47
:1054B800002B03D17B498D20FCF704FF059B1B794A
:1054C8001A461346DB009B1A9B00774A134409933C
:1054D800059B1B680893099B1B7D002B14D0082390
:1054E8000793724A724BD31ADB081B0443F0020479
:1054F800704D0798FDF766FE03462A466E4920461A
:10550800FBF7F5FB079BC9E0049B1B7C032B14D915
:1055180007230793654A664BD31ADB081B0443F03D
:105528000204644D0798FDF74DFE03462A4662497A
:105538002046FBF7DCFB079BB0E0049B1B68FF2BB6
:105548000FD0049B1868049BDB7C00220192009317
:10555800002300220021FFF76BFF049B1B680A93BE
:1055680002E04FF0FF330A93049B5B68FF2B0ED0D9
:10557800049B586800230193002300930023002212
:105588000021FFF755FF049B5B680B9302E04FF087
:10559800FF330B93049BD868049B9A7C00230193E8
:1055A80000230093134600220021FFF741FF049BCC
:1055B8009868002301930023009300230022002110
:1055C800FFF736FF049B9968049BDB6800930A9BEE
:1055D8000B9A0898FFF77AFE002200210898FFF737
:1055E8009CFE002200210898FFF788FE049B197C86
:1055F800049B5B7C1A460898FFF7AEFE049B1B7D54
:1056080019460898FFF7E4FE049B5B7D1946089845
:10561800FFF7D1FE4FF482710898FFF70FFE4FF4A1
:1056280094710898FFF70AFE04210898FFF72DFEE9
:10563800099B00225A75099B039A9A60099B029A52
:105648009A6140F202410898FFF72DFE059B1B68FE
:105658001846FFF7AFFD03461A46049B9B7D194683
:105668001046FFF7AFFD059B1B681846FFF7A2FD24
:1056780003461846FFF7C6FD099B01221A750898CC
:10568800FFF71BFE094A0A4BD31ADB081B0443F039
:1056980003030A491846FBF70BFB002318460DB015
:1056A80030BD00BF6C1401006C0B002054070100D2
:1056B80034070100F8140100A4140100C414010007
:1056C80000B587B001900091009B5B7DDBB2022B97
:1056D80009D0032B1FD0012B00D046E024210198CC
:1056E800FFF79EFD41E000238DF80C300023049362
:1056F80000230593009B9B68002B04D11D4940F2B1
:105708005510FCF7DFFD009B9B68009A916903AA7E
:105718001046984729E001238DF80C300198FFF7CF
:1057280013FE034604930198FFF706FE034605930C
:10573800114A124BD31ADB081B0443F00303049AE3
:105748000F491846FBF7C2FA009B9B68002B04D14F
:10575800084940F26110FCF7B5FD009B9B68009A70
:10576800916903AA1046984700BF00BF07B05DF8CB
:1057780004FB00BF6C14010054070100340701004A
:10578800E414010000B585B00390029113468DF82A
:105798000730029B9DF807205A7502990398FFF776
:1057A8008FFF00BF05B05DF804FB000030B587B07F
:1057B8000390029101920093029B002B07D1019B59
:1057C800002B04D04B4940F27F10FCF77BFD009B77
:1057D800002B07D10A9B002B04D046494FF4C07018
:1057E800FCF770FD039B1B791A461346DB009B1AD6
:1057F8009B00414A13440493039B1B79002B07D158
:105808000A9BB3F5803F03D2019BB3F5803F01D3D8
:1058180009236BE0029B002B08D00298FFF7BCFC21
:10582800034683F00103DBB2002B0BD1009B002B56
:105838001DD00098FFF7B0FC034683F00103DBB2EC
:10584800002B14D0102305932C4A2D4BD31ADB08B8
:105858001B0443F002042B4D0598FDF7B3FC0346E7
:105868002A4629492046FBF742FA059B3EE0049B5D
:105878005B7DDBB2032B24D801A252F823F000BFD2
:1058880099580000C5580000995800009958000020
:10589800049B029ADA60049B009A1A61049B019A9D
:1058A8001A60049B0A9A5A6000230593039B1B689D
:1058B800012204991846FFF765FF05E008230593C0
:1058C80002E00323059300BF0C4A0D4BD31ADB08F3
:1058D8001B0443F003040B4D0598FDF773FC0346C6
:1058E8002A4609492046FBF702FA059B184607B0E5
:1058F80030BD00BF6C1401006C0B00205407010080
:105908003407010008150100A414010000B583B094
:10591800019000914FF494710198FFF7A4FC03469D
:10592800002B24D04FF494710198FFF787FC009B5B
:105938005B7DDBB2012B00D01AE0009BD968009B8D
:105948001B681A460198FFF7D9FC009B1969009B50
:105958005B681A460198FFF7E0FC28210198FFF7D9
:105968005FFC022200990198FFF70CFF00E000BFDE
:105978004FF482710198FFF776FC0346002B10D094
:105988004FF482710198FFF759FC009B5B7DDBB2F5
:10599800022B00D006E0032200990198FFF7F2FEDF
:1059A80000E000BF00BF03B05DF804FB08B5034981
:1059B8000348FFF7ABFF00BF08BD00BF6C0B00201A
:1059C8000030024000B583B01F4B0193019B0222B7
:1059D8001A61019B02225A61019B1C4A9A61019B30
:1059E8001B4ADA61019B4FF400721A62019B002284
:1059F8009A62019B00225A62019B0022DA62019B93
:105A0800124A9A64019B134ADA64019B10221A65B0
:105A1800019B00229A65019B00225A65019B002286
:105A2800DA65019B07330C49184607F043F8019BD8
:105A38000A49184607F03EF8019B20229A7100BFD8
:105A480003B05DF804FB00BF880B0020201501009F
:105A5800000C0020000E00202C150100301501005C
:105A680000B589B003900291019200230693039B2D
:105A7800DB680593039B1B690493049A059B9A4270
:105A880005D9049A059BD31A013B079307E0039BAA
:105A98009A680499059BCB1A1344013B0793039B0F
:105AA8009A68059BD31A079A934228BF134607930F
:105AB800079A019B934228BF13460793039B5A6892
:105AC800059B1344079A0299184606F097FF069A11
