:100000000000042079030000610300006303000086
:1000100065030000670300006903000000000000A2
:100020000000000000000000000000006B03000062
:100030006D030000000000006F030000710300006A
:100040003D4E030041280300FD0D03007303000033
:100050007303000073030000615103007303000089
:1000600073030000730300007303000073030000B8
:1000700073030000B908030073030000730300005A
:100080007303000065170000730300007303000092
:1000900021180000730300007303000073030000C5
:1000A0007303000073030000730300007303000078
:1000B0007303000073030000000000000000000054
:1000C0007303000073030000730300007303000058
:1000D0003DD90200730300007303000073030000A6
:1000E0007303000073030000B1C3030000000000AD
:1000F0000000000073030000000000007303000014
:1001000000000000000000000000000000000000EF
:1001100000000000000000000000000000000000DF
:1001200000000000000000000000000000000000CF
:1001300000000000000000000000000000000000BF
:1001400000000000000000000000000000000000AF
:10015000000000000000000000000000000000009F
:10016000000000000000000000000000000000008F
:10017000000000000000000000000000000000007F
:10018000000000000000000000000000000000006F
:10019000000000000000000000000000000000005F
:1001A000000000000000000000000000000000004F
:1001B000000000000000000000000000000000003F
:1001C000000000000000000000000000000000002F
:1001D000000000000000000000000000000000001F
:1001E000000000000000000000000000000000000F
:1001F00000000000000000000000000000000000FF
:10020000364937480A1A02D0072291438D463549AC
:1002100035480A1A06D00722914381F30988022241
:1002200082F3148831483249324A00F045F83248A6
:100230003249334A00F040F832483349334A00F03B
:100240003BF833483349344A00F036F833483449F0
:10025000344A00F031F834483449354A00F02CF87B
:1002600034483549354A00F027F8354835490022E9
:1002700000F02DF834483549002200F028F83448C1
:100280003449091A082903DB0022026004300160A6
:10029000314A90471F482049884205D002680430FF
:1002A00003B4904703BCF7E700208646EC460020E5
:1002B00000212A4A9047FEE7884207D0521A05D00B
:1002C000037801300B700131013AF9D1704788424F
:1002D00002D002700130FAE77047000000000420ED
:1002E00000E003200000042000000420A4D9040042
:1002F00000000020C8000020D8030000D803000040
:100300006C380400A4D90400000000200000002084
:10031000C0380400C0380400C0380400C0380400ED
:10032000C0380400C0380400C0380400C0380400DD
:10033000A3D904006CDA0400C8000020C800002023
:10034000C80000208C2101208C2101209021012057
:100350009021012090210120A1030000051100003F
:10036000FEE7FEE7FEE7FEE7FEE7FEE7FEE7FEE765
:10037000FEE7FEE7704700BF1048804710484FF087
:100380000701884385460F4880470F48016841F4BC
:1003900070010160BFF34F8FBFF36F8FFFF730BF66
:1003A0000A480B490B4A884207D0521A05D00378F5
:1003B00001300B700131013AF9D17047750300002B
:1003C000000004204163030088ED00E0C038040011
:0803D0000000002000000020E5
:1003D80000487047842101207047000007B5044B8E
:1003E8000093044A402300F032F803B05DF804FBA0
:1003F80001040000C90000202DE9F843894614468D
:10040800B2B10F4B0F4E0325002743F001082246D7
:1004180009EB0701002035F019FF0744241A48B9F1
:1004280033782BB14FF47A40C047013D02D1357083
:10043800BDE8F88301233370002CE8D1F8E700BF4A
:10044800C0380400C8000020704735F063BFF0B51D
:1004580095B01C46164608460D4601F086FF1A9BC5
:100468000D93CDE9086400242346082205A92846EF
:100478000A948DF82C400C9401F095FF079B029389
:10048800BDF81830ADF80C30BDF81A30ADF80E30A4
:100498009DF814308DF8114003F00302012A1DD194
:1004A800BDF81440059EC3F3C203C4F383148DF84A
:1004B8001030A20008230EA9284601F074FFC6F3E5
:1004C800952608AB0093224602AB0EA9304600F0F1
:1004D80055FB284601F04DFF15B0F0BD022AF8D1B2
:1004E800BDF81640C3F3C203A4098DF810300827DD
:1004F800082C264628BF08263B4632460EA9284621
:1005080001F051FFA41B08AB02AA31460EA83744DC
:1005180000F098FB002CEBD1DBE7000008B5FFF7F3
:1005280094FF0421034800F097FA034B01225A7103
:1005380008BD00BF9C38040000000020037813F0B9
:10054800040216D003F00303012B03D0022B09D0B9
:10055800012070470A6800880232C0F38310024401
:100568000A60F5E70B684288023303EB92130B60CD
:10057800EEE71046704700002DE9F04F484C87B071
:100588000F460546861C0020019201F041FB2368B6
:100598003B60D4E901231344226801339B1A04F217
:1005A8001C4704F5836A04F21448B34219D3019A2C
:1005B8000023002A6CD0012262F3010343F00403F4
:1005C80065F389132168A2680A4003320E440020AB
:1005D80044F82230266001F01DFB012007B0BDE879
:1005E800F08F0121384601F004FC504601F017FC59
:1005F800404601F014FC0DF118096068D4F808B001
:1006080049F8100D00EA0B00033004EB800049465E
:10061800FFF794FF029BB0B90BEA030204EB8202D6
:10062800D16803919A1C013303EA0B0B04EB8B0C82
:1006380001F00303012B0292DCF80CB020D0022B4E
:1006480004D083460BE00BEA0300DDE7BDF80E306B
:100658009B0903334FEA1B4B02EB9303029340467B
:1006680001F0E0FB08B1029B63605946384601F08F
:10067800C0FBD4E901231344226801339B1A94E791
:10068800BDF80C30C3F383134FEA1B4B1344E5E763
:10069800022262F3010343F0040365F39F5391E7D9
:1006A800DC0100200B4B0C48FF2210B59A60002299
:1006B800C3F81824C3E90022C3F8142483F82024BB
:1006C80001F00CFE044610B9044801F077FE2046FC
:1006D80010BD00BFDC010020AC380400E438040081
:1006E80030B50A4C71B10A4A0A49121BD2080023D4
:1006F8009A4201D1002030BD31F82350854202D002
:100708000133F5E7034654F83300F4E76C38040086
:100718009C38040000000020094B013903EBC0009D
:10072800032909D8DFE801F00A020406042070470B
:100738000079704740797047002070470220704761
:100748006C380400034BD3E90030C31A58425841AF
:10075800704700BFDC0100202DE9F04385B0FFF7AA
:10076800F1FF0646002840F0F9807D4DC5F81804D1
:10077800BFF34F8F6868AC6804AF47F8100D20408E
:10078800033005EB80003946FFF7D8FE009B18B10F
:10079800D5F81824002A5FD004EA0302991C013313
:1007A80005EB8202234005EB8303D268DB680293E2
:1007B80002F00303022B0192009162D1BDF80630CA
:1007C80068484FEA9318B8F1500FC14628BF4FF058
:1007D800500969F38F1309F10801ADF8063001F0EB
:1007E80095FD0746002800F0A48001F0BEFD01A990
:1007F80000230822384601F0CBFD009924EA0106BF
:100808000136B600B14535D95FFA89F97EB3F6B23B
:10081800A9EB0609214003315FFA89F4B146524E2B
:1008280005EB810108234A46384601F0B1FD36B18F
:1008380009F1080322463146384601F0A9FD009B1C
:1008480008F1030803EB98030093D5F81834002B3C
:100858004BD1D5F810445BE02A689A4204D86A6004
:10086800304605B0BDE8F08304EA030088E73E4956
:100878003446D7E72140033108234A4605EB810176
:10088800DAE7012B55D1BDF804303648C3F383119C
:10089800062928BF062161F3891302318900ADF8C2
:1008A800043001F033FD0746002842D001F05DFD19
:1008B8000023082201A9384601F06AFD0026BDF888
:1008C8000420C2F38312B31C96424FEA8303BCD2BE
:1008D80000994A1C21400331009205EB8101042252
:1008E800384601F055FD0136E9E7384601F041FD8B
:1008F800FFF728FF80F00100C6B2B1E7E3685B7933
:1009080023B1236839461B6820469847E3681C686A
:10091800002CF3D1384601F02CFD204601F078F97F
:10092800D5F818340BB9009B6B60002001F072F900
:10093800DEE7D5F8104454B90C4B0D480D49C01AE0
:10094800C008000440F0020000F06EF8D0E7236809
:1009580020469B689847E3681C68ECE700267FE719
:10096800DC010020AC380400E80100206C380400E9
:100978007C380400F03804002DE9F74F284C8046F5
:100988000F46924601A9012218469B46D4F80890C2
:10099800FFF7F2FD88B3019D0026A91C5E4506EB12
:1009A800010234D100211F4801F003FA80F310003E
:1009B8006A1C02EA090204EB8202000405EA090340
:1009C800033340EA1840D06014F8232068F3C502C6
:1009D80004F8232034F8232066F3891224F823200E
:1009E80054F82320012167F39F2244F8232061F360
:1009F80001026FF3820204F8232094F820341BB11B
:100A0800FFF7AAFE0028FBD103B0BDE8F08F09EA82
:100A1800020204EB82025AF82630D3600136BDE7A1
:100A2800DC010020F805002000231A46FFF7A4BFC8
:100A380013B502AC012344F8042D2246FFF79CFFAE
:100A480002B010BD07B5CDE9002302236A46FFF7BF
:100A580093FF03B05DF804FB30B50F49D1F81024BB
:100A6800002314463CB9C468237152B9C1F8100474
:100A78002260184630BDE46825799D4206D0246876
:100A8800F0E7D268116821601060F2E701330A2BA1
:100A9800E7D14FF0FF33ECE7DC010020094A38B515
:100AA8000123D2F8104482F820341D4604B938BD19
:100AB800E3685D71236820465B689847E3681C68B3
:100AC800F4E700BFDC010020037A052B10B50C46C3
:100AD8000FD0437A23B1084A0849204601F0FCF9AF
:100AE8000749204601F0F8F92046BDE8104001F01A
:100AF800E8B9002AF8D0F3E7383904008C840400F8
:100B0800B0C90400C38873B504460D4633B1144A0E
:100B180000921449144A284601F0DEF9217A052981
:100B28001CD0637A4BB1A088FFF7F6FD0F4B104934
:100B380053F82020284601F0CFF9227A0D4BA088DF
:100B480053F822600021FFF7CBFD0B4903463246DC
:100B5800284602B0BDE8704001F0BEB902B070BDD1
:100B680038390400453904003D39040008390400C7
:100B78008C840400683904005D3904002DE9F043D1
:100B880085B01F460C9D002306460C46904695F8F6
:100B98000C902B7329463846FFF7B4FFB8F1060FBF
:100BA80009D8DFE808F00412181F2833400031463E
:100BB800284601F091F9002229463846FFF784FFBC
:100BC80085F80C9005B0BDE8F083226831462846C8
:100BD80001F082F9EFE7D4E900233146284601F015
:100BE8007BF9E8E7A36800933146D4E90023284657
:100BF80001F072F9DFE7E3680193A36800933146D7
:100C0800D4E90023284601F067F9D4E72369029361
:100C1800E3680193A36800933146D4E9002328468A
:100C280001F05AF9C7E76369039323690293E368FC
:100C38000193A36800933146D4E90023284601F0C4
:100C48004BF9B8E708292DE9F84F80460E461746B4
:100C58001C463AD8002593F80C901D731946104687
:100C6800FFF750FFDFF884A0DFF884B0AE422ED93A
:100C780018F805205946204601F02EF90135082DAF
:100C8800F4D11849DFF86CB0204601F025F94FF08F
:100C9800000A564520D918F80A507E2D03D8284650
:100CA80037F04EFA00B92E252A465946204601F05B
:100CB80013F90AF1010ABAF1080FEAD10122214613
:100CC8003846FFF701FF84F80C90BDE8F88F5146CD
:100CD800204601F001F9D1E70349204601F0FCF86C
:100CE800E7E700BF3639040034390400323904001C
:100CF8002C390400F6B80400074B1B5C1F2B8ABF75
:100D0800064A4FF0A04203F01F03D2F80405D8406A
:100D1800C04300F001007047C239040000030050CE
:100D2800074B1B5C1F2B86BF03F01F0305494FF0C1
:100D3800A041012202FA03F3C1F80C35704700BF45
:100D4800C239040000030050074B1B5C1F2B86BFF1
:100D580003F01F0305494FF0A041012202FA03F3F3
:100D6800C1F80835704700BFC239040000030050BD
:100D780008B50020FFF7E8FF0120FFF7E5FF022094
:100D8800FFF7E2FF0320BDE80840FFF7DDBF08B525
:100D98000020FFF7C5FF0120FFF7C2FF0220FFF781
:100DA800BFFF0320BDE80840FFF7BABF0A4B185C35
:100DB8001F288ABF094B4FF0A04300F01F00D3F84B
:100DC80004250121814021EA02000A40C3F80805F0
:100DD800C3F80C25704700BFC23904000003005057
:100DE8000B2809D00C2809D0182809D019280CBFBD
:100DF80003204FF0FF3070470020704701207047F4
:100E080002207047C20710B504460CD54FF0A04326
:100E18000322C3F83427C3F83827C3F83C27C3F89C
:100E28004027FFF7A5FFA3070AD54FF0A0430C22E0
:100E3800C3F82C27C3F83027C3F86027C3F8642702
:100E480010BD000070B50546084601F0A0FB074C30
:100E5800074B0849E41AE408240403462A4644F0E8
:100E68000300BDE87040FFF7EDBD00BF7C3804000B
:100E78006C3804009F3C04000B7870B50D460C2BB1
:100E880021D8DFE803F0212049076E205D208D205E
:100E980020207A00494B4A484A49C01AC008000431
:100EA80040F00300FFF7C0FDAB68474A03F11001AB
:100EB80053F8040B42F8040B8B42F9D11B881380BA
:100EC800424B2A791A7070BD3C4B3D4C4049E41A9C
:100ED800E408240444F00300FFF7A6FD4FF0A04304
:100EE8004FF48032C3F80C250022C3F80825394B8B
:100EF80039481D6837F0F6FB384B82B22946384826
:100F080035F03CFC02460028DDD0364944F00100AB
:100F1800BDE87040FFF78CBD284B29483249C01AFC
:100F2800C008000440F00300FFF77EFD4FF0A04327
:100F38004FF48032C3F808250022C3F80C25C2E715
:100F48001E4B1F4C2949E41AE408240444F0030406
:100F58002046FFF769FD1F4B2A8B25499A802046BA
:100F6800D6E71748154B2349C01AC008000440F0BB
:100F78000300BDE87040FFF757BD104B104C1E49E9
:100F8800E41AE408240444F003042046FFF74CFD67
:100F9800EB886A7919492046BDE87040FFF752BDD1
:100FA800064B074C1649E41AE408240444F00304E9
:100FB8002046FFF739FD2A791249D0E76C3804003A
:100FC8007C380400683A0400220A0020340A002011
:100FD8009D3A04001C00002024000020360A00204E
:100FE800A8080020C03A0400F73A04001D3B04009A
:100FF800473B04007F3B0400BB3B0400FB3B040071
:10100800333C04006E3C04001FB5044636F062FF12
:1010180001F0BDFA012815D9102C15D0112C36D0A5
:101028000F2C0FD10521284835F032FD024648B172
:10103800264B274827491B1ADB081B0443F00100ED
:10104800FFF7F6FC04B010BD1F4835F09CFA0328E2
:101058000CD11D4835F05DFB02460028F2D01B4B31
:101068001B481D491B1ADB081B04E7E71B4A1C4BDE
:1010780012781C49144835F0CBFA02460028E1D012
:10108800124B134818491B1ADB081B04D6E7174AEA
:101098000D481378312B0CBF30233123137004AA69
:1010A80002F8013D124B9988124B0093012335F049
:1010B80047FB02460028C5D0044B05480E491B1AB9
:1010C800DB081B04BAE700BFA80800207C3804002E
:1010D8006C380400C6390400FE390400340A0020C4
:1010E800C0090020220A0020013A0400350A002025
:1010F8001C000020360A0020323A04001FB54FF4C5
:1011080000410020FFF7CEFA08B100F0BBF9FFF765
:1011180005FA354A2021082000F0FAF908B100F054
:10112800B1F900F0CFFC08B100F0ACF900230122BE
:101138004FF0A041032002FA03F414F4F03F18BF63
:1011480003F5E07403F1010318BF41F82400202BD4
:10115800F1D14FF0A0424FF4F033C2F80835002324
:10116800C2F80C3501A8CDE90133039301238DF8AA
:10117800063036F0DBFD36F077FE1C4836F0B0FE60
:101188001B49032034F042FA08B100F07BF936F02D
:10119800A1FE34F005FB08B100F074F936F09AFEB0
:1011A800144A03464BF65901134835F0EFF908B1D4
:1011B80000F068F9114C1248012323803C23638016
:1011C80037F090FA0E49A08082B204F10A0037F095
:1011D800E4F936F055FE00F01FFAFFF7BDFA0028D3
:1011E800F7D136F059FEF4E7980600204D0E0000BE
:1011F80011100000810E0000A8080020C00900207E
:10120800080000202DE9F04F3B4F89B000263B4BEA
:101218001B78F5B2AB4202D809B0BDE8F08F384B65
:10122800196811F835000124A0F12002C0F120034B
:1012380004FA02F924FA03F349EA0309D7E9002377
:1012480004FA00F8CDE9042302EA080203EA0903D4
:10125800134301EBC50B4CD0DDE9042322EA080255
:1012680023EA0903C7E90023079133F065FF0799CB
:10127800844611F83500A0F12002C0F1200324FAB9
:1012880003F304FA02F21A4304FA00F300931D4B25
:101298000192DDE90045D3E9002314401D402246B0
:1012A8002B465FFA8CF40025CDE90445049CA0F197
:1012B8002005AC400394049CC0F1200124FA01F1FC
:1012C800039C0C430499039481400291DDE9024593
:1012D800AB4208BFA2420CD19BF801104B1E5942E9
:1012E8005941A1EB0C02DBF804305142514103B1E2
:1012F800984701368BE700BF680A0020380A0020AB
:10130800700A0020600A00202DE9F84F064624489C
:1013180000F05CFC002841D10123A6F12001C6F1B0
:10132800200203FA01FB23FA02F203FA06FA1D4B24
:10133800D3E900014BEA020B00EA0A0801EA0B09AB
:1013480058EA09021F4623D1304633F0F5FE164B02
:10135800B8B1D3E9000140EA0A0441EA0B05C3E940
:101368000045D7E900234BEA0305104B0C481968E0
:101378004AEA0204C7E900450022BDE8F84F00F038
:10138800E3BBD3E9000120EA0A0421EA0B05E6E7FA
:1013980020EA0A0421EA0B05C3E90045BDE8F88FF5
:1013A800400A0020680A0020600A00203C0A002049
:1013B800042A2DE9F34105460C4616463AD933F07E
:1013C800E1FDD8B11C4B1D491D601D4BDFF8848021
:1013D8001C701C4B00221E600023C1E900231A491F
:1013E800C1E90023013CE4B200260327FF2C0CD1FD
:1013F800164A1748002100F095FB03E033F08CFDF6
:101408000028DFD002B0BDE8F08123B205EBC302AB
:1014180001A992788DF8052015F833008DF806603B
:1014280042468DF8047033F0B7FD013CE4B2002861
:10143800DCD0E7E70720E5E7700A0020600A002013
:10144800380A00203C0A0020680A00200D1200001B
:10145800D03C04001113000070B5084D084E00245C
:101468002B789C4201D3002070BD3368012113F80A
:10147800340033F017FE0134F2E700BF380A0020C9
:10148800700A00201FB50021039001AA44F2010050
:10149800CDE9011100F004F805B05DF804FB000087
:1014A80010B572B6FFF7FAFAFFF756F90028FBD124
:1014B800104B114C1149E41AE408240444F00100CB
:1014C800FFF7B2FA0E4B1B68DB0700D500BE0D49CB
:1014D80044F00200FFF7A8FABFF34F8F0A490B4BFD
:1014E800CA6802F4E0621343CB60BFF34F8F00BFBA
:1014F800FDE700BF6C3804007C380400D43C0400CD
:10150800F0ED00E0E03C040000ED00E00400FA0526
:1015180012F0030310B511D1094C22604C1CE400F1
:10152800A4B22244074C2260074A1370074A13707A
:10153800074A1080074A1846118010BD0720FCE7AB
:101548007C0A0020780A0020740A0020840A0020FF
:10155800800A0020820A00202DE9F047284D2B88B8
:101568008B4206460C46174645D3002000F050FB38
:10157800244B254A2548197813780088DBB2834222
:1015880038BF0133C9B234BFDBB2002399422CD033
:1015980092F800801378DBB2984286BF0133DBB241
:1015A80000231370002000F035FB4FF6FF739845B9
:1015B80023D0DFF860A0DAF800304FEAC80903EB5F
:1015C800090243F838709EB194B1114B28881B6802
:1015D800224608FB0030314636F0DFFFDAF80030EB
:1015E8004B4400209C80BDE8F0874FF6FF78D9E790
:1015F80000209080F7E70920F5E70420F3E700BF13
:10160800800A0020840A0020740A0020820A002030
:10161800780A00207C0A0020F8B5124C124D2646A4
:1016280022782B789A4200D1F8BD23780F48104AC7
:10163800078812680F48DBB219B202EBC10C0068C8
:1016480052F83120BCF8041003FB070090470A4AFF
:1016580023781288DBB29A4286BF0133DBB20023BB
:101668003370DDE7840A0020740A0020800A002015
:101678007C0A0020780A0020820A0020094A537850
:1016880091780133DBB2994208BF0023117899425F
:101698001FBF03705078182303FB002014BF0430C9
:1016A80000207047880A0020082910B5044602D097
:1016B8000020FFF7E7FED4E90030BDE810401847E6
:1016C80037B5044600200D4600F0A2FA0DF10700D8
:1016D800FFF7D4FF90B10570094B9DF807204460CF
:1016E8005A700024002000F095FA24B9054B4FF4F5
:1016F8008012C3F80021204603B030BD0424F1E76E
:10170800880A002000E100E0024B4FF43C6043F0FF
:1017180001031847F03C040038B50C4B0C4C4FF44F
:101728000032C3F8802001254FF48033C4F84833D1
:10173800C4F808336560FFF7E7FF064BA56000248F
:101748001C60FFF7E1FF044B1C7038BD00E100E0AE
:1017580000100140A40B0020950B0020264B2DE91A
:10176800F3411B6825490025C1F84051C1F844518F
:10177800C1F84851C1F84C51C1F80051C1F80451A1
:10178800002B34D0D1F804451D49DFF8888009685A
:10179800641A24F07F442F461A68A24212D8A41A69
:1017A80015441A7CDE6962B15A691F7400929B69FC
:1017B8000193424608216846FFF7CEFE08B1FFF7BD
:1017C80061FEBEB90F4B104A197813788B4205D1C8
:1017D8000133DBB2022B08BF0023137012780B4BC6
:1017E80043F822500A4B4FF48012C3F8002102B08C
:1017F800BDE8F0813346CFE7A80B00200010014078
:10180800A40B0020A00B0020A10B0020980B0020A7
:1018180000E100E0B11600002DE9F74F9E4A9F490C
:10182800137809789E4D99423CD00133DBB2022BE4
:1018380008BF002313709B4912789B4B0F6853F81D
:1018480022003B1823F07F4300220B602B681646CA
:101858001446944613B942B12B6006E019688142D8
:101868000ED902B12B60091A19604FF001082B68D4
:10187800DFF83CA200930027BEB9DFF83CB260E075
:10188800401A0C44D968C3F800C0D3F81CE031B141
:101898003A1922F07F42C3E90121DE611E46012286
:1018A8007346D7E70026B046E1E73446F6697D4A35
:1018B80063681268DFF804C2A068991A21F07F41B2
:1018C800614500F2A58001442160012222742A6842
:1018D8000023C4E90133E361002A40F0A2802C60B0
:1018E800CAE75A1C9BF80210D2B291428BF800202A
:1018F80004BF00228BF80020182202FB03B32A68D9
:1019080019799C68022974D003297ED0012918D13D
:10191800217CB1B9DA6862601A69A2605A699B6968
:10192800A361624BE2601B78002BC0D06160BEE708
:101938009C4200F093809946DB69002BF8D1002384
:1019480023749BF800309BF801209A42C9D12B6878
:101958002FB9009A934202D1B8F1000F43D0002B5F
:1019680079D0D3F800A0524D4E4BD5F804751C68B9
:10197800DFF84C813E1B98F8003026F07F4603368E
:101988009BB94FF48033C5F84433C5F80433494B49
:101998004FF400324FF00109C3F880211A60C5F8EE
:1019A8000090FFF7B1FE88F80090B2452CBF544470
:1019B800A41924F07F44C5F84045D5F80435DB1B4D
:1019C80023F07F43E41B033324F07F44A3420AD966
:1019D800D5F80435C5F84035FFF796FE354B4FF47A
:1019E8000032C3F80021314B00221A7003B0BDE861
:1019F800F08F13469146A0E71174D2690123002A9B
:101A0800FAD1002B9DD02A609BE700231946F6E700
:101A1800D31A23F07F43834234BFC31A00232360C1
:101A280053E721681368994213D8591A1160E26183
:101A380055E7091AD8691A4638B103461868884222
:101A4800F7D3401A1860184613462160E061DC613C
:101A580012E71346F2E7FFF75FFEC4E74C450DD1E6
:101A6800D3692B6053B90F4801920121CAF80810B5
:101A780003600E4B1970FFF747FE019AE16923686E
:101A8800C9F81C1011B1086803440B602B689A420E
:101A980018BF012753E700BFA00B0020A10B0020AF
:101AA800A80B0020A40B0020980B0020940B00200A
:101AB8000010014000E100E0880A0020FEFF7F00DE
:101AC800950B002008B5FFF727FE104B00200B22CE
:101AD80018809A700E4B18600E4B18700E4B1870C9
:101AE8000E4B4FF48012C021C3F8802183F81413E1
:101AF8001A6002F18042A2F56F22C2F8080583F845
:101B08001113074BD2F804251A6008BD880A002073
:101B1800A80B0020A00B0020A10B002000E100E092
:101B2800A40B0020074B9B784BB132B128B1036856
:101B3800187C20B959745A617047072070470820EB
:101B4800704700BF880A00202DE9F3411C4EB37886
:101B580004460D4617468BB380B304292CD9436934
:101B680063B3437C0020012B0CBF88464FF000086C
:101B780000F04EF80DF10700FFF780FDD0B101230A
:101B88000370104B4460D3F80435C0E90487C0E9FA
:101B980002359DF8073073700024002000F03AF8F1
:101BA80024B9094B4FF48012C3F80021204602B033
:101BB800BDE8F0810424F0E70724F7E70824F5E7F7
:101BC800880A00200010014000E100E0064A9278EF
:101BD8003AB130B1426922B1002202740221FFF702
:101BE8006FBD0820704700BF880A002072B6024AFD
:101BF8001368013313607047AC0B0020034A136865
:101C0800013B136003B962B6704700BFAC0B0020FC
:101C1800FFF7ECBFFFF7F2BF90B200F0BDB80000CD
:101C280010B5084B19680022012000FA02F40132AD
:101C38000C2A41EA0401F8D11960034B18700020FE
:101C480010BD00BFB00B0020B41300202C4B1B7834
:101C58002DE9F041002B4AD000284BD0002949D06B
:101C68000A68531EFF2B48D8264C274EDFF89C8065
:101C78000023A446B64656F8235054F82370AA42C7
:101C880003D858F82350AF4205D10C2F03D801339D
:101C9800072BF0D100231D4A1D4C1E4D52F823205E
:101CA80054F823602F680B2A02D948F2041019E06F
:101CB80000235CF82340A24203D30133072BF8D159
:101CC80000235EF8234027FA02F3DB070CD5012333
:101CD80003FA02F2104B27EA0202334403602A6037
:101CE8000C600020BDE8F08126440132DBE748F2B1
:101CF8000810F7E748F20E10F4E748F20710F1E78A
:101D0800B4130020F83C0400303D04004C3D0400AE
:101D1800143D0400B00B0020B40B002013B502A939
:101D2800002441F8040D68460094FFF78FFF00B1C6
:101D38000094009802B010BD124B1B78F0B57BB12F
:101D480070B10021104D114E114C0A466B18984283
:101D580007D11049012303FA02F20B6813430B6001
:101D6800F0BD002356F82370974203D80133072BA0
:101D7800F8D1002354F8233001320C2A1944E5D154
:101D8800EEE700BFB4130020B40B0020F83C0400B9
:101D9800303D0400B00B002007B5ADF800000191FC
:101DA8006A46002144F20200FFF77AFB03B05DF8AF
:101DB80004FB50E8002F0B4640E8003C9CF0000F65
:101DC800F7D11046704750E8003F43EA010240E867
:101DD800002C9CF0000FF6D11046704750E8002FF9
:101DE80002EA010340E8003C9CF0000FF6D11046DF
:101DF800704750E8003F03EB010240E8002C9CF0DC
:101E0800000FF6D11046704750E8003FA3EB0102DF
:101E180040E8002C9CF0000FF6D1104670470121D5
:101E2800FFF7D1BF0021FFF7D9BF10B590B1D0E9B6
:101E3800012301689B1ADBB20A60013BDBB2FF2B6E
:101E4800026802D10020107110BD11684C1C14608A
:101E58000B70F2E70E20F7E738B504460020FFF7CD
:101E6800D7FE226863681168994213D9481E10602A
:101E780011F8015CE368218A01FB0535A368117933
:101E88001B1ADBB2994200D213710020FFF7C2FE81
:101E9800284638BD0025F8E738B5054600200C4629
:101EA800FFF7B6FE2A681368591C1160E968641ABE
:101EB800298AB4FBF1F41C700020BDE83840FFF714
:101EC800A9BE826810B504462AB143690168006951
:101ED80098470023A36010BD0EB403B5039929B138
:101EE80002AA04AB42F8043D00F072F802B05DF8B3
:101EF80004EB03B070470A2938B504460D4602D1F1
:101F08000D21FFF7F8FFA3682268591CA160D5547A
:101F1800D4E901329A4204D32046BDE83840FFF79D
:101F2800D0BF38BD2DE9F84F9946DDE90A43174679
:101F3800824688460A460126BA420FD24E4538BF25
:101F48004E4613F0010B01D164B900240125B9F103
:101F5800010F1AD909F1FF397D43F8E7B2FBF7F20F
:101F68000136E9E79B070ED5B9F1000F0CBF302504
:101F78002025A642EAD2013C29465046FFF7BBFF7E
:101F8800002CF6D1E1E72025F3E7B8FBF5F39F42F3
:101F9800E2D9DFF83890B8FBF5F3504619F803108A
:101FA80005FB1388FFF7A7FFB5FBF7F5002DF2D166
:101FB800BBF1000F02D00CB1A64201D3BDE8F88FE7
:101FC80020215046013CFFF796FFF4E7713D0400DD
:101FD8002DE9F74F054690460E46002900F03A8154
:101FE80016F8011B002958D0252940F0D180002778
:101FF80002E047F001071646324612F8013B2D2B46
:10200800F7D0302B04D02B2B05D147F00407F2E78B
:1020180047F00207EFE700242A2B06F101021BD143
:10202800D8F80030191D1B68C8F800101C44164663
:1020380033782E2B1CD101364FF0000A314611F8A7
:10204800012BA2F13000092814D80A2303FB0A2324
:10205800A3F1300A0E46F1E712F8013CA3F1300172
:102068000929E5D80A2101FB0434303C1646D3E798
:102078004FF0000A324612F8011B01F0FB006828F5
:102088001646F8D0692916D054D8582970D00ED8D9
:1020980025297DD03378002BA2D12B7B002B00F093
:1020A800D980284603B0BDE8F04FFFF70ABF63297F
:1020B80068D06429EED1D8F80020D2F80090111D1C
:1020C80089EAE972C8F80010A2EBE9724FF0010B37
:1020D800092A61DCD34538BFD3462CB1B9F1000FCA
:1020E80001DB790700D5013CBA0702D5BAF1000F28
:1020F80004D0FB0702D4002C54D10024B9F1000FFE
:1021080058DAC9F100092D212846FFF7F4FE07F037
:102118000302022A05D1BAF1000F02D1002C4DD1D9
:102128000024CDE9004753460A2249462846FFF7CE
:10213800F9FEAFE7732954D016D87029AAD1D8F878
:1021480000301A1DC8F80020302128461C68FFF707
:10215800D2FE78212846FFF7CEFE00220823CDE9DB
:10216800003221461022E1E775292FD0782991D134
:10217800D8F800100A1DC8F80020CDE900475346DA
:1021880010222CE0D8F800301A1D1978C8F8002061
:102198002846FFF7B0FE7DE70A230BF1010B92FBFF
:1021A800F3F295E7A345A9D220212846013CFFF781
:1021B800A2FEA0E77807AAD52B21A5E7A345B0D2B0
:1021C80030212846013CFFF796FEA7E7D8F8001013
:1021D800CDE900470A1DC8F8002053460A220968BD
:1021E800A4E7D8F800301A1DC8F80020F907D3F87A
:1021F800009012D54F46A7EB090B17F8011B41B900
:10220800A345BFF447AF20212846013CFFF773FEE2
:10221800F6E72846FFF76FFEEDE7B9F1000F17D094
:10222800484636F05FFA0746BC4200D954B909F16E
:10223800FF3919F8011F00293FF42CAF2846FFF792
:102248005AFEF6E720212846013CFFF754FEEBE74B
:102258004F46E9E703B0BDE8F08F2DE9F047B0F845
:1022680006904479D2F800A09DF8208009FB04F478
:10227800043C06460AEB0300A0420F4688BFA4EBC5
:10228800030A191DC2F800A0B1FBF9F509FB1511E5
:102298004DB9A9EB0104544528BF5446BAF1000FC3
:1022A80004D1BDE8F0873668013DF1E704317B19B8
:1022B80070182246B8F1000F0ED001461846AAEB56
:1022C800040A36F06AF9D145254436684C464FF081
:1022D800000128BF5446E1E71946F0E7FFF7A5BD1E
:1022E800F8B546790146721E0546002393422D68CB
:1022F80003D30024A64202D8F8BD0133F6E70F68DD
:102308002846FFF7C9FD01343946F3E72DE9F843BC
:10231800068ACD1C0746FFF79FFD043E3544044658
:10232800B5FBF6F5F0B14FF48073EDB28380C6804B
:10233800013D076081464FF00008A84512D2384693
:10234800FFF78AFD064648B163790133637108F1E6
:102358000108C9F8000007608146EEE72046FFF74C
:10236800BFFF34462046BDE8F88301210430FFF75B
:1023780040BD10B5012104460430FFF745FD10F0BB
:10238800FF0F04D12046BDE81040FFF7A9BF10BDDC
:102398001FB504AC44F8042D002200922246FFF732
:1023A8005CFF04B010BD1FB504AC44F8042D012235
:1023B80000922246FFF751FF04B010BD8368002247
:1023C8005A609A60C3E90422DA601A60704744F6DA
:1023D800EC03C058704700F58F4078300CF0C2B954
:1023E80000F58940603070472DE9F34144F6030356
:1023F8000646C45C88461CBB00F5824505F574702A
:1024080002AF04F0D8FAFD2307F8083D052241463B
:102418000DF1010036F0C1F806F58F4039467830E5
:10242800ADF8064009F0D9FA05F51A7000F0FAFE81
:1024380005F52F7000F04CFF204602B0BDE8F08192
:102448000D20FAE713B544F62C030122C45C0021E1
:1024580001A836F0CBF8200742BF9DF8043043F0BE
:1024680001038DF80430610742BF9DF8043043F042
:1024780002038DF80430A20742BF9DF8043043F0F0
:1024880004038DF80430E30742BF9DF8043043F09D
:1024980008038DF804309DF8040002B010BD11F057
:1024A800010F0CBF002308238A0748BF43F0040329
:1024B8004A0748BF43F002030A0748BF43F0010335
:1024C80000F58F40194678300CF066B900F5884061
:1024D800243003F047BB38B5A1B144F60303C35C0D
:1024E80093B900F5824404F5497003F09FFB054653
:1024F80004F51A7000F096FE04F52F7000F0E8FE5F
:10250800284638BD0725FBE70D25F9E700F5894082
:102518006830704738B544F60303C35C83B900F5E7
:10252800824404F5747004F029FA054604F51A701B
:1025380000F078FE04F52F7000F0CAFE284638BD7A
:102548000D25FBE744F23443C058704700F5884036
:10255800243003F034BC44F29043C058704744F22E
:102568009043C150704700F58F4078300AF062BE42
:1025780000F58F40002178300AF0FBBD2AB121B167
:1025880000F58F4078300DF0DABD0720704744F62B
:102598000303C05C704721B100F58F40783009F023
:1025A8006FBD0720704700F58F40783009F0BABB3F
:1025B80038B50C46002936D000F58F4078300CF03D
:1025C8005DFC0368236043686360038B2381038B8E
:1025D8009B12A37290F82430E37290F82530C3F36D
:1025E80083032373837F637390F82530C3F3010358
:1025F8000546A3732BF0B9F8AB68C01A4FF47A7389
:10260800B0FBF3F0237CE07343F001032374AB7E4B
:1026180003F00703DA1F53425341227C63F341025C
:102628002274002038BD0720FCE700F5CA4034308A
:1026380014F040B800F5CA40343014F03FB800F543
:10264800CA40343014F0C6BB10B50C4671B144F220
:10265800D643C25A4FF6FF739A420FD000F58F4007
:1026680000217830BDE810400BF06CBF00F58F40BA
:102678007830012109F0A8F8204610BD0D20FCE7AC
:1026880013B502AA002402F8014D012306214C309B
:1026980015F033F908B18DF807409DF807000030B0
:1026A80018BF012002B010BD07B502AA012302F825
:1026B800011D4C30062115F070F903B05DF804FBDC
:1026C80000F58F4078300CF071BE10B586B006ACBE
:1026D80000F58F4044F8041D0A9902910999019167
:1026E8009DF820100091783021460AF010FA06B0C3
:1026F80010BD00F592403830704700BA704738B5C1
:102708000D4604462BF031F82A4601462046BDE81E
:10271800384016F089B910B506220446002135F074
:1027280065FF0023A371E37110BD000007B5054BD9
:1027380001A91B88ADF8043018F091FE03B05DF8CC
:1027480004FB00BF8A3D040038B5044604301D462A
:102758001BF090FC059B227F23620023636204F137
:1027680020036FF30002C4E90A35049B227704F1C1
:1027780014002363FFF7CFFF204638BD037F13F013
:10278800010314BF143018467047037FDB0702D5D6
:10279800143016F0B5B90120704730B5C3B0017CCC
:1027A800044668461BF099F804F1200016F004F975
:1027B8006946201D1BF0CAFC0546C0B968461BF0D7
:1027C800B7F9024698B10068516804F1140303C3CD
:1027D800237F43F001032377237C0E2B07D1204668
:1027E80003F0BEFF2A46014668461BF0BBFB28469D
:1027F80043B030BD30B5C3B0017C054668461BF018
:102808006CF86946281D1BF060FC044640B9284650
:1028180003F0A6FF2246014668461BF0A3FB0446C8
:10282800204643B030BD10B504461430FFF773FF9F
:10283800237F6FF30003201D23771BF02CFC04F18A
:102848002000BDE8104016F0B7B8FFF7A6BFF7B5EF
:102858000023044608460E468DF807301BF068F939
:102868000546A0B9271D294638461BF0EAFC9DF805
:1028780007502DB3314638461BF09CFC204603F028
:1028880078FF90F8C336042B25D0002016E00068A6
:10289800696804F1140303C3237F43F0010323771A
:1028A800237C0E2BDED1204603F05AFF0DF10702E0
:1028B800014630461BF056FB0028D3D003B0F0BDCC
:1028C8000028D7DCE1D004F120004FF47A71FFF73B
:1028D80016FF2846F2E7204603F04BFF42F26C252C
:1028E800284412F05DFA204603F043FF284412F012
:1028F8006EFACAE770B50E46054603F03AFF314650
:102908000446281D1BF08AFC064658B994F8C336BD
:10291800042B07D8DFE803F0030608080F00284651
:10292800FFF73BFF304670BD4FF47A7105F1200088
:10293800FFF7E5FEF6E704F509542C342846FFF7BF
:102948002CFF204612F02CFA204612F040FAE9E754
:1029580030B5C3B004460D46017C68461AF0BDFF89
:10296800201D69461BF0B1FB044660B93521684655
:102978001AF0DFFF30B108F0DBF820B1034B034059
:102988002B6003B91724204643B030BD00F8FF0779
:10299800F0B5D1B0054603F0ECFE2C220646002126
:1029A80003A835F023FE06F1A407297C0EA81AF027
:1029B80094FF3846FFF7BAFE044600283FD00222AB
:1029C800002119F0BFFA0221204619F085FC296B75
:1029D800204619F06CFB204619F01CFC0EA9281D96
:1029E8001BF073FBBDF83C210EA9204608F08FFAB6
:1029F800054600BB06F63C0303AD06F64C0C18680A
:102A080059682A4603C2083363451546F7D14FF47F
:102A18007C4207A906F5D76009F0D5FA4FF2BF0343
:102A2800ADF82E300023009303AA2146384619F04A
:102A38005DF8054620B1204608F055F900E0032569
:102A4800284651B0F0BDF0B5C3B0044603F091FE7E
:102A5800074600F5D76008F070FE50B3217F251DAA
:102A680011F0010118BF04F1140128461BF0E9FB1D
:102A780000281EDA267C0E2E12D1332168461AF061
:102A88002CFF694607F520701BF01FFB314668468E
:102A98001AF04FFF20B1811C28461BF0D2FB40B131
:102AA8002046FFF775FF4FF47A7104F12000FFF715
:102AB80026FE43B0F0BD08B501F0CAF800F586401F
:102AC8006830BDE80840FFF7BEBF08B501F0C0F8A0
:102AD80000F587403C30BDE80840FFF7B4BF2DE95A
:102AE800F047C4B0054617461C468A469DF8309103
:102AF80003F03FFE297C804602A81AF0EEFE08F19A
:102B0800A40602A9281D1BF0E0FA3046FFF70EFEC6
:102B18000546002852D0514619F0F6FB284619F010
:102B280079FBB9F1000F19D0013CA144A14533D07C
:102B380014F8011F052903D198F98833002BF5DA19
:102B480002A81AF0F6FE01460028EFD0427828467F
:102B5800023208F0DCF90028E8D019E0BDF80C9141
:102B680002AB99441C464C4516D22378052B07D155
:102B780098F98833002B03DB637802331C44F2E7AF
:102B8800627821460232284608F0C1F90028F3D0BD
:102B9800284608F0A8F811E0EB8B298C994204D15B
:102BA800013989B2284608F0A2F8002300933A4672
:102BB8002946304618F09AFF0028E9D144B0BDE80C
:102BC800F08700002DE9F04FB1F820B0C5B080467D
:102BD8000D469246EB8B5B450AD80026009604AB5F
:102BE800524629464046FFF77AFF45B0BDE8F08FC8
:102BF80003AB02225946284608F0E8F89DF80C3045
:102C08009DF80D400D2B1ED11FFA84F904AF0BF16E
:102C180002013B464A4689B22846264608F0D6F8BD
:102C2800002CDAD00D49D8F82C0035F034FD0028F6
:102C3800D4D183B299450BD901303B1813F8013C24
:102C4800342BF6D1CAE70234A3441FFA8BFBC1E741
:102C580001BF661C34233B55F6B2BFE79B3D040019
:102C6800FFF7B0BFFFF7AEBF2DE9F04F93B099461D
:102C78000D469046044603F07CFD07462C220021B1
:102C880007A807F1A40A35F0B1FC5046FFF74EFD3E
:102C9800064660B30222002119F054F90221304699
:102CA80019F01AFB216B304619F001FA304619F079
:102CB800B1FA42F25463FB5C022B30D108EB0901F4
:102CC80043468B4215D21A780B2A28D05A780232FA
:102CD8001344F6E74A464146304608F018F90446D8
:102CE800002800F05381304607F0FDFF7AE1032405
:102CF80078E10B2307F515508DF8083010300223C2
:102D08008DF8093019F00EFD40BAADF80A0004221A
:102D180002A9304608F0FBF804460028E3D195F8EC
:102D28006430D80727D50E238DF808300DF10A0036
:102D380008238DF80930FFF7EEFCD5E900310622AB
:102D480002A81044013A43704FEA132343EA01638F
:102D58004FEA1121F4D1BDF810305BBA03F001033A
:102D68005BBA0A2202A93046ADF8103008F0CFF855
:102D780004460028B7D195F86430990727D533233E
:102D88008DF808300DF10A0008238DF80930FFF797
:102D9800C2FCD5E90231062202A81044013A437068
:102DA8004FEA132343EA01634FEA1121F4D1BDF836
:102DB80010305BBA03F001035BBA0A2202A930465D
:102DC800ADF8103008F0A3F8044600288BD195F828
:102DD80064305A0719D505238DF8083010238DF86B
:102DE8000930EB180DF10A0203F1100153F8040B36
:102DF80042F8040B8B42F9D1122202A9304608F09E
:102E080086F8044600287FF46EAF95F864301B07F7
:102E18001DD505F1200B0323102158468DF80830E5
:102E28008DF8091035F0DCFA5946044602460DF1D2
:102E38000A0035F0B2FBE2B28DF8092002A902328D
:102E4800304608F064F8044600287FF44CAF95F843
:102E58006430DC0616D52A4602238DF8083008238C
:102E68008DF8093052F8313FCDF80A3002A953687D
:102E7800CDF80E300A22304608F049F804460028FA
:102E88007FF431AF95F86430980616D52A460723A3
:102E98008DF8083008238DF8093052F8393FCDF8FD
:102EA8000A3002A95368CDF80E300A22304608F0DD
:102EB8002EF8044600287FF416AF95F864305906BA
:102EC80013D534238DF80830686C04238DF8093045
:102ED800FFF713FC0622CDF80A0002A9304608F0D5
:102EE80016F8044600287FF4FEAE95F86430DB0936
:102EF80013D001238DF8083002238DF80930B5F876
:102F0800483004225BBA02A93046ADF80A3007F00F
:102F1800FEFF044600287FF4E6AE95F86530DA0730
:102F280013D500238DF80830B5F84A10032302A8FA
:102F38008DF8093007F0CFFD052202A9304607F0C9
:102F4800E6FF044600287FF4CEAE95F865301B07EF
:102F580018D53523062200210DF10A008DF8083016
:102F68008DF8092035F042FB296E02A807F0C6FD4E
:102F780008220DEB0201304607F0C9FF044600287D
:102F88007FF4B1AEB9F1000F7FF4A4AEF38B318CAE
:102F9800994204D1013989B2304607F0A8FE07F6F4
:102FA8003C0307AC07F64C0518685968224603C26B
:102FB8000833AB421446F7D14FF47C420BA907F50E
:102FC800D76009F000F84FF2BF03ADF83E30002398
:102FD800009307AA3146504618F088FD0446002899
:102FE8007FF481AE204613B0BDE8F08F2DE9F04F95
:102FF80093B00F469946934605461C9E03F0B9FBCD
:103008002C228046002107A835F0F0FA3B7813F00F
:1030180001041EBF0E228DF80C200124980706D546
:1030280012A9621C0C44332104F83C1CD4B2590781
:1030380006D512A9621C0C44052104F83C1CD4B224
:103048001A0706D512A9621C0C44032104F83C1C7B
:10305800D4B2D80606D512A9621C0C44022104F881
:103068003C1CD4B2990606D512A9621C0C4407214F
:1030780004F83C1CD4B25A0606D512A9621C0C44AA
:10308800342104F83C1CD4B2DB0906D012AA631C14
:103098001444012204F83C2CDCB27B78D80706D50E
:1030A80012A9621C0C44002104F83C1CD4B29907F4
:1030B80006D512A9621C0C44042104F83C1CD4B2A5
:1030C8005A0706D512A9621C0C440C2104F83C1CB2
:1030D800D4B21B0706D512AA631C1444352204F87F
:1030E8003C2CDCB208F1A40A5046FFF71FFB074648
:1030F800002869D00222002118F024FF0221384656
:1031080019F0EAF8E96A384618F0D1FF19EB040516
:1031180008D176BB4FF47C420BA908F5D76008F0BC
:1031280052FF32E0384619F075F80D23022202A941
:1031380038468DF809508DF8083007F0E8FE054646
:1031480098B954B9B9F1000FE3D04A465946384600
:1031580007F0DDFE054640B9DBE7224603A93846FD
:1031680007F0D5FE05460028ECD0384607F0BBFD31
:1031780026E033460BAC06F110051868596822465C
:1031880003C20833AB421446F7D108F63C0307AC38
:1031980008F64C0818685968224603C208334345A4
:1031A8001446F7D14FF2BF03ADF83E300023009329
:1031B80007AA3946504618F099FC05460028D4D18C
:1031C800284613B0BDE8F08F0325F9E773B5104E14
:1031D800104D114B0193009533460E220446FFF71C
:1031E800B3FA0E4B0E4A6663C4E90E340023C4E9F1
:1031F8001035C4E912242365204603F0BAFA04F115
:103208003401A43018F00DF9204602B070BD00BF9B
:103218008C3D0400913D0400BF2A0000692C000089
:10322800B33B0000FFF7FFBAFFF764BBF0B5C3B0CC
:1032380014461F4605460E46017C68461AF04DFBAB
:1032480021469DF820313A4668461AF079FC044632
:1032580038B9314668461AF056FE69462846FFF7DF
:10326800F6FA204643B0F0BD73B5134E134D144B18
:1032780001930446334600953322FFF765FA04F1BB
:103288003402C4E90F260F4A0F4B6363C4E91124C3
:103298000E4A0023A363C4E91335C4E91524E36582
:1032A800204603F066FA04F14001A43018F0B9F89A
:1032B800204602B070BD00BF9B3D0400963D04004F
:1032C800D32A00006D2C000013340000CD3B000011
:1032D80010B50446FFF7A7FA04F13400BDE8104022
:1032E80015F06ABB10B5C2B00446017C68461AF0F6
:1032F800F4FA04F11400FFF70EFA237F6FF30003CA
:10330800237769462046FFF7A2FA42B010BD10B5F0
:10331800C2B00446017C68461AF0DFFA6946201DEF
:1033280034341AF0D2FE204615F046FB34216846A4
:103338001AF0FFFA58B1D0F80200FFF7DEF9021EC2
:10334800B8BF6FF000424099204615F06DFB42B0BF
:1033580010BD38B50546FFF7CDFA044610B9284622
:10336800FFF7D5FF204638BDF0B5C3B015461F4658
:1033780004460E46017C68461AF0AFFA29469DF8C5
:1033880020313A4668461AF0DBFB054650B931460B
:1033980068461AF0B8FD69462046FFF758FA2046F5
:1033A800FFF7B5FF284643B0F0BD70B5C2B0017C49
:1033B800044668461AF091FA6946201D1AF085FEFF
:1033C800342168461AF0B5FA80B1D0F80200A66B2D
:1033D800409DFFF792F9751B854207D2421B314683
:1033E80004F1340015F020FB42B070BD68461AF0B5
:1033F80034FE204603F0BDF9694600F50A70FFF770
:1034080026FA2046FFF764FFEEE708B500F020FC37
:1034180000F587403C30BDE80840FFF7C6BF30B52F
:10342800C3B004460D46017C68461AF056FA694650
:10343800201D1AF04AFE294668461AF097FB43B049
:1034480030BD00002DE9FF41884616461F4603F0AF
:1034580090F9184B00F1A4051B88ADF80C3003A9AE
:10346800284617F0FCFF0446B8B1414618F04CFF57
:10347800204618F0CFFE10238DF80C3003220123CC
:1034880003A920468DF80D308DF80E7007F03FFD2A
:10349800034628B1204607F026FC04B0BDE8F081B9
:1034A800009032462146284618F020FB0028F4D028
:1034B800F0E700BFA03D04002DE9F041C8B0064682
:1034C80003F057F9317C044606A81AF006FA04F509
:1034D800D76008F032F9002800F00981371D06A9E5
:1034E80038461AF0F2FD0E2106A81AF022FA05460F
:1034F800B8B90E23062201468DF804300DEB020000
:1035080008238DF8053035F071F801A906A8ADF843
:103518000650ADF80850ADF80A50ADF80C501AF046
:103528008AFB002106A81AF004FA68B903238DF86B
:1035380004008DF8053094F8981301A807F0CBFA29
:1035480001A906A81AF077FB352106A81AF0F1F9A7
:10355800014690B9062235230DEB02008DF80430A0
:103568008DF8052035F042F8D4F89C1301A807F02F
:10357800C5FA01A906A81AF05EFB022106A81AF0EE
:10358800D8F988B902238DF8043008238DF805305E
:10359800D4F8A033CDF80630D4F8A433CDF80A30E7
:1035A80001A906A81AF047FB072106A81AF0C1F9D5
:1035B80088B907238DF8043008238DF80530D4F82E
:1035C8003C38CDF80630D4F84038CDF80A3001A997
:1035D80006A81AF030FB052106A81AF0AAF9B8B90E
:1035E80005238DF8043004F5397010238DF8053063
:1035F80002F0B8FA0DF1060300F1100250F8041BAE
:1036080043F8041B9042F9D101A906A81AF013FB4C
:10361800032106A81AF08DF9B8B904F56A750323D1
:10362800102128468DF804308DF8051034F0D8FEA6
:103638002946804602460DF1060034F0AEFF01A986
:1036480006A88DF805801AF0F6FA012106A81AF0E6
:1036580070F970B901238DF8043002238DF8053014
:10366800B4F8963301A95BBA06A8ADF806301AF08B
:10367800E2FA042106A81AF05CF998B90423102587
:1036880004F539708DF804308DF8055002F047FACA
:103698002A4601460DF1060034F07FFF01A906A86D
:1036A8001AF0C9FA0C2106A81AF043F990B90C23AC
:1036B8008DF8043003238DF80530D4F84C335BBA09
:1036C800ADF8063094F888338DF8083001A906A8BB
:1036D8001AF0B1FA06A938461AF06CFD044610B97A
:1036E8003046FFF75AF8204648B0BDE8F0810D246F
:1036F800F9E710B50446FFF7DFFE204603F039F876
:1037080004F14401A430BDE8104017F08ABE10B59A
:10371800044603F02EF804F14401A430BDE810403B
:1037280017F08CBE10B50446FFF7F1FD204603F0F4
:1037380020F804F15001A430BDE8104017F071BE24
:1037480010B5044603F015F804F15001A430BDE8A3
:10375800104017F073BE2DE9F041C8B01546064673
:10376800884603F006F8317C2C8C074606A81AF028
:10377800B4F807F5D76007F0E0FF002839D0EB8BE5
:10378800A34218D9214601AB0222284607F01EFBA6
:10379800A11C0DF106039DF8052089B2284607F003
:1037A80015FB01A906A81AF046FA9DF80530023360
:1037B8001C44A4B2E3E7342307F53D508DF80430E8
:1037C8003C3004238DF8053002F07AFCFEF795FFB3
:1037D80001A9CDF8060006A81AF02DFA414606A858
:1037E8001AF091FB06A93046FFF731F83046FFF78B
:1037F8008EFD48B0BDE8F0812DE9F04FDDB00C46F4
:103808000746934602F0B5FF397C268C05461AA870
:103818001AF063F800238DF81D308DF829308DF8E3
:1038280015308DF841308DF835308DF811308DF820
:103838000D3095F8C336042B12D04FF0FF3695F8AB
:10384800C336042B05D133465A4621463846FFF77E
:10385800F9FD012E14BF022000205DB0BDE8F08FF5
:10386800E38BB3420DD902AB02223146204607F062
:10387800ADFA9DF80930102BDFD802331E44B6B2DA
:10388800EEE7238CF61AB6F5807FD6DCBF49386B95
:1038980034F001FF07AB00284FF00A024FF00E0189
:1038A800204614BF4FF033094FF00E0915F0A6F962
:1038B8000028C2D19DF81D30082BBED10AAB0A22C0
:1038C8003321204615F09AF918B99DF82930082BAC
:1038D800B3D1B9F10E0F0CBF0DF11E010DF12A0184
:1038E800381D1AF0AEFC0028A7DD05AB0522002123
:1038F800204615F083F9002840F0A68005A807F0B7
:10390800B4F8002899D0BDF8178095F8983398FA3C
:1039180098F81FFA88F8B8EB030818BF4FF00108A9
:1039280004AB04220121204615F068F968B99DF816
:103938001130022B09D1BDF81230B5F896235BBAC5
:103948009BB2934218BF4FF001080DAB0A22072122
:10395800204615F053F968B99DF83520082A09D191
:1039680005F63C010DF1360034F069FC002818BF5B
:103978004FF0010810AB12220521204615F03EF940
:10398800002864D19DF84160102E60D105F539708A
:1039980002F0E8F8324601460DF1420034F04FFCDF
:1039A800002856D04FF001084646B9F1330F52D0DF
:1039B80003AB04220B21204615F020F9002867D01C
:1039C8004FF0000AB9F1330F03D0B8F1000F40F0FF
:1039D800D58005F53D59B4F8208009F13C09E38B01
:1039E800434540F29280022215AB4146204607F03B
:1039F800EDF99DF85520102A3FF61FAF08F1020196
:103A08000DF1560389B2204607F0E0F99DF85430CD
:103A18000B2B73D0342B6AD1DDF85600FEF76DFE00
:103A2800034616B15A4A904259D94846019302F0C2
:103A380047FB019B98425AD9484602F041FBFEF7E2
:103A48005CFECDF8560052E04FF0000868E700260B
:103A5800ABE70646A9E79DF8413063B905F50A705A
:103A6800FEF78CFE0028A3D00DF11E0115F048F8D2
:103A780000289DDCE1E605F5397002F073F81022A4
:103A880001460DF1420034F0DAFB0028E6D08FE75A
:103A980005F509500B212C3011F041F89DF80D3037
:103AA800022B7FF4CAAE00283FF4C7AEBDF80E2043
:103AB800438852BA5BBA92B29BB29A427FF4BDAEC7
:103AC800B9F1330F03D0B8F1000F7FF4B6AE1AA9DD
:103AD80005F50B701AF0F9FA4FF0010A72E74FF486
:103AE8008063ADF856304EF29303ADF8583015A9FF
:103AF8001AA81AF0A0F800287FF49FAE9DF8553058
:103B0800023398441FFA88F869E71AA93846FEF77D
:103B18009EFE00287FF491AE05F509562C363046F6
:103B280011F03EF9304611F052F9BAF1000F23D1E5
:103B380005F5095009212C3010F0F1FF8046D8B165
:103B48001022514615A834F051FD15AE05F63C0378
:103B580005F64C0C18685968324603C208336345A9
:103B68001646F7D105F53D50B8F80230ADF8623089
:103B780015A93C3002F04AFA012660E622460DF10A
:103B88001E0105F51F70FFF7E6FDCEE7913D040025
:103B9800DF93040010B50446FFF72EFE20B9204637
:103BA800BDE81040FEF726BE10BDFFF7F3BF10B505
:103BB8000446FFF721FE20B92046BDE81040FFF774
:103BC800A6BB10BDFFF7F3BF38B500250446C0E912
:103BD8000055083014F0A7FC2146C4E90455C4E98F
:103BE800065504F1200013F0BDF904F14D0004F06E
:103BF80001FC04F150001BF04DFF04F58040214604
:103C0800503000F08DF804F582402146403014F021
:103C180019FD04F5ED402146603018F037F904F538
:103C2800EE4001222146603018F0AAFB04F5FF405F
:103C38002146403007F0C2FA04F54F402146D830FB
:103C480002F048FD4CF6EC732046E55438BD000000
:103C580000487047B81300202CF006BB4CF6EC73F4
:103C680070B501250446C5544C3013F0F9FD04F530
:103C78008F40783008F05CF82046FEF701FD80B1EF
:103C88002946204600F0A0FF064650B9294620469E
:103C9800FEF7DAFC28B131462046BDE8704000F056
:103CA80093BF70BD10B54CF6EC73054CE35C2BB9B3
:103CB8002046FFF789FF2046FFF7D0FF004810BDD8
:103CC800B813002010B504464C3013F0D0FD204640
:103CD800BDE810402CF0C8BAC0E90412704702468B
:103CE800084613690BB1516918477047C0E90612B5
:103CF80070470246084693690BB1D1691847704767
:103D0800437C5A0701D400F09CBEC3F3C30070473C
:103D18008A1E0123037042700021023034F066BC11
:103D280038B5002304460D4603704370C0E90133DB
:103D3800C360103007F03CFA23460E4A294604F1C6
:103D4800200014F0ECFB294604F1280001F077FA72
:103D5800294604F12C001CF010F8294604F134001F
:103D680015F006FA294604F1480001F03DF820460E
:103D780038BD00BFC148000070B515460C4602F0BA
:103D8800EFFC303400F5FF402B46A2B20021403052
:103D9800BDE8704007F0AFBB024B00F03800185C7C
:103DA800704700BFA23D040020B102280CBF2020AC
:103DB8000020704708207047102207F066B970B5D8
:103DC8001E4605460C460020114607F057F93146B5
:103DD80007F054F92946FFF7EFFF2146BDE8704088
:103DE800FFF7EABF30B587B0144692798DF8042002
:103DF80000230D4604F1080202A94830ADF8083046
:103E0800ADF810308DF8053001F00EF89DF8093046
:103E180004335B0715D19DF809200232D2B202A9FA
:103E2800284607F08CF8D0B9022201A9284607F0E5
:103E380086F8A0B9A388A0715BBA08335BBAA380DF
:103E48000DE0022104A8FFF763FF9DF8112002325C
:103E5800D2B204A9284607F072F80028DBD007B0D0
:103E680030BD2DE9F04F0F468FB004AB282200215A
:103E7800384606F0ABFF9DF816400CB100200FE065
:103E880001AB02222821384606F0A0FF9DF8056004
:103E9800FB8B0136F60006F1280A534503D20620AB
:103EA8000FB0BDE8F08FA146A0462A25A34602AB75
:103EB800022229463846ADF808B006F087FF9DF87B
:103EC8000830012B4AD046D36D2B9DF809304AD1D2
:103ED8002A2D994603D19DF80520002A39D005F1ED
:103EE8000802524508BF012402332B44A8469DB25C
:103EF8005545DCD3D3D1002C46D02036A6F1080492
:103F0800A4B202AB08222146384606F05FFF3146CC
:103F180002AB0822384606F0ABFF072C2646EDD840
:103F28000821384606F040FFB8F12A0F20D19DF845
:103F380004308DF81630BDF814305BBA083B5BBA14
:103F4800ADF81430282204AB0021384606F090FF63
:103F580094E70124C8E70135ADB2C9E79DF80930F7
:103F680002331D44F8E702331D44ADB20024BFE715
:103F78009DF80530013B8DF80530022201AB282160
:103F8800384606F075FFD6E7B8F1000F3FF476AF74
:103F980009F10201C9B202A8ADF80840FFF7B8FE5E
:103FA8009DF80920023202ABD2B24146384606F0EB
:103FB8005FFF204674E710B50446103007F0F5F9A6
:103FC80004F12000BDE8104014F0D0BA2DE9F34107
:103FD8000C4698460023ADF80430098C074616466F
:103FE8006B460222204606F0F1FE0228014642D125
:103FF8009DF801506B1C258C05EBC305E38BADB216
:10400800AB4238D3204606F0A8FE0836218C8D42F4
:104018002FD901AB0222204606F0D8FE02282AD169
:104028009DF8043023B90121204606F096FEEDE7FD
:104038009DF80520218C02320A44AA421BD86D2B18
:104048000BD198F800303246214607F1480000F0BD
:10405800ECFF50B102B0BDE8F08103F0C003802B43
:1040680009D0C02B07D0402B05D09DF80510023190
:10407800DAE70020EEE70220ECE737B50D466B469D
:10408800098C0822284606F0A1FE082801460ED110
:10409800BDF802305BBA9BB2DA0808D113F001040C
:1040A80005D1284606F059FE204603B030BD02204F
:1040B800FBE72DE9F3419DF8247006460C4690462F
:1040C8001D460FB92B7873B901AB0222218C20460B
:1040D80006F07CFE02281CD12B782C2B10D004D89B
:1040E8003BB12B2B15D0002014E03B2B11D03C2BDF
:1040F800F9D108AB424621463046FFF767FF03E097
:1041080021463046FFF7B9FF20B99DF804302B70DF
:10411800D7E7022002B0BDE8F081112B03D03A2B7B
:1041280004D000207047343015F0AEB92C301BF0A5
:104138005ABF2DE9F3411D469DF8203004460F462D
:104148001646002B6ED143681BB9042002B0BDE8A7
:10415800F0814378002B4DD0104600F0E9FBD0B138
:10416800304600F00BFC0028EFD0112D19D03A2D65
:1041780040D1314604F12C001BF098FE002839D0BC
:104188006B460822398C384606F020FE9DF8003030
:10419800802B2FD1D9E7304600F0DEFB0028DFD195
:1041A800E3E76B460822398C384606F00FFEBDF867
:1041B80002506DBAADB244F64C539D4210D04FF246
:1041C800BF039D4244F2401824D0204602F0C8FAAA
:1041D800404400F53C50143001F0C4F88542D8E75B
:1041E800304600F092FB0028AFD1304600F03FFC8B
:1041F8000028AAD1F98B384607F08EF9054698B100
:1042080001462046FFF72DFE2846D4E9013198479C
:1042180000209BE7204602F0A3FA3146404414F000
:1042280056FBE5E7022091E703208FE7C3681BB937
:10423800C1600020086170478B420AD093F90C00D6
:1042480091F90C20904204D01A69002AF4D119611E
:10425800EFE718207047C3688BB18B4204D10B6914
:10426800C360172008E013461A69002AF9D08A4269
:10427800F9D10A691A61002000230B6170471720E1
:104288007047C06828B190F90C308B4201D00069A2
:10429800F8E7704738B5C4680D4634B1294620465A
:1042A8000FF032FB10B92469F7E7204638BD2DE935
:1042B800F04F01F1100A87B0044691F924300191BA
:1042C8005046039300F0BDFB0026D4F80C900490F0
:1042D80035463446B9F1000F00F08780504699F909
:1042E8000C7000F012FB002836D0039BBB4277D13C
:1042F800D9F804B0BBF1000F72D05946504600F00F
:10430800F6FB9BF81020824280462BD85846FFF7D0
:10431800F7FC0290584600F01FFBD0B9002C5BD088
:104328005146584600F0E6FB00285CD15846FFF796
:10433800E7FC05902046FFF7E3FC059A82425846C1
:1043480013D2FFF7DDFC029B984222BF46463D464A
:104358005C46DBF814B0CDE7504600F0E3FA0028DD
:10436800C3D1C5E7049B0293D4E7FFF7C9FC0590C6
:104378002046FFF7C5FC059A8242204608D9FFF778
:10438800BFFC029B98423EBF46463D465C46E0E77E
:10439800FFF7B6FC03280ED09BF81120D20718D4DB
:1043A800019B93F924201AB1BA4201D1BD4213D11D
:1043B8004645CED210E05846FFF7A2FC0328EBD1C1
:1043C800204600F0B5FA00281EBF46463D465C462A
:1043D800BFE7627CD307E3D446463D465C46B8E770
:1043E800D9F8109076E73D465C46019B204683F855
:1043F800245007B0BDE8F08F2DE9F0411D4607466F
:1044080090460E460FCD96B00BAC0FC40FCD0FC41F
:1044180095E8070084E807000FAC10220021204629
:1044280034F0E4F840F2FF33ADF83C304FF47C430D
:10443800ADF84A306023019340238DF80B30B8F86B
:1044480004305BBA28335BBAADF8083094E80F0043
:1044580007AD85E80F0029230BA938468DF80A30E7
:10446800FFF725FFC8B1034603AC00F11005186833
:104478005968224603C20833AB421446F7D101AA51
:1044880031463846FFF7AEFC20B9282201A930464C
:1044980006F055FD16B0BDE8F0811420FAE72DE9C5
:1044A800F04F064691F83300B1F81E908BB098464D
:1044B80000F003006023154600930C46FFF774FCD8
:1044C80007461846FEF719F967F39B50FEF715F9EA
:1044D80099FA99F3ADF8043095F825300090002B3F
:1044E80008BF402328468DF806808DF8073000F075
:1044F800F1F930B129463046FFF7D9FE50BB1427F1
:1045080067E0284600F00EFA0028F3D12B4602AFE8
:1045180005F1100C186859683A4603C20833634518
:104528001746F7D105F1100306AA05F1200C9B46A2
:10453800924618685968174603C7083363453A46D0
:10454800F7D1504600F0E1F988B195F924309BB9CC
:1045580002273EE0034602AF00F1100C18685968C4
:104568003A4603C2083363451746F7D1DAE750469F
:1045780000F07DFA0028E8D1584600F084FA00BB24
:1045880028226946204606F0DAFC074608BB4A4658
:104598004346514602A8FFF712FCB8F1110F024634
:1045A8001BD0B8F13A0F1ED0584600F078FA00BB7D
:1045B80095F9243084F82F3021463046FFF7FBFC6C
:1045C80007E06A4621463046FFF70CFC07460028FC
:1045D800D6D038460BB0BDE8F08F214606F134003E
:1045E80014F097FFE0E7214606F12C001BF03BFD95
:1045F800DAE7304602F0B4F800F58F4051467830DB
:104608000EF0FBFE60B1E18B204606F085FF014607
:1046180030B195F9243080F82F303046FFF7CBFCC5
:104628002B466A4621463046FFF7E6FE0028BFD0F3
:104638000746CEE770B5C4680E467CB165685DB1C3
:104648003146284600F053FA2B7C834202D894F96D
:104658000C0070BD6D69F2E72469EEE74FF0FF309A
:10466800F7E738B5054608460C4600F05BF910B187
:1046780094F9240038BD204600F047F90028F7D106
:1046880021462846FFF7D6FF0028F3DC224604F12E
:10469800100105F1280000F0D5FD20EAE07040B2D5
:1046A800E8E72DE9F04F9DB00DF144080C46039260
:1046B80005932C229DF89C30049300210646404621
:1046C80033F094FF214607A800F05FFB0546002859
:1046D80040F0D08009AB0FCB15AF0DF1340987E856
:1046E8000F0099E80F0088E80F00059B8DF86830E7
:1046F8009DF823308DF869304846269B1B9300F0BF
:1047080011F90746002852D0039B002B33D14FF0F4
:10471800000B0127DA46059B84F82F302821204614
:1047280006F028FB1CAB9DF8222003F8562D2146E5
:10473800CDE9007A07AA3046FFF7BBFC05460028FA
:1047480040F09880BAF1000F66D09DF81A30292BF6
:1047580040D1218C204606F027FB049B0193269B21
:104768000093039A059B21463046FFF79AFF284697
:104778001DB0BDE8F08F494603980EF085FE8246CD
:1047880098B9039B93F80DB0484600F088F907469E
:104798000028C0D0304601F0E3FF00F58F404946BD
:1047A80078300EF02AFE0746B5E7AB46ECE74946F7
:1047B8003046FFF76FFD824650B9484600F0A5F82D
:1047C8000028A4D0039BB3FA83F77F09D346A2E756
:1047D800BB46A0E7049A0092214642463046FFF7BE
:1047E800A8FC9DF81A30424621463046FFF795FC52
:1047F80080B9002F3ED041463046FFF732FF0746CA
:10480800B8B9049A00929DF81A30424621463046BB
:10481800FFF78FFC05462DE0BBF1000FE9D0049AA5
:1048280000929DF81A30424621463046FFF781FC37
:10483800DFE7039B33B13378E3B19DF82330013BC5
:104848008DF823309DF82320C2B11CAB072103F853
:10485800552D2046012206F00BFB39463046FFF75E
:1048680010FD68B1036821461B6898470546002873
:104878003FF47DAF204606F036FA78E70225F9E7DF
:104888000425F7E7F7B5054600F110070026384676
:1048980006F0C2FC044668B10146384606F0A0FDA1
:1048A80094F92F300022CDE9006621462846FFF70B
:1048B800F8FEECE703B0F0BD08B5FFF7C9F900F55D
:1048C80080405030BDE80840FFF7DCBF10220021CF
:1048D80033F08CBE026842B9436833B9826822B9A2
:1048E800C068B0FA80F0400970470020704702683D
:1048F8004AB943683BB982682AB9C06800F17F4366
:10490800584258417047002070470378FE2B07D162
:10491800407800F0C000A0F1800358425841704729
:10492800002070470078A0F1FF03584258417047B3
:104938000346008970B95A89B2F57F4F0BD19A891D
:10494800FE2A08D19B7BFB2B05D883F00200C0F31D
:1049580040007047002070470346008960B95A89B3
:10496800B2F57F4F09D19A89FE2A06D1987BA0F12A
:10497800FC035842584170470020704708B501466B
:10498800FFF7EAFF40B1C889A0F587501C38B0F599
:10499800F85F8CBF0020012008BD836823B9C06878
:1049A800B0FA80F0400970470020704783680333ED
:1049B8000AD182894FF6FF739A4205D1837BFF2B78
:1049C80002D1C07BC00970470020704708B5014676
:1049D800FFF7E3FF40B90846FFF7E8FF20B90846AC
:1049E800BDE80840FFF7B8BF08BD08307047083079
:1049F80070470822104433F0D0BD10B50822044691
:104A0800104433F0CAFD237A83F00203237210BDE9
:104A180010B508220C468118204633F0BEFD2378D5
:104A280083F00203237010BD10B50C46002200F17C
:104A38000801204603F056F9237883F00203237017
:104A480010BD08B50378FF2B024603D1407800F06B
:104A58000F0008BDFFF759FF38B91046FFF747FFA9
:104A6800002814BF00200E20F3E70220F1E708B564
:104A78000378FF2B05D1FFF7E4FF831E5842584106
:104A880008BD0020FCE708B50378FF2B05D1FFF728
:104A9800D8FFC31E5842584108BD0020FCE708B59E
:104AA8000378FF2B06D1FFF7CCFF032894BF002023
:104AB800012008BD0020FCE7102A70B528BF10228D
:104AC80006460024E5B2EB00AA42D8B20ED9335DFF
:104AD80001340D1915F8015CAB42F3D06B401A068E
:104AE80004D401305B00C0B2DBB2F8E770BD10221D
:104AF800FFF7E2BF08B5102233F0A1FBB0FA80F04F
:104B0800400908BD08B5102233F099FB003018BFE2
:104B1800012008BD2DE9F04110220E46002105466E
:104B280000F10F0433F062FD0023681E4FF0010C02
:104B38001D46194616F8012B02F0DF0EAEF14108AA
:104B4800B8F1050F02F00F070CD809370133DBB2B3
:104B580047EA0515042BADB221D84FF0000CE9E760
:104B68000023E7E73A2A29D0BEF1000F1AD13BB15A
:104B7800831CA34213D82F1285704770002518464E
:104B88000AB1202AECD1234681B188420ED910F807
:104B9800013904F80139F6E7BCF1000F12D10620FB
:104BA800BDE8F081303A092AD0D9F8E700229842C6
:104BB80002D203F80129FAE70020F1E7002BD7D148
:104BC8000029E9D10146B5E738B54CF6D8730C464B
:104BD800C55C5DB900F58240403019B113F004FEA0
:104BE800284638BD13F036FE2046FAE70D20F8E7D0
:104BF80046F27C53C05C704744F24413C058704777
:104C080000F5824040300EF000BE00F58240403092
:104C18000EF041BE44F24813C058704700F5824078
:104C280040300EF039BD00F5824040300EF066BDD0
:104C380044F24D13C05C704744F24D13C1547047A1
:104C48000A4611B14B78022B05D800F580400021A7
:104C58005030FFF791B8002070470B4601461846C0
:104C6800FFF758BF10B50123044603710422002141
:104C780033F0BCFC204610BD70B591F83240E40911
:104C880092B006460D4603D00124204612B070BDEE
:104C980008AB28222146284606F098F82828F4D19F
:104CA8000EA8FFF732FE28B39DF82630062B27D032
:104CB800112BEAD101AB08222821284606F086F8F4
:104CC8000828E2D1BDF806305BBA9BB244F64C52D4
:104CD8009342D9D032791AB14CF227029342D3D0F9
:104CE80032880AB19342CFD07288002ACDD093423D
:104CF800CBD1C9E70EA8FFF7BAFE0028D4D1C4E784
:104D080003AB14222821284606F060F81428BCD1E9
:104D1800BDF80E305BBA9BB2E2E70388994207D030
:104D28004288914204D00BB122B9012320F8131014
:104D38000020704703207047028843888A4203D0C6
:104D48008B4202D017207047038000234380184607
:104D5800704700230B700B78012B04D830F8132010
:104D68000AB10133F6E77047037803F0F003602BCC
:104D780009D1808840BA80B22830B0F5A06F8CBFC6
:104D88000020012070470020704738B50D460346C3
:104D9800044628220021284606F018F828280DD1B4
:104DA8002046FFF7E1FF48B1A088EB8B40BA80B2FC
:104DB8002830984214BF0620002038BD0620FCE7A2
:104DC80070B505460E4614463AB12BF00DFEC0B23A
:104DD80090FBF4F204FB1202D2B22B7A9919114417
:104DE800A41A69602C7270BD38B50D4B0025C0E956
:104DF8000135031DC3600B4B0560C0E9043500F1A4
:104E080010030446C0E90635A03006F08EF980226A
:104E1800294604F1200033F0E9FB204638BD00BFE5
:104E280033520000C751000038B56D230B700423BE
:104E38004B7000238B7043780C46591C4170E3700B
:104E4800C169054659B11046FFF754FE38B1A37839
:104E580003F03F03A3706378023B637038BDA37807
:104E680003F03F0343F04003A3706B885BBAA38051
:104E7800F4E72DE9F0474FF0000C00F120050E464D
:104E8800174680462A4600F1A00EA9462C466346DE
:104E9800614692F803A01046BAF1000F07D1002925
:104EA80008BF1146C278002A3BD02BBBFEE710880A
:104EB800B4F800A050450BD0564503D111B90133C1
:104EC800DBB21146634584BF9C46A14600231446C5
:104ED80086420AD19078381A40B2002843D021B9C6
:104EE8000028BEBF0133DBB21146043201337245DC
:104EF800DBB2CED14846D5E72288B24203D111B9F8
:104F080001337146DBB29C4524BF63460446012B3E
:104F180029D981B1A94226D931F8043CB34222D11A
:104F2800204681420C4616D2A94200D2FEE7421A18
:104F3800081D33F0BAF905232680A770E370D8F866
:104F48000C3008F10400984203D14FF47A71FDF750
:104F5800D6FB002008E0EED9A84200D2FEE70C1FDD
:104F6800221A011DE5E70220BDE8F0872DE9FF4779
:104F7800054699460F4692469DF8308028F0F5FB85
:104F88000023CDE901338DF80C308DF803302B78F0
:104F98000646002B42D0F98B384606F0BDFA044687
:104FA80000283BD0B8F1000F14D10DF10303012202
:104FB8000721384605F00AFF9DF803305A1E012BD9
:104FC8008DF803202DD90DF1030301220721204676
:104FD80005F04EFF4022314601A8ADF804A08DF837
:104FE80006908DF80780FFF7EBFE092201A92046FD
:104FF80005F08DFFA8B92146012205F1A00006F0B1
:105008006EF9AB69029905F11000984203D06B69FB
:105018005B1A002B02DD891BFDF771FB04B0BDE8AC
:10502800F087204605F05FFEF8E7F0B585B01E462C
:1050380004AB0D461446002223F8082D0746062225
:10504800098C284605F0C2FE012806D99DF80A30C9
:1050580013F0C00303D0402B07D002241BE0A37B2E
:10506800E27B43EA0223ADF80C30BDF80C109DF842
:105078000B2049BA89B23846FFF7FBFE044668B9E7
:10508800BDF80C209DF80B30009652BA92B2294612
:105098003846FFF76BFF204605B0F0BD002E18BF5D
:1050A8000024F8E72DE9F04F85B0054628F05DFBB0
:1050B80005F1A008002307464046CDE901338DF8E5
:1050C8000C3006F071F84FF0FF3604464FF0050932
:1050D800002C6AD0204606F0B9F8E18B093901ABFB
:1050E8000922824689B2204605F070FE029BFA1A10
:1050F800002A05DADB1B9E4228BF1E465446E7E716
:105108009DF807302A780133DBB29A428DF80730D0
:1051180026D9E18B093989B2204606F0FDF9834684
:1051280078B19DF80730012B82BF90F8323069F3CF
:10513800850380F83230284601F014FB5946FEF703
:105148003AFF4022394601A8FFF73AFEE18B0939B8
:1051580001AB092289B2204605F08AFE029BC9E705
:105168002146404606F000F99DF807202B78934227
:1051780017D1012B88BF94F83230E18B88BF69F3CF
:105188008503A1F1090188BF84F8323089B220462D
:1051980005F0ADFD284601F0E5FA2146FEF70BFFC4
:1051A800ACE7204605F09FFDA8E7731C04D0314604
:1051B80005F11000FDF7A3FA05B0BDE8F08F08B5BA
:1051C800FEF746FD00F581401830BDE80840FFF7BE
:1051D80069BF38B50023024600F180051C4692F8E5
:1051E800231071B900EB830200211F2B02DC04326B
:1051F800D57FBDB924B14FF47A710430FDF77FFA39
:1052080038BD013911F0FF0F82F8231006D003F1E1
:105218000801146A40F82140013301240432AA42EB
:10522800DDD1DFE7D1770133DFE708B5FEF710FD01
:1052380000F581401830BDE80840FFF7CABF0022DA
:10524800026070472DE9F7434FF0FF350468804648
:10525800894617462E46A4B139462046FFF747FC33
:10526800237C8DF80700984209D388BF8DF8073052
:105278009DF90730B342A4BF94F911501E466469E2
:10528800E9E7404601F06EFAC46894B123683A46EB
:10529800D3F8088049460DF107032046C04730B9C6
:1052A8009DF90730B342C4BF94F90C501E462469D7
:1052B800EBE7284603B0BDE8F08310B52C2204467E
:1052C800002133F093F9204610BD10B50446FFF7CE
:1052D800F4FF40220021204633F088F9204610BD13
:1052E80070B5044601F5824040300E4601F03AFAA6
:1052F80000F13401201D13F020FF164BE363164B19
:10530800C4E91034154B0025C4E9133504F14C03E6
:105318006365A56404F1580005F007FF104A31469B
:10532800234604F15C0011F013FE94F86630A4F8EB
:10533800645003F0FE0365F3410384F866302046A9
:1053480001F017FA04F13C01A43016F06AF820467F
:1053580070BD00BFE73D0400FB5900000D5B000075
:105368001154000008B590F86620D20702D5B0F8AD
:10537800640008BD01F0FDF900F5095012212C3038
:105388000FF0CDFB18B1408840BA80B2F1E74FF476
:105398007A70EEE770B586B004460E4601F0E9F97A
:1053A80090F8EC369A07054626D5B30524D500F5BE
:1053B8003776A18A3046FFF7BFFC05F509502C3037
:1053C8000FF0C1FB251DC8B11422002101A833F03C
:1053D8000DF92046FFF7C6FF2246ADF8140009492B
:1053E800284613F0E5FE01A9284613F02DFFBDF865
:1053F80014103046FFF791FC06B070BD284613F034
:1054080002FFF9E7D155000010B50C46FEF720FC65
:1054180000F5E04021465430BDE81040FFF7BABF20
:1054280090F86620A0F8641042F0010280F8662027
:105438004FF40071FFF7AEBF2DE9F04395B00F466A
:105448009146044601F095F9054609A8FFF735FF8E
:10545800204601F08EF90DF10A0105F09BFA0028AB
:1054680040F0AA80564B05F1A4061B88ADF8183009
:1054780006A9304615F0F3FF0446002800F09C808A
:105488000222102116F05EFD0221204616F024FFAC
:105498004C49204616F00BFE204616F0BBFE1223A0
:1054A8008DF80C30B9F822304FF002085BBA0422AC
:1054B80003A920468DF80D80ADF80E3005F027FDC4
:1054C800002876D10822132309F118010DF11A00DA
:1054D8008DF819208DF8183033F05FF80A2206A9E4
:1054E800204605F014FD002863D1142305F5D76084
:1054F8008DF810308DF8118006F014FC40BAADF824
:105508001200042204A9204605F001FD002850D10C
:1055180011233A8C8DF81430FB8B9B1AFF228DF8DF
:1055280015205BBA042205A92046ADF8163005F00F
:10553800EEFC00283DD1BDF81610B4F81E8049BA1B
:10554800414489B2204605F0D2FB90BBBDF8163025
:10555800398C00945BBA9BB24246384605F02BFD65
:1055680005F63C020DF1240C05F64C0513461068AF
:105578005168674603C70832AA42BC46F7D10DAF47
:10558800186859683A4603C20833AB421746F7D140
:10559800BDF80A305BBAADF842304FF2BF03ADF840
:1055A80046300023009309AA2146304616F09EFA99
:1055B80010B1204605F097FB15B0BDE8F08300BF99
:1055C800DB3D0400DD3D0400FFF736BF2DE9F04F59
:1055D800ADF5017D91460E46804601F0CAF80546B4
:1055E80013A8FFF76AFE0E213EA818F076F91EA848
:1055F800FFF76BFEB04B2EA91B88ADF8B83005F14C
:10560800A40015F02CFF0746002800F04E81022266
:10561800002116F097FCA949384616F048FD38468F
:1056280016F0F8FD97F83230042262F3850387F804
:10563800323005238DF8243005F5397010238DF8A4
:10564800253000F08FFA0DF1260300F1100250F812
:10565800041B43F8041B9042F9D1122209A93846C9
:1056680005F055FC0446002840F0218107238DF8F9
:105678000C30D5F83C38CDF80E304FF0080AD5F884
:1056880040388DF80DA00A2203A93846CDF812300B
:1056980005F03DFC0446002840F0098102238DF8FE
:1056A8001830D5F8A033CDF81A300A22D5F8A4332B
:1056B8008DF819A006A93846CDF81E3005F027FC4C
:1056C8000446002840F0F38005F56A7B0323102187
:1056D80058468DF838308DF8391032F081FE594629
:1056E800044602460DF13A0032F057FFE2B28DF857
:1056F80039200EA90232384605F009FC0446002874
:1057080040F0D5803EA905F50B7018F0DEFC0E219F
:105718003EA818F00EF90146002800F09C80427857
:105728000232384605F0F3FB0446002840F0BF80FB
:1057380035213EA818F0FDF80146002800F09B80AE
:1057480042780232384605F0E2FB0446002840F071
:10575800AE8004213EA818F0ECF80146002800F0BD
:10576800928042780232384605F0D1FB0446002880
:1057780040F09D800C213EA818F0DBF80146002877
:1057880000F08A8042780232384605F0C0FB0446B1
:10579800002840F08C8004238DF80530D5F8F432C9
:1057A80006221BBA01A938468DF80420CDF8063028
:1057B80005F0ADFB0446002879D10FCE13AD0FC517
:1057C8000FCE0FC596E807004FF2BF0385E8070024
:1057D800ADF86E3027F0C9FF064632362EA8FFF71F
:1057E8006CFD399613AE0FCE0DF1B80CACE80F0076
:1057F8000FCEACE80F0095E807002EAD8CE8070047
:10580800102209F102013AA832F0C7FE0FCD1EAEF0
:105818000FC60FCD0FC60FCD0FC695E80F0086E84F
:105828000F0040221EA9384605F071FB70B901220D
:10583800394608F1580005F052FDD8F8543008F1FF
:105848004C00984202D13221FCF759FF20460DF551
:10585800017DBDE8F08F0E23062221460DF1BA0026
:105868008DF8B8308DF8B9A032F0C0FEADF8C04060
:105878000A222EA955E735238DF8B8308DF8B900DE
:1058880002222EA95EE704238DF8B83010238DF884
:10589800B93012222EA966E70C238DF8B8300323FD
:1058A8008DF8B93005222EA96EE70324CEE73846D5
:1058B80005F019FACAE700BFDB3D0400E23D040029
:1058C8002DE9F04198B000230D468DF808300746C1
:1058D80003230DA88DF80930FFF7EFFC05F1350318
:1058E80023F001031A7802F03002102A7AD15B788B
:1058F800022B77D104AB04221221284613F07EF93B
:1059080000286FD19DF81130022B6BD105AB0A220C
:105918001321284613F072F9002863D19DF8153039
:10592800082B5FD111210DF10E0303AA284613F0AD
:1059380085F90146002855D107F1040802AA404616
:1059480013F0ACFC064600284CD0BDF80E30BDF86C
:105958000C10D3B1102B28BF10231C46224608ABCD
:10596800284605F033FA224608A9304605F0CFFA52
:1059780000283AD1BDF80C302344ADF80C30BDF8FE
:105988000E301C1BADF80E40DFE71A46009628467D
:1059980005F011FB48F2FE0308220DF1160113A8C9
:1059A800ADF8443032F0F9FDBDF8123038465BBA34
:1059B800ADF8563000F0DDFE0DAA90F90C308DF8E8
:1059C80058303146404613F0B5FC70B908AB122286
:1059D8001521284613F012F920B908AA0DA938464E
:1059E800FFF7F4FD18B0BDE8F081304605F07BF90B
:1059F800F8E7FFF765BF0000F7B504460E461746FF
:105A080000F0B7FE00F1A40522460A49284615F021
:105A1800C0FD0094074B3A463146284616F066F812
:105A280028B994F8663043F0020384F8663003B06E
:105A3800F0BD00BFFD5A00002DE9F0439DB00546BA
:105A480000F097FE05F1580807460CA8FFF73DFC43
:105A5800404605F0A9FB044627F087FE814601A8C9
:105A6800FFF72BFC1CB36B6D05F14C069E421ED153
:105A7800E18B40390CAB402289B2204605F0A6F9EB
:105A880095F866309B070AD41799A9EB0103002BF8
:105A980010DAA1EB09013046FCF731FE07E01022CD
:105AA80018A907F55D7032F0CAFB0028ECD01DB0CC
:105AB800BDE8F0832146404605F056FCE18B4039AD
:105AC80089B2204605F013F918A907F5397000F0D6
